:020000040800F2
:10000000481B002031020008872100087F210008DA
:100010008321000815080008B5250008000000002D
:100020000000000000000000000000008B2100081C
:100030005309000800000000892100088D210008F4
:100040005502000855020008550200085502000834
:100050005502000855020008550200085502000824
:100060005502000855020008550200085502000814
:100070005502000855020008550200085502000804
:1000800055020008550200085502000855020008F4
:1000900055020008550200085502000855020008E4
:1000A00055020008550200085502000855020008D4
:1000B00055020008550200085502000855020008C4
:1000C00055020008550200085502000855020008B4
:1000D00055020008A5250008550200085502000831
:1000E0005502000855020008550200085502000894
:1000F0005502000855020008550200085502000884
:100100005502000855020008550200085502000873
:100110005502000855020008550200085502000863
:100120005502000855020008550200085502000853
:100130001908000855020008550200085502000879
:100140005502000855020008550200085502000833
:100150005502000855020008550200085502000823
:100160005502000855020008550200085502000813
:100170005502000855020008550200080000000062
:10018000550200085502000800F002F800F041F89E
:100190000AA090E8000C82448344AAF10107DA45E2
:1001A00001D100F036F8AFF2090EBAE80F0013F0F3
:1001B000010F18BFFB1A43F001031847F493000026
:1001C00014940000103A24BF78C878C1FAD85207B6
:1001D00024BF30C830C144BF04680C6070470000C1
:1001E0000023002400250026103A28BF78C1FBD840
:1001F000520728BF30C148BF0B607047782900F014
:10020000F580002070471FB506F0E3F91FBD10B55B
:1002100010BD00F0C9F91146FFF7F5FF05F066FEC5
:1002200000F0E7F903B4FFF7F2FF03BC02F0E0F9D6
:100230000C48016841F4700101600B4880470B488D
:100240000047FEE7FEE7FEE7FEE7FEE7FEE7FEE724
:10025000FEE7FEE7FEE7000005480649044A064BB4
:100260007047000088ED00E0952100088901000832
:1002700048170020481B002048170020704753EA09
:10028000020C00F069802DE9F04B4FF00006002BC6
:100290001FBFB3FA83F503FA05F424FA05F65E40AE
:1002A00012BF1643B2FA82F502FA05F4C5F1200531
:1002B0001EBF22FA05FC44EA0C04203556EA044C21
:1002C0004FEA144418BF641C4FF000084FF00009B7
:1002D000904271EB030C39D3002919BFB1FA81F7B1
:1002E00001FA07F6B0FA80F700FA07F6C7F120071F
:1002F0001EBF20FA07FC46EA0C062037B6FBF4FCCA
:10030000A7EB0507103F07F01F0BCBF120060CFAF7
:100310000BFB2CFA06F644BFB3460026202FA4BFE1
:100320005E464FF0000B5BEA060C08BF4FF0010B76
:1003300019EB0B09ABFB027C48EB0608C01B06FB64
:1003400002CC0BFB03CC71EB0C01C1E70B46024660
:1003500041464846BDE8F08B13B54FF000004FF022
:100360000001AFF30080BDE81C4070470FB40449A2
:1003700010B503AA029800F0E9F810BC5DF814FB70
:10038000080000202DE9F0410E46044600202062BE
:100390002046E168884730B3252805D0D4E90121FB
:1003A0009047206A401CF2E7E16820460027884712
:1003B000050018D0A5F14100192802D820354FF4C6
:1003C00000673246294620462760FFF717FF40B1F5
:1003D000012804D0F61D26F007060836D8E7361D9A
:1003E000D6E72846DAE7206ABDE8F08170B5044612
:1003F0000D4621461068AFF300802188090502D51B
:100400000F4A7A4402E00E4A7A440E32002104F187
:10041000240305E000F00F060009965D5E54491CB8
:100420000028F7D120780023000704D5702D02D0D2
:1004300009B1022311322046BDE8704000F02DB80A
:10044000809100004FF0000200B513469446964696
:10045000203922BFA0E80C50A0E80C50B1F12001D7
:10046000BFF4F7AF090728BFA0E80C5048BF0CC085
:100470005DF804EB890028BF40F8042B08BF7047E3
:1004800048BF20F8022B11F0804F18BF00F8012B55
:10049000704770477047704770472DE9F0470D4629
:1004A00099469246044600F124080168880604D55E
:1004B000E06921F01001216000E00120A84201DD87
:1004C000471B00E00027A1697A1902EB0900081A0E
:1004D000A0612078C00602D42046AFF30080002639
:1004E00008E0D4E901211AF806009047206A401C70
:1004F000761C20624E45F4DB2078C0060AD52046E3
:10050000AFF3008006E0D4E9012130209047206A53
:10051000401C2062381EA7F10107F4DC07E0D4E993
:10052000012118F805009047206A401C2062281E0F
:10053000A5F10105F3DC2046AFF30080207800062A
:1005400002D50220BDE8F0870120FBE7074B70B51C
:100550000D467B4400F011F80446284600F020F8D0
:1005600010B14FF0FF3070BD204670BD93220000E7
:1005700001694A1C02610878704700B58FB0CDE967
:1005800001310021059105497944CDE90310114657
:100590006846FFF7F7FE0FB000BD0000E5FFFFFF64
:1005A000007B00F080007047754600F02BF8AE46E7
:1005B00005006946534620F00700854618B020B56F
:1005C000FFF74AFEBDE820404FF000064FF000075D
:1005D0004FF000084FF0000B21F00701AC46ACE8EB
:1005E000C009ACE8C009ACE8C009ACE8C0098D4658
:1005F000704710B50446AFF300802046BDE81040B8
:10060000FFF710BE00487047E416002070B505469D
:10061000AC6B206C00F0500050BB206C40F40070BC
:1006200020642068806800F04050E8B9207ED8B986
:100630002068C06A00F4700020B12068806800F46F
:10064000806088B92068406820F0200021684860F8
:10065000206C20F480702064206C00F4805018B965
:10066000206C40F001002064204600F0ADFA0BE061
:10067000206C00F0100018B1204600F0A7FA03E04B
:10068000A06BC16C2846884770BD70B50546AC6B41
:1006900040202064606C40F004006064204600F05C
:1006A00095FA70BD70B50446A56B284600F08DFA2A
:1006B00070BD000055494A6822F440324A604A68D9
:1006C00043681A434A600268526822F480720368E1
:1006D0005A6002685368026943EA022203685A605A
:1006E0000268526822F0407203685A6002685268D9
:1006F00083681A4303685A600268926822F40062B1
:1007000003689A6002689268C3681A4303689A6033
:100710003F4B826A9A4218D00268926822F0706257
:1007200003689A6002689268836A1A4303689A6051
:100730000268926822F0405203689A6002689268E8
:10074000C36A1A4303689A600BE00268926822F059
:10075000706203689A600268926822F040520368EF
:100760009A600268926822F0020203689A60026846
:100770009368027E43EA420203689A602022125C78
:10078000A2B10268526842F4006203685A600268CB
:10079000526822F4604203685A6002685368426AF1
:1007A000521E43EA423203685A6005E0026852680A
:1007B00022F4006203685A600268D26A22F470026E
:1007C0000368DA620268D36A828B521E43EA0252DD
:1007D0000368DA620268926822F4007203689A6021
:1007E0000268936890F8302043EA422203689A60D6
:1007F0000268926822F4806203689A6002689368D3
:10080000426943EA822203689A60704700230140EC
:100810000100000F00BFFEE70948006800F020005B
:1008200060B101200749087000BF05480830006822
:1008300040F0200002490831086000BF7047000006
:100840000464024024000020014608781038182370
:10085000B0FBF3F20848805CC865032A05D9086834
:100860006FF30900001D886503E008686FF3090055
:100870008865886D70470000FE650008014600200D
:100880008A6A8B69CBB932B1012A0DD0022A03D012
:10089000032A10D10EE000BFCB6A03F08073B3F1DE
:1008A000807F00D1012007E0CB6AB3F1C07F00D187
:1008B000012001E000E000BF34E08B69B3F5005F88
:1008C0001AD132B1012A07D0022A03D0032A11D14A
:1008D0000AE000BF01200EE0CB6A03F08073B3F1A1
:1008E000807F00D1012006E0CB6AB3F1C07F00D148
:1008F000012000E000BF15E032B1012A05D0022A34
:1009000004D0032A0CD103E000BF00BF012008E09F
:10091000CB6A03F08073B3F1807F00D1012000E047
:1009200000BF00BF704730B50468246824F48024F9
:1009300005682C60046863608468402C04D10468F6
:10094000A2600468E16003E00468A1600468E260FA
:1009500030BD704770B504461D460023B5F5804F85
:1009600013D154F822300C480340D1E9000640EA84
:1009700006108E6840EA06208E8940EA06408E699D
:100980003043034344F8223003E06FF0704044F8F2
:100990002200002070BD00000000F0CF10B503461B
:1009A0000022086853F8202012480240D1E90104CF
:1009B0002043CC6820430C6920434C6920438C6958
:1009C0002043CC6920430C6A20434C6A20438C6A44
:1009D0002043CC6A2043CC6B20430C6B2043024362
:1009E0008868082801D142F04002086843F82020B6
:1009F000002010BD8000F0FF30B503460024501CDD
:100A000053F8204004F04044D1E9000540EA0510C5
:100A10008D6840EA05208D8940EA0545088A401E18
:100A200045EA0055087D801E45EA00608D6928432F
:100A30000443501C43F82040002030BD38B5024626
:100A40000020009000BF92F83C00012801D1022054
:100A500038BD012082F83C0000BF0868092816D97B
:100A60001068C0680C780A3C04EB44050724AC40CD
:100A7000A0431468E0600C780A3C04EB44048868E6
:100A8000A0401468E46820431468E06013E0106834
:100A900000690C7804EB44050724AC40A0431468BB
:100AA00020610C7804EB44048868A0401468246931
:100AB0002043146820614868072817D21068406BEB
:100AC0000C79641E04EB84051F24AC40A043146819
:100AD0006063088880B20C79641E04EB8404A04033
:100AE0001468646B20431468606331E048680D2823
:100AF00017D21068006B0C79E41F04EB84051F24E7
:100B0000AC40A04314682063088880B20C79E41FCD
:100B100004EB8404A0401468246B20431468206311
:100B200016E01068C06A0C790D3C04EB84051F24A4
:100B3000AC40A0431468E062088880B20C790D3C98
:100B400004EB8404A0401468E46A20431468E06263
:100B5000194B1A4C1068A04206D10868122803D11C
:100B6000586840F480005860144C1068A0421CD1B2
:100B70000868102802D00868112816D1586840F477
:100B800000005860086810280FD10D4800680D4C0F
:100B9000B0FBF4F000EB80004000009002E0009811
:100BA000401E009000980028F9D100BF002082F874
:100BB0003C0000BF00BF4BE7002301400020014084
:100BC0000000002040420F0070477047704700004F
:100BD00070B5044600250CB9012070BD1549A06A06
:100BE000884200D000BF206C30B9204600F024F8C5
:100BF0000020606484F83C00206C00F0100088B98C
:100C0000206C20F4885040F0020020642046FFF75A
:100C100051FD00206064206C20F0020040F00100D3
:100C2000206400E0012500BF002084F83C0000BFE4
:100C30002846D2E70100000F10B586B004461B49D4
:100C40002068884230D100BF00BF002000901848C3
:100C5000006840F48070164908600846006800F497
:100C60008070009000BF00BF00BF00BF00BF002029
:100C700000900F481438006840F001000C49143906
:100C800008600846006800F00100009000BF00BF47
:100C900000BF20200190032002900020039001A9B2
:100CA000044800F03FFA00BF06B010BD002001402C
:100CB0004438024000000240F8B504460D4616468E
:100CC0000020009000BF94F83C00012801D10220D0
:100CD000F8BD012084F83C0000BF2068806800F067
:100CE0000100A0B92068806840F001002168886098
:100CF000554800685549B0FBF1F000EB400000900A
:100D000002E00098401E009000980028F9D1206869
:100D1000806800F48070B0F5807F05D1206880681D
:100D200020F48070216888602068806800F00100ED
:100D300000287ED0206C40F20161884340F480702E
:100D400020642068406800F4806028B1206C20F4A2
:100D5000005040F480502064206C00F48050B0F5C6
:100D6000805F04D1606C20F00600606401E0002028
:100D7000606400BF002084F83C0000BF344F354859
:100D8000A16BC8633448A16B08643448A16BC86484
:100D90006FF02200216808602068406840F08060A1
:100DA000216848602068806840F48070216888600D
:100DB000226802F14C0133462A46A06B00F069F923
:100DC000786800F01F0018BB25492068884213D0BE
:100DD00024492068884204D1381D006800F01F00B3
:100DE00050B12149206888422BD11948001D006864
:100DF00000F01F00102824D22068806800F04050C6
:100E0000F8B92068806840F080402168886018E068
:100E100013492068884214D12068806800F040504F
:100E200078B92068806840F080402168886008E0D8
:100E3000FFE7206C40F010002064606C40F001007F
:100E40006064002044E700000000002040420F00E2
:100E5000002301400D060008A50600088B060008C7
:100E600000200140002101400022014070B50446ED
:100E7000A56D00F06FFA064694F83500022808D0F8
:100E80008020606500BF002084F8340000BF01208E
:100E900070BD2068006820F0160021680860206896
:100EA000406920F0800021684861206C08B9A06C7E
:100EB00028B12068006820F00800216808602068D8
:100EC000006820F00100216808600FE000F042FA9D
:100ED000801B05280AD92020606500BF002084F807
:100EE000340000BF032084F83500D1E72068006893
:100EF00000F001000028E9D194F85C103F20884000
:100F0000A86000BF002084F8340000BF012084F8EE
:100F100035000020BCE7014691F83500022803D0D7
:100F20008020486501207047052081F83500086859
:100F3000006820F001000A6810600020F3E700005C
:100F40002DE9F0410446002500F004FA074614B9E3
:100F50000120BDE8F081606A00B100BF00BF002041
:100F600084F8340000BF022084F83500206800684F
:100F700020F00100216808600AE000F0EBF9C01BD6
:100F8000052805D920206065032084F83500E0E7B6
:100F90002068006800F001000028EED12068056894
:100FA00021480540D4E901010843E168084321696B
:100FB000084361690843A1690843E1690843216A5C
:100FC00008430543606A042803D1D4E90B010843B0
:100FD0000543206805602068456925F00705606ABB
:100FE0000543606A04280DD1A06A0543E06A48B150
:100FF0002046FFF743FC28B140206065012084F8BB
:101000003500A6E7206845612046FFF71DFC06462F
:1010100094F85C103F208840B0600020606501209B
:1010200084F83500002094E73F8010F02DE9F0416E
:1010300004460D4616461F464FF0000800BF94F8C0
:101040003400012802D10220BDE8F081012084F89B
:10105000340000BF94F83500012811D1022084F833
:101060003500002060653B46324629462046FFF7A2
:101070005AFC2068006840F001002168086006E022
:1010800000BF002084F8340000BF4FF00208404643
:10109000DAE72DE9F04704460D4616461F464FF0A5
:1010A0000008D4F8589000BF94F83400012802D109
:1010B0000220BDE8F087012084F8340000BF94F8D6
:1010C0003500012825D1022084F835000020606514
:1010D0003B46324629462046FFF725FC94F85C1033
:1010E0003F208840C9F808002068006840F01600DA
:1010F00021680860206C28B12068006840F0080072
:10110000216808602068006840F0010021680860DC
:1011100006E000BF002084F8340000BF4FF0020852
:101120004046C6E7F8B502460B46002500240020DD
:101130000021DEE0012606FA01F51E6806EA050434
:10114000AC4275D11E7906F00306012E04D01E793B
:1011500006F00306022E13D190684F000326BE400E
:10116000B0434F00DE68BE403043906050680126B7
:101170008E40B0431E79C6F300168E403043506057
:101180001E7906F00306032E09D0D0684F0003260F
:10119000BE40B0434F009E68BE403043D0601E79D1
:1011A00006F00306022E13D1CF0802F1200656F8EE
:1011B00027004E07F70E0F26BE40B0434F07FF0E25
:1011C0001E69BE403043CF0802F1200646F82700D2
:1011D00010684F000326BE40B0431E7906F0030698
:1011E0004F00BE40304310605E6806F08056B6F196
:1011F000805F7DD100BF00260096404E366846F4E1
:1012000080463E4F3E603E46366806F48046009675
:1012100000BF00BF3A4E8F0856F827008E07370FE1
:101220000F26BE40B043374EB24202D1002624E022
:101230005EE0354EB24201D101261EE0334EB2428D
:1012400001D1022619E0324EB24201D1032614E048
:10125000304EB24201D104260FE02F4EB24201D1EE
:1012600005260AE02D4EB24201D1062605E02C4E9D
:10127000B24201D1072600E008268F073F0FBE408B
:1012800030431F4E8F0846F82700264E3068A04393
:101290005E6806F48036B6F5803F00D12043214ECB
:1012A0003060361D3068A0435E6806F40036B6F53F
:1012B000003F00D120431B4E361D3060361D306884
:1012C000A0435E6806F48016B6F5801F00D1204367
:1012D000144E08363060361D3068A0435E6806F450
:1012E0000016B6F5001F00D120430E4E0C363060BC
:1012F000491C1029FFF41EAFF8BD0000443802401D
:10130000083801400000024000040240000802408A
:10131000000C02400010024000140240001802407D
:10132000001C0240003C014010B5426921EA020362
:1013300002EA010443EA0443836110BD0AB18161FA
:1013400001E00B048361704701480068000C70479E
:10135000002004E0014800687047000010000020F1
:101360000348006803490978084401490860704748
:10137000100000201800002010B50A48006840F452
:101380000070084908600846006840F48060086002
:10139000052000F07FF80F2000F006F800F02AF892
:1013A000002010BD003C024070B504460E48007895
:1013B0004FF47A71B1FBF0F00C490968B1FBF0F51C
:1013C000284600F087FC08B1012070BD102C07D220
:1013D00000222146501E00F01EF80548046001E07E
:1013E0000120F2E70020F0E71800002000000020B4
:1013F00014000020704701460846002809DB00F071
:101400001F0301229A4043099B0003F1E023C3F824
:10141000002100BF70472DE9F05F80460D4616465B
:10142000002701F0C9F8074639462A46334601F03D
:101430000700C0F1070ABAF1040F02D94FF0040AFD
:1014400001E0C0F1070AD14600F1040ABAF1070F22
:1014500002D24FF0000A01E0A0F1030AD4464FF097
:10146000010A0AFA09FAAAF1010A0AEA020A0AFAC0
:101470000CFA4FF0010B0BFA0CFBABF1010B0BEA72
:10148000030B4AEA0B042146404601F09DF8BDE8F3
:10149000F09F000000BF00F00702064B19684FF6EE
:1014A000FF031940044B0B4343EA0221014B19602F
:1014B00000BF70470CED00E00000FA0570B504466F
:1014C0000D460CB9012070BD5848006800F00700B7
:1014D000A84209D255490D700846006800F007007F
:1014E000A84201D00120EEE7207800F00200022897
:1014F0001DD1207800F00400042805D14C48006874
:1015000040F4E0504A490860207800F008000828BC
:1015100005D14748006840F46040454908604448A8
:10152000006820F0F000A168084341490860207875
:1015300000F00100A8B36068012807D13C480838D2
:101540000068C0F34040B8B90120BCE760680228D9
:1015500002D06068032807D1354808380068C0F316
:10156000406048B90120AEE7314808380068C0F350
:10157000400008B90120A6E72D48006820F00300CC
:10158000616808432A490860FFF7E4FE064609E05F
:10159000FFF7E0FE801B41F28831884202D9032028
:1015A00091E707E02248006800F00C006168B0EBAA
:1015B000810FEDD11D48006800F00700A84209D94D
:1015C0001A490D700846006800F00700A84201D0D3
:1015D000012078E7207800F00400042807D114489F
:1015E000006820F4E050E168084311490860207861
:1015F00000F00800082808D10D48006820F4604079
:10160000216940EAC1000A49086000F03FF8084932
:101610000968C1F30311074A515CC84006490860D4
:1016200006480068FFF7C0FE00204CE7003C02407F
:1016300008380240E6650008000000201400002081
:1016400001480068704700000000002000B5FFF767
:10165000F7FF04490968C1F38221034A515CC8407D
:1016600000BD000008380240F665000800B5FFF72D
:10167000E7FF04490968C1F34231034A515CC8409D
:1016800000BD000008380240F66500082DE9F0476B
:10169000002400250026A1462548006800F00C0023
:1016A00020B1042805D008283AD105E0DFF884905D
:1016B00039E0DFF8849036E01D48001F006800F034
:1016C0003F041B48001F006800F4800078B11A48EE
:1016D0001749091F0968C1F38811A0FB0170014671
:1016E000224600233846FEF7CAFD05460EE01148A3
:1016F0000F49091F0968C1F38811A0FB0170014659
:10170000224600233846FEF7BAFD05460848001F6A
:101710000068C0F30140401C4600B5FBF6F902E04A
:10172000DFF8109000BF00BF4846BDE8F08700001A
:10173000083802400024F40000127A00F8B504468C
:101740000CB90120F8BD207800F00100002874D009
:10175000F948006800F00C0004280DD0F648006835
:1017600000F00C00082813D1F348001F006800F4B3
:101770008000B0F5800F0BD1EF4808380068C0F347
:101780004040002859D06068002856D10120D9E790
:1017900000BF6068B0F5803F08D1E74808380068AE
:1017A00040F48030E449083908601EE06068B0F514
:1017B000A02F0DD1E0480838006840F48020DE49B1
:1017C000083908600846006840F4803008600CE082
:1017D000D9480838006820F48030D74908390860B3
:1017E0000846006820F48020086000BF606890B15F
:1017F000FFF7B0FD054606E0FFF7ACFD401B64288F
:1018000001D903209EE7CC4808380068C0F3404067
:101810000028F1D011E0FFF79DFD054606E0FFF737
:1018200099FD401B642801D903208BE7C248083882
:101830000068C0F340400028F1D1207800F0020099
:1018400002285FD1BC48006800F00C0058B1BA48CB
:10185000006800F00C0008281CD1B748001F006881
:1018600000F48000B0B9B44808380068C0F3400004
:1018700020B1E068012801D0012063E7AE480838B4
:10188000006820F0F800216940EAC100AA4908393F
:10189000086037E0E06800B30120A8490860FFF75E
:1018A00059FD054606E0FFF755FD401B022801D90A
:1018B000032047E7A04808380068C0F3400000282C
:1018C000F1D09D480838006820F0F800216940EA0E
:1018D000C10099490839086014E000209749086060
:1018E000FFF738FD054606E0FFF734FD401B0228F0
:1018F00001D9032026E7904808380068C0F340006B
:101900000028F1D1207800F0080008282CD1606967
:10191000A8B101208A490860FFF71CFD054606E0D2
:10192000FFF718FD401B022801D903200AE782486F
:101930006C300068C0F340000028F1D014E00020B3
:101940007F490860FFF706FD054606E0FFF702FD48
:10195000401B022801D90320F4E677486C30006868
:10196000C0F340000028F1D1207800F004000428E2
:1019700070D1002770483830006800F0805090B96E
:1019800000BF002000906C483830006840F0805064
:101990006949383108600846006800F080500090BE
:1019A00000BF00BF01276748006800F48070B0B92D
:1019B0006448006840F4807062490860FFF7CAFC20
:1019C000054606E0FFF7C6FC401B022801D90320AC
:1019D000B8E65C48006800F480700028F2D000BFD0
:1019E000A068012808D154486830006840F0010020
:1019F0005149683108601DE0A06805280DD14E48A6
:101A00006830006840F004004B49683108600846BF
:101A1000006840F0010008600CE04748683000684A
:101A200020F001004449683108600846006820F051
:101A30000400086000BFA068A8B1FFF78BFC054652
:101A400009E0FFF787FC401B41F28831884202D948
:101A5000032077E626E0384868300068C0F340008D
:101A60000028EED013E0FFF775FC054608E0FFF70D
:101A700071FC401B41F28831884201D9032061E6A4
:101A80002D4868300068C0F340000028EFD1012FD6
:101A900007D129483830006820F080502649383175
:101AA000086000BFA069002845D02348006800F006
:101AB0000C0008285DD0A069022845D100201F49EC
:101AC0000866FFF747FC054606E0FFF743FC401BAE
:101AD000022801D9032035E6174808380068C0F30A
:101AE00040600028F1D1D4E907010843616A40EA67
:101AF00081110122A06AC2EB500041EA00412C2072
:101B0000005D41EA00600C49091F086001200B4993
:101B10000866FFF71FFC054606E0FFF71BFC401BAD
:101B2000022801D903200DE6034808380068C0F3F5
:101B300040600028F1D049E00838024000004742E8
:101B4000800E474200700040002021490866FFF7E0
:101B500001FC054606E0FFF7FDFB401B022801D90A
:101B60000320EFE51B480068C0F340600028F2D175
:101B70002CE0A069012800D1E4E51648001D0668A4
:101B8000A069012820D006F48001E06981421BD1C0
:101B900006F03F01206A814216D147F6C0703040FE
:101BA000616AB0EB811F0FD106F440310122A06AB7
:101BB000C2EB5000B1EB004F06D106F070612C2053
:101BC000005DB1EB006F01D00120BBE50020B9E55D
:101BD000000047420038024070B504460E461546E4
:101BE0000CB9012070BD94F8490028B9002084F890
:101BF0004800204600F01CF804F108012068FEF7B8
:101C0000CDFE3146A2682068FEF7F6FE2946236B1A
:101C1000D4E90102FEF79EFEA168206850F8210079
:101C200040F00100A268216841F822000020D9E7B5
:101C300010B586B0044600BF00200090224800681E
:101C400040F00100204908600846006800F00100EB
:101C5000009000BF00BF00BF002000901A48083865
:101C6000006840F008001849083908600846006814
:101C700000F00800009000BF00BF00BF00200090EF
:101C80000846006840F0100008600846006800F050
:101C90001000009000BF00BF4CF2037001900220C2
:101CA000029001200390022004900C20059001A9CD
:101CB0000648FFF737FA4FF68070019001A90448F3
:101CC000FFF730FA06B010BD38380240000C024071
:101CD0000010024070B504462546681EB0F1807FB2
:101CE00001D301200FE0681E4FF0E02148610F2171
:101CF0004FF0FF3000F068FC00204FF0E0218861D9
:101D000007200861002070BD704770472DE9F84F2B
:101D10000446206805682068C668206847694FF057
:101D20000009CA4605F00F09B9F1000F0AD105F004
:101D3000200038B106F0200020B1204600F069FAFA
:101D4000BDE8F88FB9F1000F72D007F0010018B9A3
:101D500006F4907000286BD005F0010030B106F455
:101D6000807018B1206C40F00100206405F0040080
:101D700030B107F0010018B1206C40F0020020647F
:101D800005F0020030B107F0010018B1206C40F0FE
:101D90000400206405F0080048B106F0200010B9E6
:101DA00007F0010018B1206C40F008002064206C9E
:101DB00070B305F0200028B106F0200010B12046D5
:101DC00000F027FA20684069C0F3801A206C00F008
:101DD000080010B9BAF1000F23D0204600F0EEF948
:101DE0002068406900F04000402816D12068406912
:101DF00020F0400021684861A06B50B15648A16BAB
:101E00000865A06BFFF787F810B1A06B016D8847DC
:101E10000CE02046FFF779FF08E02046FFF775FF4A
:101E200004E02046FFF771FF0020206488E7FFE709
:101E3000206B012879D105F01000002875D006F03C
:101E40001000002871D000BF0020009020680068BA
:101E5000009020684068009000BF00BF2068406983
:101E600000F04000402839D1A06B006840681FFA9C
:101E700080F8B8F1000F30D0A08D40452DDDA4F8DA
:101E80002E80A06BC069B0F5807F1FD02068C0682D
:101E900020F480702168C8602068406920F001004B
:101EA000216848612068406920F04000216848614D
:101EB000202084F83E00002020632068C06820F0C5
:101EC00010002168C860A06BFEF7D0FFA08DE28DE6
:101ED000801A81B22046FFF717FF31E7A08DE18D10
:101EE000401A1FFA80F8E08DE8B1B8F1000F1AD05F
:101EF0002068C06820F490702168C860206840693C
:101F000020F0010021684861202084F83E00002074
:101F100020632068C06820F010002168C860414636
:101F20002046FFF7F1FE0BE7FFE705F0800030B138
:101F300006F0800018B1204600F003FB00E705F032
:101F4000400030B106F0400018B1204600F051F9D1
:101F5000F6E600BFF4E60000A921000810B504462B
:101F60000CB9012010BDA06900B100E000BF94F8D9
:101F70003D0028B9002084F83C00204600F028F8F5
:101F8000242084F83D002068C06820F400502168B7
:101F9000C860204600F09CF92068006920F4904059
:101FA000216808612068406920F02A0021684861A2
:101FB0002068C06840F400502168C8600020206498
:101FC000202084F83D0084F83E000020CAE700008D
:101FD00010B586B004462E492068884255D100BF0E
:101FE00000BF002000902B48006840F010002949F5
:101FF00008600846006800F01000009000BF00BFB5
:1020000000BF00BF00BF00200090224814380068C5
:1020100040F001001F49143908600846006800F0CC
:102020000100009000BF00BF00BF00BF00BF002044
:1020300000900846006840F001000860084600680B
:1020400000F00100009000BF00BF00BF48150190E4
:1020500002200290012003900220049007200590A6
:1020600001A90D48FFF75EF84FF48060019007204A
:10207000059001A90848FFF755F82520FFF7BBF99F
:10208000032211462520FFF7C6F906B010BD000057
:1020900000100140443802400000024070B5044680
:1020A0000D46164694F83E00202816D105B10EB90B
:1020B000012070BD00BF94F83C00012801D102202E
:1020C000F7E7012084F83C0000BF0020206332467F
:1020D0002946204600F012FAEBE70220E9E700006B
:1020E00010B504462049206888423BD11F4800882B
:1020F00000F4004088BB1D48008800F4804070B1A7
:102100001B4800780A2803D000201849088024E0E2
:102110001648008840F40040144908801DE0144827
:1021200000780D2806D11148008840F480400F49FE
:10213000088012E00E4800780C490988C1F30D01AF
:102140000C4A505409480088401C08490880084639
:102150000088C72801DD00200880012204490648C4
:10216000FFF79CFF10BD0000001001400C00002094
:102170000E00002028140020F0140020704700BF3B
:10218000FEE700BFFEE770477047704710B5FFF7E6
:10219000E7F810BD0348006840F47000014908608A
:1021A0007047000088ED00E070B50546AC6B00207C
:1021B000E085E0842046FFF7A8FD70BD0168C9688E
:1021C00021F490710268D1600168496921F0010130
:1021D00002685161016B012905D10168C96821F0CC
:1021E00010010268D160202180F83E1000210163B7
:1021F000704710B504462068C06820F04000216890
:10220000C860202084F83D002046FFF7B7FF00207B
:1022100010BD70B5044694F83E00222856D1A0683F
:10222000B0F5805F0CD1206950B90025A66A2068FE
:102230004068C0F308003080A06A801CA06215E0EE
:10224000A56A0026A068B0F5805F03D0A06828B911
:10225000206918B920684068287004E02068406848
:1022600000F07F002870A06A401CA062E08D401E34
:1022700080B2E08540BB2068C06820F02000216863
:10228000C8602068C06820F480702168C860206839
:10229000406920F0010021684861202084F83E0058
:1022A000206B01280AD12068C06820F01000216846
:1022B000C860A18D2046FFF727FD02E02046FFF70A
:1022C0000FFF0020206370BD0020FCE70220FAE72A
:1022D0002DE9F84F04462068006920F44050E16879
:1022E0000843216808612169A068084361690843BF
:1022F000E169084300902068C06849F20C61884396
:10230000009908432168C8602068406920F4407043
:10231000A16908432168486176492068884203D052
:1023200075492068884203D1FFF7A0F9814602E091
:10233000FFF78CF98146E069B0F5004F6CD10220BF
:102340006168A0FB015003461920A9FB00700146FB
:102350002A463846FDF793FF6421B0FBF1F04FEABF
:10236000001A02206168A0FB01510B461920A9FB4D
:1023700000712A463846FDF782FF834602206168D5
:10238000A0FB015003461920A9FB00712A463846DC
:10239000FDF775FF6421B0FBF1F000EBC00101EB2C
:1023A0000010ABEB8000322101EBC0006421B0FBD8
:1023B000F1F000F0F8000AEB400A02206168A0FB8F
:1023C000015003461920A9FB007001462A463846F1
:1023D000FDF755FF834602206168A0FB01500346CC
:1023E0001920A9FB00712A463846FDF748FF6421F1
:1023F000B0FBF1F000EBC00101EB0010ABEB800093
:10240000322101EBC0006421B0FBF1F000F00700C5
:102410005044216888606AE004206168A0FB015094
:1024200003461920A9FB007001462A463846FDF7ED
:1024300026FF824604206168A0FB01500346192054
:10244000A9FB007001462A463846FDF718FF6421B3
:10245000B0FBF1F000EBC00101EB0010AAEB800033
:10246000322101EB00106421B0FBF1F000F0F00A22
:1024700004206168A0FB017003461920A9FB0051EC
:102480003A462846FDF7FBFE6421B0FBF1F00AEB6B
:10249000001A04206168A0FB01510B461920A9FB1A
:1024A00000712A463846FDF7EAFE8346042061683B
:1024B000A0FB015003461920A9FB007001462A46E3
:1024C0003846FDF7DCFE6421B0FBF1F000EBC00103
:1024D00001EB0010ABEB8000322101EB0010642116
:1024E000B0FBF1F000F00F00504421688860BDE8B7
:1024F000F88F0000001001400014014010B50346A1
:1025000099629A85DA8500201864222083F83E00BB
:1025100000BF002083F83C0000BF1868C06840F48A
:1025200080701C68E0601868406940F001001C6819
:1025300060611868C06840F020001C68E0600020FE
:1025400010BD014691F83D00212828D18868B0F5DA
:10255000805F0BD1086948B90A6A1088C0F3080087
:102560000B685860086A801C086205E00B6A581CFA
:10257000086218780B685860C88C401E80B2C88406
:1025800058B90868C06820F080000B68D8600868F7
:10259000C06840F040000B68D860002070470220FF
:1025A000FCE7000010B50248FFF7B0FB10BD0000CB
:1025B000F014002000BFFEE702480068C0F30220CC
:1025C000704700000CED00E010B5002804DB0A079E
:1025D000130E054A135406E00A07140E034A00F0CE
:1025E0000F031B1FD45410BD00E400E018ED00E001
:1025F00000BF70472DE9FF4107460C4615461E46B1
:1026000000940195029669463846FEF717FABDE830
:10261000FF81000014490968896821F00101124A0C
:102620001268916011490968096821F001010F4A97
:10263000126811600D49096848600C490968096809
:1026400041F00101094A1268116007490968896867
:1026500041F00101044A126891600549896841F01E
:102660008041034A9160704794150020DC150020DA
:102670000020014001B582B000BF00200190294830
:10268000006840F48000274908600846006800F4AC
:102690008000019000BF00BF23482449086000204B
:1026A0004860002121488160C1604FF48061016170
:1026B00049004161890081610021C1614FF480318D
:1026C0000162FEF73DFC002319491848029AFEF703
:1026D000ADFC16481749886300F02EF815480068CD
:1026E000806840F0020013490968886007230122CE
:1026F00005211048FFF77EFF032211463C20FEF71C
:102700008AFE3C20FEF777FE022202A90948FEF766
:10271000D3FA06480068006840F0100003490968D1
:1027200008600EBD3038024070640240DC150020A5
:102730004C2001409415002010B50E480E49086049
:102740004FF48030486000210B488160C160016116
:1027500001210176C161002180F820104162074902
:1027600081620021C162012180F83010FEF730FA49
:1027700010BD000000200140941500200100000F52
:1027800001490860704700000400002010B50446AD
:102790004FF47A7104FB01F000F002F810BD000064
:1027A00070B5034600224FF0E02675690D4E36687D
:1027B00003FB06F44FF0E026B16910E04FF0E0268D
:1027C000B06988420BD0884202D20E1A324402E02D
:1027D0002E1A0E4432440146A24200D300E0EDE737
:1027E00000BF70BD0400002000BF054A126802F05F
:1027F0004002002AF9D0C2B2014B5A607047000073
:102800000010014070B5044600260948058840883C
:1028100045430021084603F0F9F803F007FB00BF29
:1028200002E004480480761CAE42FAD370BD00007A
:10283000841500208000006C10B50446584884714F
:10284000002C58D1F020564908804FF4A0704880E1
:102850000846808845F21051884210D14FF430501C
:102860004F4908814FF4285048814FF42C508881FB
:102870004FF4F07008804FF4487048801AE04848E0
:10288000808841F6631188420DD12C20444908818B
:102890002B2048812A2088814FF4F07008804FF463
:1028A0004870488006E02C203D4908812A20488154
:1028B0002B2088813A48808845F21031884205D023
:1028C0003748808847F29671884206D14FF4A0704D
:1028D000334908804FF4F07048803148808849F6C9
:1028E0000601884258D14FF4F0702D4908804FF40A
:1028F0004870488050E04FF4A07029490880F020CB
:1029000048800846808845F21051884210D14FF423
:102910003050234908814FF4285048814FF42C50FF
:1029200088814FF4487008804FF4F070488020E0B0
:102930001B48808841F66311884205D0184880887A
:1029400049F6060188420DD12C20154908812A201C
:1029500048812B2088814FF4487008804FF4F07034
:10296000488006E02C200E4908812A2048812B202F
:1029700088810B48808845F21031884205D008488C
:10298000808847F29671884206D14FF4F07004496E
:1029900008804FF4A0704880002002F019FF10BD9D
:1029A0008415002070B505460E461446314628466B
:1029B00003F02CF803F03AFA01490C8070BD0000D6
:1029C0008000006C10B5CF2003F024FA002003F043
:1029D00015FAC12003F012FA302003F00FFAED20AF
:1029E00003F018FA642003F009FA032003F006FA52
:1029F000122003F003FA812003F000FAE82003F02C
:102A000009FA852003F0FAF9102003F0F7F97A208B
:102A100003F0F4F9CB2003F0FDF9392003F0EEF9CF
:102A20002C2003F0EBF9002003F0E8F9342003F048
:102A3000E5F9022003F0E2F9F72003F0EBF920209A
:102A400003F0DCF9EA2003F0E5F9002003F0D6F901
:102A5000002003F0D3F9C02003F0DCF91B2003F0C1
:102A6000CDF9C12003F0D6F9012003F0C7F9C52044
:102A700003F0D0F9302003F0C1F9302003F0BEF9A3
:102A8000C72003F0C7F9B72003F0B8F9362003F0E8
:102A9000C1F9482003F0B2F93A2003F0BBF9552000
:102AA00003F0ACF9B12003F0B5F9002003F0A6F96A
:102AB0001A2003F0A3F9B62003F0ACF90A2003F0C2
:102AC0009DF9A22003F09AF9F22003F0A3F9002067
:102AD00003F094F9262003F09DF9012003F08EF90C
:102AE000E02003F097F90F2003F088F92A2003F083
:102AF00085F9282003F082F9082003F07FF90E20E1
:102B000003F07CF9082003F079F9542003F076F9FA
:102B1000A92003F073F9432003F070F90A2003F0B1
:102B20006DF90F2003F06AF9002003F067F9002027
:102B300003F064F9002003F061F9002003F05EF96E
:102B4000E12003F067F9002003F058F9152003F0A5
:102B500055F9172003F052F9072003F04FF911201F
:102B600003F04CF9062003F049F92B2003F046F955
:102B7000562003F043F93C2003F040F9052003F010
:102B80003DF9102003F03AF90F2003F037F93F2008
:102B900003F034F93F2003F031F90F2003F02EF950
:102BA0002B2003F037F9002003F028F9002003F070
:102BB00025F9012003F022F93F2003F01FF92A2014
:102BC00003F028F9002003F019F9002003F016F9AA
:102BD000002003F013F9EF2003F010F9112003F0A7
:102BE00019F97820FFF7D2FD292003F013F910BD61
:102BF00010B5FF2003F00EF9FF2003F0FFF8982036
:102C000003F0FCF8062003F0F9F8BC2003F002F909
:102C1000012003F0F3F80F2003F0F0F8612003F037
:102C2000EDF8FF2003F0EAF8012003F0E7F80120B7
:102C300003F0E4F80B2003F0E1F8102003F0DEF8D5
:102C4000372003F0DBF8632003F0D8F8FF2003F00F
:102C5000D5F8FF2003F0D2F8012003F0CFF80120CF
:102C600003F0CCF8002003F0C9F8002003F0C6F808
:102C7000FF2003F0C3F8522003F0C0F8012003F056
:102C8000BDF8002003F0BAF8402003F0B7F8BD20EB
:102C900003F0C0F8012003F0B1F8232003F0AEF8F0
:102CA000452003F0ABF8672003F0A8F8012003F0FB
:102CB000A5F8232003F0A2F8452003F09FF8672031
:102CC00003F09CF8BE2003F0A5F8002003F096F86E
:102CD000012003F093F8AB2003F090F8602003F09C
:102CE0008DF8222003F08AF8222003F087F82220B2
:102CF00003F084F8222003F081F8222003F07EF80C
:102D0000C72003F087F8362003F078F8ED2003F0B1
:102D100081F87F2003F072F80F2003F06FF8C020D5
:102D200003F078F80F2003F069F80B2003F066F841
:102D30000A2003F063F8FC2003F06CF8082003F08D
:102D40005DF8DF2003F066F8002003F057F800205C
:102D500003F054F8002003F051F8002003F04EF87F
:102D6000002003F04BF8202003F048F8F32003F094
:102D700051F8742003F042F8B42003F04BF800201F
:102D800003F03CF8002003F039F8002003F036F897
:102D9000F72003F03FF8822003F030F8B12003F071
:102DA00039F8002003F02AF8132003F027F8132045
:102DB00003F024F8F22003F02DF8802003F01EF831
:102DC000042003F01BF8402003F018F8282003F03B
:102DD00015F8C12003F01EF8172003F00FF8882023
:102DE00003F00CF8882003F009F8202003F006F81F
:102DF000E02003F00FF8002003F000F80A2002F0B2
:102E0000FDFF122002F0FAFF102002F0F7FF0E2063
:102E100002F0F4FF202002F0F1FFCC2002F0EEFFE0
:102E2000072002F0EBFF062002F0E8FF0B2002F083
:102E3000E5FF0E2002F0E2FF0F2002F0DFFF0D2081
:102E400002F0DCFF152002F0D9FF102002F0D6FFBF
:102E5000002002F0D3FFE12002F0DCFF002002F0AE
:102E6000CDFF0B2002F0CAFF132002F0C7FF0D2098
:102E700002F0C4FF0E2002F0C1FF1B2002F0BEFFD3
:102E8000712002F0BBFF062002F0B8FF062002F01E
:102E9000B5FF0A2002F0B2FF0F2002F0AFFF0E20B4
:102EA00002F0ACFF0F2002F0A9FF152002F0A6FFF0
:102EB0000C2002F0A3FF002002F0A0FF2A2002F065
:102EC000A9FF002002F09AFF002002F097FF0120E6
:102ED00002F094FFDF2002F091FF2B2002F09AFF16
:102EE000002002F08BFF002002F088FF032002F098
:102EF00085FF1F2002F082FF3A2002F08BFF552051
:102F000002F07CFF362002F085FF002002F076FF01
:102F1000112002F07FFF7820FFF738FC292002F013
:102F200079FF1420FFF732FC2C2002F073FF10BD54
:102F300010B5ED2002F06EFF012002F05FFFFE20D1
:102F400002F05CFFEE2002F065FFDE2002F056FF8B
:102F5000212002F053FFF12002F05CFF012002F07B
:102F60004DFFDF2002F056FF102002F047FFC42083
:102F700002F050FF8F2002F041FFC62002F04AFF0E
:102F8000002002F03BFFE22002F038FFE22002F0D6
:102F900035FFE22002F032FFBF2002F03BFFAA2003
:102FA00002F02CFFB02002F035FF0D2002F026FFCA
:102FB000002002F023FF0D2002F020FF002002F08D
:102FC0001DFF112002F01AFF002002F017FF192048
:102FD00002F014FF002002F011FF212002F00EFF8A
:102FE000002002F00BFF2D2002F008FF002002F06D
:102FF00005FF3D2002F002FF002002F0FFFE5D20F1
:1030000002F0FCFE002002F0F9FE5D2002F0F6FE68
:10301000002002F0F3FEB12002F0FCFE802002F05E
:10302000EDFE002002F0EAFE8B2002F0E7FE002019
:1030300002F0E4FE962002F0E1FE002002F0DEFE47
:10304000B22002F0E7FE002002F0D8FE002002F0DD
:10305000D5FE022002F0D2FE002002F0CFFE0320B7
:1030600002F0CCFE002002F0C9FEB32002F0D2FE36
:10307000002002F0C3FE002002F0C0FE002002F09B
:10308000BDFE002002F0BAFE002002F0B7FE0020D4
:1030900002F0B4FE002002F0B1FE002002F0AEFE0D
:1030A000002002F0ABFE002002F0A8FE002002F09B
:1030B000A5FE002002F0A2FE002002F09FFE0020EC
:1030C00002F09CFE002002F099FE002002F096FE25
:1030D000002002F093FE002002F090FE002002F09B
:1030E0008DFE002002F08AFE002002F087FE002004
:1030F00002F084FE002002F081FE002002F07EFE3D
:10310000B42002F087FE8B2002F078FE002002F04F
:1031100075FE962002F072FE002002F06FFEA120E4
:1031200002F06CFE002002F069FEB52002F072FE93
:10313000022002F063FE002002F060FE032002F095
:103140005DFE002002F05AFE042002F057FE00202F
:1031500002F054FEB62002F05DFE002002F04EFEAA
:10316000002002F04BFEB72002F054FE002002F0D7
:1031700045FE002002F042FE3F2002F03FFE00200C
:1031800002F03CFE5E2002F039FE002002F036FE26
:10319000642002F033FE002002F030FE8C2002F0AA
:1031A0002DFE002002F02AFEAC2002F027FE0020B7
:1031B00002F024FEDC2002F021FE002002F01EFEC0
:1031C000702002F01BFE002002F018FE902002F09A
:1031D00015FE002002F012FEEB2002F00FFE002090
:1031E00002F00CFEDC2002F009FE002002F006FED8
:1031F000B82002F00FFE002002F000FE002002F0D6
:10320000FDFD002002F0FAFD002002F0F7FD002095
:1032100002F0F4FD002002F0F1FD002002F0EEFDCE
:10322000002002F0EBFDBA2002F0F4FD242002F0B1
:10323000E5FD002002F0E2FD002002F0DFFD0020AD
:1032400002F0DCFDC12002F0E5FD202002F0D6FDF9
:10325000002002F0D3FD542002F0D0FD002002F047
:10326000CDFDFF2002F0CAFD002002F0C7FDC22004
:1032700002F0D0FD0A2002F0C1FD002002F0BEFDE8
:10328000042002F0BBFD002002F0B8FDC32002F0D4
:10329000C1FD3C2002F0B2FD002002F0AFFD3A205B
:1032A00002F0ACFD002002F0A9FD392002F0A6FDDD
:1032B000002002F0A3FD372002F0A0FD002002F064
:1032C0009DFD3C2002F09AFD002002F097FD362083
:1032D00002F094FD002002F091FD322002F08EFDFC
:1032E000002002F08BFD2F2002F088FD002002F06C
:1032F00085FD2C2002F082FD002002F07FFD2920B8
:1033000002F07CFD002002F079FD262002F076FD1F
:10331000002002F073FD242002F070FD002002F076
:103320006DFD242002F06AFD002002F067FD2320DD
:1033300002F064FD002002F061FD3C2002F05EFD21
:10334000002002F05BFD362002F058FD002002F064
:1033500055FD322002F052FD002002F04FFD2F20DB
:1033600002F04CFD002002F049FD2C2002F046FD49
:10337000002002F043FD292002F040FD002002F071
:103380003DFD262002F03AFD002002F037FD24200A
:1033900002F034FD002002F031FD242002F02EFD69
:1033A000002002F02BFD232002F028FD002002F077
:1033B00025FDC42002F02EFD622002F01FFD00203A
:1033C00002F01CFD052002F019FD002002F016FDA0
:1033D000842002F013FD002002F010FDF02002F026
:1033E0000DFD002002F00AFD182002F007FD00206C
:1033F00002F004FDA42002F001FD002002F0FEFC1A
:10340000182002F0FBFC002002F0F8FC502002F033
:10341000F5FC002002F0F2FC0C2002F0EFFC002092
:1034200002F0ECFC172002F0E9FC002002F0E6FCC0
:10343000952002F0E3FC002002F0E0FCF32002F013
:10344000DDFC002002F0DAFCE62002F0D7FC0020D0
:1034500002F0D4FCC52002F0DDFC322002F0CEFCEC
:10346000002002F0CBFC442002F0C8FC002002F057
:10347000C5FC652002F0C2FC002002F0BFFC7620F3
:1034800002F0BCFC002002F0B9FC882002F0B6FC7F
:10349000002002F0B3FCC62002F0BCFC202002F0A9
:1034A000ADFC002002F0AAFC172002F0A7FC0020CF
:1034B00002F0A4FC012002F0A1FC002002F09EFC1E
:1034C000C72002F0A7FC002002F098FC002002F0C8
:1034D00095FC002002F092FC002002F08FFCC82036
:1034E00002F098FC002002F089FC002002F086FC2B
:1034F000002002F083FC002002F080FCC92002F0D2
:1035000089FC002002F07AFC002002F077FC002009
:1035100002F074FC002002F071FC002002F06EFC4E
:10352000002002F06BFC002002F068FC002002F09A
:1035300065FC002002F062FC002002F05FFC00202D
:1035400002F05CFC002002F059FC002002F056FC66
:10355000002002F053FC002002F050FC002002F09A
:103560004DFCE02002F056FC162002F047FC002043
:1035700002F044FC1C2002F041FC002002F03EFC62
:10358000212002F03BFC002002F038FC362002F043
:1035900035FC002002F032FC462002F02FFC002017
:1035A00002F02CFC522002F029FC002002F026FC44
:1035B000642002F023FC002002F020FC7A2002F0BC
:1035C0001DFC002002F01AFC8B2002F017FC0020EA
:1035D00002F014FC992002F011FC002002F00EFC15
:1035E000A82002F00BFC002002F008FCB92002F039
:1035F00005FC002002F002FCC42002F0FFFB0020CA
:1036000002F0FCFBCA2002F0F9FB002002F0F6FBFE
:10361000D22002F0F3FB002002F0F0FBD92002F0F0
:10362000EDFB002002F0EAFBE02002F0E7FB0020C7
:1036300002F0E4FBF32002F0E1FB002002F0DEFBED
:10364000E12002F0E7FB162002F0D8FB002002F098
:10365000D5FB1C2002F0D2FB002002F0CFFB222081
:1036600002F0CCFB002002F0C9FB362002F0C6FBC2
:10367000002002F0C3FB452002F0C0FB002002F056
:10368000BDFB522002F0BAFB002002F0B7FB642021
:1036900002F0B4FB002002F0B1FB7A2002F0AEFB96
:1036A000002002F0ABFB8B2002F0A8FB002002F010
:1036B000A5FB992002F0A2FB002002F09FFBA820AE
:1036C00002F09CFB002002F099FBB92002F096FB6F
:1036D000002002F093FBC42002F090FB002002F0D7
:1036E0008DFBCA2002F08AFB002002F087FBD2206B
:1036F00002F084FB002002F081FBD82002F07EFB68
:10370000002002F07BFBE02002F078FB002002F0BA
:1037100075FBF32002F072FB002002F06FFBE22049
:1037200002F078FB052002F069FB002002F066FB46
:103730000B2002F063FB002002F060FB1B2002F074
:103740005DFB002002F05AFB342002F057FB002002
:1037500002F054FB442002F051FB002002F04EFB2B
:103760004F2002F04BFB002002F048FB612002F0EA
:1037700045FB002002F042FB792002F03FFB0020D5
:1037800002F03CFB882002F039FB002002F036FBFF
:10379000972002F033FB002002F030FBA62002F05D
:1037A0002DFB002002F02AFBB72002F027FB0020AF
:1037B00002F024FBC22002F021FB002002F01EFBDD
:1037C000C72002F01BFB002002F018FBD12002F002
:1037D00015FB002002F012FBD62002F00FFB0020A8
:1037E00002F00CFBDD2002F009FB002002F006FBDA
:1037F000F32002F003FB002002F000FBE32002F0C4
:1038000009FB052002F0FAFA002002F0F7FA0A207C
:1038100002F0F4FA002002F0F1FA1C2002F0EEFAB5
:10382000002002F0EBFA332002F0E8FA002002F068
:10383000E5FA442002F0E2FA002002F0DFFA50201C
:1038400002F0DCFA002002F0D9FA622002F0D6FA87
:10385000002002F0D3FA782002F0D0FA002002F023
:10386000CDFA882002F0CAFA002002F0C7FA9720A9
:1038700002F0C4FA002002F0C1FAA62002F0BEFA5B
:10388000002002F0BBFAB72002F0B8FA002002F0E4
:10389000B5FAC22002F0B2FA002002F0AFFAC72057
:1038A00002F0ACFA002002F0A9FAD12002F0A6FA48
:1038B000002002F0A3FAD52002F0A0FA002002F0C6
:1038C0009DFADD2002F09AFA002002F097FAF32028
:1038D00002F094FA002002F091FAE42002F09AFA41
:1038E000012002F08BFA002002F088FA012002F099
:1038F00085FA002002F082FA022002F07FFA00200E
:1039000002F07CFA2A2002F079FA002002F076FA1E
:103910003C2002F073FA002002F070FA4B2002F013
:103920006DFA002002F06AFA5D2002F067FA0020CA
:1039300002F064FA742002F061FA002002F05EFAEC
:10394000842002F05BFA002002F058FA932002F083
:1039500055FA002002F052FAA22002F04FFA00209D
:1039600002F04CFAB32002F049FA002002F046FAC5
:10397000BE2002F043FA002002F040FAC42002F018
:103980003DFA002002F03AFACD2002F037FA00208A
:1039900002F034FAD32002F031FA002002F02EFABD
:1039A000DD2002F02BFA002002F028FAF32002F0CA
:1039B00025FA002002F022FAE52002F02BFA00207E
:1039C00002F01CFA002002F019FA002002F016FAA8
:1039D000002002F013FA022002F010FA002002F098
:1039E0000DFA292002F00AFA002002F007FA3C2022
:1039F00002F004FA002002F001FA4B2002F0FEF976
:103A0000002002F0FBF95D2002F0F8F9002002F03E
:103A1000F5F9742002F0F2F9002002F0EFF98420A9
:103A200002F0ECF9002002F0E9F9932002F0E6F947
:103A3000002002F0E3F9A22002F0E0F9002002F0F9
:103A4000DDF9B32002F0DAF9002002F0D7F9BE2048
:103A500002F0D4F9002002F0D1F9C42002F0CEF92E
:103A6000002002F0CBF9CD2002F0C8F9002002F0CE
:103A7000C5F9D32002F0C2F9002002F0BFF9DC2022
:103A800002F0BCF9002002F0B9F9F32002F0B6F917
:103A9000002002F0B3F9E62002F0BCF9112002F098
:103AA000ADF9002002F0AAF9342002F0A7F90020B5
:103AB00002F0A4F9562002F0A1F9002002F09EF9CC
:103AC000762002F09BF9002002F098F9772002F0AE
:103AD00095F9002002F092F9662002F08FF900209B
:103AE00002F08CF9882002F089F9002002F086F9B2
:103AF000992002F083F9002002F080F9BB2002F047
:103B00007DF9002002F07AF9992002F077F900207F
:103B100002F074F9662002F071F9002002F06EF9EB
:103B2000552002F06BF9002002F068F9552002F0F0
:103B300065F9002002F062F9452002F05FF90020EB
:103B400002F05CF9432002F059F9002002F056F926
:103B5000442002F053F9002002F050F9E72002F06F
:103B600059F9322002F04AF9002002F047F95520B5
:103B700002F044F9002002F041F9762002F03EF90B
:103B8000002002F03BF9662002F038F9002002F034
:103B900035F9672002F032F9002002F02FF9672092
:103BA00002F02CF9002002F029F9872002F026F912
:103BB000002002F023F9992002F020F9002002F001
:103BC0001DF9BB2002F01AF9002002F017F9992024
:103BD00002F014F9002002F011F9772002F00EF93A
:103BE000002002F00BF9442002F008F9002002F056
:103BF00005F9562002F002F9002002F0FFF8232018
:103C000002F0FCF8002002F0F9F8332002F0F6F898
:103C1000002002F0F3F8452002F0F0F8002002F056
:103C2000EDF8E82002F0F6F8002002F0E7F80020B6
:103C300002F0E4F8992002F0E1F8002002F0DEF84A
:103C4000872002F0DBF8002002F0D8F8882002F08C
:103C5000D5F8002002F0D2F8772002F0CFF800204B
:103C600002F0CCF8662002F0C9F8002002F0C6F895
:103C7000882002F0C3F8002002F0C0F8AA2002F069
:103C8000BDF8002002F0BAF8BB2002F0B7F800201F
:103C900002F0B4F8992002F0B1F8002002F0AEF87A
:103CA000662002F0ABF8002002F0A8F8552002F0E0
:103CB000A5F8002002F0A2F8552002F09FF800209D
:103CC00002F09CF8442002F099F8002002F096F8E7
:103CD000442002F093F8002002F090F8552002F002
:103CE0008DF8002002F08AF8E92002F093F8AA206B
:103CF00002F084F8002002F081F8002002F07EF843
:103D0000002002F07BF8002002F084F8AA2002F0E4
:103D100075F8CF2002F07EF8002002F06FF8002046
:103D200002F06CF8002002F069F8002002F066F85A
:103D3000002002F063F8002002F060F8002002F09A
:103D40005DF8002002F05AF8002002F057F8002039
:103D500002F054F8002002F051F8002002F04EF872
:103D6000002002F04BF8002002F048F8002002F09A
:103D700045F8002002F042F8002002F03FF8F02061
:103D800002F048F8002002F039F8502002F036F82E
:103D9000002002F033F8002002F030F8002002F09A
:103DA0002DF8F32002F036F8002002F027F8F92071
:103DB00002F030F8062002F021F8102002F01EF880
:103DC000292002F01BF8002002F018F83A2002F037
:103DD00021F8552002F012F8112002F01BF864209F
:103DE000FEF7D4FC292002F015F8352002F012F875
:103DF000002002F003F8512002F00CF8FF2001F03F
:103E0000FDFF532002F006F82C2001F0F7FF5520AB
:103E100002F000F8822001F0F1FF2C2001F0FAFFFF
:103E200010BD10B555214FF4704002F009F8AA21D9
:103E30004FF2010002F004F852214FF2020001F0AB
:103E4000FFFF08214FF2030001F0FAFF01214FF2BA
:103E5000040001F0F5FF34214FF4364001F0F0FF8B
:103E600034214BF2016001F0EBFF34214BF2026090
:103E700001F0E6FF0D214FF4304001F0E1FF0D218C
:103E80004BF2010001F0DCFF0D214BF2020001F0CA
:103E9000D7FF24214FF4374001F0D2FF24214BF209
:103EA000017001F0CDFF24214BF2027001F0C8FF38
:103EB0000D214FF4314001F0C3FF0D214BF20110F1
:103EC00001F0BEFF0D214BF2021001F0B9FF2421D9
:103ED0004FF4384001F0B4FF24214BF6010001F00B
:103EE000AFFF24214BF6020001F0AAFF00214FF49E
:103EF000324001F0A5FF24214FF4394001F0A0FF2A
:103F000024214BF6011001F09BFF24214BF60210F7
:103F100001F096FF05214FF4334001F091FF052198
:103F20004BF2013001F08CFF05214BF2023001F021
:103F300087FF34214FF43A4001F082FF34214BF6E1
:103F4000012001F07DFF34214BF6022001F078FFC3
:103F50000B214FF4354001F073FF0B214BF2015060
:103F600001F06EFF0B214BF2025001F069FF0021BE
:103F70004FF43C4001F064FFA3214BF6014001F0F7
:103F80005FFF00214BF6024001F05AFF00214FF481
:103F90003D4001F055FFA3214BF6015001F050FFC9
:103FA00000214BF6025001F04BFF00214FF43E4040
:103FB00001F046FF37214BF6016001F041FF00217F
:103FC0004FF4514001F03CFF37214DF2011001F058
:103FD00037FF00214DF2021001F032FF53214DF264
:103FE000031001F02DFF00214DF2041001F028FF15
:103FF00079214DF2051001F023FF00214DF206104A
:1040000001F01EFF97214DF2071001F019FF00216A
:104010004DF2081001F014FFB1214DF2091001F02A
:104020000FFF00214DF20A1001F00AFFD5214DF2D9
:104030000B1001F005FF00214DF20C1001F000FF04
:10404000F4214DF20D1001F0FBFE01214DF20E1096
:1040500001F0F6FE23214DF20F1001F0F1FE0121D7
:104060004DF2101001F0ECFE49214DF2111001F05B
:10407000E7FE01214DF2121001F0E2FE87214DF220
:10408000131001F0DDFE01214DF2141001F0D8FEF5
:10409000B6214DF2151001F0D3FE02214DF216109B
:1040A00001F0CEFE00214DF2171001F0C9FE0221F1
:1040B0004DF2181001F0C4FE3B214DF2191001F031
:1040C000BFFE02214DF21A1001F0BAFE3D214DF261
:1040D0001B1001F0B5FE02214DF21C1001F0B0FEE4
:1040E00075214DF21D1001F0ABFE02214DF21E10A4
:1040F00001F0A6FEB1214DF21F1001F0A1FE022138
:104100004DF2201001F09CFED5214DF2211001F05E
:1041100097FE03214DF2221001F092FE09214DF28B
:10412000231001F08DFE03214DF2241001F088FED2
:1041300028214DF2251001F083FE03214DF22610B7
:1041400001F07EFE52214DF2271001F079FE03218D
:104150004DF2281001F074FE6B214DF2291001F090
:104160006FFE03214DF22A1001F06AFE8D214DF2FF
:104170002B1001F065FE03214DF22C1001F060FEC2
:10418000A2214DF22D1001F05BFE03214DF22E1005
:1041900001F056FEBB214DF22F1001F051FE03211C
:1041A0004DF2301001F04CFEC1214DF2311001F002
:1041B00047FE03214DF2321001F042FEC1214DF2C3
:1041C000331001F03DFE00214FF4524001F038FE63
:1041D00037214DF2012001F033FE00214DF2022083
:1041E00001F02EFE53214DF2032001F029FE0021A3
:1041F0004DF2042001F024FE79214DF2052001F05A
:104200001FFE00214DF2062001F01AFE97214DF20B
:10421000072001F015FE00214DF2082001F010FEEC
:10422000B1214DF2092001F00BFE00214DF20A20D0
:1042300001F006FED5214DF20B2001F001FE002118
:104240004DF20C2001F0FCFDF4214DF20D2001F0A7
:10425000F7FD01214DF20E2001F0F2FD23214DF278
:104260000F2001F0EDFD01214DF2102001F0E8FDDD
:1042700049214DF2112001F0E3FD01214DF2122000
:1042800001F0DEFD87214DF2132001F0D9FD01215F
:104290004DF2142001F0D4FDB6214DF2152001F0AD
:1042A000CFFD02214DF2162001F0CAFD00214DF292
:1042B000172001F0C5FD02214DF2182001F0C0FDCC
:1042C0003B214DF2192001F0BBFD02214DF21A20D5
:1042D00001F0B6FD3D214DF21B2001F0B1FD0221A0
:1042E0004DF21C2001F0ACFD75214DF21D2001F0B6
:1042F000A7FD02214DF21E2001F0A2FDB1214DF2D9
:104300001F2001F09DFD02214DF2202001F098FDBB
:10431000D5214DF2212001F093FD03214DF2222001
:1043200001F08EFD09214DF2232001F089FD0321CA
:104330004DF2242001F084FD28214DF2252001F0CA
:104340007FFD03214DF2262001F07AFD52214DF22E
:10435000272001F075FD03214DF2282001F070FDAA
:104360006B214DF2292001F06BFD03214DF22A2033
:1043700001F066FD8D214DF22B2001F061FD03213E
:104380004DF22C2001F05CFDA2214DF22D2001F018
:1043900057FD03214DF22E2001F052FDBB214DF2BD
:1043A0002F2001F04DFD03214DF2302001F048FD9A
:1043B000C1214DF2312001F043FD03214DF23220A5
:1043C00001F03EFDC1214DF2332001F039FD002105
:1043D0004FF4534001F034FD37214DF2013001F02C
:1043E0002FFD00214DF2023001F02AFD53214DF244
:1043F000033001F025FD00214DF2043001F020FDD5
:1044000079214DF2053001F01BFD00214DF20630FF
:1044100001F016FD97214DF2073001F011FD00214A
:104420004DF2083001F00CFDB1214DF2093001F0E0
:1044300007FD00214DF20A3001F002FDD5214DF2B9
:104440000B3001F0FDFC00214DF20C3001F0F8FCC6
:10445000F4214DF20D3001F0F3FC01214DF20E304C
:1044600001F0EEFC23214DF20F3001F0E9FC0121B7
:104470004DF2103001F0E4FC49214DF2113001F011
:10448000DFFC01214DF2123001F0DAFC87214DF200
:10449000133001F0D5FC01214DF2143001F0D0FCB5
:1044A000B6214DF2153001F0CBFC02214DF2163051
:1044B00001F0C6FC00214DF2173001F0C1FC0221D1
:1044C0004DF2183001F0BCFC3B214DF2193001F0E7
:1044D000B7FC02214DF21A3001F0B2FC3D214DF241
:1044E0001B3001F0ADFC02214DF21C3001F0A8FCA4
:1044F00075214DF21D3001F0A3FC02214DF21E305A
:1045000001F09EFCB1214DF21F3001F099FC022117
:104510004DF2203001F094FCD5214DF2213001F014
:104520008FFC03214DF2223001F08AFC09214DF26B
:10453000233001F085FC03214DF2243001F080FC92
:1045400028214DF2253001F07BFC03214DF226306D
:1045500001F076FC52214DF2273001F071FC03216D
:104560004DF2283001F06CFC6B214DF2293001F046
:1045700067FC03214DF22A3001F062FC8D214DF2DF
:104580002B3001F05DFC03214DF22C3001F058FC82
:10459000A2214DF22D3001F053FC03214DF22E30BB
:1045A00001F04EFCBB214DF22F3001F049FC0321FC
:1045B0004DF2303001F044FCC1214DF2313001F0B8
:1045C0003FFC03214DF2323001F03AFCC1214DF2A3
:1045D000333001F035FC00214FF4544001F030FC41
:1045E00037214DF2014001F02BFC00214DF2024039
:1045F00001F026FC53214DF2034001F021FC002183
:104600004DF2044001F01CFC79214DF2054001F00F
:1046100017FC00214DF2064001F012FC97214DF2EB
:10462000074001F00DFC00214DF2084001F008FCAC
:10463000B1214DF2094001F003FC00214DF20A4086
:1046400001F0FEFBD5214DF20B4001F0F9FB0021FA
:104650004DF20C4001F0F4FBF4214DF20D4001F05D
:10466000EFFB01214DF20E4001F0EAFB23214DF258
:104670000F4001F0E5FB01214DF2104001F0E0FB9D
:1046800049214DF2114001F0DBFB01214DF21240B6
:1046900001F0D6FB87214DF2134001F0D1FB01213F
:1046A0004DF2144001F0CCFBB6214DF2154001F063
:1046B000C7FB02214DF2164001F0C2FB00214DF272
:1046C000174001F0BDFB02214DF2184001F0B8FB8C
:1046D0003B214DF2194001F0B3FB02214DF21A408B
:1046E00001F0AEFB3D214DF21B4001F0A9FB022180
:1046F0004DF21C4001F0A4FB75214DF21D4001F06C
:104700009FFB02214DF21E4001F09AFBB1214DF2B8
:104710001F4001F095FB02214DF2204001F090FB7B
:10472000D5214DF2214001F08BFB03214DF22240B7
:1047300001F086FB09214DF2234001F081FB0321AA
:104740004DF2244001F07CFB28214DF2254001F080
:1047500077FB03214DF2264001F072FB52214DF20E
:10476000274001F06DFB03214DF2284001F068FB6A
:104770006B214DF2294001F063FB03214DF22A40E9
:1047800001F05EFB8D214DF22B4001F059FB03211E
:104790004DF22C4001F054FBA2214DF22D4001F0CE
:1047A0004FFB03214DF22E4001F04AFBBB214DF29D
:1047B0002F4001F045FB03214DF2304001F040FB5A
:1047C000C1214DF2314001F03BFB03214DF232405B
:1047D00001F036FBC1214DF2334001F031FB0021E5
:1047E0004FF4554001F02CFB37214DF2015001F000
:1047F00027FB00214DF2025001F022FB53214DF224
:10480000035001F01DFB00214DF2045001F018FB94
:1048100079214DF2055001F013FB00214DF20650B5
:1048200001F00EFB97214DF2075001F009FB00212A
:104830004DF2085001F004FBB1214DF2095001F096
:10484000FFFA00214DF20A5001F0FAFAD5214DF29B
:104850000B5001F0F5FA00214DF20C5001F0F0FA86
:10486000F4214DF20D5001F0EBFA01214DF20E5002
:1048700001F0E6FA23214DF20F5001F0E1FA012197
:104880004DF2105001F0DCFA49214DF2115001F0C7
:10489000D7FA01214DF2125001F0D2FA87214DF2E0
:1048A000135001F0CDFA01214DF2145001F0C8FA75
:1048B000B6214DF2155001F0C3FA02214DF2165007
:1048C00001F0BEFA00214DF2175001F0B9FA0221B1
:1048D0004DF2185001F0B4FA3B214DF2195001F09D
:1048E000AFFA02214DF21A5001F0AAFA3D214DF221
:1048F0001B5001F0A5FA02214DF21C5001F0A0FA64
:1049000075214DF21D5001F09BFA02214DF21E500F
:1049100001F096FAB1214DF21F5001F091FA0221F7
:104920004DF2205001F08CFAD5214DF2215001F0CA
:1049300087FA03214DF2225001F082FA09214DF24B
:10494000235001F07DFA03214DF2245001F078FA52
:1049500028214DF2255001F073FA03214DF2265023
:1049600001F06EFA52214DF2275001F069FA03214D
:104970004DF2285001F064FA6B214DF2295001F0FC
:104980005FFA03214DF22A5001F05AFA8D214DF2BF
:104990002B5001F055FA03214DF22C5001F050FA42
:1049A000A2214DF22D5001F04BFA03214DF22E5071
:1049B00001F046FABB214DF22F5001F041FA0321DC
:1049C0004DF2305001F03CFAC1214DF2315001F06E
:1049D00037FA03214DF2325001F032FAC1214DF283
:1049E000335001F02DFA00214FF4564001F028FA1F
:1049F00037214DF2016001F023FA00214DF20260EF
:104A000001F01EFA53214DF2036001F019FA002162
:104A10004DF2046001F014FA79214DF2056001F0C5
:104A20000FFA00214DF2066001F00AFA97214DF2CB
:104A3000076001F005FA00214DF2086001F000FA6C
:104A4000B1214DF2096001F0FBF900214DF20A603D
:104A500001F0F6F9D5214DF20B6001F0F1F90021DA
:104A60004DF20C6001F0ECF9F4214DF20D6001F013
:104A7000E7F901214DF20E6001F0E2F923214DF238
:104A80000F6001F0DDF901214DF2106001F0D8F95D
:104A900049214DF2116001F0D3F901214DF212606C
:104AA00001F0CEF987214DF2136001F0C9F901211F
:104AB0004DF2146001F0C4F9B6214DF2156001F019
:104AC000BFF902214DF2166001F0BAF900214DF252
:104AD000176001F0B5F902214DF2186001F0B0F94C
:104AE0003B214DF2196001F0ABF902214DF21A6041
:104AF00001F0A6F93D214DF21B6001F0A1F9022160
:104B00004DF21C6001F09CF975214DF21D6001F021
:104B100097F902214DF21E6001F092F9B1214DF298
:104B20001F6001F08DF902214DF2206001F088F93B
:104B3000D5214DF2216001F083F903214DF222606D
:104B400001F07EF909214DF2236001F079F903218A
:104B50004DF2246001F074F928214DF2256001F036
:104B60006FF903214DF2266001F06AF952214DF2EE
:104B7000276001F065F903214DF2286001F060F92A
:104B80006B214DF2296001F05BF903214DF22A609F
:104B900001F056F98D214DF22B6001F051F90321FE
:104BA0004DF22C6001F04CF9A2214DF22D6001F084
:104BB00047F903214DF22E6001F042F9BB214DF27D
:104BC0002F6001F03DF903214DF2306001F038F91A
:104BD000C1214DF2316001F033F903214DF2326011
:104BE00001F02EF9C1214DF2336001F029F9552170
:104BF0004FF4704001F024F9AA214FF2010001F0B6
:104C00001FF952214FF2020001F01AF908214FF268
:104C1000030001F015F900214FF2040001F010F932
:104C200000214FF4304001F00BF905214BF2010057
:104C300001F006F902214BF2020001F001F9052111
:104C40004BF2030001F0FCF802214BF2040001F0EA
:104C5000F7F808214FF4364001F0F2F850214FF4F4
:104C6000354001F0EDF805214FF4364001F0E8F849
:104C700000214FF4374001F0E3F800214BF20170BE
:104C800001F0DEF801214FF4384001F0D9F8052198
:104C90004BF6010001F0D4F805214BF6020001F0BB
:104CA000CFF805214BF6030001F0CAF802214FF4BA
:104CB0003C4001F0C5F800214BF6014001F0C0F87E
:104CC00000214BF6024001F0BBF803214FF44C40A9
:104CD00001F0B6F800214CF6014001F0B1F80021D6
:104CE0004CF6024001F0ACF801214FF43D4001F0D8
:104CF000A7F884214BF6015001F0A2F807214BF6EA
:104D0000025001F09DF831214BF6035001F098F864
:104D100000214BF6045001F093F801214FF43A4082
:104D200001F08EF8AA214FF47F4001F089F8552157
:104D30004FF6017001F084F825214FF6027001F062
:104D40007FF801214FF6037001F07AF840214FF40B
:104D5000585001F075F800214FF4545001F070F8EC
:104D600005214FF4685001F06BF84FF4885001F0C2
:104D700051F87820FDF70AFD4FF4245001F04AF86D
:104D80000A20FDF703FD4FF4305001F043F810BD49
:104D900010B5E22001F03EF81D2001F02FF80220AE
:104DA00001F02CF8042001F029F86420FDF7F8FC4C
:104DB000E02001F02FF8012001F020F80A20FDF793
:104DC000E5FCE02001F026F8032001F017F80C20A4
:104DD000FDF7DCFC012001F01DF80A20FDF7D6FCF0
:104DE000E62001F017F82F2001F008F8FF2001F06D
:104DF00005F8FF2001F002F8B02001F00BF82020A8
:104E000000F0FCFF002000F0F9FF032000F0F6FFA7
:104E100040F21F3000F0F2FF012000F0EFFF40F2FF
:104E2000DF1000F0EBFF002000F0E8FFB42000F0FE
:104E3000F1FF042000F0E2FF40F21F4000F0DEFF2F
:104E4000002000F0DBFF2E2000F0D8FF002000F053
:104E5000D5FF002000F0D2FF002000F0CFFF00209F
:104E600000F0CCFFB62000F0D5FF022000F0C6FF16
:104E70004FF4037000F0C2FF002000F0BFFF1720C6
:104E800000F0BCFF152000F0B9FF002000F0B6FFD5
:104E9000002000F0B3FFF02000F0BCFF032000F082
:104EA000ADFF292000F0B6FFD02000F0B3FF0020B6
:104EB00000F0A4FFBE2000F0ADFF052000F09EFF33
:104EC000FE2000F09BFF012000F098FF002000F082
:104ED00095FF002000F092FF002000F08FFFB82027
:104EE00000F098FF032000F089FF012000F086FF0A
:104EF000BA2000F08FFF012000F080FF10BD10B538
:104F0000112000F087FF7820FDF740FC362000F0EC
:104F100081FF002000F072FF3A2000F07BFF0520A7
:104F200000F06CFFB22000F075FF0C2000F066FF6F
:104F30000C2000F063FF002000F060FF332000F041
:104F40005DFF332000F05AFFB72000F063FF3520EB
:104F500000F054FFBB2000F05DFF322000F04EFF58
:104F6000C02000F057FF0C2000F048FFC22000F0E6
:104F700051FF012000F042FFC32000F04BFF102042
:104F800000F03CFFC42000F045FF202000F036FF79
:104F9000C62000F03FFF0F2000F030FFD02000F0CF
:104FA00039FFA42000F02AFFA12000F027FFE02015
:104FB00000F030FFD02000F021FF002000F01EFFA5
:104FC000022000F01BFF072000F018FF0A2000F06D
:104FD00015FF282000F012FF322000F00FFF4420C0
:104FE00000F00CFF422000F009FF062000F006FF51
:104FF0000E2000F003FF122000F000FF142000F04C
:10500000FDFE172000F0FAFEE12000F003FFD020A3
:1050100000F0F4FE002000F0F1FE022000F0EEFEB1
:10502000072000F0EBFE0A2000F0E8FE282000F048
:10503000E5FE312000F0E2FE542000F0DFFE4720C4
:1050400000F0DCFE0E2000F0D9FE1C2000F0D6FEA1
:10505000172000F0D3FE1B2000F0D0FE1E2000F031
:10506000CDFE2A2000F0D6FE002000F0C7FE002072
:1050700000F0C4FE002000F0C1FEEF2000F0BEFEF4
:105080002B2000F0C7FE002000F0B8FE002000F04A
:10509000B5FE012000F0B2FE3F2000F0AFFE292057
:1050A00000F0B8FE10BD10B5112000F0B3FE78205E
:1050B000FDF76CFB362000F0ADFE482000F09EFEB0
:1050C0003A2000F0A7FE552000F098FEF02000F0F6
:1050D000A1FEC32000F092FEF02000F09BFE96207F
:1050E00000F08CFEB42000F095FE012000F086FE5A
:1050F000B62000F08FFE0A2000F080FEA22000F013
:105100007DFEB72000F086FEC62000F077FEB920B5
:1051100000F080FE022000F071FEE02000F06EFE44
:10512000C02000F077FE802000F068FE162000F01E
:1051300065FEC12000F06EFE192000F05FFEC22067
:1051400000F068FEA72000F059FEC52000F062FEC6
:10515000162000F053FEE82000F05CFE402000F036
:105160004DFE8A2000F04AFE002000F047FE00209D
:1051700000F044FE292000F041FE192000F03EFE20
:10518000A52000F03BFE332000F038FEE02000F0C8
:1051900041FEF02000F032FE072000F02FFE0D202F
:1051A00000F02CFE042000F029FE052000F026FE71
:1051B000142000F023FE362000F020FE542000F0E2
:1051C0001DFE4C2000F01AFE382000F017FE1320C0
:1051D00000F014FE142000F011FE2E2000F00EFE50
:1051E000342000F00BFEE12000F014FEF02000F06F
:1051F00005FE102000F002FE142000F0FFFD0E203E
:1052000000F0FCFD0C2000F0F9FD082000F0F6FD98
:10521000352000F0F3FD442000F0F0FD4C2000F0BC
:10522000EDFD262000F0EAFD102000F0E7FD122041
:1052300000F0E4FD2C2000F0E1FD322000F0DEFD66
:10524000F02000F0E7FD3C2000F0D8FDF02000F059
:10525000E1FD692000F0D2FD7820FDF797FA2120CA
:1052600000F0D8FD292000F0D5FD10BD00B595B0A7
:1052700000BF00BF00200190F848006840F04000E7
:10528000F64908600846006800F04000019000BF41
:1052900000BF00BF00BF00BF0020019008460068AB
:1052A00040F0080008600846006800F0080001901F
:1052B00000BF00BF00BF00BF00BF00200190084634
:1052C000006840F0080008600846006800F0080028
:1052D000019000BF00BF00BF00BF00BF00200190D1
:1052E0000846006840F0200008600846006800F0AA
:1052F0002000019000BF00BF00BF00BF00BF002022
:1053000001900846006840F0020008600846006806
:1053100000F00200019000BF00BF00BF8814109091
:105320000220119001201290022013900C20149062
:1053300010A9CB48FBF7F6FE2020109010A9C94811
:10534000FBF7F0FE1020109010A9C648FBF7EAFE0C
:105350004FF48050109010A9C348FBF7E3FE4FF4C0
:10536000004010900120119010A9C048FBF7DAFE10
:105370004FF02040BE490860BE4848600620886063
:105380000021BB48C1601021416100218161C161E0
:1053900041624FF4805181620021C1624FF480412B
:1053A00001630021416381630F20099000200A906E
:1053B0003C200B9000200F900920029000200390C9
:1053C000092004900020089002AA09A9A848FCF727
:1053D00003FC3220FDF7DAF9D32000F01BFD00F0CA
:1053E000EBF9A549888000F0E7F9A349888000F02F
:1053F000E3F9A1498880084680884FF6FF7101EAE9
:1054000000209D49888000F0D7F99B49898808438E
:10541000994988800846808849F2413188427CD089
:10542000042000F0F7FC00F0C7F99349888000F0F1
:10543000C3F99149888000F0BFF98F4988800846F8
:1054400080884FF6FF7101EA00208B49888000F0C8
:10545000B3F9894989880843874988800846808844
:1054600048F25251884203D147F2897082498880BC
:105470008148808847F289718842D0D0D42000F0DA
:10548000C9FC00F099F97C49888000F095F97A49C7
:10549000888000F091F978498880084680884FF626
:1054A000FF7101EA00207449888000F085F9724993
:1054B00089880843704988800846808845F2103101
:1054C0008842ACD0D32000F0A5FC00F075F96A4901
:1054D000888000F071F96849888000F06DF96649AC
:1054E0008880084680884FF6FF7101EA00206249F3
:1054F000888000F061F96049898808435E498880A6
:105500000846808847F29671884288D055214FF42A
:10551000704000F095FCAA2100E07EE04FF201000F
:1055200000F08EFC52214FF2020000F089FC0821AD
:105530004FF2030000F084FC01214FF2040000F060
:105540007FFC4FF4454000F065FC00F035F94A4916
:105550008880084680884FF6FF7101EA002046499E
:1055600088804CF2015000F055FC00F025F94249CA
:1055700089880843404988800520FDF707F93E489F
:10558000808845F21051884247D0D32000F042FC79
:1055900000F012F93849888000F00EF93649888009
:1055A00000F00AF934498880084680884FF6FF7178
:1055B00001EA00203049888000F0FEF82E498988F1
:1055C00008432D4988800846808849F606018842AC
:1055D00023D0A12000F01EFC00F0EEF826498880C0
:1055E00000F0EAF824498880084680884FF6FF7169
:1055F00001EA00202049888000F0DEF81E498988F1
:1056000008431D4988800846808845F261718842B8
:1056100003D141F66310184988801748818817A084
:10562000FAF7A4FE1448808847F28971884202D1B3
:10563000FFF765FC4EE01048808849F2413188420E
:1056400002D1FDF7BFF945E00B48808845F21031E3
:10565000884219D1FDF76CFC3CE000003038024074
:1056600000180240000C02400014024000040240F6
:1056700034150020040100A0841500204C43442070
:1056800049443A25780D0A003F48808847F29671D0
:10569000884202D1FFF707FD1CE03B48808845F2B5
:1056A0001051884202D1FEF7BCFB13E036488088D7
:1056B00049F60601884202D1FDF79AFA0AE032481B
:1056C000808841F66311884204D1FFF761FB6420B2
:1056D00000F064FB2C48808847F2897188420AD127
:1056E00003200290049029490B6B8A68486802A93C
:1056F000FBF730F938E02448808849F606018842F3
:105700000BD02148808849F24131884205D01E489B
:10571000808845F2105188420AD1022002900490FC
:105720001A490B6B8A68486802A9FBF713F91BE05A
:105730001548808845F2103188420BD01248808885
:1057400047F29671884205D00F48808841F6631170
:10575000884209D10120029004900C490B6B8A68A1
:10576000486802A9FBF7F6F80020FDF765F800BFCE
:105770000122D1030648FBF7E1FD00BF4FF6FF70A1
:10578000FDF740F815B000BD841500203415002049
:105790000004024000BF011EA0F10100FBD17047D0
:1057A00010B50246012000E050430B1EA1F1010498
:1057B000E1B2F9D110BD000008B50220FFF7EAFF01
:1057C000024800880090BDF8000008BD8000006C11
:1057D000F0B50546002400278B488079012805D1C3
:1057E0008948808841F66311884208D186488079CB
:1057F000F0B98548808841F66311884218D1082D98
:1058000015D2DFE805F00406080A0C0E1012062572
:105810000DE007250BE0042509E0052507E001253B
:1058200005E0002503E0032501E0022500BF00BFDD
:10583000082D1CD2DFE805F00406090C0F1215181C
:1058400000BF14E044F0800411E044F040040EE096
:1058500044F0C0040BE044F0200408E044F060048D
:1058600005E044F0A00402E044F0E00400BF00BF03
:1058700036276548808845F21051884200D13F02A2
:105880006148808849F2413188420BD05E48808867
:1058900047F28971884205D05B48808847F296714B
:1058A000884201D144F008042146384600F0C8FA85
:1058B0005548808841F6631188421DD004F02000CD
:1058C00068B15148008850494988884214DA4E48E6
:1058D000068840884C490880084646800CE04A48C3
:1058E000008849494988884206DD4748068840883B
:1058F00045490880084646804348808845F2105153
:10590000884252D14049488900F084FA002000F0D2
:1059100075FA3D494989491C88B200F07BFA00209C
:1059200000F06CFA38494989891C88B200F072FA93
:1059300035490988491EC1F30F2000F05FFA32494A
:105940004989C91C88B200F065FA2F490978491EB7
:10595000C8B200F053FA2C49888900F05BFA0020A5
:1059600000F04CFA28498989491C88B200F052FAA3
:10597000002000F043FA24498989891C88B200F08C
:1059800049FA21494988491EC1F30F2000F036FA2F
:105990001D498989C91C88B200F03CFA1A498978E6
:1059A000491EC8B200F02AFA2DE01749488900F0D4
:1059B00031FA002000F022FA002000F01FFA12490C
:1059C0000988491EC1F30F2000F018FA0E49097822
:1059D000491EC8B200F012FA0B49888900F01AFA81
:1059E000002000F00BFA002000F008FA0649498870
:1059F000491EC1F30F2000F001FA03498978491EBE
:105A0000C8B200F0FBF9F0BD8415002010B50246C5
:105A10000C464548808841F66311884247D1424888
:105A20008079A8B940480088401E801A82B23E4959
:105A3000488900F0EFF9002000F0E0F9002000F0C4
:105A4000DDF9101200F0DAF9D0B200F0D7F916E063
:105A50003549488900F0DEF9101200F0CFF9D0B2D4
:105A600000F0CCF930490988491EC1F30F2000F03D
:105A7000C5F92D490978491EC8B200F0BFF92A4975
:105A8000888900F0C7F9201200F0B8F9E0B200F000
:105A9000B5F925494988491EC1F30F2000F0AEF938
:105AA00021498978491EC8B200F0A8F93AE01E4899
:105AB000808845F21051884220D11B49488900F066
:105AC000A9F9101200F09AF917494989491C88B2BE
:105AD00000F0A0F9D0B200F091F91349888900F0E4
