:020000040800F2
:10000000D8070020A1020008832A00087B2A0008E4
:100010007F2A00083D170008CD2F000800000000CF
:10002000000000000000000000000000872A000817
:100030004117000800000000852A0008892A0008EE
:10004000C5020008C5020008C5020008C502000874
:10005000C5020008C5020008C5020008C502000864
:10006000C5020008C5020008C5020008C502000854
:10007000C5020008C5020008C5020008C502000844
:10008000C5020008C5020008C5020008C502000834
:10009000C5020008C5020008C5020008C502000824
:1000A000C5020008C5020008C5020008C502000814
:1000B000C5020008C5020008A52A0008C5020008FC
:1000C000C5020008C5020008C5020008C5020008F4
:1000D000C5020008BD2F0008C5020008C5020008BF
:1000E000C5020008C5020008C5020008C5020008D4
:1000F000C5020008C5020008C5020008C5020008C4
:10010000C5020008C5020008C5020008C5020008B3
:10011000C5020008C5020008C5020008C5020008A3
:10012000C5020008C5020008C5020008C502000893
:10013000C5020008C5020008C5020008C502000883
:10014000C5020008C5020008C5020008C502000873
:10015000C5020008C5020008C5020008C502000863
:10016000C5020008C5020008C5020008C502000853
:10017000C5020008C5020008C50200080000000012
:10018000C5020008C502000800F002F800F078F887
:100190000AA090E8000C82448344AAF10107DA45E2
:1001A00001D100F06DF8AFF2090EBAE80F0013F0BC
:1001B000010F18BFFB1A43F001031847E0CD000000
:1001C00000CE00000A444FF0000C10F8013B13F081
:1001D000070408BF10F8014B1D1108BF10F8015BA0
:1001E000641E05D010F8016B641E01F8016BF9D193
:1001F00013F0080F1EBF10F8014BAD1C0C1B09D1EA
:100200006D1E58BF01F801CBFAD505E014F8016B5B
:1002100001F8016B6D1EF9D59142D6D370470000ED
:100220000023002400250026103A28BF78C1FBD8FF
:10023000520728BF30C148BF0B607047662909F0DC
:10024000F283642900F03A81752900F0378178291A
:1002500000F07081632900F01885732900F01D8576
:10026000002070471FB509F0D4FB00F02DFD0400FD
:100270000020002108F0BCFEE0601FBD10B510BDDD
:1002800000F026FE1146FFF7EDFF07F0B5FA00F08B
:1002900044FE03B4FFF7F2FF03BC03F0D8F80000FC
:1002A0000C48016841F4700101600B4880470B481D
:1002B0000047FEE7FEE7FEE7FEE7FEE7FEE7FEE7B4
:1002C000FEE7FEE7FEE7000005480649044A064B44
:1002D0007047000088ED00E0912A000889010008BD
:1002E000D8030020D8070020D8030020704753EA25
:1002F000020C00F069802DE9F04B4FF00006002B56
:100300001FBFB3FA83F503FA05F424FA05F65E403D
:1003100012BF1643B2FA82F502FA05F4C5F12005C0
:100320001EBF22FA05FC44EA0C04203556EA044CB0
:100330004FEA144418BF641C4FF000084FF0000946
:10034000904271EB030C39D3002919BFB1FA81F740
:1003500001FA07F6B0FA80F700FA07F6C7F12007AE
:100360001EBF20FA07FC46EA0C062037B6FBF4FC59
:10037000A7EB0507103F07F01F0BCBF120060CFA87
:100380000BFB2CFA06F644BFB3460026202FA4BF71
:100390005E464FF0000B5BEA060C08BF4FF0010B06
:1003A00019EB0B09ABFB027C48EB0608C01B06FBF4
:1003B00002CC0BFB03CC71EB0C01C1E70B460246F0
:1003C00041464846BDE8F08B13B54FF000004FF0B2
:1003D0000001AFF30080BDE81C4070470FB4044932
:1003E00010B503AA029800F05DFC10BC5DF814FB88
:1003F0000C0000200FB41CB5074B06AA7B446946CD
:100400000090059800F01FFC0020694600F02EFCCB
:100410001CBC5DF814FB00006D08000070B50446BC
:1004200085690068C10601D5302600E02026C00796
:1004300007D070BDD4E9012130469047206A401CA6
:1004400020626D1EF6D570BD70B5044685690078D2
:10045000C00707D170BDD4E9012120209047206A50
:10046000401C20626D1EF6D570BD70B50C46054669
:10047000012A05D02878800600D5EA69002302E029
:10048000012305E05B1C934202D2E05C0028F9D115
:10049000A869E618C01AA861286A18442862284684
:1004A000FFF7BCFF04E0D5E9012114F8010B9047E8
:1004B000B442F8D32846FFF7C7FF70BD2DE9F041DD
:1004C0000646002410687529314616A510D0AFF3F2
:1004D0000080002802DA404213A507E031688A074D
:1004E00001D512A502E0490704D511A5012401E0B8
:1004F000AFF3008000210A2206F1240709E0B0FBD7
:10050000F2FCB0FBF2F302FB1C00303078541846CA
:10051000491C0028F3D123462A463046BDE8F04165
:1005200000F023B9000000002D0000002B000000A7
:100530002000000070B504460D4621461068AFF358
:1005400000802188090502D50F4A7A4402E00E4A4C
:100550007A440E32002104F1240305E000F00F0676
:100560000009965D5E54491C0028F7D120780023CD
:10057000000704D5702D02D009B1022311322046A4
:10058000BDE8704000F0F1B874C400002DE9F05FE0
:10059000894604464FF0000ADFF874B1FB44C0F806
:1005A00020A02046E1688847002874D0252806D07E
:1005B000D4E901219047206A401C2062F1E700261F
:1005C0005F462046E16888472028054607DB312D35
:1005D00005D2781910F8200C08B10643F1E7B007EE
:1005E00001D526F00406C4F81CA00027C4F818A002
:1005F0002A2D09D0284602F023FF38B304EB8708E0
:10060000303DC8F8185019E059F8041B204604EB97
:1006100087029161E1688847012F054618D1E0699A
:10062000002820DA26F020061DE0D8F8180000EB9C
:10063000800005EB40003038C8F818002046E1681B
:100640008847054602F0FCFE0028EED1012F0AD0B3
:100650002E2D08D12046E16888477F1C0546022FD1
:1006600046F02006C4DBA069002803DA404246F0C9
:100670000106A061F00701D026F010066C2D0BD00A
:10068000682D09D04C2D39D06A2D35D0742D35D038
:100690007A2D33D016E038E0E1682F4620468847AF
:1006A000B842054609D16C2F26D04FF48060E1682E
:1006B000064320468847054604E06C2F1AD04FF4C5
:1006C000807006430DB3A5F14100192802D82035EA
:1006D00046F400664A462946204626604E46FFF705
:1006E000ADFD80B101280BD0F61D26F0070000F10A
:1006F000080956E74020E4E78020D8E70020D6E745
:1007000006F104094DE7284652E7206ABDE8F09F4C
:100710004AC400004FF0000200B5134694469646C6
:10072000203922BFA0E80C50A0E80C50B1F1200104
:10073000BFF4F7AF090728BFA0E80C5048BF0CC0B2
:100740005DF804EB890028BF40F8042B08BF704710
:1007500048BF20F8022B11F0804F18BF00F8012B82
:10076000704770477047704770472DE9F0470D4656
:1007700099469246044600F124080168880604D58B
:10078000E06921F01001216000E00120A84201DDB4
:10079000471B00E00027A1697A1902EB0900081A3B
:1007A000A0612078C00602D42046FFF737FE00265D
:1007B00008E0D4E901211AF806009047206A401C9D
:1007C000761C20624E45F4DB2078C0060AD5204610
:1007D000FFF724FE06E0D4E9012130209047206A8B
:1007E000401C2062381EA7F10107F4DC07E0D4E9C1
:1007F000012118F805009047206A401C2062281E3D
:10080000A5F10105F3DC2046FFF71EFE2078000667
:1008100002D50220BDE8F0870120FBE770472DE9F3
:10082000FF4F0C461E464FF0FF378BB0D2E9000158
:10083000DDF860800A908A46C1F30A5505B93D4645
:10084000002108464FF00000BAF1000F00F440000C
:1008500005DA00EB80004FF4400101EA50004FEA56
:100860009059B9F1010F00DDB9460A9850EA4A00E3
:100870000ED044F61050A5F2FF3545432F14B8F1C1
:10088000000F1ED07542291E1EDDC9F100021CE0BA
:10089000B8F1010F4FF0000001D0302103E0F24326
:1008A00005E02154401CB042FBDB30460022002111
:1008B00021540B99C1F80880C1E900200FB0BDE8B0
:1008C000F08FBD1B6D1CDEE74A4600DA694206A8C0
:1008D00000F084FA06AB93E8070003AB83E8070057
:1008E00050460A9900F062FB8DE80700A0F5005021
:1008F0001F3800900398002D0ADD42F21F014A467E
:100900000844002303A90390684600F0CBFD09E0EA
:10091000A0F500504A461F38002303A903906846FB
:1009200000F0D5FD8DE807000004000C03D04FF067
:10093000FF30410800E01046B8F1000F03D000225C
:10094000009215461EE0751E05D400F0C1F9303244
:1009500062556D1EF9D5B3460122084302D000222C
:100960007F1C04E02078302801D100227F1E002A5D
:10097000099784D01DE0112D07DA00F0A9F9303273
:1009800062556D1C50EA0102F5D1084302D000986F
:10099000C8B10EE00021681E05E0235C625C635470
:1009A0002254401E491C8142F7DBAB46A81B401E67
:1009B0000990002004F80B000B98099AC0F80880F1
:1009C000C0E9002B7AE711264FF0000857E72DE920
:1009D000F04F88460446D21D22F0070191B0D1E9BC
:1009E0000001CDE90A0102F0F3FA02460B98C00FAC
:1009F00001D02D2007E02068810701D52B2002E0DF
:100A0000202101EAC000032A099001D0072A05DB52
:100A100003464146204600F0A1F90BE1207880060C
:100A200001D5E06900E00620B8F1650F814606D0E7
:100A3000B8F1660F18D0B8F1670F70D131E000201F
:100A4000B9F1110F009001DB112301E009F101035D
:100A50000AAA01A90CA8FFF7E2FEDDE90C70002646
:100A600009F10105834647E001204B4600904FF015
:100A700000470AAA01A90CA8FFF7D1FEDDE90DB0D5
:100A80000C995D46002610B909F101000D18B9EB6B
:100A9000050003D4C0F1FF3609F10105A5EB0900FB
:100AA0002BE0B9F1010F01DA4FF001090020B9F193
:100AB000110F0090484601DD112300E003460AAA09
:100AC00001A90CA8FFF7ABFEDDE90C704D4600262E
:100AD0008346207800070AD4AB4500DA5D4601A8BA
:100AE000012D04DD411911F8011C302907D04F45B3
:100AF00002DA17F1040F04DA012082460FE06D1EBE
:100B0000EEE7002F02DCED1B3E4403E0781CA84218
:100B100000DD7D1CB81B00F1010A4FF00047207872
:100B2000000703D4AA4501DB4FF0FF3A0021B7F1DB
:100B3000004F0DF143088DF8431024D002202B23E1
:100B4000002F01DA7F422D230A21021EA0F10100AD
:100B500000DC5FB197FBF1FC97FBF1F201FB1C7C21
:100B600017460CF1300C08F801CDEEE7A8F10100B2
:100B700003702188090501D5452100E06521A0F118
:100B8000010800F8011C09980FA9A1EB0807FF1D37
:100B900000B10120411901EBEA70A1693844081A3B
:100BA000401EA0612078C00602D42046FFF736FC24
:100BB000099828B1D4E901219047206A401C20629D
:100BC0002078C00622D52046FFF728FC1EE0002E24
:100BD00004DBB34502DD01A8805D00E03020D4E9EC
:100BE00001219047206A401C2062761CAAF1010076
:100BF0005FEA000A0AD100F067F8C0680168405C4B
:100C0000D4E901219047206A401C2062281EA5F1EA
:100C10000105DCDC07E0D4E9012118F8010B90475D
:100C2000206A401C2062381EA7F10107F3DC204631
:100C3000FFF70AFC032011B041E6000001694A1CDD
:100C400002610878704700B58FB0CDE9013100210D
:100C5000059105497944CDE9031011466846FFF72F
:100C600095FC0FB000BD0000E5FFFFFF0A6802F829
:100C7000010B0A60704710B5436913B1AFF30080F0
:100C800001E0FFF7F2FB012010BD127800F1240112
:100C90000A7000224A700122EDE711684FF0FF321E
:100CA000E9E70000074B70B50D467B44FFF7CBFF2B
:100CB0000446284600F004F910B14FF0FF3070BD33
:100CC000204670BDE72C00000048704798030020C4
:100CD00030B5B0F10A024FEA900E71F100034EEA0E
:100CE000817EB0EB0E0061EB91014FEA101E4EEADF
:100CF000017E10EB0E0041EB11114FEA102E4EEA6F
:100D0000016E10EB0E0041EB11214FEA104E4EEA3E
:100D1000014E10EB0E0041EB1141401841F1000172
:100D20004FEAD00040EA41704FEAD10110EB800554
:100D30004FEA810444EA907444EB01046D1944EBDA
:100D40000404521BA3414FF0000348BF0A3200D5F0
:100D500030BD401C41F1000130BD00002DE9F041E3
:100D60001F46044603260168072A01F4006004DBDD
:100D700008B116A505E016A503E008B115A500E029
:100D800015A521F010002060A069C01EA0610FB160
:100D9000401EA0612046FFF741FB4FB1D4E901217D
:100DA00038469047206A401C2062C01C206206E042
:100DB000206AFAE7D4E9012115F8010B9047761E65
:100DC000F8D22046FFF740FBBDE8F0814E414E00CF
:100DD0006E616E00494E4600696E66002DE9F0476F
:100DE000814616468AB0354878440DC88DE80D0016
:100DF00032487844801C03AC0DC884E80D0041F6ED
:100E00009B300844372190FBF1F290FBF1F5A5F1FE
:100E1000800501FB12041B3C02D56442012000E066
:100E20000020DFF898A080460027FA44AAF1BE0A05
:100E30000EE0E0070AD03246684607EB470101237F
:100E40000AEB810100F043FB8DE8070064107F1C72
:100E5000002CEED1194F7F44AE3F19E0E80715D0C2
:100E600007EB04100DF1180A90E80E008AE80E0056
:100E7000C068F04201D1981908903246012306A9B2
:100E800003A800F024FB03AB83E807006D10641C8B
:100E9000002DE3D14FF0010332466946B8F1000F4F
:100EA00003A802D000F0FEFA01E000F010FBC9E94F
:100EB0000001C9F808200AB0BDE8F08728BD00008D
:100EC000007B00F0800070470048704778030020E6
:100ED0007546FFF7F9FFAE4605006946534620F018
:100EE0000700854618B020B5FFF7EEF9BDE82040B1
:100EF0004FF000064FF000074FF000084FF0000BD6
:100F000021F00701AC46ACE8C009ACE8C009ACE888
:100F1000C009ACE8C0098D46704710B50446AFF370
:100F200000802046BDE81040FFF7B3B94FF0013C08
:100F300050F8042B51F8043B9A4221D1A2EB0C0348
:100F4000934313EACC1317D150F8042B51F8043B08
:100F50009A4215D1A2EB0C03934313EACC130BD1A5
:100F600050F8042B51F8043B9A4209D1A2EB0C0330
:100F7000934313EACC13DBD04FF00000704700BF5F
:100F8000D01A01BAB1FA81F101F0180122FA01F088
:100F9000CB40C1F12001DBB2C0B2C01A2CFA01F380
:100FA000D11A914311EAC311E6D170475FEA400CB0
:100FB00008BF91F0000F4FEA8C234FEAC12243EAA9
:100FC00051514FEA1C5018BF00F5F0404FEA300075
:100FD00018BF41F000415FEA6C5C00F02980BCF171
:100FE000FF3F08BF40F080407047130C06BF12045B
:100FF0004FF0100C4FF0000C130E04BF12020CF156
:10100000080C130F04BF12010CF1040C930F04BF62
:1010100092000CF1020CD30F04BF52000CF1010C32
:1010200011464FF00002A0F11F00A0EB0C0070472A
:1010300011F0004F08BF704731F000413FF4D5AFC9
:101040000B0C06BF09044FF0100C4FF0000C0B0EF8
:1010500004BF09020CF1080C0B0F04BF09010CF1CD
:10106000040C8B0F04BF89000CF1020CCB0F04BFE2
:1010700049000CF1010CCCF12003A0EB0C0022FA8A
:1010800003F302FA0CF241EA030100F10100704798
:1010900020F07F4C80EA030023F07F47ACEB07038E
:1010A00003F57C5300F0004003F1FF032DE9804974
:1010B0004FEA154B09B44FEA144325EA0B4E24EAD4
:1010C00003480FF2042606EB132749083E785FEA2F
:1010D000320203FB0667C7F5000707FB06F64FEA77
:1010E00054374FEAD64606F1020607FB066CCCF1F0
:1010F000005C4FEA1C472CEA074C07FB06F40CFB8C
:1011000006F504EB15464FEA961634BF00204FF063
:1011100000404FEAD13706FB07FC4FEA1C4C0CFBA2
:101120000BF7D21B03FB0CF761EB07010CFB0EF76F
:10113000B0EB074072EB17420CFB08F734BFA2EB91
:101140000742B2EB074261EB17414FEA0C444FEA0A
:10115000910706FB07FC4FEA1C4C0CFB0BF7B0EBAE
:10116000C74072EB573203FB0CF734BFA2EBC74208
:10117000B2EBC74261EB57310CFB0EF7B0EBC70087
:1011800072EB57720CFB08F734BFA2EBC702B2EB4D
:10119000C70261EB5771039F4FEA816141EA9211E7
:1011A00004EBCC044FEAD1374FEA826206FB07FC1E
:1011B00042EA90124FEA80604FEA1C4C0CFB0BF79E
:1011C000D21B03FB0CF761EB07010CFB0EF7B0EB36
:1011D000074072EB17420CFB08F734BFA2EB074243
:1011E000B2EB074261EB17414FEA8C554FEA91078A
:1011F00004EB9C2406FB07FC4FEA1C4C0CFB0BF792
:10120000B0EBC74072EB573203FB0CF734BFA2EBD5
:10121000C742B2EBC74261EB57310CFB0EF7B0EBA4
:10122000C70072EB57720CFB08F734BFA2EBC70282
:10123000B2EBC70261EB577115EB4C254FEA8161A8
:1012400041EA92114FEA82624FEAD13742EA9012A4
:1012500006FB07FC44F100044FEA80604FEA1C4C97
:101260000CFB0BF7D21B03FB0CF761EB07010CFB2C
:101270000EF7B0EB074072EB17420CFB08F734BFD8
:10128000A2EB0742B2EB074261EB174115EB1C15CD
:101290004FEA813141EA92414FEA823242EA90427A
:1012A0004FEA80304FEA0C7644F1000448EA0343E9
:1012B0004EEA0B484FF0000EB2EB080C71EB03073F
:1012C00024BF624639464EEB0E0E4FF0000B00185D
:1012D000524149414BEB0B0BB2EB080C71EB03078E
:1012E0007BF1000B24BF624639464EEB0E0E4FF0E9
:1012F000000B0018524149414BEB0B0BB2EB080CB1
:1013000071EB03077BF1000B24BF624639464EEBBD
:101310000E0E51EA020718BF46F0010616EB0E76D4
:1013200055F1000254F1000103D5BDE88901BDE883
:101330000088BDE88901BDE80048B619524141EB7B
:101340000101A3F10103704780807F7E7D7C7B7A61
:101350007978777676757473727171706F6E6E6D61
:101360006C6C6B6A6A696868676666656464636307
:1013700062616160605F5F5E5E5D5D5C5C5B5B5A8D
:101380005A595958585757565655555554545353FA
:1013900052525251515050504F4F4F4E4E4D4D4D55
:1013A0004C4C4C4B4B4B4A4A4A49494948484847A0
:1013B00047474746464645454544444444434343DE
:1013C0004342424242414141002B9C4630D4770087
:1013D0002BD01CB54FEA370703B44FF010004FF085
:1013E0001001BAF1000F06D0BCF1000FDCBF40F0D5
:1013F000080040F008014FF000000FBCBDE81040AD
:101400000BF1010BBBF1010F08BF5FEA170722BF09
:1014100012F1010211F101014FF0004143F100030B
:1014200000F0004043EA00007047F9D35708D0E7C6
:1014300046EA064613F1400F4FEA16461FDD13F148
:10144000200FDFBF16430A46002120335B42BED087
:10145000C3F1200746EA064602FA07F74FEA1646A6
:1014600046EA0706C3F1200722FA03F201FA07F75A
:1014700021FA03F14FF0000342EA0702A7E746EA28
:10148000020646EA06464FEA164646EA0106BCBF91
:1014900046EA0646360C4FF000034FF000024FF0CC
:1014A000000194E72DE9804C9A46934670B491E888
:1014B000380007C831EA400C48BF34EA430C03D572
:1014C000FFF7E6FDFFF780FFF0BCBDE8008C2DE9DB
:1014D000804C9A46934670B491E8380007C810F0E3
:1014E000804F08BF13F0804F03D100F005F8FFF7DD
:1014F0006BFFF0BCBDE8008C20F07F4780EA030062
:1015000023F07F4C07EB0C03A3F57C5300F0004065
:10151000A3F1FE0392F0000F00F0B38095F0000FEE
:1015200000F077802DE901494FEA11404FEA144657
:1015300021EA004800FB06FC24EA064708FB06F601
:1015400007FB08F800FB07F718EB06484CEB164CB6
:101550004FEA124B18EB07484FEA15464CEB174081
:1015600022EA0B4E0BFB06FC25EA06470EFB06F6AD
:1015700007FB0EFE0BFB07F71EEB064E4CEB164C63
:101580004FF000061EEB074E4CEB174B18EB0B0809
:1015900040F1000018EB0E0B58EB000840F1000082
:1015A0008F1A4FF000013CBFC943661B14BFB5EB57
:1015B000040C00213CBFC943F61B4FEA17444EEA16
:1015C0008E0E27EA04454FEA1C4704FB07622CEA0B
:1015D000074C05FB07F70CFB05F604FB0CFC16EBB0
:1015E000074642EB174216EB0C4642EB1C421BEB44
:1015F000060658EB0202414146EA9E0601D5BDE8C7
:101600000189B619524141EB0101A3F10103BDE883
:1016100001894FEA14454FEA114724EA054621EAB9
:10162000074C05FB07F406FB07F70CFB06F105FB6F
:101630000CFC11EB074144EB17444FEA124711EB46
:101640000C4144EB1C4422EA074C05FB07F206FB65
:1016500007F70CFB06F605FB0CFC16EB074642EB06
:10166000174216EB0C4642EB1C456A1854F1000178
:1016700048BF7047B619524141EB0101A3F1010384
:10168000704795F0000F37D04FEA11424FEA1447E8
:1016900021EA024624EA074C02FB07F106FB07F7A2
:1016A0000CFB06F402FB0CFC14EB074441EB174166
:1016B0004FEA154714EB0C4441EB1C4125EA074C5B
:1016C00002FB07F506FB07F70CFB06F602FB0CFC1A
:1016D00016EB074645EB174516EB0C4645EB1C424F
:1016E000121951F1000148BF7047B619524141EB40
:1016F0000101A3F1010370474FEA14454FEA114776
:1017000024EA054621EA074C05FB07F106FB07F72B
:101710000CFB06F24FF0000605FB0CFC12EB074237
:1017200041EB174112EB0C4251EB1C4148BF704793
:10173000921841EB0101A3F10103704700BFFEE7DE
:101740007047000070B504461D460023B5F5804F74
:1017500013D154F822300C480340D1E9000640EA86
:1017600006108E6840EA06208E8940EA06408E699F
:101770003043034344F8223003E06FF0704044F8F4
:101780002200002070BD00000000F0CF10B503461D
:101790000022086853F8202012480240D1E90104D1
:1017A0002043CC6820430C6920434C6920438C695A
:1017B0002043CC6920430C6A20434C6A20438C6A46
:1017C0002043CC6A2043CC6B20430C6B2043024364
:1017D0008868082801D142F04002086843F82020B8
:1017E000002010BD8000F0FF30B503460024501CDF
:1017F00053F8204004F04044D1E9000540EA0510C8
:101800008D6840EA05208D8940EA0545088A401E1A
:1018100045EA0055087D801E45EA00608D69284331
:101820000443501C43F82040002030BD70B50446EE
:10183000A56D00F085F9064694F83500022808D019
:101840008020606500BF002084F8340000BF0120C4
:1018500070BD2068006820F01600216808602068CC
:10186000406920F0800021684861206C08B9A06CB4
:1018700028B12068006820F008002168086020680E
:10188000006820F00100216808600FE000F058F9BE
:10189000801B05280AD92020606500BF002084F83D
:1018A000340000BF032084F83500D1E720680068C9
:1018B00000F001000028E9D194F85C103F20884036
:1018C000A86000BF002084F8340000BF012084F825
:1018D00035000020BCE7014691F83500022803D00E
:1018E0008020486501207047052081F83500086890
:1018F000006820F001000A6810600020F3E7000093
:10190000F8B502460B460025002400200021DEE049
:10191000012606FA01F51E6806EA0504AC4275D1F7
:101920001E7906F00306012E04D01E7906F0030688
:10193000022E13D190684F000326BE40B0434F00E3
:10194000DE68BE4030439060506801268E40B04350
:101950001E79C6F300168E40304350601E7906F0A3
:101960000306032E09D0D0684F000326BE40B043C3
:101970004F009E68BE403043D0601E7906F00306DB
:10198000022E13D1CF0802F1200656F827004E0789
:10199000F70E0F26BE40B0434F07FF0E1E69BE4034
:1019A0003043CF0802F1200646F8270010684F00A8
:1019B0000326BE40B0431E7906F003064F00BE402A
:1019C000304310605E6806F08056B6F1805F7DD1CE
:1019D00000BF00260096404E366846F480463E4FD3
:1019E0003E603E46366806F48046009600BF00BF63
:1019F0003A4E8F0856F827008E07370F0F26BE4045
:101A0000B043374EB24202D1002624E05EE0354EAC
:101A1000B24201D101261EE0334EB24201D102266C
:101A200019E0324EB24201D1032614E0304EB242E8
:101A300001D104260FE02F4EB24201D105260AE063
:101A40002D4EB24201D1062605E02C4EB24201D104
:101A5000072600E008268F073F0FBE4030431F4E89
:101A60008F0846F82700264E3068A0435E6806F4CB
:101A70008036B6F5803F00D12043214E3060361DC0
:101A80003068A0435E6806F40036B6F5003F00D12A
:101A900020431B4E361D3060361D3068A0435E6803
:101AA00006F48016B6F5801F00D12043144E083688
:101AB0003060361D3068A0435E6806F40016B6F547
:101AC000001F00D120430E4E0C363060491C1029F7
:101AD000FFF41EAFF8BD0000443802400838014052
:101AE000000002400004024000080240000C0240D6
:101AF000001002400014024000180240001C024086
:101B0000003C0140024613690B400BB1012000E08C
:101B10000020704710B5426921EA020302EA01047D
:101B200043EA0443836110BD0AB1816101E00B0403
:101B30008361704701480068000C7047002004E092
:101B40000148006870470000140000200348006846
:101B500003490978084401490860704714000020CF
:101B60001C00002010B50A48006840F400700849C5
:101B700008600846006840F480600860052000F0B6
:101B80007FF80F2000F006F800F02AF8002010BDC2
:101B9000003C024070B504460E4800784FF47A715C
:101BA000B1FBF0F00C490968B1FBF0F5284600F0F4
:101BB00087FC08B1012070BD102C07D200222146FD
:101BC000501E00F01EF80548046001E00120F2E715
:101BD0000020F0E71C000020040000201800002076
:101BE000704701460846002809DB00F01F03012268
:101BF0009A4043099B0003F1E023C3F8002100BF92
:101C000070472DE9F05F80460D461646002701F02B
:101C1000F7F9074639462A46334601F00700C0F176
:101C2000070ABAF1040F02D94FF0040A01E0C0F12B
:101C3000070AD14600F1040ABAF1070F02D24FF0A9
:101C4000000A01E0A0F1030AD4464FF0010A0AFAA3
:101C500009FAAAF1010A0AEA020A0AFA0CFA4FF092
:101C6000010B0BFA0CFBABF1010B0BEA030B4AEA7D
:101C70000B042146404601F0CBF9BDE8F09F00007F
:101C800000BF00F00702064B19684FF6FF0319402A
:101C9000044B0B4343EA0221014B196000BF70471C
:101CA0000CED00E00000FA0570B504460D460CB9D5
:101CB000012070BD5848006800F00700A84209D212
:101CC00055490D700846006800F00700A84201D091
:101CD0000120EEE7207800F0020002281DD12078D4
:101CE00000F00400042805D14C48006840F4E0509E
:101CF0004A490860207800F00800082805D14748C4
:101D0000006840F46040454908604448006820F09D
:101D1000F000A168084341490860207800F0010004
:101D2000A8B36068012807D13C4808380068C0F3B0
:101D30004040B8B90120BCE76068022802D0606862
:101D4000032807D1354808380068C0F3406048B917
:101D50000120AEE7314808380068C0F3400008B9F8
:101D60000120A6E72D48006820F0030061680843C1
:101D70002A490860FFF7E4FE064609E0FFF7E0FEA7
:101D8000801B41F28831884202D9032091E707E0A5
:101D90002248006800F00C006168B0EB810FEDD1C3
:101DA0001D48006800F00700A84209D91A490D70C3
:101DB0000846006800F00700A84201D0012078E73B
:101DC000207800F00400042807D11448006820F4AB
:101DD000E050E168084311490860207800F00800ED
:101DE000082808D10D48006820F46040216940EAC5
:101DF000C1000A49086000F03FF808490968C1F3CA
:101E00000311074A515CC84006490860064800684B
:101E1000FFF7C0FE00204CE7003C024008380240BB
:101E20002A9A0008040000201800002001480068D9
:101E3000704700000400002000B5FFF7F7FF0449D9
:101E40000968C1F38221034A515CC84000BD00000B
:101E5000083802403A9A000800B5FFF7E7FF044946
:101E60000968C1F34231034A515CC84000BD00001B
:101E7000083802403A9A00082DE9F047002400256E
:101E80000026A1462548006800F00C0020B1042877
:101E900005D008283AD105E0DFF8849039E0DFF872
:101EA000849036E01D48001F006800F03F041B4886
:101EB000001F006800F4800078B11A481749091F14
:101EC0000968C1F38811A0FB017001462246002376
:101ED0003846FEF70CFA05460EE011480F49091F77
:101EE0000968C1F38811A0FB017001462246002356
:101EF0003846FEF7FCF905460848001F0068C0F3A5
:101F00000140401C4600B5FBF6F902E0DFF81090F6
:101F100000BF00BF4846BDE8F08700000838024017
:101F20000024F40000127A00F8B504460CB9012030
:101F3000F8BD207800F00100002874D0F94800684E
:101F400000F00C0004280DD0F648006800F00C00EA
:101F5000082813D1F348001F006800F48000B0F592
:101F6000800F0BD1EF4808380068C0F340400028CC
:101F700059D06068002856D10120D9E700BF6068B9
:101F8000B0F5803F08D1E7480838006840F4803059
:101F9000E449083908601EE06068B0F5A02F0DD153
:101FA000E0480838006840F48020DE4908390860BD
:101FB0000846006840F4803008600CE0D9480838D2
:101FC000006820F48030D749083908600846006866
:101FD00020F48020086000BF606890B1FFF7B0FD7A
:101FE000054606E0FFF7ACFD401B642801D903203D
:101FF0009EE7CC4808380068C0F340400028F1D084
:1020000011E0FFF79DFD054606E0FFF799FD401B37
:10201000642801D903208BE7C24808380068C0F360
:1020200040400028F1D1207800F0020002285FD162
:10203000BC48006800F00C0058B1BA48006800F0D5
:102040000C0008281CD1B748001F006800F480006D
:10205000B0B9B44808380068C0F3400020B1E06867
:10206000012801D0012063E7AE480838006820F05D
:10207000F800216940EAC100AA490839086037E040
:10208000E06800B30120A8490860FFF759FD054644
:1020900006E0FFF755FD401B022801D9032047E762
:1020A000A04808380068C0F340000028F1D09D48DF
:1020B0000838006820F0F800216940EAC100994919
:1020C0000839086014E0002097490860FFF738FDE0
:1020D000054606E0FFF734FD401B022801D9032026
:1020E00026E7904808380068C0F340000028F1D186
:1020F000207800F0080008282CD16069A8B10120E0
:102100008A490860FFF71CFD054606E0FFF718FD49
:10211000401B022801D903200AE782486C3000687E
:10212000C0F340000028F1D014E000207F4908608F
:10213000FFF706FD054606E0FFF702FD401B0228FB
:1021400001D90320F4E677486C300068C0F3400002
:102150000028F1D1207800F00400042870D1002775
:1021600070483830006800F0805090B900BF0020FF
:1021700000906C483830006840F080506949383130
:1021800008600846006800F08050009000BF00BF63
:1021900001276748006800F48070B0B9644800689F
:1021A00040F4807062490860FFF7CAFC054606E00B
:1021B000FFF7C6FC401B022801D90320B8E65C48A3
:1021C000006800F480700028F2D000BFA0680128E9
:1021D00008D154486830006840F001005149683126
:1021E00008601DE0A06805280DD14E4868300068E1
:1021F00040F004004B49683108600846006840F030
:10220000010008600CE047486830006820F00100D9
:102210004449683108600846006820F004000860FE
:1022200000BFA068A8B1FFF78BFC054609E0FFF7E7
:1022300087FC401B41F28831884202D9032077E6AF
:1022400026E0384868300068C0F340000028EED02F
:1022500013E0FFF775FC054608E0FFF771FC401B33
:1022600041F28831884201D9032061E62D48683067
:102270000068C0F340000028EFD1012F07D12948A2
:102280003830006820F0805026493831086000BF9F
:10229000A069002845D02348006800F00C000828F9
:1022A0005DD0A069022845D100201F490866FFF7CC
:1022B00047FC054606E0FFF743FC401B022801D916
:1022C000032035E6174808380068C0F3406000284E
:1022D000F1D1D4E907010843616A40EA8111012282
:1022E000A06AC2EB500041EA00412C20005D41EAA7
:1022F00000600C49091F086001200B490866FFF7C0
:102300001FFC054606E0FFF71BFC401B022801D915
:1023100003200DE6034808380068C0F34060002839
:10232000F1D049E00838024000004742800E4742A1
:1023300000700040002021490866FFF701FC0546B7
:1023400006E0FFF7FDFB401B022801D90320EFE563
:102350001B480068C0F340600028F2D12CE0A0695F
:10236000012800D1E4E51648001D0668A06901288F
:1023700020D006F48001E06981421BD106F03F01C4
:10238000206A814216D147F6C0703040616AB0EBD6
:10239000811F0FD106F440310122A06AC2EB500028
:1023A000B1EB004F06D106F070612C20005DB1EB5F
:1023B000006F01D00120BBE50020B9E500004742D5
:1023C0000038024070B504460E4615460CB901208F
:1023D00070BD94F8490028B9002084F848002046D0
:1023E00000F01CF804F108012068FFF7CFF931462E
:1023F000A2682068FFF7F8F92946236BD4E90102A7
:10240000FFF7A0F9A168206850F8210040F0010012
:10241000A268216841F822000020D9E710B586B0F3
:10242000044600BF002000902248006840F00100F0
:10243000204908600846006800F00100009000BFD5
:1024400000BF00BF002000901A480838006840F024
:1024500008001849083908600846006800F00800BC
:10246000009000BF00BF00BF002000900846006839
:1024700040F0100008600846006800F0100000906E
:1024800000BF00BF4CF203700190022002900120B7
:102490000390022004900C20059001A90648FFF744
:1024A0002FFA4FF68070019001A90448FFF728FA2F
:1024B00006B010BD38380240000C02400010024047
:1024C00070B504462546681EB0F1807F01D3012017
:1024D0000FE0681E4FF0E02148610F214FF0FF3000
:1024E00000F096FD00204FF0E02188610720086190
:1024F000002070BD10B504460CB9012010BD94F841
:102500003D0028B9002084F83C00204600F025F862
:10251000022084F83D00211D206800F0E5FA01202A
:1025200084F8460000BF84F83E0001213F20015599
:10253000402001554120015500BF00BF012084F813
:10254000420043200155442001554520015500BF5C
:10255000012084F83D000020D0E77047014691F843
:102560003D00012801D001207047022081F83D0084
:102570000868C06840F001000B68D8601A4B086812
:1025800098421BD00868B0F1804F17D0174B0868ED
:10259000984213D0164B086898420FD0154B086824
:1025A00098420BD0144B0868984207D0134B086828
:1025B000984203D0124B086898420CD10868806892
:1025C00000F00702062A0CD00868006840F00100FD
:1025D0000B68186005E00868006840F001000B68AF
:1025E00018600020C0E70000000001400004004027
:1025F00000080040000C0040000401400040014081
:1026000000180040704770472DE9F84F04462068D5
:1026100005682068C668206847694FF00009CA4607
:1026200005F00F09B9F1000F0AD105F0200038B10B
:1026300006F0200020B1204600F0F7FABDE8F88F40
:10264000B9F1000F72D007F0010018B906F49070CC
:1026500000286BD005F0010030B106F4807018B18D
:10266000206C40F00100206405F0040030B107F058
:10267000010018B1206C40F00200206405F0020057
:1026800030B107F0010018B1206C40F00400206464
:1026900005F0080048B106F0200010B907F001006D
:1026A00018B1206C40F008002064206C70B305F075
:1026B000200028B106F0200010B1204600F0B5FA45
:1026C00020684069C0F3801A206C00F0080010B93F
:1026D000BAF1000F23D0204600F07CFA2068406950
:1026E00000F04000402816D12068406920F04000EA
:1026F00021684861A06B50B15648A16B0865A06B7A
:10270000FFF7E9F810B1A06B016D88470CE0204697
:10271000FFF779FF08E02046FFF775FF04E0204649
:10272000FFF771FF0020206488E7FFE7206B012896
:1027300079D105F01000002875D006F010000028AF
:1027400071D000BF002000902068006800902068D1
:102750004068009000BF00BF2068406900F0400062
:10276000402839D1A06B006840681FFA80F8B8F1A2
:10277000000F30D0A08D40452DDDA4F82E80A06B39
:10278000C069B0F5807F1FD02068C06820F48070D9
:102790002168C8602068406920F001002168486114
:1027A0002068406920F0400021684861202084F8BA
:1027B0003E00002020632068C06820F010002168DF
:1027C000C860A06BFFF732F8A08DE28D801A81B24D
:1027D0002046FFF717FF31E7A08DE18D401A1FFA61
:1027E00080F8E08DE8B1B8F1000F1AD02068C06819
:1027F00020F490702168C8602068406920F00100D2
:1028000021684861202084F83E0000202063206871
:10281000C06820F010002168C86041462046FFF7DC
:10282000F1FE0BE7FFE705F0800030B106F0800015
:1028300018B1204600F091FB00E705F0400030B1F0
:1028400006F0400018B1204600F0DFF9F6E600BFC0
:10285000F4E60000C12B000810B504460CB90120B5
:1028600010BDA06900B100E000BF94F83D0028B998
:10287000002084F83C00204600F028F8242084F84A
:102880003D002068C06820F400502168C8602046E0
:1028900000F02AFA2068006920F49040216808615D
:1028A0002068406920F02A00216848612068C068DB
:1028B00040F400502168C86000202064202084F883
:1028C0003D0084F83E000020CAE7000010B586B045
:1028D00004462E492068884255D100BF00BF002021
:1028E00000902B48006840F0100029490860084615
:1028F000006800F01000009000BF00BF00BF00BFE4
:1029000000BF0020009022481438006840F0010009
:102910001F49143908600846006800F00100009063
:1029200000BF00BF00BF00BF00BF002000900846EE
:10293000006840F0010008600846006800F00100EF
:10294000009000BF00BF00BF481501900220029018
:1029500001200390022004900720059001A90D4852
:10296000FEF7CEFF4FF4806001900720059001A98B
:102970000848FEF7C5FF2520FFF733F9032211466B
:102980002520FFF73EF906B010BD00000010014001
:10299000443802400000024070B504460D46164619
:1029A00094F83E00202816D105B10EB9012070BD63
:1029B00000BF94F83C00012801D10220F7E7012074
:1029C00084F83C0000BF00202063324629462046A0
:1029D00000F0A0FAEBE70220E9E7000010B504469A
:1029E0002049206888423BD11F48008800F40040FD
:1029F00088BB1D48008800F4804070B11B480078F7
:102A00000A2803D000201849088024E016480088CE
:102A100040F40040144908801DE0144800780D2857
:102A200006D11148008840F480400F49088012E028
:102A30000E4800780C490988C1F30D010C4A505426
:102A400009480088401C0849088008460088C728B3
:102A500001DD00200880012204490648FFF79CFFA1
:102A600010BD0000001001401000002012000020E6
:102A7000C40100208C020020704700BFFEE700BFA9
:102A8000FEE770477047704710B5FFF75FF810BD5D
:102A90000348006840F47000014908607047000076
:102AA00088ED00E010B50E480068C06800F0010035
:102AB00078B10C49086980470020094909684862D3
:102AC00000BF642006490968C86264210448C160E7
:102AD00000BF6FF0010002490968086110BD0000E5
:102AE00030030020D000002010B50268294B984226
:102AF0000ED0B0F1804F0BD0274B984208D0274B17
:102B0000984205D0264B984202D0264B984203D1DA
:102B100022F070024B681A431E4B984220D0B0F14D
:102B2000804F1DD01C4B98421AD01C4B984217D096
:102B30001B4B984214D01B4B984211D01A4B984211
:102B40000ED01A4B98420BD0194B984208D0194B13
:102B5000984205D0184B984202D0184B984203D1A6
:102B600022F44072CB681A4322F080034C6943EA96
:102B7000040202608B68C3620B688362054B984253
:102B800002D0084B984201D10B69036301234361D2
:102B900010BD00000000014000040040000800409B
:102BA000000C00400004014000400140004401408E
:102BB0000048014000180040001C00400020004078
:102BC00070B50546AC6B0020E085E0842046FFF739
:102BD0001AFD70BD0168C96821F490710268D16066
:102BE0000168496921F0010102685161016B012905
:102BF00005D10168C96821F010010268D160202167
:102C000080F83E1000210163704710B5044620682B
:102C1000C06820F040002168C860202084F83D0092
:102C20002046FFF729FF002010BD70B5044694F838
:102C30003E00222856D1A068B0F5805F0CD12069F3
:102C400050B90025A66A20684068C0F308003080AB
:102C5000A06A801CA06215E0A56A0026A068B0F5F5
:102C6000805F03D0A06828B9206918B9206840683F
:102C7000287004E02068406800F07F002870A06A97
:102C8000401CA062E08D401E80B2E08540BB206801
:102C9000C06820F020002168C8602068C06820F467
:102CA00080702168C8602068406920F001002168B8
:102CB0004861202084F83E00206B01280AD120685A
:102CC000C06820F010002168C860A18D2046FFF781
:102CD00099FC02E02046FFF781FE0020206370BDD2
:102CE0000020FCE70220FAE72DE9F84F04462068AF
:102CF000006920F44050E1680843216808612169B7
:102D0000A068084361690843E169084300902068AE
:102D1000C06849F20C618843009908432168C86083
:102D20002068406920F44070A16908432168486127
:102D300076492068884203D075492068884203D1CB
:102D4000FFF78AF8814602E0FFF776F88146E069EE
:102D5000B0F5004F6CD102206168A0FB0150034622
:102D60001920A9FB007001462A463846FDF7BFFA34
:102D70006421B0FBF1F04FEA001A02206168A0FB69
:102D800001510B461920A9FB00712A463846FDF770
:102D9000AEFA834602206168A0FB01500346192069
:102DA000A9FB00712A463846FDF7A1FA6421B0FB61
:102DB000F1F000EBC00101EB0010ABEB8000322121
:102DC00001EBC0006421B0FBF1F000F0F8000AEB69
:102DD000400A02206168A0FB015003461920A9FBAC
:102DE000007001462A463846FDF781FA83460220E4
:102DF0006168A0FB015003461920A9FB00712A4617
:102E00003846FDF774FA6421B0FBF1F000EBC00125
:102E100001EB0010ABEB8000322101EBC00064211C
:102E2000B0FBF1F000F007005044216888606AE0D0
:102E300004206168A0FB015003461920A9FB007023
:102E400001462A463846FDF752FA82460420616858
:102E5000A0FB015003461920A9FB007001462A4639
:102E60003846FDF744FA6421B0FBF1F000EBC001F5
:102E700001EB0010AAEB8000322101EB001064216D
:102E8000B0FBF1F000F0F00A04206168A0FB0170D3
:102E900003461920A9FB00513A462846FDF727FAB8
:102EA0006421B0FBF1F00AEB001A04206168A0FB7A
:102EB00001510B461920A9FB00712A463846FDF73F
:102EC00016FA834604206168A0FB015003461920CE
:102ED000A9FB007001462A463846FDF708FA64212E
:102EE000B0FBF1F000EBC00101EB0010ABEB800098
:102EF000322101EB00106421B0FBF1F000F00F0073
:102F0000504421688860BDE8F88F0000001001403F
:102F10000014014010B5034699629A85DA850020B5
:102F20001864222083F83E0000BF002083F83C0094
:102F300000BF1868C06840F480701C68E0601868C2
:102F4000406940F001001C6860611868C06840F08A
:102F500020001C68E060002010BD014691F83D0093
:102F6000212828D18868B0F5805F0BD1086948B95D
:102F70000A6A1088C0F308000B685860086A801C51
:102F8000086205E00B6A581C086218780B685860E4
:102F9000C88C401E80B2C88458B90868C06820F048
:102FA00080000B68D8600868C06840F040000B687B
:102FB000D860002070470220FCE7000010B50248EE
:102FC000FFF722FB10BD00008C02002000BFFEE7CF
:102FD00003B401984100009850EAC12018BF0420B2
:102FE0004A0D18BF40F0010040F2FF72B2EB515F92
:102FF00008BF40F00200012808BF052002B070475A
:1030000002480068C0F30220704700000CED00E0A9
:1030100010B5002804DB0A07130E054A135406E016
:103020000A07140E034A00F00F031B1FD45410BDEF
:1030300000E400E018ED00E070B59B482DED020BB8
:103040002DED068B079D25F00044A04218DC974823
:10305000844202DC0AD1069840B19DED060BBDEC1E
:10306000068B02B0BDE8704000F0CEB9002DCCBF99
:103070009FED8F0B9FED900BBDEC068B02B070BDEA
:103080008F48A04215DD8F48A042D8BF4FF0FF34D3
:1030900058DD9DED060B51EC100BFFF799FF04284E
:1030A00008BF00F0BDF99DED060BBDEC068B02B02C
:1030B00070BD9DED060B51EC100B00F05FFCCDE9EF
:1030C000060181489FED828BA0423CDD8248A042F0
:1030D0001FDD00249FED82AB9DED060B53EC1A2BF8
:1030E00051EC100B05F0D8FF9DED060B41EC190BD0
:1030F00053EC1A2B51EC100B06F026FA53EC182B5C
:1031000006F02CFB53EC192B06F06EF8CDE9060106
:1031100049E09DED060B012453EC182B51EC100BEC
:1031200005F0BAFF9DED060B41EC190B53EC182B83
:1031300051EC100B06F012FB53EC192B06F054F86F
:10314000CDE906012FE06848A0421FDD02249FED73
:10315000689B9DED060B53EC192B51EC100B06F000
:10316000F3F953EC182B05F097FF9DED060B41EC9E
:10317000180B53EC192B51EC100B06F0EFFA53EC33
:10318000182B06F031F8CDE906010CE09DED060B99
:10319000032453EC102B9FED580B51EC100B06F051
:1031A00023F8CDE906019DED060B53EC102B51ECF5
:1031B000100B06F0C9F941EC180B53EC182B06F074
:1031C000C3F941EC190B4E480621B0EE490AF0EE66
:1031D000690A784400F09CF853EC182B51EC100B62
:1031E00006F0B2F941EC180B4648B0EE490AF0EE91
:1031F000690A0521784400F08BF853EC192B51EC47
:10320000100B06F0A1F941EC100B51EC180B53EC2C
:10321000102B002C0EDA05F03FFF9DED061B53EC42
:10322000112B06F091F99DED061B53EC112B06F0C6
:1032300089FA35E005F030FF9DED061B53EC112BAC
:1032400006F082F941EC100B2F48784400EBC400E3
:1032500090ED001B51EC100B53EC112B06F07EFA95
:103260009DED061B53EC112B06F078FA41EC100B88
:103270002648784400EBC40090ED001B51EC100B85
:1032800053EC112B06F05EFA41EC100B002DA2BF9F
:10329000BDEC068B02B070BD51EC100B05F0BEFE0C
:1032A00041EC100B01E70000000010440000F07F2B
:1032B000182D4454FB21F93F182D4454FB21F9BF2C
:1032C0000000DC3F0000203E0000F33F0000000053
:1032D000000000000000F03F0000E63F000000009A
:1032E00000000000000000400080034000000000DB
:1032F000000000000000F83F000000000000F0BFE8
:103300009298000048980000D29700008A97000029
:1033100070B504462DED028B4D1E00EBC500B0EEDE
:10332000408AF0EE608A90ED000B35F0060017D071
:1033300053EC182B51EC100B06F006F941EC100B76
:103340006D1E04EBC50090ED001B51EC100B53EC0F
:10335000112B05F0A1FE41EC100B35F00600E7D172
:10336000022D36D0042D1CD0062D1CBFBDEC028BC7
:1033700070BD53EC182B51EC100B06F0E5F894EDF2
:103380000A1B53EC112B05F087FE53EC182B06F0AB
:10339000DBF894ED081B53EC112B05F07DFE41EC9E
:1033A000100B53EC182B51EC100B06F0CDF894EDEC
:1033B000061B53EC112B05F06FFE53EC182B06F097
:1033C000C3F894ED040B53EC102B05F065FE41ECB3
:1033D000100B53EC182B51EC100B06F0B5F894EDD4
:1033E000021B53EC112B05F057FE53EC182B06F083
:1033F000ABF894ED001B53EC112B05F04DFEBDEC2A
:10340000028B41EC100B70BD10B553EC102B51EC3E
:10341000100B05F041FE41EC100B10BD0000000048
:103420009FED050B10B553EC102B51EC100B06F073
:103430008BF841EC100B10BD0000000000000010E4
:1034400030380A2801D2012070470020704700BFA1
:10345000704770B50446002600F0A4FB2112A0229C
:1034600002EB4101C8B200F065FB00F0E3FB25462A
:10347000E11704EB11610912A4EB0121C8B200F0BD
:1034800059FB00F0D7FB00F08DFBA12000F052FBB0
:1034900000F0D0FB002000F01DFB064600F0AAFB68
:1034A000304670BD70B504460E4600F07BFB21121D
:1034B000A02202EB4101C8B200F03CFB00F0BAFBD5
:1034C0002546E11704EB11610912A4EB0121C8B2F2
:1034D00000F030FB00F0AEFB304600F02BFB00F0BC
:1034E000A9FB00F087FB0A2000F01AFA70BD00006B
:1034F0002DE9F04387B00024002500260027A146CF
:103500004FF6FF7000F0AAFC4FF4784048A110225B
:103510001346CDE900210290F0225A210A2004F03E
:103520002BF84FF4784047A110221346CDE9002133
:103530000290F0226E210A2004F01EF84FF4784029
:1035400047A110221346CDE900210290F0228221EA
:103550000A2004F011F83BE0002000F01DFC814639
:10356000B9F1040F00D134E004AA05A906A804F0BB
:1035700054FA8046B8F1000F23D1BDF918008542F6
:1035800002DABDF9180000E028460546BDF918002A
:10359000844202DDBDF9180000E020460446BDF972
:1035A0001400874202DABDF9140000E038460746ED
:1035B000BDF91400864202DDBDF9140000E030467A
:1035C000064600BF4FF400712C48FEF7A3FA00BF77
:1035D000C2E700BF281900EBD071491009B2284A90
:1035E0001180B81900EBD071491009B2254A118039
:1035F000214625A0FCF7F2FE294626A0FCF7EEFEA8
:10360000314627A0FCF7EAFE394628A0FCF7E6FE83
:103610001B48B0F9001028A0FCF7E0FE1948B0F9EB
:1036200000102AA0FCF7DAFE07B0BDE8F083000026
:10363000436F6D706173732043616C696272617472
:10364000696F6E00506C7320726F746174652068CE
:103650006F72697A206F6E65206379636C652100F3
:10366000496620646F6E652C2070726573732057F5
:103670004B5550206B65792100000000001402407A
:103680000000002002000020785F6D696E3A25641A
:103690000D0A0000785F6D61783A25640D0A00001C
:1036A000795F6D696E3A25640D0A0000795F6D617E
:1036B000783A25640D0A0000675F6D6167785F6F77
:1036C00066667365743A25640D0A0000675F6D6174
:1036D00067795F6F66667365743A25640D0A00004A
:1036E00000B52DED108B83B00A236A4601A902A80C
:1036F00004F0C6F9BDF808007A490988401A00B2FA
:103700000290BDF8040078490988401A00B201907F
:10371000BDF90800002836DDBDF90400002832DDBF
:10372000BDF9080005F0E5FE41EC1D0BBDF90400F4
:1037300005F0DFFE41EC1E0B53EC1D2B05F054FD94
:1037400041EC1C0BB0EE4C0AF0EE6C0AFFF774FC77
:10375000B0EE40BAF0EE60BA9FED640B53EC102B64
:1037600051EC1B0B05F0F0FE41EC1A0B9FED610BC9
:1037700053EC102B05F038FD41EC190B05F05AFC09
:1037800008EE100A94E0BDF9080000283EDDBDF9FE
:10379000040000283ADABDF9080005F0AAFE41EC61
:1037A0001E0BBDF9040005F0A4FE41EC1F0B53EC09
:1037B0001E2B05F019FD41EC1D0BB0EE4D0AF0EE8D
:1037C0006D0AFFF739FCB0EE40CAF0EE60CA9FED1B
:1037D000470B53EC102B51EC1C0B05F0B5FE41ECE4
:1037E0001B0B9FED440B53EC102B05F0FDFC41EC43
:1037F0001A0B9FED420B53EC102B05F04DFC41ECE6
:10380000190B05F017FC08EE100A51E0BDF808008E
:1038100030B9BDF90400002802DD9FED3A8A47E087
:10382000BDF8080030B9BDF90400002802DA9FEDA8
:10383000368A3DE0BDF90800002839DABDF90800F4
:1038400005F057FE41EC1E0BBDF9040005F051FEDA
:1038500041EC1F0B53EC1E2B05F0C6FC41EC1D0B7D
:10386000B0EE4D0AF0EE6D0AFFF7E6FBB0EE40CA8F
:10387000F0EE60CA9FED1D0B53EC102B51EC1C0BAE
:1038800005F062FE41EC1B0B9FED1A0B53EC102B65
:1038900005F0AAFC41EC1A0B9FED140B53EC102B16
:1038A00005F0FAFB41EC190B05F0C4FB08EE100A19
:1038B0009FED160AB4EEC08AF1EE10FA03DD9FED1B
:1038C000130AB0EE408AB5EEC08AF1EE10FA03D2C8
:1038D0009FED0F0AB0EE408AB0EE480A03B0BDEC8F
:1038E000108B00BD0000002002000020000000003E
:1038F0000080664000000000FA210940000000003E
:10390000008076400000B442000087430000B443CA
:103910000000000001490860704700000800002016
:1039200010B504464FF47A7104FB01F000F002F880
:1039300010BD000070B5034600224FF0E026756907
:103940000D4E366803FB06F44FF0E026B16910E037
:103950004FF0E026B06988420BD0884202D20E1A9E
:10396000324402E02E1A0E4432440146A24200D3F1
:1039700000E0EDE700BF70BD0800002082B0CDE997
:10398000000121F0004001909DED000B02B051ECD0
:10399000100B704700BF054A126802F04002002A6F
:1039A000F9D0C2B2014B5A607047000000100140CC
:1039B00010B500BF00224FF400711148FEF7B4F8B3
:1039C00000BF00F01FF800BF012211020C48FEF7F3
:1039D000ABF800BF00F016F800BF00224FF4807172
:1039E0000748FEF7A1F800BF00F00CF800BF012265
:1039F00051020348FEF798F800BF00F003F810BD2D
:103A00000004024010B50220FFF794FF10BD000033
:103A100000B587B000BF00BF002001901B480068C0
:103A200040F00200194908600846006800F00200F2
:103A3000019000BF00BF00BF00BF00BF0020019089
:103A40000846006840F0020008600846006800F080
:103A50000200019000BF00BF00BF88150290012046
:103A6000039004900320059002A90948FDF748FF40
:103A70004FF4007002901120039002A90448FDF752
:103A80003FFF00F0B7F807B000BD0000303802403B
:103A90000004024010B500BF012251020C48FEF79D
:103AA00043F800BFFFF7AEFF00BF01221102084834
:103AB000FEF73AF800BFFFF7A5FF00BF00224FF462
:103AC00080710348FEF730F800BFFFF79BFF10BD81
:103AD0000004024070B50546002400261EE0600682
:103AE000040E00BF012211021148FEF71DF800BFAD
:103AF000FFF788FF4FF400710D48FEF703F808B197
:103B0000601CC4B200BF00224FF480710848FEF769
:103B10000BF800BFFFF776FF701CC6B2082EDEDB85
:103B200015B9FFF7B7FF01E0FFF742FF204670BD70
:103B30000004024070B50446002526E000BFE009FD
:103B400028B1012251021648FDF7EEFF05E00022E0
:103B50004FF400711248FDF7E7FF00BFFFF752FF77
:103B600000BF012211020E48FDF7DEFF00BFFFF784
:103B700049FF00BF00224FF480710948FDF7D4FFD0
:103B800000BF6006040E681CC5B2082DD6DB00BF5E
:103B9000012251020248FDF7C7FF00BF70BD0000BF
:103BA0000004024010B500BF012251021048FDF789
:103BB000BBFF00BF00BF012211020D48FDF7B4FF9B
:103BC00000BFFFF71FFF00BF00224FF4007108483D
:103BD000FDF7AAFF00BFFFF715FF00BF00224FF45B
:103BE00080710348FDF7A0FF00BFFFF70BFF10BD7A
:103BF0000004024010B500BF00224FF400710C48D1
:103C0000FDF792FF00BFFFF7FDFE00BF012211028A
:103C10000748FDF789FF00BFFFF7F4FE00BF012250
:103C200051020348FDF780FF00BFFFF7EBFE10BD18
:103C30000004024070B50024002500BF012251029B
:103C40001548FDF771FF00BFFFF7DCFE00BF012242
:103C500011021148FDF768FF00BFFFF7D3FE07E030
:103C6000601CC4B2FA2C03DDFFF7C4FF012506E097
:103C70004FF400710848FDF745FF0028F0D100BF60
:103C800000BF00224FF480710348FDF74DFF00BFD5
:103C9000FFF7B8FE284670BD0004024000B587B0AB
:103CA00000BF00BF002001903848006840F01000BD
:103CB000364908600846006800F01000019000BF17
:103CC00000BF00BF00BF00BF002001900846006891
:103CD00040F0100008600846006800F010000190F5
:103CE00000BF00BF00BF00BF00BF0020019008461A
:103CF000006840F0100008600846006800F01000FE
:103D0000019000BF00BF00BF00BF00BF00200190B6
:103D10000846006840F0010008600846006800F0AE
:103D20000100019000BF00BF00BF102002900020E2
:103D30000390012004900220059002A91448FDF789
:103D4000DFFD082002900020039001200490022053
:103D5000059002A90E48FDF7D3FD04200290002033
:103D60000390012004900220059002A90848FDF765
:103D7000C7FD0120029000200390022004900590CE
:103D800002A90448FDF7BCFD07B000BD3038024071
:103D9000001002400000024070B50446002514B136
:103DA00001202B4908702A480078002834D01021BF
:103DB0002848FDF7A7FE78B108212648FDF7A2FEA6
:103DC00050B104212348FDF79DFE28B1012122486E
:103DD000FDF798FE01281FD10A20FFF7A1FD002062
:103DE0001B49087010211B48FDF78CFE00B9012506
:103DF00008211848FDF786FE00B902250421154860
:103E0000FDF780FE00B9032501211348FDF77AFE76
:103E100001281BD1042519E010210E48FDF772FE80
:103E2000012813D108210B48FDF76CFE01280DD1A4
:103E300004210848FDF766FE012807D10121064844
:103E4000FDF760FE10B9012001490870284670BDD9
:103E500028000020001002400000024070B5044617
:103E6000002609480588408845430021084603F09C
:103E700007FA03F061FC00BF02E004480480761CEE
:103E8000AE42FAD370BD0000200300208000006C19
:103E900010B5044658488471002C58D1F02056497A
:103EA00008804FF4A07048800846808845F2105181
:103EB000884210D14FF430504F4908814FF42850B8
:103EC00048814FF42C5088814FF4F07008804FF4F3
:103ED000487048801AE04848808841F6631188425B
:103EE0000DD12C20444908812B2048812A2088812B
:103EF0004FF4F07008804FF44870488006E02C20A2
:103F00003D4908812A2048812B2088813A488088B1
:103F100045F21031884205D03748808847F29671C3
:103F2000884206D14FF4A070334908804FF4F070F6
:103F300048803148808849F60601884258D14FF4BC
:103F4000F0702D4908804FF44870488050E04FF4DD
:103F5000A07029490880F02048800846808845F2F2
:103F60001051884210D14FF43050234908814FF44A
:103F7000285048814FF42C5088814FF448700880B5
:103F80004FF4F070488020E01B48808841F66311B0
:103F9000884205D01848808849F6060188420DD12C
:103FA0002C20154908812A2048812B2088814FF434
:103FB000487008804FF4F070488006E02C200E49CD
:103FC00008812A2048812B2088810B48808845F26F
:103FD0001031884205D00848808847F2967188429F
:103FE00006D14FF4F070044908804FF4A070488067
:103FF000002003F027F810BD200300202DE9F04732
:1040000006460F4690469A46002445460320A0EBFC
:10401000480944E07A1B91B2321990B2524600F03E
:1040200099F83A1B91B2721990B2524600F092F888
:104030003A1991B2721990B2524600F08BF87A197F
:1040400091B2321990B2524600F084F87A1991B2C6
:10405000321B90B2524600F07DF83A1991B2721BB1
:1040600090B2524600F076F87A1B91B2321B90B2B1
:10407000524600F06FF83A1B91B2721B90B2524652
:1040800000F068F8641CB9F1000F03DAA000801D8D
:10409000814404E0601B80000A3081446D1EAC4204
:1040A000B8DDBDE8F0872DE9FF4F84B081468A4630
:1040B0000020029083460698A0EB09050798A0EB24
:1040C0000A06CDF80490CDF800A0002D01DD0127EF
:1040D00005E00DB9002702E04FF0FF376D42002EDA
:1040E00002DD4FF0010806E016B94FF0000802E0CB
:1040F0004FF0FF387642B54201DD2C4600E03446F1
:10410000002003901EE0009A91B2019A90B2119A99
:1041100000F020F8029828440290B3440298A0428C
:1041200005DD0298001B0290019838440190A345D8
:1041300004DDABEB040B0098404400900398401C56
:1041400080B20390611C03988842DCDD08B0BDE8B2
:10415000F08F000070B505460E46144631462846DD
:1041600003F08EF803F0E8FA01490C8070BD0000FE
:104170008000006C2DE9F84105460E46174698462A
:10418000079C33463A46314628460094FFF78BFF9A
:1041900043462A46314628460094FFF784FF4346AB
:1041A0003A46414628460094FFF77DFF43463A468B
:1041B000314638460094FFF776FFBDE8F88110B528
:1041C000CF2003F0ADFA002003F09EFAC12003F0E7
:1041D0009BFA302003F098FAED2003F0A1FA642056
:1041E00003F092FA032003F08FFA122003F08CFA06
:1041F000812003F089FAE82003F092FA852003F089
:1042000083FA102003F080FA7A2003F07DFACB20A5
:1042100003F086FA392003F077FA2C2003F074FAC1
:10422000002003F071FA342003F06EFA022003F04C
:104230006BFAF72003F074FA202003F065FAEA2005
:1042400003F06EFA002003F05FFA002003F05CFA3E
:10425000C02003F065FA1B2003F056FAC12003F0DA
:104260005FFA012003F050FAC52003F059FA30201C
:1042700003F04AFA302003F047FAC72003F050FA5F
:10428000B72003F041FA362003F04AFA482003F041
:104290003BFA3A2003F044FA552003F035FAB120F6
:1042A00003F03EFA002003F02FFA1A2003F02CFA54
:1042B000B62003F035FA0A2003F026FAA22003F014
:1042C00023FAF22003F02CFA002003F01DFA262036
:1042D00003F026FA012003F017FAE02003F020FA99
:1042E0000F2003F011FA2A2003F00EFA282003F021
:1042F0000BFA082003F008FA0E2003F005FA082054
:1043000003F002FA542003F0FFF9A92003F0FCF9AE
:10431000432003F0F9F90A2003F0F6F90F2003F027
:10432000F3F9002003F0F0F9002003F0EDF900208C
:1043300003F0EAF9002003F0E7F9E12003F0F0F9D7
:10434000002003F0E1F9152003F0DEF9172003F057
:10435000DBF9072003F0D8F9112003F0D5F9062086
:1043600003F0D2F92B2003F0CFF9562003F0CCF95B
:104370003C2003F0C9F9052003F0C6F9102003F032
:10438000C3F90F2003F0C0F93F2003F0BDF93F202F
:1043900003F0BAF90F2003F0B7F92B2003F0C0F9AE
:1043A000002003F0B1F9002003F0AEF9012003F082
:1043B000ABF93F2003F0A8F92A2003F0B1F900205F
:1043C00003F0A2F9002003F09FF9002003F09CF90C
:1043D000EF2003F099F9112003F0A2F97820FFF7FC
:1043E0009FFA292003F09CF910BD10B5FF2003F0BF
:1043F00097F9FF2003F088F9982003F085F906204B
:1044000003F082F9BC2003F08BF9012003F07CF962
:104410000F2003F079F9612003F076F9FF2003F013
:1044200073F9012003F070F9012003F06DF90B20FE
:1044300003F06AF9102003F067F9372003F064F9FC
:10444000632003F061F9FF2003F05EF9FF2003F021
:104450005BF9012003F058F9012003F055F9002021
:1044600003F052F9002003F04FF9FF2003F04CF95C
:10447000522003F049F9012003F046F9002003F02F
:1044800043F9402003F040F9BD2003F049F9012031
:1044900003F03AF9232003F037F9452003F034F90B
:1044A000672003F031F9012003F02EF9232003F0F7
:1044B0002BF9452003F028F9672003F025F9BE20E9
:1044C00003F02EF9002003F01FF9012003F01CF97E
:1044D000AB2003F019F9602003F016F9222003F055
:1044E00013F9222003F010F9222003F00DF9222005
:1044F00003F00AF9222003F007F9C72003F010F9AE
:10450000362003F001F9ED2003F00AF97F2003F0D3
:10451000FBF80F2003F0F8F8C02003F001F90F209A
:1045200003F0F2F80B2003F0EFF80A2003F0ECF8A8
:10453000FC2003F0F5F8082003F0E6F8DF2003F094
:10454000EFF8002003F0E0F8002003F0DDF8002091
:1045500003F0DAF8002003F0D7F8002003F0D4F8D5
:10456000202003F0D1F8F32003F0DAF8742003F0F0
:10457000CBF8B42003F0D4F8002003F0C5F80020F5
:1045800003F0C2F8002003F0BFF8F72003F0C8F8EA
:10459000822003F0B9F8B12003F0C2F8002003F044
:1045A000B3F8132003F0B0F8132003F0ADF8F220B5
:1045B00003F0B6F8802003F0A7F8042003F0A4F875
:1045C000402003F0A1F8282003F09EF8C12003F05A
:1045D000A7F8172003F098F8882003F095F88820B2
:1045E00003F092F8202003F08FF8E02003F098F811
:1045F000002003F089F80A2003F086F8122003F067
:1046000083F8102003F080F80E2003F07DF82020BE
:1046100003F07AF8CC2003F077F8072003F074F861
:10462000062003F071F80B2003F06EF80E2003F063
:104630006BF80F2003F068F80D2003F065F81520E3
:1046400003F062F8102003F05FF8002003F05CF83C
:10465000E12003F065F8002003F056F80B2003F08A
:1046600053F8132003F050F80D2003F04DF80E20FE
:1046700003F04AF81B2003F047F8712003F044F8D8
:10468000062003F041F8062003F03EF80A2003F06C
:104690003BF80F2003F038F80E2003F035F80F2018
:1046A00003F032F8152003F02FF80C2003F02CF85B
:1046B000002003F029F82A2003F032F8002003F04C
:1046C00023F8002003F020F8012003F01DF8DF207C
:1046D00003F01AF82B2003F023F8002003F014F85D
:1046E000002003F011F8032003F00EF81F2003F060
:1046F0000BF83A2003F014F8552003F005F83620A3
:1047000003F00EF8002002F0FFFF112003F008F87C
:104710007820FFF705F9292003F002F81420FFF7AD
:10472000FFF82C2002F0FCFF10BD10B5ED2002F0C8
:10473000F7FF012002F0E8FFFE2002F0E5FFEE2087
:1047400002F0EEFFDE2002F0DFFF212002F0DCFFAE
:10475000F12002F0E5FF012002F0D6FFDF2002F099
:10476000DFFF102002F0D0FFC42002F0D9FF8F201D
:1047700002F0CAFFC62002F0D3FF002002F0C4FFFF
:10478000E22002F0C1FFE22002F0BEFFE22002F0D0
:10479000BBFFBF2002F0C4FFAA2002F0B5FFB0208B
:1047A00002F0BEFF0D2002F0AFFF002002F0ACFFD0
:1047B0000D2002F0A9FF002002F0A6FF112002F058
:1047C000A3FF002002F0A0FF192002F09DFF0020AF
:1047D00002F09AFF212002F097FF002002F094FFE0
:1047E0002D2002F091FF002002F08EFF3D2002F00C
:1047F0008BFF002002F088FF5D2002F085FF002083
:1048000002F082FF5D2002F07FFF002002F07CFFBB
:10481000B12002F085FF802002F076FF002002F038
:1048200073FF8B2002F070FF002002F06DFF9620D6
:1048300002F06AFF002002F067FFB22002F070FF72
:10484000002002F061FF002002F05EFF022002F073
:104850005BFF002002F058FF032002F055FF00200C
:1048600002F052FFB32002F05BFF002002F04CFF89
:10487000002002F049FF002002F046FF002002F075
:1048800043FF002002F040FF002002F03DFF002027
:1048900002F03AFF002002F037FF002002F034FF60
:1048A000002002F031FF002002F02EFF002002F075
:1048B0002BFF002002F028FF002002F025FF00203F
:1048C00002F022FF002002F01FFF002002F01CFF78
:1048D000002002F019FF002002F016FF002002F075
:1048E00013FF002002F010FF002002F00DFF002057
:1048F00002F00AFF002002F007FFB42002F010FFD0
:104900008B2002F001FF002002F0FEFE962002F054
:10491000FBFE002002F0F8FEA12002F0F5FE0020D0
:1049200002F0F2FEB52002F0FBFE022002F0ECFEE7
:10493000002002F0E9FE032002F0E6FE002002F073
:10494000E3FE042002F0E0FE002002F0DDFEB620CF
:1049500002F0E6FE002002F0D7FE002002F0D4FEB6
:10496000B72002F0DDFE002002F0CEFE002002F0B3
:10497000CBFE3F2002F0C8FE002002F0C5FE5E2004
:1049800002F0C2FE002002F0BFFE642002F0BCFE76
:10499000002002F0B9FE8C2002F0B6FE002002F0EA
:1049A000B3FEAC2002F0B0FE002002F0ADFEDC2031
:1049B00002F0AAFE002002F0A7FE702002F0A4FE82
:1049C000002002F0A1FE902002F09EFE002002F0E6
:1049D0009BFEEB2002F098FE002002F095FEDC200A
:1049E00002F092FE002002F08FFEB82002F098FE46
:1049F000002002F089FE002002F086FE002002F076
:104A000083FE002002F080FE002002F07DFE0020E8
:104A100002F07AFE002002F077FE002002F074FE21
:104A2000BA2002F07DFE242002F06EFE002002F08B
:104A30006BFE002002F068FE002002F065FEC1203F
:104A400002F06EFE202002F05FFE002002F05CFE0D
:104A5000542002F059FE002002F056FEFF2002F022
:104A600053FE002002F050FEC22002F059FE0A2040
:104A700002F04AFE002002F047FE042002F044FE4D
:104A8000002002F041FEC32002F04AFE3C2002F06A
:104A90003BFE002002F038FE3A2002F035FE0020F6
:104AA00002F032FE392002F02FFE002002F02CFE30
:104AB000372002F029FE002002F026FE3C2002F002
:104AC00023FE002002F020FE362002F01DFE002012
:104AD00002F01AFE322002F017FE002002F014FE4F
:104AE0002F2002F011FE002002F00EFE2C2002F01A
:104AF0000BFE002002F008FE292002F005FE002037
:104B000002F002FE262002F0FFFD002002F0FCFD74
:104B1000242002F0F9FD002002F0F6FD242002F02E
:104B2000F3FD002002F0F0FD232002F0EDFD002057
:104B300002F0EAFD3C2002F0E7FD002002F0E4FD77
:104B4000362002F0E1FD002002F0DEFD322002F00E
:104B5000DBFD002002F0D8FD2F2002F0D5FD002063
:104B600002F0D2FD2C2002F0CFFD002002F0CCFD9F
:104B7000292002F0C9FD002002F0C6FD262002F027
:104B8000C3FD002002F0C0FD242002F0BDFD002086
:104B900002F0BAFD242002F0B7FD002002F0B4FDBF
:104BA000232002F0B1FD002002F0AEFDC42002F08F
:104BB000B7FD622002F0A8FD002002F0A5FD05204F
:104BC00002F0A2FD002002F09FFD842002F09CFD77
:104BD000002002F099FDF02002F096FD002002F086
:104BE00093FD182002F090FD002002F08DFDA4201E
:104BF00002F08AFD002002F087FD182002F084FDFB
:104C0000002002F081FD502002F07EFD002002F025
:104C10007BFD0C2002F078FD002002F075FD1720CE
:104C200002F072FD002002F06FFD952002F06CFD95
:104C3000002002F069FDF32002F066FD002002F082
:104C400063FDE62002F060FD002002F05DFDC5205E
:104C500002F066FD322002F057FD002002F054FD04
:104C6000442002F051FD002002F04EFD652002F0CC
:104C70004BFD002002F048FD762002F045FD0020AB
:104C800002F042FD882002F03FFD002002F03CFDD2
:104C9000C62002F045FD202002F036FD002002F083
:104CA00033FD172002F030FD002002F02DFD012021
:104CB00002F02AFD002002F027FDC72002F030FD9F
:104CC000002002F021FD002002F01EFD002002F075
:104CD0001BFD002002F018FDC82002F021FD00207D
:104CE00002F012FD002002F00FFD002002F00CFD8A
:104CF000002002F009FDC92002F012FD002002F0A0
:104D000003FD002002F000FD002002F0FDFC002069
:104D100002F0FAFC002002F0F7FC002002F0F4FCA4
:104D2000002002F0F1FC002002F0EEFC002002F076
:104D3000EBFC002002F0E8FC002002F0E5FC002083
:104D400002F0E2FC002002F0DFFC002002F0DCFCBC
:104D5000002002F0D9FC002002F0D6FCE02002F096
:104D6000DFFC162002F0D0FC002002F0CDFC1C205D
:104D700002F0CAFC002002F0C7FC212002F0C4FCB3
:104D8000002002F0C1FC362002F0BEFC002002F040
:104D9000BBFC462002F0B8FC002002F0B5FC52201B
:104DA00002F0B2FC002002F0AFFC642002F0ACFC88
:104DB000002002F0A9FC7A2002F0A6FC002002F0FC
:104DC000A3FC8B2002F0A0FC002002F09DFC9920A7
:104DD00002F09AFC002002F097FCA82002F094FC5C
:104DE000002002F091FCB92002F08EFC002002F0BD
:104DF0008BFCC42002F088FC002002F085FCCA2055
:104E000002F082FC002002F07FFCD22002F07CFC49
:104E1000002002F079FCD92002F076FC002002F09C
:104E200073FCE02002F070FC002002F06DFCF32027
:104E300002F06AFC002002F067FCE12002F070FC46
:104E4000162002F061FC002002F05EFC1C2002F043
:104E50005BFC002002F058FC222002F055FC0020F0
:104E600002F052FC362002F04FFC002002F04CFC15
:104E7000452002F049FC002002F046FC522002F0DE
:104E800043FC002002F040FC642002F03DFC0020C6
:104E900002F03AFC7A2002F037FC002002F034FCE9
:104EA0008B2002F031FC002002F02EFC992002F051
:104EB0002BFC002002F028FCA82002F025FC00209A
:104EC00002F022FCB92002F01FFC002002F01CFCC2
:104ED000C42002F019FC002002F016FCCA2002F0E7
:104EE00013FC002002F010FCD22002F00DFC002088
:104EF00002F00AFCD82002F007FC002002F004FCBB
:104F0000E02002F001FC002002F0FEFBF32002F0A2
:104F1000FBFB002002F0F8FBE22002F001FC052080
:104F200002F0F2FB002002F0EFFB0B2002F0ECFBA2
:104F3000002002F0E9FB1B2002F0E6FB002002F05B
:104F4000E3FB342002F0E0FB002002F0DDFB442014
:104F500002F0DAFB002002F0D7FB4F2002F0D4FB76
:104F6000002002F0D1FB612002F0CEFB002002F015
:104F7000CBFB792002F0C8FB002002F0C5FB8820A3
:104F800002F0C2FB002002F0BFFB972002F0BCFB46
:104F9000002002F0B9FBA62002F0B6FB002002F0D0
:104FA000B3FBB72002F0B0FB002002F0ADFBC22043
:104FB00002F0AAFB002002F0A7FBC72002F0A4FB2E
:104FC000002002F0A1FBD12002F09EFB002002F0A5
:104FD0009BFBD62002F098FB002002F095FBDD2021
:104FE00002F092FB002002F08FFBF32002F08CFB1A
:104FF000002002F089FBE32002F092FB052002F082
:1050000083FB002002F080FB0A2002F07DFB0020E1
:1050100002F07AFB1C2002F077FB002002F074FB08
:10502000332002F071FB002002F06EFB442002F0FE
:105030006BFB002002F068FB502002F065FB0020B3
:1050400002F062FB622002F05FFB002002F05CFBDA
:10505000782002F059FB002002F056FB882002F075
:1050600053FB002002F050FB972002F04DFB002084
:1050700002F04AFBA62002F047FB002002F044FBAE
:10508000B72002F041FB002002F03EFBC22002F0FC
:105090003BFB002002F038FBC72002F035FB00206C
:1050A00002F032FBD12002F02FFB002002F02CFB9B
:1050B000D52002F029FB002002F026FBDD2002F0C3
:1050C00023FB002002F020FBF32002F01DFB002058
:1050D00002F01AFBE42002F023FB012002F014FB93
:1050E000002002F011FB012002F00EFB002002F074
:1050F0000BFB022002F008FB002002F005FB2A2037
:1051000002F002FB002002F0FFFA3C2002F0FCFA61
:10511000002002F0F9FA4B2002F0F6FA002002F02B
:10512000F3FA5D2002F0F0FA002002F0EDFA7420AC
:1051300002F0EAFA002002F0E7FA842002F0E4FA32
:10514000002002F0E1FA932002F0DEFA002002F0E3
:10515000DBFAA22002F0D8FA002002F0D5FAB32040
:1051600002F0D2FA002002F0CFFABE2002F0CCFA10
:10517000002002F0C9FAC42002F0C6FA002002F0B2
:10518000C3FACD2002F0C0FA002002F0BDFAD3200D
:1051900002F0BAFA002002F0B7FADD2002F0B4FA09
:1051A000002002F0B1FAF32002F0AEFA002002F083
:1051B000ABFAE52002F0B4FA002002F0A5FA0020D4
:1051C00002F0A2FA002002F09FFA002002F09CFAFE
:1051D000022002F099FA002002F096FA292002F04B
:1051E00093FA002002F090FA3C2002F08DFA0020A1
:1051F00002F08AFA4B2002F087FA002002F084FACB
:105200005D2002F081FA002002F07EFA742002F0A4
:105210007BFA002002F078FA842002F075FA002070
:1052200002F072FA932002F06FFA002002F06CFA9A
:10523000A22002F069FA002002F066FAB32002F020
:1052400063FA002002F060FABE2002F05DFA00204E
:1052500002F05AFAC42002F057FA002002F054FA81
:10526000CD2002F051FA002002F04EFAD32002F0D5
:105270004BFA002002F048FADC2002F045FA002048
:1052800002F042FAF32002F03FFA002002F03CFA6A
:10529000E62002F045FA112002F036FA002002F072
:1052A00033FA342002F030FA002002F02DFA5620B2
:1052B00002F02AFA002002F027FA762002F024FAFF
:1052C000002002F021FA772002F01EFA002002F0FE
:1052D0001BFA662002F018FA002002F015FA882066
:1052E00002F012FA002002F00FFA992002F00CFAF4
:1052F000002002F009FABB2002F006FA002002F0BA
:1053000003FA992002F000FA002002F0FDF966206D
:1053100002F0FAF9002002F0F7F9552002F0F4F952
:10532000002002F0F1F9552002F0EEF9002002F021
:10533000EBF9452002F0E8F9002002F0E5F94320FE
:1053400002F0E2F9002002F0DFF9442002F0DCF97B
:10535000002002F0D9F9E72002F0E2F9322002F051
:10536000D3F9002002F0D0F9552002F0CDF9002049
:1053700002F0CAF9762002F0C7F9002002F0C4F961
:10538000662002F0C1F9002002F0BEF9672002F0A9
:10539000BBF9002002F0B8F9672002F0B5F900204F
:1053A00002F0B2F9872002F0AFF9002002F0ACF968
:1053B000992002F0A9F9002002F0A6F9BB2002F022
:1053C000A3F9002002F0A0F9992002F09DF9002035
:1053D00002F09AF9772002F097F9002002F094F990
:1053E000442002F091F9002002F08EF9562002F0DC
:1053F0008BF9002002F088F9232002F085F90020C3
:1054000002F082F9332002F07FF9002002F07CF9EB
:10541000452002F079F9002002F076F9E82002F048
:105420007FF9002002F070F9002002F06DF9992058
:1054300002F06AF9002002F067F9872002F064F9AF
:10544000002002F061F9882002F05EF9002002F0ED
:105450005BF9772002F058F9002002F055F9662038
:1054600002F052F9002002F04FF9882002F04CF9C6
:10547000002002F049F9AA2002F046F9002002F0CB
:1054800043F9BB2002F040F9002002F03DF99920D9
:1054900002F03AF9002002F037F9662002F034F900
:1054A000002002F031F9552002F02EF9002002F020
:1054B0002BF9552002F028F9002002F025F94420AC
:1054C00002F022F9002002F01FF9442002F01CF93A
:1054D000002002F019F9552002F016F9002002F020
:1054E00013F9E92002F01CF9AA2002F00DF90020BE
:1054F00002F00AF9002002F007F9002002F004F996
:10550000002002F00DF9AA2002F0FEF8CF2002F0F0
:1055100007F9002002F0F8F8002002F0F5F800206A
:1055200002F0F2F8002002F0EFF8002002F0ECF8B0
:10553000002002F0E9F8002002F0E6F8002002F076
:10554000E3F8002002F0E0F8002002F0DDF800208F
:1055500002F0DAF8002002F0D7F8002002F0D4F8C8
:10556000002002F0D1F8002002F0CEF8002002F076
:10557000CBF8002002F0C8F8F02002F0D1F80020AB
:1055800002F0C2F8502002F0BFF8002002F0BCF890
:10559000002002F0B9F8002002F0B6F8F32002F083
:1055A000BFF8002002F0B0F8F92002F0B9F80620A8
:1055B00002F0AAF8102002F0A7F8292002F0A4F8BF
:1055C000002002F0A1F83A2002F0AAF8552002F0DB
:1055D0009BF8112002F0A4F86420FEF7A1F929201D
:1055E00002F09EF8352002F09BF8002002F08CF8C3
:1055F000512002F095F8FF2002F086F8532002F0C7
:105600008FF82C2002F080F8552002F089F88220D3
:1056100002F07AF82C2002F083F810BD10B5552165
:105620004FF4704002F092F8AA214FF2010002F00C
:105630008DF852214FF2020002F088F808214FF253
:10564000030002F083F801214FF2040002F07EF81B
:105650000D214FF4304002F079F80D214BF201009A
:1056600002F074F80D214BF2020002F06FF83421C1
:105670004FF4364002F06AF834214BF2016002F038
:1056800065F834214BF2026002F060F80D214FF40E
:10569000314002F05BF80D214BF2011002F056F898
:1056A0000D214BF2021002F051F834214FF4374033
:1056B00002F04CF834214BF2017002F047F834212B
:1056C0004BF2027002F042F800214FF4324002F037
:1056D0003DF800214BF2012002F038F800214BF296
:1056E000022002F033F824214FF4384002F02EF863
:1056F00024214BF6010002F029F824214BF6020088
:1057000002F024F801214FF43F4002F01FF80F216E
:105710004FF4334002F01AF80F214BF2013002F03F
:1057200015F80F214BF2023002F010F834214FF43B
:10573000394002F00BF834214BF6011002F006F864
:1057400034214BF6021002F001F808214FF43540E5
:1057500001F0FCFF08214BF2015001F0F7FF082196
:105760004BF2025001F0F2FF03214FF4424001F0EE
:10577000EDFF24214FF43A4001F0E8FF24214BF6DD
:10578000012001F0E3FF24214BF6022001F0DEFFAF
:1057900000214FF43C4001F0D9FF78214BF6014045
:1057A00001F0D4FF00214BF6024001F0CFFF0021B1
:1057B0004FF43D4001F0CAFF78214BF6015001F053
:1057C000C5FF00214BF6025001F0C0FF00214FF44D
:1057D0003E4001F0BBFF64214BF6016001F0B6FFD3
:1057E00000214FF4514001F0B1FF33214DF201107F
:1057F00001F0ACFF00214DF2021001F0A7FF3421AF
:105800004DF2031001F0A2FF00214DF2041001F04F
:105810009DFF3A214DF2051001F098FF00214DF255
:10582000061001F093FF4A214DF2071001F08EFFA0
:1058300000214DF2081001F089FF5C214DF20910A2
:1058400001F084FF00214DF20A1001F07FFF812159
:105850004DF20B1001F07AFF00214DF20C1001F017
:1058600075FFA6214DF20D1001F070FF00214DF2E1
:105870000E1001F06BFFE5214DF20F1001F066FFF5
:1058800001214DF2101001F061FF13214DF21110B2
:1058900001F05CFF01214DF2121001F057FF54217D
:1058A0004DF2131001F052FF01214DF2141001F0DE
:1058B0004DFF82214DF2151001F048FF01214DF2FC
:1058C000161001F043FFCA214DF2171001F03EFF00
:1058D00002214DF2181001F039FF00214DF219108C
:1058E00001F034FF02214DF21A1001F02FFF0121C7
:1058F0004DF21B1001F02AFF02214DF21C1001F0A5
:1059000025FF34214DF21D1001F020FF02214DF240
:105910001E1001F01BFF67214DF21F1001F016FF52
:1059200002214DF2201001F011FF84214DF22110CF
:1059300001F00CFF02214DF2221001F007FFA4211B
:105940004DF2231001F002FF02214DF2241001F06C
:10595000FDFEB7214DF2251001F0F8FE02214DF2B7
:10596000261001F0F3FECF214DF2271001F0EEFEDC
:1059700002214DF2281001F0E9FEDE214DF229103E
:1059800001F0E4FE02214DF22A1001F0DFFEF221C7
:105990004DF22B1001F0DAFE02214DF22C1001F035
:1059A000D5FEFE214DF22D1001F0D0FE03214DF267
:1059B0002E1001F0CBFE10214DF22F1001F0C6FE8B
:1059C00003214DF2301001F0C1FE33214DF23110B0
:1059D00001F0BCFE03214DF2321001F0B7FE6D2143
:1059E0004DF2331001F0B2FE00214FF4524001F0AD
:1059F000ADFE33214DF2012001F0A8FE00214DF251
:105A0000022001F0A3FE34214DF2032001F09EFE9E
:105A100000214DF2042001F099FE3A214DF20520BB
:105A200001F094FE00214DF2062001F08FFE4A2184
:105A30004DF2072001F08AFE00214DF2082001F00E
:105A400085FE5C214DF2092001F080FE00214DF21F
:105A50000A2001F07BFE81214DF20B2001F076FE41
:105A600000214DF20C2001F071FEA6214DF20D2017
:105A700001F06CFE00214DF20E2001F067FEE521E1
:105A80004DF20F2001F062FE01214DF2102001F0D5
:105A90005DFE13214DF2112001F058FE01214DF25F
:105AA000122001F053FE54214DF2132001F04EFE5E
:105AB00001214DF2142001F049FE82214DF2152002
:105AC00001F044FE01214DF2162001F03FFECA21F3
:105AD0004DF2172001F03AFE02214DF2182001F09C
