:020000040800F2
:100000003818002089020008B3200008AB2000083F
:10001000AF200008FD080008852700080000000048
:10002000000000000000000000000000FD210008AA
:100030000109000800000000B5200008FF210008A9
:10004000AD020008AD020008AD020008AD020008D4
:10005000AD020008AD020008AD020008AD020008C4
:10006000AD020008AD020008AD020008AD020008B4
:10007000AD020008AD020008AD020008AD020008A4
:10008000AD020008AD020008AD020008AD02000894
:10009000AD020008AD020008AD020008AD02000884
:1000A000AD020008AD020008AD020008AD02000874
:1000B000AD020008AD0200081D220008AD020008D4
:1000C000AD020008AD020008AD020008AD02000854
:1000D000AD02000835270008AD020008AD02000897
:1000E000AD020008AD020008AD020008AD02000834
:1000F000AD020008AD020008AD020008AD02000824
:10010000AD020008AD020008AD020008AD02000813
:10011000AD020008AD020008AD020008AD02000803
:10012000AD020008AD020008AD020008AD020008F3
:10013000AD020008AD020008AD020008AD020008E3
:10014000AD020008AD020008AD020008AD020008D3
:10015000AD020008AD020008AD020008AD020008C3
:10016000AD020008AD020008AD020008AD020008B3
:10017000AD020008AD020008AD020008000000005A
:10018000AD020008AD02000800F002F800F06DF8C2
:100190000AA090E8000C82448344AAF10107DA45E2
:1001A00001D100F062F8AFF2090EBAE80F0013F0C7
:1001B000010F18BFFB1A43F001031847A0AD000060
:1001C000C0AD00000A444FF0000C10F8013B13F0E2
:1001D000070408BF10F8014B1D1108BF10F8015BA0
:1001E000641E05D010F8016B641E01F8016BF9D193
:1001F00013F0080F1EBF10F8014BAD1C0C1B09D1EA
:100200006D1E58BF01F801CBFAD505E014F8016B5B
:1002100001F8016B6D1EF9D59142D6D370470000ED
:100220000023002400250026103A28BF78C1FBD8FF
:10023000520728BF30C148BF0B607047642900F0E7
:100240003181752900F02E81782900F067816329BA
:1002500000F0FF82732900F00483002070471FB56F
:1002600007F04CFC1FBD10B510BD00F015FB11468A
:10027000FFF7F5FF05F072FD00F033FB03B4FFF765
:10028000F2FF03BC02F0A3FA0C48016841F47001CC
:1002900001600B4880470B480047FEE7FEE7FEE79A
:1002A000FEE7FEE7FEE7FEE7FEE7FEE7FEE700000B
:1002B00005480649044A064B7047000088ED00E0F7
:1002C000092200088901000838140020381800208D
:1002D00038140020704753EA020C00F069802DE9C1
:1002E000F04B4FF00006002B1FBFB3FA83F503FA63
:1002F00005F424FA05F65E4012BF1643B2FA82F501
:1003000002FA05F4C5F120051EBF22FA05FC44EAF5
:100310000C04203556EA044C4FEA144418BF641C00
:100320004FF000084FF00009904271EB030C39D3F5
:10033000002919BFB1FA81F701FA07F6B0FA80F780
:1003400000FA07F6C7F120071EBF20FA07FC46EAAD
:100350000C062037B6FBF4FCA7EB0507103F07F0AF
:100360001F0BCBF120060CFA0BFB2CFA06F644BF50
:10037000B3460026202FA4BF5E464FF0000B5BEA79
:10038000060C08BF4FF0010B19EB0B09ABFB027C0D
:1003900048EB0608C01B06FB02CC0BFB03CC71EB41
:1003A0000C01C1E70B46024641464846BDE8F08BCA
:1003B00013B54FF000004FF00001AFF30080BDE82F
:1003C0001C4070470FB4044910B503AA029800F00E
:1003D0004DFA10BC5DF814FB080000200FB41CB5EA
:1003E000074B06AA7B4469460090059800F00FFA77
:1003F0000020694600F01EFA1CBC5DF814FB0000EA
:100400004D04000070B5044685690068C10601D539
:10041000302600E02026C00707D070BDD4E90121B6
:1004200030469047206A401C20626D1EF6D570BD94
:1004300070B5044685690078C00707D170BDD4E95E
:10044000012120209047206A401C20626D1EF6D5B5
:1004500070BD70B50C460546012A05D02878800687
:1004600000D5EA69002302E0012305E05B1C93420A
:1004700002D2E05C0028F9D1A869E618C01AA86188
:10048000286A184428622846FFF7BCFF04E0D5E933
:10049000012114F8010B9047B442F8D32846FFF726
:1004A000C7FF70BD2DE9F04106460024106875298C
:1004B000314616A510D0AFF30080002802DA404282
:1004C00013A507E031688A0701D512A502E04907A4
:1004D00004D511A5012401E0AFF3008000210A2218
:1004E00006F1240709E0B0FBF2FCB0FBF2F302FBDB
:1004F0001C00303078541846491C0028F3D123469C
:100500002A463046BDE8F04100F023B90000000063
:100510002D0000002B0000002000000070B50446F4
:100520000D4621461068AFF300802188090502D5E9
:100530000F4A7A4402E00E4A7A440E32002104F156
:10054000240305E000F00F060009965D5E54491C87
:100550000028F7D120780023000704D5702D02D0A1
:1005600009B1022311322046BDE8704000F0F1B815
:1005700077A500002DE9F05F894604464FF0000A98
:10058000DFF874B1FB44C0F820A02046E16888473A
:10059000002874D0252806D0D4E901219047206A8C
:1005A000401C2062F1E700265F462046E16888474C
:1005B0002028054607DB312D05D2781910F8200CCC
:1005C00008B10643F1E7B00701D526F00406C4F8E8
:1005D0001CA00027C4F818A02A2D09D0284602F034
:1005E000EFF838B304EB8708303DC8F8185019E02D
:1005F00059F8041B204604EB87029161E1688847A3
:10060000012F054618D1E069002820DA26F02006DF
:100610001DE0D8F8180000EB800005EB40003038F2
:10062000C8F818002046E1688847054602F0C8F877
:100630000028EED1012F0AD02E2D08D12046E168E6
:1006400088477F1C0546022F46F02006C4DBA069C0
:10065000002803DA404246F00106A061F00701D00D
:1006600026F010066C2D0BD0682D09D04C2D39D0FA
:100670006A2D35D0742D35D07A2D33D016E038E080
:10068000E1682F4620468847B842054609D16C2FBD
:1006900026D04FF48060E16806432046884705462F
:1006A00004E06C2F1AD04FF4807006430DB3A5F10F
:1006B0004100192802D8203546F400664A462946EA
:1006C000204626604E46FFF7B9FD80B101280BD0C9
:1006D000F61D26F0070000F1080956E74020E4E780
:1006E0008020D8E70020D6E706F104094DE7284628
:1006F00052E7206ABDE8F09F4DA500004FF00002D0
:1007000000B5134694469646203922BFA0E80C5007
:10071000A0E80C50B1F12001BFF4F7AF090728BFE2
:10072000A0E80C5048BF0CC05DF804EB890028BF5E
:1007300040F8042B08BF704748BF20F8022B11F087
:10074000804F18BF00F8012B704770477047704703
:1007500070472DE9F0470D4699469246044600F150
:1007600024080168880604D5E06921F010012160A1
:1007700000E00120A84201DD471B00E00027A1693D
:100780007A1902EB0900081AA0612078C00602D489
:100790002046FFF737FE002608E0D4E901211AF8C9
:1007A00006009047206A401C761C20624E45F4DB10
:1007B0002078C0060AD52046FFF724FE06E0D4E9DB
:1007C000012130209047206A401C2062381EA7F18A
:1007D0000107F4DC07E0D4E9012118F8050090478F
:1007E000206A401C2062281EA5F10105F3DC20468A
:1007F000FFF71EFE2078000602D50220BDE8F08734
:100800000120FBE701694A1C02610878704700B5C6
:100810008FB0CDE901310021059105497944CDE939
:10082000031011466846FFF7A5FE0FB000BD00009B
:10083000E5FFFFFF0A6802F8010B0A60704710B578
:10084000436913B1AFF3008001E0FFF702FE01201E
:1008500010BD127800F124010A7000224A700122B2
:10086000EDE711684FF0FF32E9E70000074B70B584
:100870000D467B44FFF7CBFF0446284600F008F8FE
:1008800010B14FF0FF3070BD204670BDC71F000093
:10089000007B00F080007047754600F02BF8AE46F4
:1008A00005006946534620F00700854618B020B57C
:1008B000FFF7FEFCBDE820404FF000064FF00007B8
:1008C0004FF000084FF0000B21F00701AC46ACE8F8
:1008D000C009ACE8C009ACE8C009ACE8C0098D4665
:1008E000704710B50446AFF300802046BDE81040C5
:1008F000FFF7C4BC00487047D413002000BFFEE7D8
:100900007047000070B504461D460023B5F5804FC2
:1009100013D154F822300C480340D1E9000640EAD4
:1009200006108E6840EA06208E8940EA06408E69ED
:100930003043034344F8223003E06FF0704044F842
:100940002200002070BD00000000F0CF10B503466B
:100950000022086853F8202012480240D1E901041F
:100960002043CC6820430C6920434C6920438C69A8
:100970002043CC6920430C6A20434C6A20438C6A94
:100980002043CC6A2043CC6B20430C6B20430243B2
:100990008868082801D142F04002086843F8202006
:1009A000002010BD8000F0FF30B503460024501C2D
:1009B00053F8204004F04044D1E9000540EA051016
:1009C0008D6840EA05208D8940EA0545088A401E69
:1009D00045EA0055087D801E45EA00608D69284380
:1009E0000443501C43F82040002030BD70B504463D
:1009F000A56D00F085F9064694F83500022808D068
:100A00008020606500BF002084F8340000BF012012
:100A100070BD2068006820F016002168086020681A
:100A2000406920F0800021684861206C08B9A06C02
:100A300028B12068006820F008002168086020685C
:100A4000006820F00100216808600FE000F058F90C
:100A5000801B05280AD92020606500BF002084F88B
:100A6000340000BF032084F83500D1E72068006817
:100A700000F001000028E9D194F85C103F20884084
:100A8000A86000BF002084F8340000BF012084F873
:100A900035000020BCE7014691F83500022803D05C
:100AA0008020486501207047052081F835000868DE
:100AB000006820F001000A6810600020F3E70000E1
:100AC000F8B502460B460025002400200021DEE098
:100AD000012606FA01F51E6806EA0504AC4275D146
:100AE0001E7906F00306012E04D01E7906F00306D7
:100AF000022E13D190684F000326BE40B0434F0032
:100B0000DE68BE4030439060506801268E40B0439E
:100B10001E79C6F300168E40304350601E7906F0F1
:100B20000306032E09D0D0684F000326BE40B04311
:100B30004F009E68BE403043D0601E7906F0030629
:100B4000022E13D1CF0802F1200656F827004E07D7
:100B5000F70E0F26BE40B0434F07FF0E1E69BE4082
:100B60003043CF0802F1200646F8270010684F00F6
:100B70000326BE40B0431E7906F003064F00BE4078
:100B8000304310605E6806F08056B6F1805F7DD11C
:100B900000BF00260096404E366846F480463E4F21
:100BA0003E603E46366806F48046009600BF00BFB1
:100BB0003A4E8F0856F827008E07370F0F26BE4093
:100BC000B043374EB24202D1002624E05EE0354EFB
:100BD000B24201D101261EE0334EB24201D10226BB
:100BE00019E0324EB24201D1032614E0304EB24237
:100BF00001D104260FE02F4EB24201D105260AE0B2
:100C00002D4EB24201D1062605E02C4EB24201D152
:100C1000072600E008268F073F0FBE4030431F4ED7
:100C20008F0846F82700264E3068A0435E6806F419
:100C30008036B6F5803F00D12043214E3060361D0E
:100C40003068A0435E6806F40036B6F5003F00D178
:100C500020431B4E361D3060361D3068A0435E6851
:100C600006F48016B6F5801F00D12043144E0836D6
:100C70003060361D3068A0435E6806F40016B6F595
:100C8000001F00D120430E4E0C363060491C102945
:100C9000FFF41EAFF8BD00004438024008380140A0
:100CA000000002400004024000080240000C024024
:100CB000001002400014024000180240001C0240D4
:100CC000003C0140024613690B400BB1012000E0DB
:100CD0000020704710B5426921EA020302EA0104CC
:100CE00043EA0443836110BD0AB1816101E00B0452
:100CF0008361704701480068000C7047002004E0E1
:100D00000148006870470000100000200348006898
:100D10000349097808440149086070471000002021
:100D20001800002010B50A48006840F40070084917
:100D300008600846006840F480600860032000F006
:100D40007FF80F2000F006F800F02AF8002010BD10
:100D5000003C024070B504460E4800784FF47A71AA
:100D6000B1FBF0F00C490968B1FBF0F5284600F042
:100D7000BFFE08B1012070BD102C07D20022214611
:100D8000501E00F01EF80548046001E00120F2E763
:100D90000020F0E7180000200000002014000020D0
:100DA000704701460846002809DB00F01F030122B6
:100DB0009A4043099B0003F1E023C3F8002100BFE0
:100DC00070472DE9F05F80460D461646002701F07A
:100DD000DBFC074639462A46334601F00700C0F1DE
:100DE000070ABAF1040F02D94FF0040A01E0C0F17A
:100DF000070AD14600F1040ABAF1070F02D24FF0F8
:100E0000000A01E0A0F1030AD4464FF0010A0AFAF1
:100E100009FAAAF1010A0AEA020A0AFA0CFA4FF0E0
:100E2000010B0BFA0CFBABF1010B0BEA030B4AEACB
:100E30000B042146404601F0AFFCBDE8F09F0000E6
:100E400000BF00F00702064B19684FF6FF03194078
:100E5000044B0B4343EA0221014B196000BF70476A
:100E60000CED00E00000FA0570B504460D460CB923
:100E7000012070BD5848006800F00700A84209D260
:100E800055490D700846006800F00700A84201D0DF
:100E90000120EEE7207800F0020002281DD1207822
:100EA00000F00400042805D14C48006840F4E050EC
:100EB0004A490860207800F00800082805D1474812
:100EC000006840F46040454908604448006820F0EC
:100ED000F000A168084341490860207800F0010053
:100EE000A8B36068012807D13C4808380068C0F3FF
:100EF0004040B8B90120BCE76068022802D06068B1
:100F0000032807D1354808380068C0F3406048B965
:100F10000120AEE7314808380068C0F3400008B946
:100F20000120A6E72D48006820F00300616808430F
:100F30002A490860FFF7E4FE064609E0FFF7E0FEF5
:100F4000801B41F28831884202D9032091E707E0F3
:100F50002248006800F00C006168B0EB810FEDD111
:100F60001D48006800F00700A84209D91A490D7011
:100F70000846006800F00700A84201D0012078E789
:100F8000207800F00400042807D11448006820F4F9
:100F9000E050E168084311490860207800F008003B
:100FA000082808D10D48006820F46040216940EA13
:100FB000C1000A49086000F03FF808490968C1F318
:100FC0000311074A515CC84006490860064800689A
:100FD000FFF7C0FE00204CE7003C0240083802400A
:100FE000157B000800000020140000200148006864
:100FF000704700000000002000B5FFF7F7FF04492C
:101000000968C1F38221034A515CC84000BD000059
:1010100008380240257B000800B5FFF7E7FF0449C8
:101020000968C1F34231034A515CC84000BD000069
:1010300008380240257B00082DE9F04700240025F0
:101040000026A1462548006800F00C0020B10428C5
:1010500005D008283AD105E0DFF8849039E0DFF8C0
:10106000849036E01D48001F006800F03F041B48D4
:10107000001F006800F4800078B11A481749091F62
:101080000968C1F38811A0FB0170014622460023C4
:101090003846FFF720F905460EE011480F49091FB1
:1010A0000968C1F38811A0FB0170014622460023A4
:1010B0003846FFF710F905460848001F0068C0F3DE
:1010C0000140401C4600B5FBF6F902E0DFF8109045
:1010D00000BF00BF4846BDE8F08700000838024066
:1010E0000024F40000127A00F8B504460CB901207F
:1010F000F8BD207800F00100002874D0F94800689D
:1011000000F00C0004280DD0F648006800F00C0038
:10111000082813D1F348001F006800F48000B0F5E0
:10112000800F0BD1EF4808380068C0F3404000281A
:1011300059D06068002856D10120D9E700BF606807
:10114000B0F5803F08D1E7480838006840F48030A7
:10115000E449083908601EE06068B0F5A02F0DD1A1
:10116000E0480838006840F48020DE49083908600B
:101170000846006840F4803008600CE0D948083820
:10118000006820F48030D7490839086008460068B4
:1011900020F48020086000BF606890B1FFF7B0FDC8
:1011A000054606E0FFF7ACFD401B642801D903208B
:1011B0009EE7CC4808380068C0F340400028F1D0D2
:1011C00011E0FFF79DFD054606E0FFF799FD401B86
:1011D000642801D903208BE7C24808380068C0F3AF
:1011E00040400028F1D1207800F0020002285FD1B1
:1011F000BC48006800F00C0058B1BA48006800F024
:101200000C0008281CD1B748001F006800F48000BB
:10121000B0B9B44808380068C0F3400020B1E068B5
:10122000012801D0012063E7AE480838006820F0AB
:10123000F800216940EAC100AA490839086037E08E
:10124000E06800B30120A8490860FFF759FD054692
:1012500006E0FFF755FD401B022801D9032047E7B0
:10126000A04808380068C0F340000028F1D09D482D
:101270000838006820F0F800216940EAC100994967
:101280000839086014E0002097490860FFF738FD2E
:10129000054606E0FFF734FD401B022801D9032074
:1012A00026E7904808380068C0F340000028F1D1D4
:1012B000207800F0080008282CD16069A8B101202E
:1012C0008A490860FFF71CFD054606E0FFF718FD98
:1012D000401B022801D903200AE782486C300068CD
:1012E000C0F340000028F1D014E000207F490860DE
:1012F000FFF706FD054606E0FFF702FD401B02284A
:1013000001D90320F4E677486C300068C0F3400050
:101310000028F1D1207800F00400042870D10027C3
:1013200070483830006800F0805090B900BF00204D
:1013300000906C483830006840F08050694938317E
:1013400008600846006800F08050009000BF00BFB1
:1013500001276748006800F48070B0B964480068ED
:1013600040F4807062490860FFF7CAFC054606E059
:10137000FFF7C6FC401B022801D90320B8E65C48F1
:10138000006800F480700028F2D000BFA068012837
:1013900008D154486830006840F001005149683174
:1013A00008601DE0A06805280DD14E48683000682F
:1013B00040F004004B49683108600846006840F07E
:1013C000010008600CE047486830006820F0010028
:1013D0004449683108600846006820F0040008604D
:1013E00000BFA068A8B1FFF78BFC054609E0FFF736
:1013F00087FC401B41F28831884202D9032077E6FE
:1014000026E0384868300068C0F340000028EED07D
:1014100013E0FFF775FC054608E0FFF771FC401B81
:1014200041F28831884201D9032061E62D486830B5
:101430000068C0F340000028EFD1012F07D12948F0
:101440003830006820F0805026493831086000BFED
:10145000A069002845D02348006800F00C00082847
:101460005DD0A069022845D100201F490866FFF71A
:1014700047FC054606E0FFF743FC401B022801D964
:10148000032035E6174808380068C0F3406000289C
:10149000F1D1D4E907010843616A40EA81110122D0
:1014A000A06AC2EB500041EA00412C20005D41EAF5
:1014B00000600C49091F086001200B490866FFF70E
:1014C0001FFC054606E0FFF71BFC401B022801D964
:1014D00003200DE6034808380068C0F34060002888
:1014E000F1D049E00838024000004742800E4742F0
:1014F00000700040002021490866FFF701FC054606
:1015000006E0FFF7FDFB401B022801D90320EFE5B1
:101510001B480068C0F340600028F2D12CE0A069AD
:10152000012800D1E4E51648001D0668A0690128DD
:1015300020D006F48001E06981421BD106F03F0112
:10154000206A814216D147F6C0703040616AB0EB24
:10155000811F0FD106F440310122A06AC2EB500076
:10156000B1EB004F06D106F070612C20005DB1EBAD
:10157000006F01D00120BBE50020B9E50000474223
:101580000038024010B504460CB9012010BD606A55
:1015900038B96068B0F5827F00D105E00021E161D3
:1015A00002E0002121616161A06AB0F5005F00D115
:1015B00000BF94F8510028B9002084F8500020465C
:1015C00000F050F8022084F851002068006820F0F4
:1015D000400021680860A08800F48270218901F42D
:1015E00004410843A18901F400610843217C01F012
:1015F00002010843217D01F001010843218B01F420
:1016000000710843217F01F0380108432021095D62
:1016100001F080010843218D01F400510843216845
:1016200008600421A06901EA104094F8241001F038
:101630001001084321684860A06AB0F5005F03D13B
:10164000A08D80B2216808612068C06920F4006024
:101650002168C86100206065012084F851000020E5
:1016600094E7000010B586B004462A4920688842F5
:101670004DD100BF00BF002000902748006840F017
:101680000200254908600846006800F0020000904A
:1016900000BF00BF00BF00BF00BF00200090084691
:1016A000006840F0020008600846006800F0020090
:1016B000009000BF00BF00BF00BF00BF002000902F
:1016C0000846006840F0020008600846006800F024
:1016D0000200009000BF00BF00BF08200190022060
:1016E000029001200390022004900520059001A99A
:1016F0000A48FFF7E5F91020019001A90748FFF714
:10170000DFF92020019001A90448FFF7D9F906B0BC
:1017100010BD00000030014030380240000402409B
:101720002DE9F04F85B00446884691461D460E9E31
:1017300000200490012002900020019000BF94F846
:101740005000012803D1022005B0BDE8F08F012030
:1017500084F8500000BFFFF7D3FA074694F851B061
:1017600060680390AA46BBF1010F0BD00398B0F557
:10177000827F04D1A06810B9BBF1040F02D002200F
:1017800001902CE1B8F1000F03D0B9F1000F00D0A7
:1017900015B90120019022E194F85100042802D0EB
:1017A000052084F8510000206065C4F83890E58772
:1017B000A587C4F83080E586A58620646064A06AA9
:1017C000B0F5005F0DD100BF2068006820F4005024
:1017D000216808602068006840F4005021680860B3
:1017E00000BF2068006800F04000402805D0206855
:1017F000006840F0400021680860E068B0F5006FC4
:1018000056D1606810B1BAF1010F09D1206B008880
:101810002168C860206B801C2063E08E401EE0863B
:101820003FE02068806800F0020002281CD1E08EB2
:10183000D0B10298012817D1206B00882168C860B8
:10184000206B801C2063E08E401EE086002002900A
:10185000E08E48B9A06AB0F5005F05D12068006845
:1018600040F48050216808602068806800F0010022
:1018700068B1E08F58B12068C068A16B0880A06B88
:10188000801CA063E08F401EE08701200290FFF7DC
:1018900037FAC01BB04204D3701C10B10320019072
:1018A0009DE0E08E0028BCD1E08F0028B9D156E041
:1018B000606810B1BAF1010F09D1206B007821687E
:1018C0000873206B401C2063E08E401EE08640E0E1
:1018D0002068806800F0020002281CD1E08ED0B1A0
:1018E0000298012817D1206B007821680873206BBB
:1018F000401C2063E08E401EE08600200290E08EB7
:1019000048B9A06AB0F5005F05D12068006840F4CE
:101910008050216808602068806800F0010068B18C
:10192000E08F58B12068C068A16B0870A06B401CA4
:10193000A063E08F401EE08701200290FFF7E0F9EE
:10194000C01BB04201D3701C00B916B9032001902E
:1019500045E0E08E0028BBD1E08F0028B8D1A06A16
:10196000B0F5005F12D133460122114620460097A0
:1019700000F0D8FB30B1606D40F0020060650320DC
:1019800001902CE02068C068049000BF2068806847
:1019900000F01000102809D1606D40F00200606571
:1019A0004FF6EF7021688860012001903A46314679
:1019B000204600F081FB20B10120019020206065CD
:1019C0000DE0A06850B900BF002000902068C068FA
:1019D000009020688068009000BF00BF00BF012019
:1019E00084F8510000BF002084F8500000BF019827
:1019F000AAE670B504460E4615460CB9012070BD26
:101A000094F8490028B9002084F84800204600F0E6
:101A10001DF804F108012068FEF798FF3146A2681E
:101A20002068FEF7C1FF2946236BD4E90102FEF7C7
:101A300069FFA168206850F8210040F00100A26809
:101A4000216841F822000020D9E7000010B586B0D7
:101A5000044600BF002000902248006840F00100CA
:101A6000204908600846006800F00100009000BFAF
:101A700000BF00BF002000901A480838006840F0FE
:101A800008001849083908600846006800F0080096
:101A9000009000BF00BF00BF002000900846006813
:101AA00040F0100008600846006800F01000009048
:101AB00000BF00BF4CF20370019002200290012091
:101AC0000390022004900C20059001A90648FEF71F
:101AD000F7FF4FF68070019001A90448FEF7F0FF70
:101AE00006B010BD38380240000C02400010024021
:101AF00070B504462546681EB0F1807F01D30120F1
:101B00000FE0681E4FF0E02148610F214FF0FF30D9
:101B100000F042FE00204FF0E021886107200861BC
:101B2000002070BD10B504460CB9012010BD94F81A
:101B30003D0028B9002084F83C00204600F025F83C
:101B4000022084F83D00211D206800F089FB01205F
:101B500084F8460000BF84F83E0001213F20015573
:101B6000402001554120015500BF00BF012084F8ED
:101B7000420043200155442001554520015500BF36
:101B8000012084F83D000020D0E77047014691F81D
:101B90003D00012801D001207047022081F83D005E
:101BA0000868C06840F001000B68D8601A4B0868EC
:101BB00098421BD00868B0F1804F17D0174B0868C7
:101BC000984213D0164B086898420FD0154B0868FE
:101BD00098420BD0144B0868984207D0134B086802
:101BE000984203D0124B086898420CD1086880686C
:101BF00000F00702062A0CD00868006840F00100D7
:101C00000B68186005E00868006840F001000B6888
:101C100018600020C0E70000000001400004004000
:101C200000080040000C004000040140004001405A
:101C3000001800407047704701460022002391F8C9
:101C40003D2091F83E3042EA030070472DE9F84FFD
:101C50000446206805682068C668206847694FF018
:101C60000009CA4605F00F09B9F1000F0AD105F0C5
:101C7000200038B106F0200020B1204600F091FB92
:101C8000BDE8F88FB9F1000F72D007F0010018B964
:101C900006F4907000286BD005F0010030B106F416
:101CA000807018B1206C40F00100206405F0040041
:101CB00030B107F0010018B1206C40F00200206440
:101CC00005F0020030B107F0010018B1206C40F0BF
:101CD0000400206405F0080048B106F0200010B9A7
:101CE00007F0010018B1206C40F008002064206C5F
:101CF00070B305F0200028B106F0200010B1204696
:101D000000F04FFB20684069C0F3801A206C00F09F
:101D1000080010B9BAF1000F23D0204600F016FBDE
:101D20002068406900F04000402816D120684069D2
:101D300020F0400021684861A06B50B15648A16B6B
:101D40000865A06BFEF7A7FE10B1A06B016D884778
:101D50000CE02046FFF76FFF08E02046FFF76BFF1F
:101D600004E02046FFF767FF0020206488E7FFE7D4
:101D7000206B012879D105F01000002875D006F0FD
:101D80001000002871D000BF00200090206800687B
:101D9000009020684068009000BF00BF2068406944
:101DA00000F04000402839D1A06B006840681FFA5D
:101DB00080F8B8F1000F30D0A08D40452DDDA4F89B
:101DC0002E80A06BC069B0F5807F1FD02068C068EE
:101DD00020F480702168C8602068406920F001000C
:101DE000216848612068406920F04000216848610E
:101DF000202084F83E00002020632068C06820F086
:101E000010002168C860A06BFEF7F0FDA08DE28D88
:101E1000801A81B22046FFF70DFF31E7A08DE18DDA
:101E2000401A1FFA80F8E08DE8B1B8F1000F1AD01F
:101E30002068C06820F490702168C86020684069FC
:101E400020F0010021684861202084F83E00002035
:101E500020632068C06820F010002168C8604146F7
:101E60002046FFF7E7FE0BE7FFE705F0800030B103
:101E700006F0800018B1204600F02BFC00E705F0CA
:101E8000400030B106F0400018B1204600F079FA69
:101E9000F6E600BFF4E600003923000810B504465A
:101EA0000CB9012010BDA06900B100E000BF94F89A
:101EB0003D0028B9002084F83C00204600F028F8B6
:101EC000242084F83D002068C06820F40050216878
:101ED000C860204600F0C4FA2068006920F49040F1
:101EE000216808612068406920F02A002168486163
:101EF0002068C06840F400502168C8600020206459
:101F0000202084F83D0084F83E000020CAE700004D
:101F100010B586B004462E492068884255D100BFCE
:101F200000BF002000902B48006840F010002949B5
:101F300008600846006800F01000009000BF00BF75
:101F400000BF00BF00BF0020009022481438006886
:101F500040F001001F49143908600846006800F08D
:101F60000100009000BF00BF00BF00BF00BF002005
:101F700000900846006840F00100086008460068CC
:101F800000F00100009000BF00BF00BF48150190A5
:101F90000220029001200390022004900720059067
:101FA00001A90D48FEF78CFD4FF4806001900720D9
:101FB000059001A90848FEF783FD2520FEF7F1FEF4
:101FC000032211462520FEF7FCFE06B010BD0000DE
:101FD00000100140443802400000024070B5044641
:101FE0000D46164694F83E00202816D105B10EB9CC
:101FF000012070BD00BF94F83C00012801D10220EF
:10200000F7E7012084F83C0000BF0020206332463F
:102010002946204600F03AFBEBE70220E9E7000002
:102020001D4A0168914236D11C49098801F40041DA
:1020300089BB1A49098801F4804171B118490978AE
:102040000A2903D00021154A118024E01349098888
:1020500041F40041114A11801DE0114909780D2910
:1020600006D10E49098841F480410C4A118012E0E2
:102070000B490978094A1288C2F30D02094B995499
:1020800006490988491C054A118011460988C72953
:1020900001DD002111807047001001400C0000207C
:1020A0000E000020C8010020704700BFFEE700BFFF
:1020B000FEE77047704700007CB504460D461646A3
:1020C000164800681821B0FBF1F01549B0FBF1F09B
:1020D0004FF47A71484301906068B0F5827F0DD16A
:1020E0002B46002280212046009600F01BF898B174
:1020F000606D40F02000606503207CBD00BF01984A
:1021000000B908E00198401E019020688068C0F383
:10211000C0100028F3D100BF0020EEE7000000202F
:1021200040420F002DE9F84F04460D4690461E46EA
:10213000DDF82890FEF7E4FDA0EB0900371AFEF762
:10214000DFFD82462C480068C0F3CB307843009016
:1021500045E0701C002842D0FEF7D2FDA0EB0A003B
:10216000B84200D2A7BB2068406820F0E000216898
:1021700048606068B0F5827F0DD1A068B0F5004F6F
:1021800003D0A068B0F5806F05D12068006820F00A
:10219000400021680860A06AB0F5005F0DD100BF63
:1021A0002068006820F400502168086020680068FA
:1021B00040F400502168086000BF012084F85100FD
:1021C00000BF002084F8500000BF0320BDE8F88F56
:1021D000FFE7009800B900270098401E0090206893
:1021E00080682840A84201D1012000E0002040453D
:1021F000AFD10020EAE7000000000020704710B5D2
:10220000FEF784FD10BD00000348006840F4700034
:10221000014908607047000088ED00E010B50E48E5
:102220000068C06800F0010078B10C490869804777
:10223000002009490968486200BF6420064909680E
:10224000C86264210448C16000BF6FF00100024908
:102250000968086110BD00008C130020D400002024
:1022600010B50268294B98420ED0B0F1804F0BD0C8
:10227000274B984208D0274B984205D0264B9842CE
:1022800002D0264B984203D122F070024B681A43C9
:102290001E4B984220D0B0F1804F1DD01C4B98426D
:1022A0001AD01C4B984217D01B4B984214D01B4B92
:1022B000984211D01A4B98420ED01A4B98420BD02C
:1022C000194B984208D0194B984205D0184B9842A8
:1022D00002D0184B984203D122F44072CB681A43C3
:1022E00022F080034C6943EA040202608B68C362F7
:1022F0000B688362054B984202D0084B984201D18B
:102300000B6903630123436110BD0000000001401D
:102310000004004000080040000C004000040140A0
:1023200000400140004401400048014000180040C6
:10233000001C00400020004070B50546AC6B00203A
:10234000E085E0842046FFF776FC70BD0168C9682F
:1023500021F490710268D1600168496921F001019E
:1023600002685161016B012905D10168C96821F03A
:1023700010010268D160202180F83E100021016325
:10238000704710B504462068C06820F040002168FE
:10239000C860202084F83D002046FFF785FE00201D
:1023A00010BD70B5044694F83E00222856D1A068AE
:1023B000B0F5805F0CD1206950B90025A66A20686D
:1023C0004068C0F308003080A06A801CA06215E05D
:1023D000A56A0026A068B0F5805F03D0A06828B980
:1023E000206918B920684068287004E020684068B7
:1023F00000F07F002870A06A401CA062E08D401EA3
:1024000080B2E08540BB2068C06820F020002168D1
:10241000C8602068C06820F480702168C8602068A7
:10242000406920F0010021684861202084F83E00C6
:10243000206B01280AD12068C06820F010002168B4
:10244000C860A18D2046FFF7F5FB02E02046FFF7AC
:10245000E7FD0020206370BD0020FCE70220FAE7C2
:102460002DE9F84F04462068006920F44050E168E7
:102470000843216808612169A0680843616908432D
:10248000E169084300902068C06849F20C61884304
:10249000009908432168C8602068406920F44070B2
:1024A000A16908432168486176492068884203D0C1
:1024B00075492068884203D1FEF7AEFD814602E0EF
:1024C000FEF79AFD8146E069B0F5004F6CD102201D
:1024D0006168A0FB015003461920A9FB007001466A
:1024E0002A463846FDF7F7FE6421B0FBF1F04FEACB
:1024F000001A02206168A0FB01510B461920A9FBBC
:1025000000712A463846FDF7E6FE834602206168E0
:10251000A0FB015003461920A9FB00712A4638464A
:10252000FDF7D9FE6421B0FBF1F000EBC00101EB37
:102530000010ABEB8000322101EBC0006421B0FB46
:10254000F1F000F0F8000AEB400A02206168A0FBFD
:10255000015003461920A9FB007001462A4638465F
:10256000FDF7B9FE834602206168A0FB01500346D7
:102570001920A9FB00712A463846FDF7ACFE6421FC
:10258000B0FBF1F000EBC00101EB0010ABEB800001
:10259000322101EBC0006421B0FBF1F000F0070034
:1025A0005044216888606AE004206168A0FB015003
:1025B00003461920A9FB007001462A463846FDF75C
:1025C0008AFE824604206168A0FB01500346192060
:1025D000A9FB007001462A463846FDF77CFE6421BF
:1025E000B0FBF1F000EBC00101EB0010AAEB8000A2
:1025F000322101EB00106421B0FBF1F000F0F00A91
:1026000004206168A0FB017003461920A9FB00515A
:102610003A462846FDF75FFE6421B0FBF1F00AEB75
:10262000001A04206168A0FB01510B461920A9FB88
:1026300000712A463846FDF74EFE83460420616845
:10264000A0FB015003461920A9FB007001462A4651
:102650003846FDF740FE6421B0FBF1F000EBC0010D
:1026600001EB0010ABEB8000322101EB0010642184
:10267000B0FBF1F000F00F00504421688860BDE825
:10268000F88F0000001001400014014010B503460F
:1026900099629A85DA8500201864222083F83E002A
:1026A00000BF002083F83C0000BF1868C06840F4F9
:1026B00080701C68E0601868406940F001001C6888
:1026C00060611868C06840F020001C68E06000206D
:1026D00010BD014691F83D00212828D18868B0F549
:1026E000805F0BD1086948B90A6A1088C0F30800F6
:1026F0000B685860086A801C086205E00B6A581C69
:10270000086218780B685860C88C401E80B2C88474
:1027100058B90868C06820F080000B68D860086865
:10272000C06840F040000B68D8600020704702206D
:10273000FCE7000070B500240F4D1048FFF786FA43
:1027400000BF03E0641CAC4200D904E00B48FFF773
:1027500073FA2028F6D100BF002403E0641CAC42C9
:1027600000D906E0012206490448FFF737FC00289B
:10277000F4D100BF70BD0000FFFF010090020020F7
:102780000E00002000BFFEE702480068C0F30220F0
:10279000704700000CED00E010B5002804DB0A07CC
:1027A000130E054A135406E00A07140E034A00F0FC
:1027B0000F031B1FD45410BD00E400E018ED00E02F
:1027C00030380A2801D2012070470020704700BF2E
:1027D00070470000014908607047000004000020B5
:1027E00010B504464FF47A7104FB01F000F002F8D2
:1027F00010BD000070B5034600224FF0E026756959
:102800000D4E366803FB06F44FF0E026B16910E088
:102810004FF0E026B06988420BD0884202D20E1AEF
:10282000324402E02E1A0E4432440146A24200D342
:1028300000E0EDE700BF70BD0400002000BF054AC6
:10284000126802F04002002AF9D0C2B2014B5A606D
:10285000704700000010014000B587B000BF00BF06
:10286000002001903848006840F0100036490860A8
:102870000846006800F01000019000BF00BF00BFD4
:1028800000BF00BF002001900846006840F0100023
:1028900008600846006800F01000019000BF00BF0B
:1028A00000BF00BF00BF002001900846006840F054
:1028B000100008600846006800F01000019000BF9A
:1028C00000BF00BF00BF00BF0020019008460068A5
:1028D00040F0010008600846006800F00100019027
:1028E00000BF00BF00BF1020029000200390012015
:1028F00004900220059002A91448FEF7E1F8082090
:10290000029000200390012004900220059002A96B
:102910000E48FEF7D5F80420029000200390012015
:1029200004900220059002A90848FEF7C9F801208A
:1029300002900020039002200490059002A9044810
:10294000FEF7BEF807B000BD30380240001002406C
:102950000000024070B50446002514B101202B4947
:1029600008702A480078002834D010212848FEF743
:10297000A9F978B108212648FEF7A4F950B104213D
:102980002348FEF79FF928B101212248FEF79AF962
:1029900001281FD10A20FFF723FF00201B490870E0
:1029A00010211B48FEF78EF900B9012508211848AF
:1029B000FEF788F900B9022504211548FEF782F9CF
:1029C00000B9032501211348FEF77CF901281BD12A
:1029D000042519E010210E48FEF774F9012813D1DF
:1029E00008210B48FEF76EF901280DD10421084893
:1029F000FEF768F9012807D101210648FEF762F9C0
:102A000010B9012001490870284670BD240000203B
:102A1000001002400000024070B50446002609483C
:102A20000588408845430021084602F0DBFE03F09C
:102A300035F900BF02E004480480761CAE42FAD3A8
:102A400070BD0000240300208000006C10B5044617
:102A500049488471002C45D1F020474908804FF443
:102A6000A07048800846808845F21051884210D1F5
:102A70004FF43050404908814FF4285048814FF4BA
:102A80002C5088814FF4F07008804FF448704880D3
:102A90001AE03948808841F6631188420DD12C2014
:102AA000354908812B2048812A2088814FF4F07015
:102AB00008804FF44870488006E02C202E49088199
:102AC0002A2048812B2088812B48808845F21031AC
:102AD00088424CD14FF4A070274908804FF4F07021
:102AE000488044E04FF4A07023490880F0204880DB
:102AF0000846808845F21051884210D14FF430507A
:102B00001D4908814FF4285048814FF42C5088818A
:102B10004FF4487008804FF4F07048801AE016486F
:102B2000808841F6631188420DD12C20124908811A
:102B30002A2048812B2088814FF4487008804FF468
:102B4000F070488006E02C200B4908812A2048813B
:102B50002B2088810848808845F21031884206D1B0
:102B60004FF4F070044908804FF4A07048800020B2
:102B700002F020FD10BD0000240300202DE9F047E5
:102B800006460F4690469A46002445460320A0EB91
:102B9000480944E07A1B91B2321990B2524600F0D3
:102BA00099F83A1B91B2721990B2524600F092F81D
:102BB0003A1991B2721990B2524600F08BF87A1914
:102BC00091B2321990B2524600F084F87A1991B25B
:102BD000321B90B2524600F07DF83A1991B2721B46
:102BE00090B2524600F076F87A1B91B2321B90B246
:102BF000524600F06FF83A1B91B2721B90B25246E7
:102C000000F068F8641CB9F1000F03DAA000801D21
:102C1000814404E0601B80000A3081446D1EAC4298
:102C2000B8DDBDE8F0872DE9FF4F84B081468A46C4
:102C30000020029083460698A0EB09050798A0EBB8
:102C40000A06CDF80490CDF800A0002D01DD012783
:102C500005E00DB9002702E04FF0FF376D42002E6E
:102C600002DD4FF0010806E016B94FF0000802E05F
:102C70004FF0FF387642B54201DD2C4600E0344685
:102C8000002003901EE0009A91B2019A90B2119A2E
:102C900000F020F8029828440290B3440298A04221
:102CA00005DD0298001B0290019838440190A3456D
:102CB00004DDABEB040B0098404400900398401CEB
:102CC00080B20390611C03988842DCDD08B0BDE847
:102CD000F08F000070B505460E4614463146284672
:102CE00002F080FD02F0DAFF01490C8070BD0000A7
:102CF0008000006C2DE9F84105460E4617469846BF
:102D0000079C33463A46314628460094FFF78BFF2E
:102D100043462A46314628460094FFF784FF43463F
:102D20003A46414628460094FFF77DFF43463A461F
:102D3000314638460094FFF776FFBDE8F88110B5BC
:102D4000CF2002F09FFF002002F090FFC12002F090
:102D50008DFF302002F08AFFED2002F093FF642007
:102D600002F084FF032002F081FF122002F07EFFB8
:102D7000812002F07BFFE82002F084FF852002F032
:102D800075FF102002F072FF7A2002F06FFFCB2057
:102D900002F078FF392002F069FF2C2002F066FF74
:102DA000002002F063FF342002F060FF022002F0F6
:102DB0005DFFF72002F066FF202002F057FFEA20B7
:102DC00002F060FF002002F051FF002002F04EFFF1
:102DD000C02002F057FF1B2002F048FFC12002F084
:102DE00051FF012002F042FFC52002F04BFF3020CE
:102DF00002F03CFF302002F039FFC72002F042FF12
:102E0000B72002F033FF362002F03CFF482002F0EA
:102E10002DFF3A2002F036FF552002F027FFB120A7
:102E200002F030FF002002F021FF1A2002F01EFF06
:102E3000B62002F027FF0A2002F018FFA22002F0BD
:102E400015FFF22002F01EFF002002F00FFF2620E7
:102E500002F018FF012002F009FFE02002F012FF4B
:102E60000F2002F003FF2A2002F000FF282002F0CA
:102E7000FDFE082002F0FAFE0E2002F0F7FE082008
:102E800002F0F4FE542002F0F1FEA92002F0EEFE62
:102E9000432002F0EBFE0A2002F0E8FE0F2002F0D1
:102EA000E5FE002002F0E2FE002002F0DFFE00203E
:102EB00002F0DCFE002002F0D9FEE12002F0E2FE8A
:102EC000002002F0D3FE152002F0D0FE172002F001
:102ED000CDFE072002F0CAFE112002F0C7FE062038
:102EE00002F0C4FE2B2002F0C1FE562002F0BEFE0E
:102EF0003C2002F0BBFE052002F0B8FE102002F0DC
:102F0000B5FE0F2002F0B2FE3F2002F0AFFE3F20E0
:102F100002F0ACFE0F2002F0A9FE2B2002F0B2FE60
:102F2000002002F0A3FE002002F0A0FE012002F02B
:102F30009DFE3F2002F09AFE2A2002F0A3FE002010
:102F400002F094FE002002F091FE002002F08EFEBE
:102F5000EF2002F08BFE112002F094FE7820FFF7A4
:102F60003FFC292002F08EFE10BD10B5ED2002F0CE
:102F700089FE012002F07AFEFE2002F077FEEE20AC
:102F800002F080FEDE2002F071FE212002F06EFED3
:102F9000F12002F077FE012002F068FEDF2002F04F
:102FA00071FE102002F062FEC42002F06BFE8F2042
:102FB00002F05CFEC62002F065FE002002F056FE24
:102FC000E22002F053FEE22002F050FEE22002F086
:102FD0004DFEBF2002F056FEAA2002F047FEB020B0
:102FE00002F050FE0D2002F041FE002002F03EFEF5
:102FF0000D2002F03BFE002002F038FE112002F00E
:1030000035FE002002F032FE192002F02FFE0020D3
:1030100002F02CFE212002F029FE002002F026FE04
:103020002D2002F023FE002002F020FE3D2002F0C1
:103030001DFE002002F01AFE5D2002F017FE0020A7
:1030400002F014FE5D2002F011FE002002F00EFEE0
:10305000B12002F017FE802002F008FE002002F0EE
:1030600005FE8B2002F002FE002002F0FFFD9620FC
:1030700002F0FCFD002002F0F9FDB22002F002FE99
:10308000002002F0F3FD002002F0F0FD022002F02B
:10309000EDFD002002F0EAFD032002F0E7FD002034
:1030A00002F0E4FDB32002F0EDFD002002F0DEFDB1
:1030B000002002F0DBFD002002F0D8FD002002F02D
:1030C000D5FD002002F0D2FD002002F0CFFD00204F
:1030D00002F0CCFD002002F0C9FD002002F0C6FD88
:1030E000002002F0C3FD002002F0C0FD002002F02D
:1030F000BDFD002002F0BAFD002002F0B7FD002067
:1031000002F0B4FD002002F0B1FD002002F0AEFD9F
:10311000002002F0ABFD002002F0A8FD002002F02C
:10312000A5FD002002F0A2FD002002F09FFD00207E
:1031300002F09CFD002002F099FDB42002F0A2FDF7
:103140008B2002F093FD002002F090FD962002F00B
:103150008DFD002002F08AFDA12002F087FD0020F5
:1031600002F084FDB52002F08DFD022002F07EFD0C
:10317000002002F07BFD032002F078FD002002F029
:1031800075FD042002F072FD002002F06FFDB620F4
:1031900002F078FD002002F069FD002002F066FDDB
:1031A000B72002F06FFD002002F060FD002002F069
:1031B0005DFD3F2002F05AFD002002F057FD5E2029
:1031C00002F054FD002002F051FD642002F04EFD9B
:1031D000002002F04BFD8C2002F048FD002002F0A0
:1031E00045FDAC2002F042FD002002F03FFDDC2056
:1031F00002F03CFD002002F039FD702002F036FDA7
:10320000002002F033FD902002F030FD002002F09B
:103210002DFDEB2002F02AFD002002F027FDDC202E
:1032200002F024FD002002F021FDB82002F02AFD6A
:10323000002002F01BFD002002F018FD002002F02B
:1032400015FD002002F012FD002002F00FFD00200D
:1032500002F00CFD002002F009FD002002F006FD46
:10326000BA2002F00FFD242002F000FD002002F041
:10327000FDFC002002F0FAFC002002F0F7FCC12067
:1032800002F000FD202002F0F1FC002002F0EEFC34
:10329000542002F0EBFC002002F0E8FCFF2002F0DA
:1032A000E5FC002002F0E2FCC22002F0EBFC0A2068
:1032B00002F0DCFC002002F0D9FC042002F0D6FC75
:1032C000002002F0D3FCC32002F0DCFC3C2002F022
:1032D000CDFC002002F0CAFC3A2002F0C7FC00201E
:1032E00002F0C4FC392002F0C1FC002002F0BEFC58
:1032F000372002F0BBFC002002F0B8FC3C2002F0BA
:10330000B5FC002002F0B2FC362002F0AFFC002039
:1033100002F0ACFC322002F0A9FC002002F0A6FC76
:103320002F2002F0A3FC002002F0A0FC2C2002F0D1
:103330009DFC002002F09AFC292002F097FC00205E
:1033400002F094FC262002F091FC002002F08EFC9A
:10335000242002F08BFC002002F088FC242002F0E4
:1033600085FC002002F082FC232002F07FFC00207C
:1033700002F07CFC3C2002F079FC002002F076FC9C
:10338000362002F073FC002002F070FC322002F0C4
:103390006DFC002002F06AFC2F2002F067FC002088
:1033A00002F064FC2C2002F061FC002002F05EFCC4
:1033B000292002F05BFC002002F058FC262002F0DD
:1033C00055FC002002F052FC242002F04FFC0020AB
:1033D00002F04CFC242002F049FC002002F046FCE4
:1033E000232002F043FC002002F040FCC42002F045
:1033F00049FC622002F03AFC002002F037FC052074
:1034000002F034FC002002F031FC842002F02EFC9B
:10341000002002F02BFCF02002F028FC002002F03B
:1034200025FC182002F022FC002002F01FFCA42042
:1034300002F01CFC002002F019FC182002F016FC1F
:10344000002002F013FC502002F010FC002002F0DB
:103450000DFC0C2002F00AFC002002F007FC1720F3
:1034600002F004FC002002F001FC952002F0FEFBBB
:10347000002002F0FBFBF32002F0F8FB002002F03A
:10348000F5FBE62002F0F2FB002002F0EFFBC52086
:1034900002F0F8FB322002F0E9FB002002F0E6FB2C
:1034A000442002F0E3FB002002F0E0FB652002F084
:1034B000DDFB002002F0DAFB762002F0D7FB0020D3
:1034C00002F0D4FB882002F0D1FB002002F0CEFBFA
:1034D000C62002F0D7FB202002F0C8FB002002F03B
:1034E000C5FB172002F0C2FB002002F0BFFB012049
:1034F00002F0BCFB002002F0B9FBC72002F0C2FBC7
:10350000002002F0B3FB002002F0B0FB002002F02C
:10351000ADFB002002F0AAFBC82002F0B3FB0020A4
:1035200002F0A4FB002002F0A1FB002002F09EFBB1
:10353000002002F09BFBC92002F0A4FB002002F057
:1035400095FB002002F092FB002002F08FFB002090
:1035500002F08CFB002002F089FB002002F086FBC9
:10356000002002F083FB002002F080FB002002F02C
:103570007DFB002002F07AFB002002F077FB0020A8
:1035800002F074FB002002F071FB002002F06EFBE1
:10359000002002F06BFB002002F068FBE02002F04C
:1035A00071FB162002F062FB002002F05FFB1C2082
:1035B00002F05CFB002002F059FB212002F056FBD8
:1035C000002002F053FB362002F050FB002002F0F6
:1035D0004DFB462002F04AFB002002F047FB522040
:1035E00002F044FB002002F041FB642002F03EFBAD
:1035F000002002F03BFB7A2002F038FB002002F0B2
:1036000035FB8B2002F032FB002002F02FFB9920CB
:1036100002F02CFB002002F029FBA82002F026FB80
:10362000002002F023FBB92002F020FB002002F072
:103630001DFBC42002F01AFB002002F017FBCA2079
:1036400002F014FB002002F011FBD22002F00EFB6E
:10365000002002F00BFBD92002F008FB002002F052
:1036600005FBE02002F002FB002002F0FFFAF3204D
:1036700002F0FCFA002002F0F9FAE12002F002FB6D
:10368000162002F0F3FA002002F0F0FA1C2002F0FB
:10369000EDFA002002F0EAFA222002F0E7FA002018
:1036A00002F0E4FA362002F0E1FA002002F0DEFA3D
:1036B000452002F0DBFA002002F0D8FA522002F096
:1036C000D5FA002002F0D2FA642002F0CFFA0020EE
:1036D00002F0CCFA7A2002F0C9FA002002F0C6FA11
:1036E0008B2002F0C3FA002002F0C0FA992002F009
:1036F000BDFA002002F0BAFAA82002F0B7FA0020C2
:1037000002F0B4FAB92002F0B1FA002002F0AEFAE9
:10371000C42002F0ABFA002002F0A8FACA2002F09E
:10372000A5FA002002F0A2FAD22002F09FFA0020AF
:1037300002F09CFAD82002F099FA002002F096FAE2
:10374000E02002F093FA002002F090FAF32002F059
:103750008DFA002002F08AFAE22002F093FA0520A6
:1037600002F084FA002002F081FA0B2002F07EFAC7
:10377000002002F07BFA1B2002F078FA002002F011
:1037800075FA342002F072FA002002F06FFA442039
:1037900002F06CFA002002F069FA4F2002F066FA9B
:1037A000002002F063FA612002F060FA002002F0CB
:1037B0005DFA792002F05AFA002002F057FA8820C8
:1037C00002F054FA002002F051FA972002F04EFA6B
:1037D000002002F04BFAA62002F048FA002002F086
:1037E00045FAB72002F042FA002002F03FFAC22068
:1037F00002F03CFA002002F039FAC72002F036FA53
:10380000002002F033FAD12002F030FA002002F05A
:103810002DFAD62002F02AFA002002F027FADD2045
:1038200002F024FA002002F021FAF32002F01EFA3E
:10383000002002F01BFAE32002F024FA052002F037
:1038400015FA002002F012FA0A2002F00FFA002006
:1038500002F00CFA1C2002F009FA002002F006FA2D
:10386000332002F003FA002002F000FA442002F0B4
:10387000FDF9002002F0FAF9502002F0F7F90020DB
:1038800002F0F4F9622002F0F1F9002002F0EEF902
:10389000782002F0EBF9002002F0E8F9882002F02D
:1038A000E5F9002002F0E2F9972002F0DFF90020AC
:1038B00002F0DCF9A62002F0D9F9002002F0D6F9D6
:1038C000B72002F0D3F9002002F0D0F9C22002F0B4
:1038D000CDF9002002F0CAF9C72002F0C7F9002094
:1038E00002F0C4F9D12002F0C1F9002002F0BEF9C3
:1038F000D52002F0BBF9002002F0B8F9DD2002F07B
:10390000B5F9002002F0B2F9F32002F0AFF900207F
:1039100002F0ACF9E42002F0B5F9012002F0A6F9BA
:10392000002002F0A3F9012002F0A0F9002002F02B
:103930009DF9022002F09AF9002002F097F92A205E
:1039400002F094F9002002F091F93C2002F08EF987
:10395000002002F08BF94B2002F088F9002002F0E1
:1039600085F95D2002F082F9002002F07FF97420D1
:1039700002F07CF9002002F079F9842002F076F957
:10398000002002F073F9932002F070F9002002F099
:103990006DF9A22002F06AF9002002F067F9B32065
:1039A00002F064F9002002F061F9BE2002F05EF935
:1039B000002002F05BF9C42002F058F9002002F068
:1039C00055F9CD2002F052F9002002F04FF9D32032
:1039D00002F04CF9002002F049F9DD2002F046F92E
:1039E000002002F043F9F32002F040F9002002F039
:1039F0003DF9E52002F046F9002002F037F90020F9
:103A000002F034F9002002F031F9002002F02EF922
:103A1000022002F02BF9002002F028F9292002F000
:103A200025F9002002F022F93C2002F01FF90020C5
:103A300002F01CF94B2002F019F9002002F016F9EF
:103A40005D2002F013F9002002F010F9742002F05A
:103A50000DF9002002F00AF9842002F007F9002095
:103A600002F004F9932002F001F9002002F0FEF8C0
:103A7000A22002F0FBF8002002F0F8F8B32002F0D8
:103A8000F5F8002002F0F2F8BE2002F0EFF8002076
:103A900002F0ECF8C42002F0E9F8002002F0E6F8A9
:103AA000CD2002F0E3F8002002F0E0F8D32002F08D
:103AB000DDF8002002F0DAF8DC2002F0D7F8002070
:103AC00002F0D4F8F32002F0D1F8002002F0CEF892
:103AD000E62002F0D7F8112002F0C8F8002002F02A
:103AE000C5F8342002F0C2F8002002F0BFF85620DA
:103AF00002F0BCF8002002F0B9F8762002F0B6F827
:103B0000002002F0B3F8772002F0B0F8002002F0B5
:103B1000ADF8662002F0AAF8002002F0A7F888208D
:103B200002F0A4F8002002F0A1F8992002F09EF81B
:103B3000002002F09BF8BB2002F098F8002002F071
:103B400095F8992002F092F8002002F08FF8662094
:103B500002F08CF8002002F089F8552002F086F877
:103B6000002002F083F8552002F080F8002002F0D7
:103B70007DF8452002F07AF8002002F077F8432023
:103B800002F074F8002002F071F8442002F06EF8A0
:103B9000002002F06BF8E72002F074F8322002F007
:103BA00065F8002002F062F8552002F05FF800206E
:103BB00002F05CF8762002F059F8002002F056F886
:103BC000662002F053F8002002F050F8672002F05F
:103BD0004DF8002002F04AF8672002F047F8002074
:103BE00002F044F8872002F041F8002002F03EF88D
:103BF000992002F03BF8002002F038F8BB2002F0D8
:103C000035F8002002F032F8992002F02FF8002059
:103C100002F02CF8772002F029F8002002F026F8B4
:103C2000442002F023F8002002F020F8562002F091
:103C30001DF8002002F01AF8232002F017F80020E7
:103C400002F014F8332002F011F8002002F00EF810
:103C5000452002F00BF8002002F008F8E82002F0FE
:103C600011F8002002F002F8002001F0FFFF992077
:103C700001F0FCFF002001F0F9FF872001F0F6FFC2
:103C8000002001F0F3FF882001F0F0FF002001F098
:103C9000EDFF772001F0EAFF002001F0E7FF66204A
:103CA00001F0E4FF002001F0E1FF882001F0DEFFD9
:103CB000002001F0DBFFAA2001F0D8FF002001F076
:103CC000D5FFBB2001F0D2FF002001F0CFFF9920EB
:103CD00001F0CCFF002001F0C9FF662001F0C6FF13
:103CE000002001F0C3FF552001F0C0FF002001F0CB
:103CF000BDFF552001F0BAFF002001F0B7FF4420BE
:103D000001F0B4FF002001F0B1FF442001F0AEFF4C
:103D1000002001F0ABFF552001F0A8FF002001F0CA
:103D2000A5FFE92001F0AEFFAA2001F09FFF0020CF
:103D300001F09CFF002001F099FF002001F096FFA8
:103D4000002001F09FFFAA2001F090FFCF2001F09A
:103D500099FF002001F08AFF002001F087FF00207A
:103D600001F084FF002001F081FF002001F07EFFC0
:103D7000002001F07BFF002001F078FF002001F01F
:103D800075FF002001F072FF002001F06FFF00209E
:103D900001F06CFF002001F069FF002001F066FFD8
:103DA000002001F063FF002001F060FF002001F01F
:103DB0005DFF002001F05AFFF02001F063FF0020BA
:103DC00001F054FF502001F051FF002001F04EFFA0
:103DD000002001F04BFF002001F048FFF32001F02C
:103DE00051FF002001F042FFF92001F04BFF0620B7
:103DF00001F03CFF102001F039FF292001F036FFCF
:103E0000002001F033FF3A2001F03CFF552001F083
:103E10002DFF112001F036FF6420FEF7E1FC292080
:103E200001F030FF352001F02DFF002001F01EFFD2
:103E3000512001F027FFFF2001F018FF532001F06F
:103E400021FF2C2001F012FF552001F01BFF8220E2
:103E500001F00CFF2C2001F015FF10BD10B555210D
:103E60004FF4704001F024FFAA214FF2010001F04D
:103E70001FFF52214FF2020001F01AFF08214FF2FA
:103E8000030001F015FF01214FF2040001F010FFC3
:103E90000D214FF4304001F00BFF0D214BF20100DA
:103EA00001F006FF0D214BF2020001F001FF342169
:103EB0004FF4364001F0FCFE34214BF2016001F07A
:103EC000F7FE34214BF2026001F0F2FE0D214FF4B7
:103ED000314001F0EDFE0D214BF2011001F0E8FE42
:103EE0000D214BF2021001F0E3FE34214FF4374074
:103EF00001F0DEFE34214BF2017001F0D9FE3421D5
:103F00004BF2027001F0D4FE00214FF4324001F078
:103F1000CFFE00214BF2012001F0CAFE00214BF23E
:103F2000022001F0C5FE24214FF4384001F0C0FE0C
:103F300024214BF6010001F0BBFE24214BF60200C8
:103F400001F0B6FE01214FF43F4001F0B1FE0F2118
:103F50004FF4334001F0ACFE0F214BF2013001F081
:103F6000A7FE0F214BF2023001F0A2FE34214FF4E4
:103F7000394001F09DFE34214BF6011001F098FE0E
:103F800034214BF6021001F093FE08214FF4354026
:103F900001F08EFE08214BF2015001F089FE08214C
:103FA0004BF2025001F084FE03214FF4424001F035
:103FB0007FFE24214FF43A4001F07AFE24214BF693
:103FC000012001F075FE24214BF6022001F070FE65
:103FD00000214FF43C4001F06BFE78214BF601408C
:103FE00001F066FE00214BF6024001F061FE002167
:103FF0004FF43D4001F05CFE78214BF6015001F09A
:1040000057FE00214BF6025001F052FE00214FF402
:104010003E4001F04DFE64214BF6016001F048FE88
:1040200000214FF4514001F043FE33214DF20110C5
:1040300001F03EFE00214DF2021001F039FE342164
:104040004DF2031001F034FE00214DF2041001F096
:104050002FFE3A214DF2051001F02AFE00214DF20B
:10406000061001F025FE4A214DF2071001F020FE56
:1040700000214DF2081001F01BFE5C214DF20910E9
:1040800001F016FE00214DF20A1001F011FE81210F
:104090004DF20B1001F00CFE00214DF20C1001F05E
:1040A00007FEA6214DF20D1001F002FE00214DF297
:1040B0000E1001F0FDFDE5214DF20F1001F0F8FDAD
:1040C00001214DF2101001F0F3FD13214DF21110FA
:1040D00001F0EEFD01214DF2121001F0E9FD542135
:1040E0004DF2131001F0E4FD01214DF2141001F026
:1040F000DFFD82214DF2151001F0DAFD01214DF2B4
:10410000161001F0D5FDCA214DF2171001F0D0FDB7
:1041100002214DF2181001F0CBFD00214DF21910D3
:1041200001F0C6FD02214DF21A1001F0C1FD01217E
:104130004DF21B1001F0BCFD02214DF21C1001F0EC
:10414000B7FD34214DF21D1001F0B2FD02214DF2F8
:104150001E1001F0ADFD67214DF21F1001F0A8FD0A
:1041600002214DF2201001F0A3FD84214DF2211017
:1041700001F09EFD02214DF2221001F099FDA421D3
:104180004DF2231001F094FD02214DF2241001F0B4
:104190008FFDB7214DF2251001F08AFD02214DF26D
:1041A000261001F085FDCF214DF2271001F080FD92
:1041B00002214DF2281001F07BFDDE214DF2291085
:1041C00001F076FD02214DF22A1001F071FDF2217D
:1041D0004DF22B1001F06CFD02214DF22C1001F07C
:1041E00067FDFE214DF22D1001F062FD03214DF21D
:1041F0002E1001F05DFD10214DF22F1001F058FD41
:1042000003214DF2301001F053FD33214DF23110F6
:1042100001F04EFD03214DF2321001F049FD6D21F8
:104220004DF2331001F044FD00214FF4524001F0F3
:104230003FFD33214DF2012001F03AFD00214DF206
:10424000022001F035FD34214DF2032001F030FD54
:1042500000214DF2042001F02BFD3A214DF2052002
:1042600001F026FD00214DF2062001F021FD4A213A
:104270004DF2072001F01CFD00214DF2082001F055
:1042800017FD5C214DF2092001F012FD00214DF2D5
:104290000A2001F00DFD81214DF20B2001F008FDF7
:1042A00000214DF20C2001F003FDA6214DF20D205E
:1042B00001F0FEFC00214DF20E2001F0F9FCE52199
:1042C0004DF20F2001F0F4FC01214DF2102001F01D
:1042D000EFFC13214DF2112001F0EAFC01214DF217
:1042E000122001F0E5FC54214DF2132001F0E0FC16
:1042F00001214DF2142001F0DBFC82214DF215204A
:1043000001F0D6FC01214DF2162001F0D1FCCA21AA
:104310004DF2172001F0CCFC02214DF2182001F0E3
:10432000C7FC00214DF2192001F0C2FC02214DF220
:104330001A2001F0BDFC01214DF21B2001F0B8FC58
:1043400002214DF21C2001F0B3FC34214DF21D205E
:1043500001F0AEFC02214DF21E2001F0A9FC672104
:104360004DF21F2001F0A4FC02214DF2202001F0AB
:104370009FFC84214DF2212001F09AFC02214DF294
:10438000222001F095FCA4214DF2232001F090FCA5
:1043900002214DF2242001F08BFCB7214DF22520A3
:1043A00001F086FC02214DF2262001F081FCCF2194
:1043B0004DF2272001F07CFC02214DF2282001F073
:1043C00077FCDE214DF2292001F072FC02214DF232
:1043D0002A2001F06DFCF2214DF22B2001F068FC47
:1043E00002214DF22C2001F063FCFE214DF22D2024
:1043F00001F05EFC03214DF22E2001F059FC10214A
:104400004DF22F2001F054FC03214DF2302001F039
:104410004FFC33214DF2312001F04AFC03214DF2D3
:10442000322001F045FC6D214DF2332001F040FCBB
:1044300000214FF4534001F03BFC33214DF2013099
:1044400001F036FC00214DF2023001F031FC342144
:104450004DF2033001F02CFC00214DF2043001F04C
:1044600027FC3A214DF2053001F022FC00214DF2EB
:10447000063001F01DFC4A214DF2073001F018FC16
:1044800000214DF2083001F013FC5C214DF209309F
:1044900001F00EFC00214DF20A3001F009FC8121EF
:1044A0004DF20B3001F004FC00214DF20C3001F014
:1044B000FFFBA6214DF20D3001F0FAFB00214DF279
:1044C0000E3001F0F5FBE5214DF20F3001F0F0FB6D
:1044D00001214DF2103001F0EBFB13214DF21130B0
:1044E00001F0E6FB01214DF2123001F0E1FB542115
:1044F0004DF2133001F0DCFB01214DF2143001F0DC
:10450000D7FB82214DF2153001F0D2FB01214DF293
:10451000163001F0CDFBCA214DF2173001F0C8FB77
:1045200002214DF2183001F0C3FB00214DF2193089
:1045300001F0BEFB02214DF21A3001F0B9FB01215E
:104540004DF21B3001F0B4FB02214DF21C3001F0A2
:10455000AFFB34214DF21D3001F0AAFB02214DF2D8
:104560001E3001F0A5FB67214DF21F3001F0A0FBCA
:1045700002214DF2203001F09BFB84214DF22130CD
:1045800001F096FB02214DF2223001F091FBA421B3
:104590004DF2233001F08CFB02214DF2243001F06A
:1045A00087FBB7214DF2253001F082FB02214DF24D
:1045B000263001F07DFBCF214DF2273001F078FB52
:1045C00002214DF2283001F073FBDE214DF229303B
:1045D00001F06EFB02214DF22A3001F069FBF2215D
:1045E0004DF22B3001F064FB02214DF22C3001F032
:1045F0005FFBFE214DF22D3001F05AFB03214DF2FD
:104600002E3001F055FB10214DF22F3001F050FB00
:1046100003214DF2303001F04BFB33214DF23130AC
:1046200001F046FB03214DF2323001F041FB6D21D8
:104630004DF2333001F03CFB00214FF4544001F0C7
:1046400037FB33214DF2014001F032FB00214DF2E6
:10465000024001F02DFB34214DF2034001F028FB14
:1046600000214DF2044001F023FB3A214DF20540B8
:1046700001F01EFB00214DF2064001F019FB4A211A
:104680004DF2074001F014FB00214DF2084001F00B
:104690000FFB5C214DF2094001F00AFB00214DF2B5
:1046A0000A4001F005FB81214DF20B4001F000FBB7
:1046B00000214DF20C4001F0FBFAA6214DF20D4015
:1046C00001F0F6FA00214DF20E4001F0F1FAE52179
:1046D0004DF20F4001F0ECFA01214DF2104001F0D3
:1046E000E7FA13214DF2114001F0E2FA01214DF2F7
:1046F000124001F0DDFA54214DF2134001F0D8FAD6
:1047000001214DF2144001F0D3FA82214DF21540FF
:1047100001F0CEFA01214DF2164001F0C9FACA218A
:104720004DF2174001F0C4FA02214DF2184001F099
:10473000BFFA00214DF2194001F0BAFA02214DF200
:104740001A4001F0B5FA01214DF21B4001F0B0FA18
:1047500002214DF21C4001F0ABFA34214DF21D4014
:1047600001F0A6FA02214DF21E4001F0A1FA6721E4
:104770004DF21F4001F09CFA02214DF2204001F061
:1047800097FA84214DF2214001F092FA02214DF274
:10479000224001F08DFAA4214DF2234001F088FA65
:1047A00002214DF2244001F083FAB7214DF2254059
:1047B00001F07EFA02214DF2264001F079FACF2174
:1047C0004DF2274001F074FA02214DF2284001F029
:1047D0006FFADE214DF2294001F06AFA02214DF212
:1047E0002A4001F065FAF2214DF22B4001F060FA07
:1047F00002214DF22C4001F05BFAFE214DF22D40DA
:1048000001F056FA03214DF22E4001F051FA102129
:104810004DF22F4001F04CFA03214DF2304001F0EF
:1048200047FA33214DF2314001F042FA03214DF2B3
:10483000324001F03DFA6D214DF2334001F038FA7B
:1048400000214FF4554001F033FA33214DF201506D
:1048500001F02EFA00214DF2025001F029FA342124
:104860004DF2035001F024FA00214DF2045001F002
:104870001FFA3A214DF2055001F01AFA00214DF2CB
:10488000065001F015FA4A214DF2075001F010FAD6
:1048900000214DF2085001F00BFA5C214DF2095055
:1048A00001F006FA00214DF20A5001F001FA8121CF
:1048B0004DF20B5001F0FCF900214DF20C5001F0CB
:1048C000F7F9A6214DF20D5001F0F2F900214DF259
:1048D0000E5001F0EDF9E5214DF20F5001F0E8F92D
:1048E00001214DF2105001F0E3F913214DF2115066
:1048F00001F0DEF901214DF2125001F0D9F95421F5
:104900004DF2135001F0D4F901214DF2145001F091
:10491000CFF982214DF2155001F0CAF901214DF273
:10492000165001F0C5F9CA214DF2175001F0C0F937
:1049300002214DF2185001F0BBF900214DF219503F
:1049400001F0B6F902214DF21A5001F0B1F901213E
:104950004DF21B5001F0ACF902214DF21C5001F058
:10496000A7F934214DF21D5001F0A2F902214DF2B8
:104970001E5001F09DF967214DF21F5001F098F98A
:1049800002214DF2205001F093F984214DF2215083
:1049900001F08EF902214DF2225001F089F9A42193
:1049A0004DF2235001F084F902214DF2245001F020
:1049B0007FF9B7214DF2255001F07AF902214DF22D
:1049C000265001F075F9CF214DF2275001F070F912
:1049D00002214DF2285001F06BF9DE214DF22950F1
:1049E00001F066F902214DF22A5001F061F9F2213D
:1049F0004DF22B5001F05CF902214DF22C5001F0E8
:104A000057F9FE214DF22D5001F052F903214DF2DC
:104A10002E5001F04DF910214DF22F5001F048F9C0
:104A200003214DF2305001F043F933214DF2315062
:104A300001F03EF903214DF2325001F039F96D21B8
:104A40004DF2335001F034F900214FF4564001F09B
:104A50002FF933214DF2016001F02AF900214DF2C6
:104A6000026001F025F934214DF2036001F020F9D4
:104A700000214DF2046001F01BF93A214DF205606E
:104A800001F016F900214DF2066001F011F94A21FA
:104A90004DF2076001F00CF900214DF2086001F0C1
:104AA00007F95C214DF2096001F002F900214DF295
:104AB0000A6001F0FDF881214DF20B6001F0F8F879
:104AC00000214DF20C6001F0F3F8A6214DF20D60CB
:104AD00001F0EEF800214DF20E6001F0E9F8E52159
:104AE0004DF20F6001F0E4F801214DF2106001F089
:104AF000DFF813214DF2116001F0DAF801214DF2D7
:104B0000126001F0D5F854214DF2136001F0D0F895
:104B100001214DF2146001F0CBF882214DF21560B5
:104B200001F0C6F801214DF2166001F0C1F8CA216A
:104B30004DF2176001F0BCF802214DF2186001F04F
:104B4000B7F800214DF2196001F0B2F802214DF2E0
:104B50001A6001F0ADF801214DF21B6001F0A8F8D8
:104B600002214DF21C6001F0A3F834214DF21D60CA
:104B700001F09EF802214DF21E6001F099F86721C4
:104B80004DF21F6001F094F802214DF2206001F017
:104B90008FF884214DF2216001F08AF802214DF254
:104BA000226001F085F8A4214DF2236001F080F825
:104BB00002214DF2246001F07BF8B7214DF225600F
:104BC00001F076F802214DF2266001F071F8CF2154
:104BD0004DF2276001F06CF802214DF2286001F0DF
:104BE00067F8DE214DF2296001F062F802214DF2F2
:104BF0002A6001F05DF8F2214DF22B6001F058F8C7
:104C000002214DF22C6001F053F8FE214DF22D608F
:104C100001F04EF803214DF22E6001F049F8102109
:104C20004DF22F6001F044F803214DF2306001F0A5
:104C30003FF833214DF2316001F03AF803214DF293
:104C4000326001F035F86D214DF2336001F030F83B
:104C500055214FF4704001F02BF8AA214FF20100CA
:104C600001F026F852214FF2020001F021F808214C
:104C70004FF2030001F01CF800214FF2040001F094
:104C800017F8CC214FF4314001F012F800214BF21B
:104C9000011001F00DF805214FF4364001F008F83D
:104CA00070214FF4374001F003F870214BF201708E
:104CB00000F0FEFF01214FF4384000F0F9FF03211E
:104CC0004BF6010000F0F4FF03214BF6020000F068
:104CD000EFFF03214BF6030000F0EAFF02214FF43F
:104CE0003C4000F0E5FF00214BF6014000F0E0FF02
:104CF00000214BF6024000F0DBFFD0214FF4494089
:104D000000F0D6FF02214CF6011000F0D1FF502137
:104D10004CF6021000F0CCFF50214CF6031000F0CE
:104D2000C7FF50214CF6041000F0C2FF00214FF4E1
:104D3000545000F0BDFF55214FF4685000F0B8FF0B
:104D40004FF4885000F09EFF7820FDF753FD4FF49C
:104D5000245000F097FF10BD10B5E22000F092FF44
:104D60001D2000F083FF022000F080FF042000F0EF
:104D70007DFF6420FDF73EFDE02000F083FF012071
:104D800000F074FF0A20FDF72BFDE02000F07AFF11
:104D9000032000F06BFF0C20FDF722FD012000F046
:104DA00071FF0A20FDF71CFDE62000F06BFF2F20AD
:104DB00000F05CFFFF2000F059FFFF2000F056FFDD
:104DC000B02000F05FFF202000F050FF002000F036
:104DD0004DFF032000F04AFF40F21F3000F046FF75
:104DE000012000F043FF40F2DF1000F03FFF002001
:104DF00000F03CFFB42000F045FF042000F036FF37
:104E000040F21F4000F032FF002000F02FFF2E2064
:104E100000F02CFF002000F029FF002000F026FF0A
:104E2000002000F023FF002000F020FFB62000F05B
:104E300029FF022000F01AFF4FF4037000F016FF64
:104E4000002000F013FF172000F010FF152000F0E5
:104E50000DFF002000F00AFF002000F007FFF02007
:104E600000F010FF032000F001FF292000F00AFFEE
:104E7000D02000F007FF002000F0F8FEBE2000F078
:104E800001FF052000F0F2FEFE2000F0EFFE012001
:104E900000F0ECFE002000F0E9FE002000F0E6FE4D
:104EA000002000F0E3FEB82000F0ECFE032000F04C
:104EB000DDFE012000F0DAFEBA2000F0E3FE012062
:104EC00000F0D4FE10BD10B5112000F0DBFE7820FC
:104ED000FDF786FC362000F0D5FE002000F0C6FE6F
:104EE0003A2000F0CFFE052000F0C0FEB22000F016
:104EF000C9FE0C2000F0BAFE0C2000F0B7FE002026
:104F000000F0B4FE332000F0B1FE332000F0AEFE1E
:104F1000B72000F0B7FE352000F0A8FEBB2000F05F
:104F2000B1FE322000F0A2FEC02000F0ABFE0C204B
:104F300000F09CFEC22000F0A5FE012000F096FECD
:104F4000C32000F09FFE102000F090FEC42000F06F
:104F500099FE202000F08AFEC62000F093FE0F206C
:104F600000F084FED02000F08DFEA42000F07EFE34
:104F7000A12000F07BFEE02000F084FED02000F0B5
:104F800075FE002000F072FE022000F06FFE072088
:104F900000F06CFE0A2000F069FE282000F066FE9A
:104FA000322000F063FE442000F060FE422000F05A
:104FB0005DFE062000F05AFE0E2000F057FE122083
:104FC00000F054FE142000F051FE172000F04EFEB9
:104FD000E12000F057FED02000F048FE002000F055
:104FE00045FE022000F042FE072000F03FFE0A20AE
:104FF00000F03CFE282000F039FE312000F036FEA3
:10500000542000F033FE472000F030FE0E2000F068
:105010002DFE1C2000F02AFE172000F027FE1B208A
:1050200000F024FE1E2000F021FE2A2000F02AFEBF
:10503000002000F01BFE002000F018FE002000F011
:1050400015FEEF2000F012FE2B2000F01BFE0020CA
:1050500000F00CFE002000F009FE012000F006FE2A
:105060003F2000F003FE292000F00CFE10BD0000E0
:105070002DE9F04F05460E4617469846DDF824A068
:105080004FF0000B781B401C1FFA80FB344613E0E6
:105090002146284600F0A6FB00F000FE4FF0000974
:1050A00006E00749A1F800A009F101001FFA80F904
:1050B000D945F6DB601C84B24445E9DDBDE8F08FDC
:1050C0008000006C00B595B000BF00BF00200190CB
:1050D000FD48006840F04000FB4908600846006851
:1050E00000F04000019000BF00BF00BF00BF00BF44
:1050F000002001900846006840F00800086008465B
:10510000006800F00800019000BF00BF00BF00BFB2
:1051100000BF002001900846006840F008000860C9
:105120000846006800F00800019000BF00BF00BF03
:1051300000BF00BF002001900846006840F040001A
:1051400008600846006800F04000019000BF00BF02
:1051500000BF00BF00BF002001900846006840F07B
:10516000020008600846006800F00200019000BFDD
:1051700000BF00BF881410900220119001201290EF
:10518000022013900C20149010A9D048FBF798FC33
:105190002020109010A9CE48FBF792FC1020109010
:1051A00010A9CB48FBF78CFC4FF48050109010A94D
:1051B000C848FBF785FC4FF4004010900120119087
:1051C00010A9C548FBF77CFC4FF02040C34908609C
:1051D000C3484860062088600021C048C160102193
:1051E000416100218161C16141624FF4805181625E
:1051F0000021C1624FF4804101630021416381635A
:105200000F20099000200A903C200B9000200F9066
:1052100005900920029000200390092004900020AE
:10522000089002AA09A9AD48FCF7E3FB3220FDF77C
:10523000D7FAD32000F026FD00F068F9A94988804C
:1052400000F064F9A749888000F060F9A5498880DA
:10525000084680884FF6FF7101EA0020A149888046
:1052600000F054F99F49898808439E498880084680
:10527000808849F2413188427DD0042000F002FD4F
:1052800000F044F99749888000F040F995498880FA
:1052900000F03CF993498880084680884FF6FF71FA
:1052A00001EA00208F49888000F030F98D49898813
:1052B00008438C4988800846808848F252518842C9
:1052C00003D147F28970874988808648808847F2F1
:1052D00089718842D0D0D42000F0D4FC00F016F9B7
:1052E0008049888000F012F97E49888000F00EF92C
:1052F0007C498880084680884FF6FF7101EA0020CB
:105300007849888000F002F9764989880843754910
:1053100088800846808845F21031884262D0552145
:105320004FF4704000F0C4FCAA214FF2010000F0DD
:10533000BFFC52214FF2020000F0BAFC08214FF2EC
:10534000030000F0B5FC01214FF2040000F0B0FCB6
:105350004FF4454000F096FC00F0D8F86149888091
:10536000084680884FF6FF7101EA00205D49888079
:105370004CF2015000E035E000F084FC00F0C6F88B
:10538000584989880843574988800520FDF728FA3D
:105390005448808845F21051884223D0A12000F063
:1053A00071FC00F0B3F84F49888000F0AFF84D4928
:1053B0008880084680884FF6FF7101EA002049493D
:1053C000888000F0A3F847498988084345498880C8
:1053D0000846808845F26171884203D141F6631026
:1053E000404988803F48808847F28971884202D1CD
:1053F000FFF769FD25E03B48808849F2413188424A
:1054000002D1FDF79CFC1CE03648808845F2103143
:10541000884202D1FDF7A9FD13E03248808845F2A9
:105420001051884202D1FEF719FD0AE02D4880880C
:1054300041F66311884204D1FFF78EFC642000F02E
:10544000E5FB2848808849F2413188420BD0254845
:10545000808841F66311884205D02248808847F24F
:105460008971884209D10320029004901B490B6B7B
:105470008A68486802A9FBF745FA1A48808845F20D
:105480001031884205D01748808845F21051884273
:1054900009D102200290049010490B6B8A68486879
:1054A00002A9FBF72FFA0020FDF7D0FA00BF012276
:1054B000D1030948FBF718FC00BF4FF6FF70FDF75A
:1054C000ABFA15B000BD00003038024000180240B1
:1054D000000C02400014024000040240D4020020EC
:1054E000040100A02403002000BF011EA0F1010060
:1054F000FBD1704710B50246012000E050430B1E5F
:10550000A1F10104E1B2F9D110BD000008B50348D2
:1055100000880090BDF8000008BD00008000006C0D
:105520002DE9F04105460E4600240027A0462048FC
:105530000088A84203DD1E484088B04202DC0020FB
:10554000BDE8F0813146284600F04CF918488088C3
:1055500045F21051884204D14FF4385000F092FBCC
:1055600002E02E2000F08EFBFFF7D0FF044610482B
:10557000808841F66311884201D12046E0E702208D
:10558000FFF7B2FFFFF7C2FF04460220FFF7ACFFB0
:10559000FFF7BCFF8046E7B24FF6FF7000EA07272F
:1055A000E012C002B91240EA411040EAE820C7E721
:1055B00024030020F0B505460024002788488079A0
:1055C000012805D18648808841F66311884208D1B8
:1055D00083488079F0B98248808841F66311884217
:1055E00018D1082D15D2DFE805F00406080A0C0EC4
:1055F000101206250DE007250BE0042509E005251E
:1056000007E0012505E0002503E0032501E0022570
:1056100000BF00BF082D1CD2DFE805F00406090C0E
:105620000F12151800BF14E044F0800411E044F09C
:1056300040040EE044F0C0040BE044F0200408E015
:1056400044F0600405E044F0A00402E044F0E0040B
:1056500000BF00BF36276248808845F2105188425B
:1056600000D13F025E48808849F24131884205D02E
:105670005B48808847F28971884201D144F0080470
:105680002146384600F014FB5548808841F66311E6
:1056900088421DD004F0200068B15148008850496C
:1056A0004988884214DA4E48068840884C49088068
:1056B000084646800CE04A480088494949888842A3
:1056C00006DD4748068840884549088008464680E8
:1056D0004348808845F21051884252D14049488958
:1056E00000F0D0FA002000F0C1FA3D494989491C78
:1056F00088B200F0C7FA002000F0B8FA38494989AA
:10570000891C88B200F0BEFA35490988491EC1F3E8
:105710000F2000F0ABFA32494989C91C88B200F069
:10572000B1FA2F490978491EC8B200F09FFA2C49F6
:10573000888900F0A7FA002000F098FA28498989A2
:10574000491C88B200F09EFA002000F08FFA24492C
:105750008989891C88B200F095FA21494988491E37
:10576000C1F30F2000F082FA1D498989C91C88B253
:1057700000F088FA1A498978491EC8B200F076FA12
:105780002DE01749488900F07DFA002000F06EFAFC
:10579000002000F06BFA12490988491EC1F30F205E
:1057A00000F064FA0E490978491EC8B200F05EFAAA
:1057B0000B49888900F066FA002000F057FA0020B3
:1057C00000F054FA06494988491EC1F30F2000F041
:1057D0004DFA03498978491EC8B200F047FAF0BD76
:1057E0002403002010B502460C464548808841F647
:1057F0006311884247D142488079A8B9404800885F
:10580000401E801A82B23E49488900F03BFA0020CF
:1058100000F02CFA002000F029FA101200F026FA0D
:10582000D0B200F023FA16E03549488900F02AFA90
:10583000101200F01BFAD0B200F018FA30490988B3
:10584000491EC1F30F2000F011FA2D490978491EB5
:10585000C8B200F00BFA2A49888900F013FA201226
:1058600000F004FAE0B200F001FA25494988491E27
:10587000C1F30F2000F0FAF921498978491EC8B216
:1058800000F0F4F93AE01E48808845F21051884251
:1058900020D11B49488900F0F5F9101200F0E6F913
:1058A00017494989491C88B200F0ECF9D0B200F0E0
:1058B000DDF91349888900F0E5F9201200F0D6F9E6
:1058C0000F498989491C88B200F0DCF9E0B200F088
:1058D000CDF913E00A49488900F0D4F9101200F01C
:1058E000C5F9D0B200F0C2F90549888900F0CAF9BB
:1058F000201200F0BBF9E0B200F0B8F910BD0000D2
:10590000240300202DE9FC4F80460E4615461C4618
:10591000B3460020019000902046E31704EB537338
:10592000DB1021464FEAE47C04EB5C7C4FEAEC0C94
:10593000A4EBCC0CBCF1000F02D04FF0010C01E045
:105940004FF0000C6344224604EBD27C4FEA6C0C0F
:1059500003FB0CF3DBB20193A5F12000C5B20C2CC4
:1059600006D0102C0BD0182C0ED0202C18D112E001
:1059700005EB45002D4901EB8000009012E02C481A
:1059800000EB051000900DE005EBC500294901EB87
:105990008000009006E0284800EB8510009001E0B0
:1059A000BDE8FC8F00BF00273AE0009810F8079090
:1059B0004FF0000A2EE009F0800028B13146404641
:1059C0000C9AFDF787F907E00B9828B91B48314678
:1059D00002684046FDF77EF94FEA49604FEA1069D8
:1059E000701C86B216484088B04200DCD8E7A6EBAF
:1059F0000B00A0420AD15E4608F101001FFA80F8B0
:105A00000F480088404500DCCAE706E00AF10100C3
:105A100000F0FF0ABAF1080FCDDB00BF781CC7B257
:105A200001988742C1DB00BFBAE700002D7B000868
:105A3000A17F000891850008ED9200082000002059
:105A4000240300202DE9FF4F83B0074691461E46F0
:105A5000DDE9105A0020029000243AE0301B401E7D
:105A6000C1B20A20FFF746FDB9FBF0F00A21B0FBF6
:105A7000F1F201FB12080298B8B9701EA04214DDC1
:105A8000B8F1000F0FD10020AB4605EBDB714910D8
:105A900001FB0471CDE9000A88B22B46202204994B
:105AA000FFF730FF13E0012002900020AB4605EB2A
:105AB000DB71491001FB0471CDE9000A88B208F1DD
:105AC0003001CAB22B460499FFF71CFF00BF601CCF
:105AD000C4B2B442C2DB07B0BDE8F08F2DE9FC4F81
