:020000040800F2
:10000000E8C5012089020008DD3B000843390008EB
:10001000D93B0008BD0B0008BD4E000800000000E1
:10002000000000000000000000000000754900080A
:10003000370E000800000000DF3B00087749000889
:10004000AD020008AD020008AD020008AD020008D4
:10005000AD020008AD020008AD020008AD020008C4
:10006000AD020008AD020008AD020008AD020008B4
:10007000AD020008AD020008C10B0008810C0008A9
:10008000AD020008AD020008AD020008AD02000894
:10009000AD020008AD020008AD020008AD02000884
:1000A000AD020008AD020008AD020008AD02000874
:1000B000AD020008AD02000895490008AD02000835
:1000C000AD020008AD020008AD020008AD02000854
:1000D000AD020008AD4E0008AD020008AD020008F8
:1000E000AD020008AD020008AD020008AD02000834
:1000F000AD020008AD020008AD020008AD02000824
:10010000AD020008AD020008AD020008AD02000813
:10011000AD020008AD020008AD020008AD02000803
:10012000AD020008AD020008AD020008AD020008F3
:10013000AD020008AD020008AD020008AD020008E3
:10014000AD020008AD020008AD020008AD020008D3
:10015000AD020008AD020008AD020008AD020008C3
:10016000AD020008AD020008AD020008AD020008B3
:10017000AD020008AD020008AD020008000000005A
:10018000AD020008AD02000800F002F800F06DF8C2
:100190000AA090E8000C82448344AAF10107DA45E2
:1001A00001D100F062F8AFF2090EBAE80F0013F0C7
:1001B000010F18BFFB1A43F001031847D0350100A7
:1001C000F03501000A444FF0000C10F8013B13F029
:1001D000070408BF10F8014B1D1108BF10F8015BA0
:1001E000641E05D010F8016B641E01F8016BF9D193
:1001F00013F0080F1EBF10F8014BAD1C0C1B09D1EA
:100200006D1E58BF01F801CBFAD505E014F8016B5B
:1002100001F8016B6D1EF9D59142D6D370470000ED
:100220000023002400250026103A28BF78C1FBD8FF
:10023000520728BF30C148BF0B607047642900F0E7
:100240005581752900F05281782900F08B8163294E
:1002500000F05F84732900F06484002070471FB5AC
:100260000FF0E6FE1FBD10B510BD00F075FC114685
:10027000FFF7F5FF0BF0C4FF00F093FC03B4FFF7AA
:10028000F2FF03BC04F03FFE0C48016841F470012A
:1002900001600B4880470B480047FEE7FEE7FEE79A
:1002A000FEE7FEE7FEE7FEE7FEE7FEE7FEE700000B
:1002B00005480649044A064B7047000088ED00E0F7
:1002C0008149000889010008E8C10120E8C5012032
:1002D000E8C10120704753EA020C00F069802DE963
:1002E000F04B4FF00006002B1FBFB3FA83F503FA63
:1002F00005F424FA05F65E4012BF1643B2FA82F501
:1003000002FA05F4C5F120051EBF22FA05FC44EAF5
:100310000C04203556EA044C4FEA144418BF641C00
:100320004FF000084FF00009904271EB030C39D3F5
:10033000002919BFB1FA81F701FA07F6B0FA80F780
:1003400000FA07F6C7F120071EBF20FA07FC46EAAD
:100350000C062037B6FBF4FCA7EB0507103F07F0AF
:100360001F0BCBF120060CFA0BFB2CFA06F644BF50
:10037000B3460026202FA4BF5E464FF0000B5BEA79
:10038000060C08BF4FF0010B19EB0B09ABFB027C0D
:1003900048EB0608C01B06FB02CC0BFB03CC71EB41
:1003A0000C01C1E70B46024641464846BDE8F08BCA
:1003B00013B54FF000004FF00001AFF30080BDE82F
:1003C0001C40704710B54C1084EA530404D54042D9
:1003D000C1F1000138BF491E1B4204D55242C3F18E
:1003E000000338BF5B1EFFF776FF14F0804F04D088
:1003F0004042C1F1000138BF491E14F0004F04D043
:100400005242C3F1000338BF5B1E10BD0FB4044954
:1004100010B503AA029800F089FB10BC5DF814FB2C
:10042000200000200FB41CB5074B06AA7B44694688
:100430000090059800F04BFB0020694600F05AFB45
:100440001CBC5DF814FB0000C506000070B5044636
:1004500085690068C10601D5302600E02026C00766
:1004600007D070BDD4E9012130469047206A401C76
:1004700020626D1EF6D570BD70B5044685690078A2
:10048000C00707D170BDD4E9012120209047206A20
:10049000401C20626D1EF6D570BD70B50C46054639
:1004A000012A05D02878800600D5EA69002302E0F9
:1004B000012305E05B1C934202D2E05C0028F9D1E5
:1004C000A869E618C01AA861286A18442862284654
:1004D000FFF7BCFF04E0D5E9012114F8010B9047B8
:1004E000B442F8D32846FFF7C7FF70BD2DE9F041AD
:1004F0000646002410687529314616A510D0AFF3C2
:100500000080002802DA404213A507E031688A071C
:1005100001D512A502E0490704D511A5012401E087
:10052000AFF3008000210A2206F1240709E0B0FBA6
:10053000F2FCB0FBF2F302FB1C003030785418469A
:10054000491C0028F3D123462A463046BDE8F04135
:1005500000F05EBA000000002D0000002B0000003B
:100560002000000070B504460D4621461068AFF328
:1005700000802188090502D50F4A7A4402E00E4A1C
:100580007A440E32002104F1240305E000F00F0646
:100590000009965D5E54491C0028F7D1207800239D
:1005A000000704D5702D02D009B102231132204674
:1005B000BDE8704000F02CBABC2E01002DE9F05FC0
:1005C000894604464FF0000ADFF874B1FB44C0F8D6
:1005D00020A02046E1688847002874D0252806D04E
:1005E000D4E901219047206A401C2062F1E70026EF
:1005F0005F462046E16888472028054607DB312D05
:1006000005D2781910F8200C08B10643F1E7B007BD
:1006100001D526F00406C4F81CA00027C4F818A0D1
:100620002A2D09D0284604F067FC38B304EB87086C
:10063000303DC8F8185019E059F8041B204604EB67
:1006400087029161E1688847012F054618D1E0696A
:10065000002820DA26F020061DE0D8F8180000EB6C
:10066000800005EB40003038C8F818002046E168EB
:100670008847054604F040FC0028EED1012F0AD03F
:100680002E2D08D12046E16888477F1C0546022FA1
:1006900046F02006C4DBA069002803DA404246F099
:1006A0000106A061F00701D026F010066C2D0BD0DA
:1006B000682D09D04C2D39D06A2D35D0742D35D008
:1006C0007A2D33D016E038E0E1682F46204688477F
:1006D000B842054609D16C2F26D04FF48060E168FE
:1006E000064320468847054604E06C2F1AD04FF495
:1006F000807006430DB3A5F14100192802D82035BA
:1007000046F400664A462946204626604E46FFF7D4
:1007100095FD80B101280BD0F61D26F0070000F1F1
:10072000080956E74020E4E78020D8E70020D6E714
:1007300006F104094DE7284652E7206ABDE8F09F1C
:10074000922E0100401ECAB210F8011F8A4202D048
:100750000029F9D10020704740EA010310B59B073A
:100760000FD1042A0DD310C808C9121F9C42F8D01B
:1007700020BA19BA884201D9012010BD4FF0FF30CC
:1007800010BD1AB1D30703D0521C07E0002010BDE2
:1007900010F8013B11F8014B1B1B07D110F8013B6E
:1007A00011F8014B1B1B01D1921EF1D1184610BD4F
:1007B00040EA0103024630B59B0710D14FF00134E7
:1007C00000E008C208C91D1B9D4315EAC41FF8D0EC
:1007D00013F0FF0102F8011B0DD01B0AF8E711F816
:1007E000013B002B02F8013B05D011F8013B002B27
:1007F00002F8013BF3D130BD032A40F2308010F003
:10080000030C00F0158011F8013BBCF1020F6244AB
:1008100098BF11F801CB00F8013B38BF11F8013B3C
:10082000A2F1040298BF00F801CB38BF00F8013BE9
:1008300011F0030300F02580083AC0F0088051F859
:10084000043B083A51F804CBA0E80810F5E7121D64
:100850005CBF51F8043B40F8043BAFF30080D20783
:1008600024BF11F8013B11F801CB48BF11F8012B4F
:1008700024BF00F8013B00F801CB48BF00F8012B72
:10088000704710B5203AC0F00B80B1E81850203AFC
:10089000A0E81850B1E81850A0E81850BFF4F5AF20
:1008A0005FEA027C24BFB1E81850A0E8185044BFAA
:1008B00018C918C0BDE810405FEA827C24BF51F817
:1008C000043B40F8043B08BF7047D20728BF31F80B
:1008D000023B48BF11F8012B28BF20F8023B48BF5C
:1008E00000F8012B704702F0FF0343EA032242EABB
:1008F000024200F002B84FF000020429C0F012805A
:1009000010F0030C00F01B80CCF1040CBCF1020FC2
:1009100018BF00F8012BA8BF20F8022BA1EB0C0197
:1009200000F00DB85FEAC17C24BF00F8012B00F88D
:10093000012B48BF00F8012B70474FF0000200B5B3
:10094000134694469646203922BFA0E80C50A0E8F2
:100950000C50B1F12001BFF4F7AF090728BFA0E8A0
:100960000C5048BF0CC05DF804EB890028BF40F86C
:10097000042B08BF704748BF20F8022B11F0804FAE
:1009800018BF00F8012B70474FF0013C50F8042BC2
:1009900051F8043B9A4221D1A2EB0C03934313EA92
:1009A000CC1317D150F8042B51F8043B9A4215D1BF
:1009B000A2EB0C03934313EACC130BD150F8042B96
:1009C00051F8043B9A4209D1A2EB0C03934313EA7A
:1009D000CC13DBD04FF00000704700BFD01A01BA33
:1009E000B1FA81F101F0180122FA01F0CB40C1F116
:1009F0002001DBB2C0B2C01A2CFA01F3D11A914324
:100A000011EAC311E6D170477047704770477047CD
:100A10002DE9F0470D4699469246044600F1240818
:100A20000168880604D5E06921F01001216000E02A
:100A30000120A84201DD471B00E00027A1697A19C7
:100A400002EB0900081AA0612078C00602D42046F3
:100A5000FFF7FCFC002608E0D4E901211AF80600A3
:100A60009047206A401C761C20624E45F4DB2078BB
:100A7000C0060AD52046FFF7E9FC06E0D4E90121CB
:100A800030209047206A401C2062381EA7F10107E1
:100A9000F4DC07E0D4E9012118F805009047206A4A
:100AA000401C2062281EA5F10105F3DC2046FFF75B
:100AB000E3FC2078000602D50220BDE8F087012083
:100AC000FBE7000001694A1C02610878704700B525
:100AD0008FB0CDE901310021059105497944CDE977
:100AE000031011466846FFF769FD0FB000BD000016
:100AF000E5FFFFFF0A6802F8010B0A60704710B5B6
:100B0000436913B1AFF3008001E0FFF7C6FC012099
:100B100010BD127800F124010A7000224A700122EF
:100B2000EDE711684FF0FF32E9E70000074B70B5C1
:100B30000D467B44FFF7CBFF0446284600F008F83B
:100B400010B14FF0FF3070BD204670BD0B7000003B
:100B5000007B00F080007047754600F02BF8AE4631
:100B600005006946534620F00700854618B020B5B9
:100B7000FFF79EFBBDE820404FF000064FF0000756
:100B80004FF000084FF0000B21F00701AC46ACE835
:100B9000C009ACE8C009ACE8C009ACE8C0098D46A2
:100BA000704710B50446AFF300802046BDE8104002
:100BB000FFF764BB0048704784C1012000BFFEE717
:100BC00010B52B4800682B49884205D9294854386C
:100BD000006800F000601BE0254800682649884254
:100BE00005D924485838006800F0006010E020481B
:100BF000006821496039884205D91F48B8384068E3
:100C000000F0006004E01C48B838006800F00060A4
:100C100060B3174800681749884205D94FF0006053
:100C200014494C3908601BE0114800681249884299
:100C300005D94FF000600F495039086010E00C48AA
:100C400000680D496039884205D94FF000600A49B3
:100C5000B839C86004E04FF000600749B8398860CF
:100C60000648006810B105480068804710BD0000C4
:100C7000F415002058640240B8600240440000208F
:100C800010B5294800682949884205D927485438B1
:100C9000006800F020001BE02348006824498842D7
:100CA00005D922485838006800F0200010E01E489E
:100CB00000681F496039884205D91D48B838406826
:100CC00000F0200004E01A48B838006800F0200066
:100CD00040B3154800681549884204D920201349BB
:100CE0004C39086018E0104800681149884204D95E
:100CF00020200E49503908600EE00B4800680C496E
:100D00006039884204D920200949B839C86003E015
:100D100020200749B83988600648006810B10548A6
:100D20000068804710BD0000941500205864024000
:100D3000B8600240400000200146087810381823AF
:100D4000B0FBF3F20848805CC865032A05D908683F
:100D50006FF30900001D886503E008686FF3090060
:100D60008865886D70470000560001080146002024
:100D70008A6A8B69CBB932B1012A0DD0022A03D01D
:100D8000032A10D10EE000BFCB6A03F08073B3F1E9
:100D9000807F00D1012007E0CB6AB3F1C07F00D192
:100DA000012001E000E000BF34E08B69B3F5005F93
:100DB0001AD132B1012A07D0022A03D0032A11D155
:100DC0000AE000BF01200EE0CB6A03F08073B3F1AC
:100DD000807F00D1012006E0CB6AB3F1C07F00D153
:100DE000012000E000BF15E032B1012A05D0022A3F
:100DF00004D0032A0CD103E000BF00BF012008E0AB
:100E0000CB6A03F08073B3F1807F00D1012000E052
:100E100000BF00BF704710B5046863608468402C51
:100E200004D10468A2600468E16003E00468A16082
:100E30000468E26010BD704770B504461D4600238B
:100E4000B5F5804F13D154F822300C480340D1E956
:100E5000000640EA06108E6840EA06208E8940EAC5
:100E600006408E693043034344F8223003E06FF0BC
:100E7000704044F82200002070BD00000000F0CF58
:100E800010B503460022086853F82020124802409B
:100E9000D1E901042043CC6820430C6920434C690C
:100EA00020438C692043CC6920430C6A20434C6A60
:100EB00020438C6A2043CC6A2043CC6B20430C6BCC
:100EC000204302438868082801D142F040020868A4
:100ED00043F82020002010BD8000F0FF30B503460D
:100EE0000024501C53F8204004F04044D1E9000590
:100EF00040EA05108D6840EA05208D8940EA0545E5
:100F0000088A401E45EA0055087D801E45EA0060BB
:100F10008D6928430443501C43F82040002030BD15
:100F20002DE9F04704460E4617461D46DDF82080A1
:100F30004FF00009A068802804D1400060654FF0A0
:100F4000010929E000BF94F83400012802D10220F1
:100F5000BDE8F087012084F8340000BF94F8350024
:100F6000012817D1022084F835002068006840F479
:100F70008020216808602068056143463A46314672
:100F80002046FFF748FF2068006840F00100216814
:100F9000086001E04FF002094846D9E770B5044601
:100FA000A56D00F039FA064694F83500022808D0FD
:100FB0008020606500BF002084F8340000BF01205D
:100FC00070BD2068006820F0160021680860206865
:100FD000406920F0800021684861206C08B9A06C4D
:100FE00028B12068006820F00800216808602068A7
:100FF000006820F00100216808600FE000F00CFAA2
:10100000801B05280AD92020606500BF002084F8D5
:10101000340000BF032084F83500D1E72068006861
:1010200000F001000028E9D194F85C103F208840CE
:10103000A86000BF002084F8340000BF012084F8BD
:1010400035000020BCE7014691F83500022803D0A6
:101050008020486501207047052081F83500086828
:10106000006820F001000A6810600020F3E770B506
:1010700004460CB9012070BD94F83500022800D157
:10108000F9E72068006820F001002168086000206E
:101090002168086021684860216888602168C8600C
:1010A000216808612120216848612046FFF744FE3D
:1010B00005460020E06320646064A064E06420656D
:1010C00094F85C103F208840A8600020606584F898
:1010D000350000BF84F8340000BF00BFCBE700003C
:1010E0002DE9F0410446002500F096F9074614B9B1
:1010F0000120BDE8F081606A00B100BF00BF0020A0
:1011000084F8340000BF022084F8350020680068AD
:1011100020F00100216808600AE000F07DF9C01BA2
:10112000052805D920206065032084F83500E0E714
:101130002068006800F001000028EED120680568F2
:1011400021480540D4E901010843E16808432169C9
:10115000084361690843A1690843E1690843216ABA
:1011600008430543606A042803D1D4E90B0108430E
:101170000543206805602068456925F00705606A19
:101180000543606A04280DD1A06A0543E06A48B1AE
:101190002046FFF7EBFD28B140206065012084F870
:1011A0003500A6E7206845612046FFF7C5FD0646E5
:1011B00094F85C103F208840B060002060650120FA
:1011C00084F83500002094E73F8010F010B5044605
:1011D000A0B204F04FFB10BDF8B502460B46002547
:1011E000002400200021DEE0012606FA01F51E6839
:1011F00006EA0504AC4275D11E7906F00306012EFD
:1012000004D01E7906F00306022E13D190684F0019
:101210000326BE40B0434F00DE68BE4030439060BE
:10122000506801268E40B0431E79C6F300168E40EA
:10123000304350601E7906F00306032E09D0D068B3
:101240004F000326BE40B0434F009E68BE4030436F
:10125000D0601E7906F00306022E13D1CF0802F1EA
:10126000200656F827004E07F70E0F26BE40B04363
:101270004F07FF0E1E69BE403043CF0802F1200623
:1012800046F8270010684F000326BE40B0431E7981
:1012900006F003064F00BE40304310605E6806F063
:1012A0008056B6F1805F7DD100BF00260096404E8B
:1012B000366846F480463E4F3E603E46366806F449
:1012C0008046009600BF00BF3A4E8F0856F82700B0
:1012D0008E07370F0F26BE40B043374EB24202D1C1
:1012E000002624E05EE0354EB24201D101261EE028
:1012F000334EB24201D1022619E0324EB24201D140
:10130000032614E0304EB24201D104260FE02F4EE6
:10131000B24201D105260AE02D4EB24201D1062685
:1013200005E02C4EB24201D1072600E008268F07C7
:101330003F0FBE4030431F4E8F0846F82700264E11
:101340003068A0435E6806F48036B6F5803F00D171
:101350002043214E3060361D3068A0435E6806F49D
:101360000036B6F5003F00D120431B4E361D3060DD
:10137000361D3068A0435E6806F48016B6F5801FFF
:1013800000D12043144E08363060361D3068A0432B
:101390005E6806F40016B6F5001F00D120430E4E1D
:1013A0000C363060491C1029FFF41EAFF8BD000058
:1013B0004438024008380140000002400004024066
:1013C00000080240000C02400010024000140240DD
:1013D00000180240001C0240003C01400246136914
:1013E0000B400BB1012000E00020704710B54269AE
:1013F00021EA020302EA010443EA0443836110BDC7
:101400000AB1816101E00B04836170470148006803
:10141000000C7047002004E001480068704700009D
:101420002800002010B586B004462068806805902A
:101430008B492068884201D18A4801E04FF0402062
:10144000806804902068406803908549206888423D
:1014500001D1844801E04FF040204068029060686C
:10146000B0F5007F02D0606800286FD1059800F0C9
:101470000200022806D1039800F0800010B1204637
:1014800002F0B4FA049800F0010030B1029800F0C4
:10149000400010B1204602F073FA049800F04000BA
:1014A000402832D1029800F0200070B36C492068C7
:1014B000884201D16B4801E04FF04020406820F0A5
:1014C0006000674A2168914201D1664901E04FF00E
:1014D000402148602068406820F0A00021684860F2
:1014E00000BF002001902068C068019020688068DB
:1014F000019000BF00BF012084F84100606C40F003
:1015000002006064204600F0B0F8059800F0080082
:10151000082831D1039800F0200000282CD0206842
:10152000406820F0A000216848604D49206888424A
:1015300001D14C4801E04FF04020406820F06000AD
:10154000474A2168914202D1464902E015E04FF036
:101550004021486000BF0020019020688068019011
:1015600000BF00BF012084F84100606C40F004001F
:101570006064204600F079F870E0049800F0020002
:10158000022806D1029800F0800010B1204602F037
:1015900049FA059800F0010030B1039800F04000CE
:1015A00010B1204602F0CFF9059800F04000402825
:1015B00027D1039800F0200018B32068406820F07D
:1015C00060002168486026492068884201D125488A
:1015D00001E04FF04020406820F0A000204A216840
:1015E000914201D11F4901E04FF0402148600120A4
:1015F00084F84100606C40F002006064204600F016
:1016000034F8049800F00800082827D1029800F068
:10161000200018B312492068884201D1114801E026
:101620004FF04020406820F0A0000D4A2168914210
:1016300001D10C4901E04FF040214860206840682A
:1016400020F0600021684860012084F84100606C4F
:1016500040F004006064204600F007F806B010BDBA
:101660000038004000340040704770472DE9F047D3
:10167000044614B90120BDE8F08794F8410038B958
:10168000002084F8400067486063204600F0D2F8EC
:10169000022084F841002068C06940F6BF71884389
:1016A0002168C861022021680862606902283CD074
:1016B000E06808B9102600E02026A068202800D89D
:1016C0007600012000F00AFA80462069B0F5007F1C
:1016D00017D1E06850B1B000B8FBF0F000EB80002B
:1016E00041006069B1FBF0F0451D13E0F000B8FB6C
:1016F000F0F000EB800041006069B1FBF0F0451DA7
:1017000008E0B8FBF6F000EB800041006069B1FB37
:10171000F0F0451D0A20B5FBF0F505F00109A5EB39
:10172000090047084FEA092902E002274FF00009A3
:10173000022F01D3FF2F05D9606C40F010006064C8
:10174000012098E7206940EA0900384321680862CF
:10175000606840F40060A1680843E1680843A1693B
:1017600008432168C96940F6BF7291430843216864
:10177000C861206A01284DD12B4860632B4920683D
:10178000884201D12A4801E04FF04020C06940F66C
:10179000BF718843254A2168914201D1244901E063
:1017A0004FF04021C8610220204A2168914201D1B6
:1017B0001F4901E04FF0402108621C49206888421F
:1017C00001D11B4801E04FF04020C0691FFA80FAA8
:1017D0006068B0F5007F01D0606810B94FF4807583
:1017E00000E00025A8B240F40060218989B20843D6
:1017F000A18989B20843218B89B2084340EA0A0AC9
:101800000A492068884201D1094801E04FF0402090
:10181000C0F81CA000206064012084F84100002072
:1018200029E70000913A000825140008003800401C
:101830000034004010B586B0044600BF00BF002051
:1018400000904B48006840F48040494908600846D1
:10185000006800F48040009000BF00BF00BF00BFE0
:1018600000BF0020009042481038006840F002009D
:101870003F49103908600846006800F002000090F7
:1018800000BF00BF00BF00BF00BF0020009008469F
:10189000006840F0020008600846006800F002009E
:1018A000009000BF00BF00BF00BF00BF002000903D
:1018B0000846006840F0040008600846006800F030
:1018C0000400009000BF00BF00BF00BF00BF0020A9
:1018D00000900846006840F0040008600846006870
:1018E00000F00400009000BF00BF00BF00BF00BFB9
:1018F000002000900846006840F004000860084698
:10190000006800F00400009000BF00BF00BF881412
:1019100001900220029001200390032004900520F2
:10192000059001A91348FFF757FC4FF400500190B0
:1019300001A91048FFF750FC0820019001A90E48AA
:10194000FFF74AFC4020019001A90B48FFF744FC37
:101950000420019001A90848FFF73EFC04200190F3
:101960000620059001A90448FFF736FC06B010BD1B
:1019700040380240000402400008024070477047AF
:101980000348006803490978084401490860704722
:10199000280000203000002010B50A48006840F4FC
:1019A0000070084908600846006840F480600860DC
:1019B000052000F07FF80F2000F006F800F02AF86C
:1019C000002010BD003C024070B504460E4800786F
:1019D0004FF47A71B1FBF0F00C490968B1FBF0F5F6
:1019E000284601F0D1FC08B1012070BD102C07D2AF
:1019F00000222146501E00F01EF80548046001E058
:101A00000120F2E70020F0E7300000200000002075
:101A10002C000020704701460846002809DB00F032
:101A20001F0301229A4043099B0003F1E023C3F8FE
:101A3000002100BF70472DE9F05F80460D46164635
:101A4000002703F03DFA074639462A46334601F09F
:101A50000700C0F1070ABAF1040F02D94FF0040AD7
:101A600001E0C0F1070AD14600F1040ABAF1070FFC
:101A700002D24FF0000A01E0A0F1030AD4464FF071
:101A8000010A0AFA09FAAAF1010A0AEA020A0AFA9A
:101A90000CFA4FF0010B0BFA0CFBABF1010B0BEA4C
:101AA000030B4AEA0B042146404603F011FABDE855
:101AB000F09F000000BF00F00702064B19684FF6C8
:101AC000FF031940044B0B4343EA0221014B196009
:101AD00000BF70470CED00E00000FA0570B501464C
:101AE0000020002200230024012934D11B4D2D6841
:101AF00005F400031BB1012B29D1194829E0174D2A
:101B00002D1F2D6805F48005B5F5800F08D1134D04
:101B10002D1F2D6805F03F05124EB6FBF5F207E0CC
:101B20000E4D2D1F2D6805F03F050F4EB6FBF5F24B
:101B30000A4D7C352D68C5F3881505FB02F4074D69
:101B40007C352D68C5F30275B4FBF5F001E000208B
:101B500000BF00BF00BF00BF70BD000008380240DA
:101B60000080BB0000127A000024F400F8B504469F
:101B700000250026207800F0010020B9207800F030
:101B8000040004282FD100205B498866FFF744FC3D
:101B9000054606E0FFF740FC401B022801D9032060
:101BA000F8BD56480068C0F3C0600028F2D16068F4
:101BB0008101207A41EA0070504984310860012097
:101BC0004D498866FFF728FC054606E0FFF724FC30
:101BD000401B022801D90320E2E748480068C0F30F
:101BE000C0600028F2D0207800F0020002287DD1E9
:101BF00000BF0020009041484030006840F0805015
:101C00003E49403108600846006800F0805000906E
:101C100000BF00BF3A48006840F48070384908604F
:101C2000FFF7FAFB054606E0FFF7F6FB401B02282C
:101C300001D90320B4E73248006800F4807000281E
:101C4000F2D02E487030006800F440764EB3A08980
:101C500000F44070B04224D028487030006820F46E
:101C60004076012027490860002008602348703032
:101C70000660006800F0010098B1FFF7CDFB054653
:101C800008E0FFF7C9FB401B41F28831884201D9C7
:101C9000032085E7194870300068C0F34000002831
:101CA000EFD000BFA08900F44070B0F5407F0CD1A8
:101CB00012480830006820F4F810134AE168114017
:101CC00008430E490831086007E00C4808300068F6
:101CD00020F4F8100949083108600848703000689D
:101CE000A189C1F30B010843044900E002E070310F
:101CF000086000BF002053E7000047420038024060
:101D000000700040400E4742FFFCFF0F70B50446D4
:101D10000D460CB9012070BD5848006800F007005E
:101D2000A84209D255490D700846006800F0070026
:101D3000A84201D00120EEE7207800F0020002283E
:101D40001DD1207800F00400042805D14C4800681B
:101D500040F4E0504A490860207800F00800082864
:101D600005D14748006840F4604045490860444850
:101D7000006820F0F000A16808434149086020781D
:101D800000F00100A8B36068012807D13C4808387A
:101D90000068C0F34040B8B90120BCE76068022881
:101DA00002D06068032807D1354808380068C0F3BE
:101DB000406048B90120AEE7314808380068C0F3F8
:101DC000400008B90120A6E72D48006820F0030074
:101DD000616808432A490860FFF71EFB064609E0D0
:101DE000FFF71AFB801B41F28831884202D9032099
:101DF00091E707E02248006800F00C006168B0EB52
:101E0000810FEDD11D48006800F00700A84209D9F4
:101E10001A490D700846006800F00700A84201D07A
:101E2000012078E7207800F00400042807D1144846
:101E3000006820F4E050E168084311490860207808
:101E400000F00800082808D10D48006820F4604020
:101E5000216940EAC1000A49086000F03FF80849DA
:101E60000968C1F30311074A515CC840064908607C
:101E700006480068FFF7A8FD00204CE7003C024040
:101E8000083802403A000108000000202C00002021
:101E900001480068704700000000002000B5FFF70F
:101EA000F7FF04490968C1F38221034A515CC84025
:101EB00000BD0000083802404A00010800B5FFF7E5
:101EC000E7FF04490968C1F34231034A515CC84045
:101ED00000BD0000083802404A0001082DE9F04723
:101EE000002400250026A1462548006800F00C00CB
:101EF00020B1042805D008283AD105E0DFF8849005
:101F000039E0DFF8849036E01D48001F006800F0DB
:101F10003F041B48001F006800F4800078B11A4895
:101F20001749091F0968C1F38811A0FB0170014618
:101F3000224600233846FEF7CEF905460EE011484A
:101F40000F49091F0968C1F38811A0FB0170014600
:101F5000224600233846FEF7BEF905460848001F12
:101F60000068C0F30140401C4600B5FBF6F902E0F2
:101F7000DFF8109000BF00BF4846BDE8F0870000C2
:101F8000083802400024F40000127A00F8B5044634
:101F90000CB90120F8BD207800F00100002874D0B1
:101FA000F948006800F00C0004280DD0F6480068DD
:101FB00000F00C00082813D1F348001F006800F45B
:101FC0008000B0F5800F0BD1EF4808380068C0F3EF
:101FD0004040002859D06068002856D10120D9E738
:101FE00000BF6068B0F5803F08D1E7480838006856
:101FF00040F48030E449083908601EE06068B0F5BC
:10200000A02F0DD1E0480838006840F48020DE4958
:10201000083908600846006840F4803008600CE029
:10202000D9480838006820F48030D749083908605A
:102030000846006820F48020086000BF606890B106
:10204000FFF7EAF9054606E0FFF7E6F9401B6428CA
:1020500001D903209EE7CC4808380068C0F340400F
:102060000028F1D011E0FFF7D7F9054606E0FFF7A9
:10207000D3F9401B642801D903208BE7C2480838F4
:102080000068C0F340400028F1D1207800F0020041
:1020900002285FD1BC48006800F00C0058B1BA4873
:1020A000006800F00C0008281CD1B748001F006829
:1020B00000F48000B0B9B44808380068C0F34000AC
:1020C00020B1E068012801D0012063E7AE4808385C
:1020D000006820F0F800216940EAC100AA490839E7
:1020E000086037E0E06800B30120A8490860FFF706
:1020F00093F9054606E0FFF78FF9401B022801D946
:10210000032047E7A04808380068C0F340000028D3
:10211000F1D09D480838006820F0F800216940EAB5
:10212000C10099490839086014E000209749086007
:10213000FFF772F9054606E0FFF76EF9401B02282B
:1021400001D9032026E7904808380068C0F3400012
:102150000028F1D1207800F0080008282CD160690F
:10216000A8B101208A490860FFF756F9054606E044
:10217000FFF752F9401B022801D903200AE78248E1
:102180006C300068C0F340000028F1D014E000205B
:102190007F490860FFF740F9054606E0FFF73CF984
:1021A000401B022801D90320F4E677486C30006810
:1021B000C0F340000028F1D1207800F0040004288A
:1021C00070D1002770483830006800F0805090B916
:1021D00000BF002000906C483830006840F080500C
:1021E0006949383108600846006800F08050009066
:1021F00000BF00BF01276748006800F48070B0B9D5
:102200006448006840F4807062490860FFF704F990
:10221000054606E0FFF700F9401B022801D903201C
:10222000B8E65C48006800F480700028F2D000BF77
:10223000A068012808D154486830006840F00100C7
:102240005149683108601DE0A06805280DD14E484D
:102250006830006840F004004B4968310860084667
:10226000006840F0010008600CE0474868300068F2
:1022700020F001004449683108600846006820F0F9
:102280000400086000BFA068A8B1FFF7C5F80546C4
:1022900009E0FFF7C1F8401B41F28831884202D9BA
:1022A000032077E626E0384868300068C0F3400035
:1022B0000028EED013E0FFF7AFF8054608E0FFF77F
:1022C000ABF8401B41F28831884201D9032061E616
:1022D0002D4868300068C0F340000028EFD1012F7E
:1022E00007D129483830006820F08050264938311D
:1022F000086000BFA069002845D02348006800F0AE
:102300000C0008285DD0A069022845D100201F4993
:102310000866FFF781F8054606E0FFF77DF8401BE9
:10232000022801D9032035E6174808380068C0F3B1
:1023300040600028F1D1D4E907010843616A40EA0E
:1023400081110122A06AC2EB500041EA00412C2019
:10235000005D41EA00600C49091F086001200B493B
:102360000866FFF759F8054606E0FFF755F8401BE9
:10237000022801D903200DE6034808380068C0F39D
:1023800040600028F1D049E0083802400000474290
:10239000800E474200700040002021490866FFF788
:1023A0003BF8054606E0FFF737F8401B022801D945
:1023B0000320EFE51B480068C0F340600028F2D11D
:1023C0002CE0A069012800D1E4E51648001D06684C
:1023D000A069012820D006F48001E06981421BD168
:1023E00006F03F01206A814216D147F6C0703040A6
:1023F000616AB0EB811F0FD106F440310122A06A5F
:10240000C2EB5000B1EB004F06D106F070612C20FA
:10241000005DB1EB006F01D00120BBE50020B9E504
:102420000000474200380240F0B589B004460E462D
:102430000027032084F83400606C032820D0B6F510
:10244000805F04D1A06B40F08050A0631CE0B6F523
:10245000006F07D1204602F0B7F90546A06B28436C
:10246000A06311E03EB9204602F07AF90546A06B60
:102470002843A06308E0A06B40F00060A06303E085
:10248000A06B40F08050A063A06B38B11748216862
:102490008863012084F83400012713E0606803900A
:1024A000A0680490E0680590069660690790A069AE
:1024B000089006A807C88DE80700206803A90EC980
:1024C00001F0B3FB4FF40071206801F029FC0546D0
:1024D00035B1064821688863A06B2843A0630127B3
:1024E000012084F83400384609B0F0BDFF054000F3
:1024F00010B50246506E800F0870506EC0F38360B6
:102500004870506EC0F301608870506E000CC87047
:10251000B2F86400000A087192F864004871906E85
:10252000000DC880906EC0F3034008726820805A86
:10253000C0F3C03048726820805AC0F3803088727F
:102540006820805AC0F34030C8726820805AC0F3B7
:102550000030087300204873506C002836D1682082
:10256000805A8005030DD06E43EA90700861D06EEA
:10257000C0F3C2600875D06EC0F302604875D06EBB
:10258000C0F342508875D06EC0F38240C875D06EDB
:10259000C0F3C23008760869401C50650B7E506D50
:1025A00003F007039B1C01249C4060435065087A9C
:1025B00000F00F03012098409065D2E915035B0AF3
:1025C0005843D0654FF40073136621E0506C012826
:1025D00013D16820805C8006830AD06E43EA1040E5
:1025E00008610869401C83025365536DD3654FF43D
:1025F00000739365936D13660AE02E481368986321
:10260000906B40F080509063012082F8340010BD40
:102610006C20805AC0F3803001F8190F6C20805A6A
:10262000C0F3C61048706C20805C00F07F0088709A
:10263000106FC00FC870106FC0F341700871106F39
:10264000C0F382604871106FC0F383508871106FBF
:10265000C0F34050C87100200872106FC0F30040F2
:1026600048727020805AC0F3C03088727020805A3F
:10267000C0F38030C8727020805AC0F340300873B5
:102680007020805AC0F3003048737020805AC0F325
:10269000812088737020805AC0F30120C873702095
:1026A000805CC0F34600087401204874193900208A
:1026B000ADE70000FF0540000246506C0860906CDA
:1026C0004860D06C8860106DC860506D0861906D76
:1026D0004861D06D8861106EC86100207047F8B500
:1026E0000446002000906946204602F021F8054685
:1026F00015B1A06B2843A0630098C0F34326304671
:10270000F8BD10B504460CB9012010BD94F8340092
:1027100020B900202077204600F068F8032084F8D4
:102720003400204600F00CF808B10120EDE700204D
:10273000A0632063012084F834000020E5E7000056
:1027400070B58AB00446002004900590069007906A
:1027500008907620099007A807C88DE80700206830
:1027600004A90EC901F061FA064616B101200AB0AB
:1027700070BD00201B490860206801F070FA01203C
:102780001849A039C1F8A000204601F06BFF0546AA
:102790003DB1012084F83400A06B2843A0630120E0
:1027A000E5E7204601F0DDFE05463DB1012084F855
:1027B0003400A06B2843A0630120D8E74FF40071D8
:1027C000206801F0ADFA05464DB1074821688863DD
:1027D000A06B2843A063012084F83400C7E70020E1
:1027E000C5E70000A0802542FF05400010B586B077
:1027F000044600BF002000905348006840F4006089
:10280000514908600846006800F40060009000BF6D
:1028100000BF00BF00BF002000904B481438006884
:1028200040F004004849143908600846006800F088
:102830000400009000BF00BF00BF00BF00BF002029
:1028400000900846006840F00400086008460068F0
:1028500000F00400009000BF00BF00BF00BF00BF39
:10286000002000900846006840F004000860084618
:10287000006800F00400009000BF00BF00BF00BF70
:1028800000BF002000900846006840F00400086087
:102890000846006800F00400009000BF00BF00BFC1
:1028A00000BF00BF002000900846006840F0040010
:1028B00008600846006800F00400009000BF00BFF8
:1028C00000BF00BF00BF002000900846006840F035
:1028D000080008600846006800F00800009000BF8B
:1028E00000BF00BF881501900220029001200390D4
:1028F000022004900C20059001A91448FEF76CFCFE
:102900004FF40070019001A91048FEF765FC4FF4E8
:102910008060019001A90D48FEF75EFC4FF4006055
:10292000019001A90948FEF757FC4FF4805001902F
:1029300001A90648FEF750FC0420019001A90448B3
:10294000FEF74AFC06B010BD4438024000080240C1
:10295000000C02402DE9FF4F89B004468B46994692
:10296000DDF858A0FEF758FD02900B9800905D46E8
:10297000BBF1000F07D1A06B40F00060A063012005
:102980000DB0BDE8F08F94F8340001287ED100200E
:10299000A063009800EB0901E06D814205D9A06BAE
:1029A00040F00070A0630120EAE7032084F83400BF
:1029B00000202168C862606C012802D000984002A3
:1029C00000904FF0FF3003904FEA49200490902090
:1029D000059002200690002007900120089003A98E
:1029E000206801F0FDF8B9F1010F07D9022020633A
:1029F0002068009901F0FCF9804606E00120206380
:102A00002068009901F010FA8046B8F1000F0DD04F
:102A1000754821688863A06B40EA0800A063012024
:102A200084F83400002020630120A9E7049E3AE0E6
:102A30002068406B00F40040E0B1DEB1002001905E
:102A400015E0206801F014F907462F706D1C761E02
:102A5000380A28706D1C761E380C28706D1C761E86
:102A6000380E28706D1C761E0198401C019001984C
:102A70000828E6D3FEF7D0FC0299401A504502D24E
:102A8000BAF1000F0FD15848216800E0A6E0886332
:102A9000A06B40F00040A063012084F834000020C7
:102AA000206303206CE72068406B40F22A31084025
:102AB0000028BDD02068406B00F48070D0B1B9F11F
:102AC000010F17D9606C032814D0206801F06CFA4C
:102AD0008046B8F1000F0DD0434821688863A06B91
:102AE00040EA0800A063012084F83400002020633D
:102AF000012045E72068406B00F0080068B13A48C3
:102B000021688863A06B40F00800A063012084F86E
:102B1000340000202063012032E72068406B00F081
:102B2000020068B1304821688863A06B40F0020061
:102B3000A063012084F834000020206301201FE7F7
:102B40002068406B00F0200068B127482168886346
:102B5000A06B40F02000A063012084F83400002026
:102B6000206301200CE729E0206801F081F8074686
:102B70002F706D1C761E380A28706D1C761E380C5E
:102B800028706D1C761E380E28706D1C761EFEF7A0
:102B900043FC0299401A504502D2BAF1000F0DD100
:102BA000114821688863A06B40F00040A0630120B9
:102BB00084F83400002020630120E1E62068406BA7
:102BC00000F4001008B1002ECED140F23A50216836
:102BD0008863012084F834000020D1E6A06B40F027
:102BE0000050A0630120CBE6FF0540002DE9F04F27
:102BF00089B00446894693469846FEF70DFC02903C
:102C0000DA464D46B9F1000F07D1A06B40F00060E5
:102C1000A063012009B0BDE8F08F94F834000128CA
:102C20007ED10020A0630AEB0801E06D814205D946
:102C3000A06B40F00070A0630120EBE7032084F854
:102C4000340000202168C862606C012801D04FEA7E
:102C50004A2A4FF0FF3003904FEA4820049090201A
:102C600005900020069007900120089003A9206895
:102C700000F0B6FFB8F1010F07D9202020635146BC
:102C8000206801F0AFF9064606E0102020635146A7
:102C9000206801F0C3F9064666B15F482168886381
:102CA000A06B3043A063012084F83400002020632F
:102CB0000120AFE7049F43E02068406B00F48040B0
:102CC00030B32FB3002001901FE0287800906D1CD6
:102CD0007F1E2878009941EA002000906D1C7F1E1D
:102CE0002878009941EA004000906D1C7F1E2878EA
:102CF000009941EA006000906D1C7F1E69462068C3
:102D000000F0CEFF0198401C019001980828DCD308
:102D1000FEF782FB0299411A1298814203D200E029
:102D200074E0129860B93C4821688863A06B304316
:102D3000A063012084F8340000202063032069E7A9
:102D40002068406B40F21A3108400028B4D0206857
:102D5000406B00F48070B8B1B8F1010F14D9606C09
:102D6000032811D0206801F01FF9064666B12A48F1
:102D700021688863A06B3043A063012084F834008D
:102D800000202063012045E72068406B00F0080028
:102D900068B1214821688863A06B40F00800A063F7
:102DA000012084F8340000202063012032E72068ED
:102DB000406B00F0020068B1174821688863A06B7F
:102DC00040F00200A063012084F83400002020635A
:102DD00001201FE72068406B00F0100068B10E482A
:102DE00021688863A06B40F01000A063012084F884
:102DF00034000020206301200CE740F23A502168A3
:102E00008863012084F83400002003E7A06B40F0C1
:102E10000050A0630120FDE6FF05400010B5044608
:102E20000CB9012010BD606A38B96068B0F5827FC6
:102E300000D105E00021E16102E000212161616132
:102E4000A06AB0F5005F00D100BF94F8510028B926
:102E5000002084F85000204600F050F8022084F84A
:102E600051002068006820F0400021680860A088B8
:102E700000F48270218901F404410843A18901F41E
:102E800000610843217C01F002010843217D01F02B
:102E900001010843218B01F400710843217F01F0F7
:102EA000380108432021095D01F080010843218D8C
:102EB00001F400510843216808600421A06901EA77
:102EC000104094F8241001F0100108432168486074
:102ED000A06AB0F5005F03D1A08D80B221680861BF
:102EE0002068C06920F400602168C8610020606526
:102EF000012084F85100002094E7000010B586B04E
:102F000004462A49206888424DD100BF00BF0020F6
:102F100000902748006840F00200254908600846F4
:102F2000006800F00200009000BF00BF00BF00BFBB
:102F300000BF002000900846006840F002000860D2
:102F40000846006800F00200009000BF00BF00BF0C
:102F500000BF00BF002000900846006840F002005B
:102F600008600846006800F00200009000BF00BF43
:102F700000BF08200190022002900120039002204F
:102F800004900520059001A90A48FEF725F91020B4
:102F9000019001A90748FEF71FF92020019001A91F
:102FA0000448FEF719F906B010BD000000300140DA
:102FB00030380240000402402DE9F04F85B004464D
:102FC000884691461D460E9E0020049001200290E6
:102FD0000020019000BF94F85000012803D1022086
:102FE00005B0BDE8F08F012084F8500000BFFEF767
:102FF00013FA074694F851B060680390AA46BBF1F3
:10300000010F0BD00398B0F5827F04D1A06810B9EE
:10301000BBF1040F02D0022001902CE1B8F1000FA7
:1030200003D0B9F1000F00D015B90120019022E1C1
:1030300094F85100042802D0052084F851000020A3
:103040006065C4F83890E587A587C4F83080E586C8
:10305000A58620646064A06AB0F5005F0DD100BF52
:103060002068006820F4005021680860206800682B
:1030700040F400502168086000BF2068006800F03C
:103080004000402805D02068006840F040002168DA
:103090000860E068B0F5006F56D1606810B1BAF111
:1030A000010F09D1206B00882168C860206B801C4B
:1030B0002063E08E401EE0863FE02068806800F0DC
:1030C000020002281CD1E08ED0B10298012817D14D
:1030D000206B00882168C860206B801C2063E08E14
:1030E000401EE08600200290E08E48B9A06AB0F54C
:1030F000005F05D12068006840F4805021680860B6
:103100002068806800F0010068B1E08F58B1206845
:10311000C068A16B0880A06B801CA063E08F401E7C
:10312000E08701200290FEF777F9C01BB04204D37C
:10313000701C10B1032001909DE0E08E0028BCD1EE
:10314000E08F0028B9D156E0606810B1BAF1010FE4
:1031500009D1206B007821680873206B401C206324
:10316000E08E401EE08640E02068806800F00200AB
:1031700002281CD1E08ED0B10298012817D1206B13
:10318000007821680873206B401C2063E08E401E8D
:10319000E08600200290E08E48B9A06AB0F5005F9A
:1031A00005D12068006840F48050216808602068DC
:1031B000806800F0010068B1E08F58B12068C068F5
:1031C000A16B0870A06B401CA063E08F401EE087DD
:1031D00001200290FEF720F9C01BB04201D3701C01
:1031E00000B916B90320019045E0E08E0028BBD15C
:1031F000E08F0028B8D1A06AB0F5005F12D1334645
:10320000012211462046009701F048FB30B1606D65
:1032100040F002006065032001902CE02068C06847
:10322000049000BF2068806800F01000102809D1C9
:10323000606D40F0020060654FF6EF7021688860B5
:10324000012001903A463146204601F0F1FA20B1C2
:1032500001200190202060650DE0A06850B900BFFA
:10326000002000902068C06800902068806800906E
:1032700000BF00BF00BF012084F8510000BF002044
:1032800084F8500000BF0198AAE670B504460E46C7
:1032900015460CB9012070BD94F8490028B90020EA
:1032A00084F84800204600F01DF804F10801206869
:1032B000FDF7E6FD3146A2682068FDF70FFE2946BE
:1032C000236BD4E90102FDF7B7FDA168206850F82F
:1032D000210040F00100A268216841F8220000208E
:1032E000D9E7000010B586B0044600BF002000906A
:1032F0002248006840F00100204908600846006844
:1033000000F00100009000BF00BF00BF002000904F
:103310001A480838006840F0080018490839086061
:103320000846006800F00800009000BF00BF00BF22
:10333000002000900846006840F010000860084631
:10334000006800F01000009000BF00BF4CF2037056
:1033500001900220029001200390022004900C2092
:10336000059001A90648FDF737FF4FF680700190E0
:1033700001A90448FDF730FF06B010BD38380240FF
:10338000000C02400010024070B504462546681E3D
:10339000B0F1807F01D301200FE0681E4FF0E021E3
:1033A00048610F214FF0FF3001F092FD00204FF0F7
:1033B000E021886107200861002070BD10B5044637
:1033C0000CB9012010BD94F83D0028B9002084F804
:1033D0003C00204600F025F8022084F83D00211D25
:1033E000206801F0F9FA012084F8460000BF84F853
:1033F0003E0001213F20015540200155412001554B
:1034000000BF00BF012084F8420043200155442042
:1034100001554520015500BF012084F83D000020E2
:10342000D0E77047014691F83D00012801D0012006
:103430007047022081F83D000868C06840F0010034
:103440000B68D8601A4B086898421BD00868B0F126
:10345000804F17D0174B0868984213D0164B086856
:1034600098420FD0154B086898420BD0144B08684F
:10347000984207D0134B0868984203D0124B086853
:1034800098420CD10868806800F00702062A0CD028
:103490000868006840F001000B68186005E00868E3
:1034A000006840F001000B6818600020C0E70000D1
:1034B000000001400004004000080040000C0040F3
:1034C0000004014000400140001800407047704770
:1034D0002DE9F84F0446206805682068C668206812
:1034E00047694FF00009CA4605F00F09B9F1000F0E
:1034F0000AD105F0200038B106F0200020B12046A6
:1035000001F00BFBBDE8F88FB9F1000F72D007F0A6
:10351000010018B906F4907000286BD005F0010086
:1035200030B106F4807018B1206C40F001002064C6
:1035300005F0040030B107F0010018B1206C40F034
:103540000200206405F0020030B107F0010018B15C
:10355000206C40F00400206405F0080048B106F03B
:10356000200010B907F0010018B1206C40F00800ED
:103570002064206C70B305F0200028B106F0200014
:1035800010B1204601F0C9FA20684069C0F3801AE2
:10359000206C00F0080010B9BAF1000F23D02046CB
:1035A00001F090FA2068406900F04000402816D1F0
:1035B0002068406920F0400021684861A06B50B14C
:1035C0005648A16B0865A06BFDF73DFD10B1A06BDF
:1035D000016D88470CE02046FFF779FF08E02046A0
:1035E000FFF775FF04E02046FFF771FF002020641D
:1035F00088E7FFE7206B012879D105F0100000284B
:1036000075D006F01000002871D000BF0020009097
:1036100020680068009020684068009000BF00BFEC
:103620002068406900F04000402839D1A06B006854
:1036300040681FFA80F8B8F1000F30D0A08D4045E7
:103640002DDDA4F82E80A06BC069B0F5807F1FD05F
:103650002068C06820F480702168C86020684069D4
:1036600020F00100216848612068406920F0400096
:1036700021684861202084F83E00002020632068F3
:10368000C06820F010002168C860A06BFDF786FCC0
:10369000A08DE28D801A81B22046FFF717FF31E737
:1036A000A08DE18D401A1FFA80F8E08DE8B1B8F1E5
:1036B000000F1AD02068C06820F490702168C8609C
:1036C0002068406920F0010021684861202084F8CA
:1036D0003E00002020632068C06820F010002168B0
:1036E000C86041462046FFF7F1FE0BE7FFE705F013
:1036F000800030B106F0800018B1204601F0A5FB33
:1037000000E705F0400030B106F0400018B1204657
:1037100001F0F3F9F6E600BFF4E60000B14A000854
:1037200010B504460CB9012010BDA06900B100E03D
:1037300000BF94F83D0028B9002084F83C002046E2
:1037400000F028F8242084F83D002068C06820F4A8
:1037500000502168C860204601F03EFA20680069E8
:1037600020F49040216808612068406920F02A0018
:10377000216848612068C06840F400502168C86032
:1037800000202064202084F83D0084F83E000020C2
:10379000CAE7000010B586B004462E49206888426A
:1037A00055D100BF00BF002000902B48006840F0BA
:1037B0001000294908600846006800F010000090D9
:1037C00000BF00BF00BF00BF00BF00200090224824
:1037D0001438006840F001001F4914390860084699
:1037E000006800F00100009000BF00BF00BF00BFF4
:1037F00000BF002000900846006840F0010008600B
:103800000846006800F00100009000BF00BF00BF44
:10381000481501900220029001200390022004909C
:103820000720059001A90D48FDF7D6FC4FF48060F4
:1038300001900720059001A90848FDF7CDFC25203F
:10384000FEF7E9F8032211462520FEF7F4F806B04A
:1038500010BD00000010014044380240000002404A
:1038600070B504460D46164694F83E00202816D141
:1038700005B10EB9012070BD00BF94F83C000128CD
:1038800001D10220F7E7012084F83C0000BF0020AE
:10389000206332462946204601F0B4FAEBE70220C5
:1038A000E9E7000010B504462049206888423BD172
:1038B0001F48008800F4004088BB1D48008800F4C1
:1038C000804070B11B4800780A2803D000201849B6
:1038D000088024E01648008840F40040144908801D
:1038E0001DE0144800780D2806D11148008840F4E6
:1038F00080400F49088012E00E4800780C49098882
:10390000C1F30D010C4A505409480088401C084975
:10391000088008460088C72801DD002008800122B1
:1039200004490648FFF79CFF10BD0000001001404D
:1039300024000020260000204C0200201403002058
:10394000704700BFFEE710B504462068C06881B22A
:10395000E26A901CE0621180608E401E6086608E7C
:1039600068B92068406820F0600021684860608D78
:1039700028B9012084F841002046FDF775FE10BDEE
:1039800010B5044617492068884201D1164801E065
:103990004FF04020C06881B2E26A901CE062118062
:1039A000608E401E6086608ED8B90E4920688842BD
:1039B00001D10D4801E04FF04020406820F0600048
:1039C000084A2168914201D1074901E04FF04021A6
:1039D0004860608D28B9012084F841002046FDF739
:1039E00043FE10BD003800400034004010B50446CE
:1039F000616A881C606208882168C860608D401E0A
:103A00006085608D68B92068406820F0A00021685A
:103A10004860608E28B9012084F841002046FDF7F7
:103A200023FE10BD10B50446616A881C60620888D8
:103A3000154A2168914201D1144901E04FF040211B
:103A4000C860608D401E6085608DD8B90E492068C1
:103A5000884201D10D4801E04FF04020406820F03D
:103A6000A000094A2168914201D1084901E04FF0C4
:103A700040214860608E28B9012084F8410020462A
:103A8000FDF7F2FD10BD000000380040003400409A
:103A90001CB5044620688068019094F84100042811
:103AA00030D1019800F0010038B120684068C0F3BF
:103AB000801010B1204600F059F8019800F0400045
:103AC00040281FD120684068C0F34010D0B1206862
:103AD000406820F060002168486000BF002000902E
:103AE0002068C068009020688068009000BF00BF18
:103AF000012084F84100606C40F0020060642046C0
:103B0000FDF7B3FD94F8410003282ED1019800F091
:103B10000200022807D120684068C0F3C01010B12D
:103B2000204600F03EF8019800F0080008281CD15B
:103B300020684068C0F34010B8B12068406820F0A9
:103B4000A0002168486000BF0020009020688068C5
:103B5000009000BF00BF012084F84100606C40F07D
:103B6000040060642046FDF780FD1CBD10B50446CE
:103B70002068C068E16A0880E06A801CE062608EAC
:103B8000401E6086608E58B92068406820F0600052
:103B900021684860012084F841002046FDF7EEFED0
:103BA00010BD10B50446606A00882168C860606A6C
:103BB000801C6062608D401E6085608D58B92068F1
:103BC000406820F0A00021684860012084F841008E
:103BD0002046FDF7D4FE10BD00BFFEE770477047DA
:103BE00010B5024600230868506248689062D1E927
:103BF000020420430C6920434C6920430343D06AEC
:103C000020F0F7001843D062002010BD014608697B
:103C1000C0B270470146086800F0030070470246D2
:103C200002F114004318186870470FB410B5044629
:103C30000021DDE903021043059A1043069A104360
:103C4000079A1043089A10430143606847F6FF62E1
:103C5000904308436060002010BC5DF814FB10B571
:103C60000446032020600220FDF7B0FA002010BDBA
:103C70000146D1F88000704710B50246002308685D
:103C80009060D1E901042043CC6820430C692043B3
:103C90000343D0686FF30B001843D060002010BDC1
:103CA00002460868C2F880000020704770B586B0F0
:103CB00005460C46019437200290402003900020D6
:103CC00004904FF48060059001A92846FFF7D4FFC7
:103CD00041F288323721284600F0DCF906463046AA
:103CE00006B070BD70B586B005460C460B48204343
:103CF00001902920029040200390002004904FF46E
:103D00008060059001A92846FFF7B6FF284600F01D
:103D1000C9FA0646304606B070BD000000001080AB
:103D200070B586B005460C460194102002904020E4
:103D30000390002004904FF48060059001A928466C
:103D4000FFF79AFF41F288321021284600F0A2F9CD
:103D50000646304606B070BD70B586B005460C46C6
:103D600001940620029040200390002004904FF41C
:103D70008060059001A92846FFF77EFF41F2883256
:103D80000621284600F086F90646304606B070BD8A
:103D900030B585B004460020009001900290039059
:103DA0004FF48060049069462046FFF765FF204687
:103DB00000F050F90546284605B030BD30B585B055
:103DC00004464FF4D57000900820019040200290E6
:103DD000002003904FF48060049069462046FFF76E
:103DE0004BFF204600F0E6FA0546284605B030BDF8
:103DF00070B586B005460C46019412200290402012
:103E00000390002004904FF48060059001A928469B
:103E1000FFF732FF41F288321221284600F03AF9CA
:103E20000646304606B070BD70B586B005460C46F5
:103E300001941120029040200390002004904FF440
:103E40008060059001A92846FFF716FF41F28832ED
:103E50001121284600F01EF90646304606B070BD16
:103E6000F0B585B0064614461D4600940720019023
:103E700040200290002003904FF480600490694637
:103E80003046FFF7F9FE41F288320721304600F054
:103E900001F90746384605B0F0BD30B585B0044697
:103EA0000020009002200190C0200290002003908A
:103EB0004FF48060049069462046FFF7DDFE2046FF
:103EC00000F0BEF90546284605B030BD70B586B095
:103ED00005460C46019409200290C0200390002062
:103EE00004904FF48060059001A92846FFF7C4FEB6
:103EF000284600F0A5F90646304606B070BD30B53C
:103F000085B00446002000903320019040200290AC
:103F1000002003904FF48060049069462046FFF72C
:103F2000ABFE41F288323321204600F0B3F805465B
:103F3000284605B030BD70B586B005460C460194E4
:103F40000D20029040200390002004904FF48060E8
:103F5000059001A92846FFF78FFE41F288320D2116
:103F6000284600F097F80646304606B070BD70B59A
:103F700086B005460C4600200190032002904020A8
:103F80000390002004904FF48060059001A928461A
:103F9000FFF772FE22460321284600F0AFF90646DD
:103FA000304606B070BD000030B585B00446002034
:103FB00000900C20019040200290002003904FF4CC
:103FC0008060049069462046FFF756FE044A0C21A3
:103FD000204600F05FF80546284605B030BD0000D9
:103FE00000E1F50570B586B005460C460194192030
:103FF000029040200390002004904FF480600590D0
:1040000001A92846FFF738FE41F2883219212846D7
:1040100000F040F80646304606B070BD70B586B078
:1040200005460C4601941820029040200390002081
:1040300004904FF48060059001A92846FFF71CFE0C
:1040400041F288321821284600F024F8064630460E
:1040500006B070BD01460E480068C0084FF47A7380
:10406000B0FBF3F041F2883300FB03F200BF101EF7
:10407000A2F1010202D14FF000407047486B00F0FE
:1040800080000028F3D0C52088630020F5E70000F9
:10409000000000202DE9F04305460F469046664893
:1040A0000068C0084FF47A71B0FBF1F000FB08F92A
:1040B00000BFB9F10000A9F1010903D14FF00040A0
:1040C000BDE8F0836E6B06F045000028F1D006F4E1
:1040D00000600028EDD1686B00F0040010B10420EE
:1040E000A863EDE7686B00F0010010B10120A86340
:1040F000E6E7C520A8632846FFF788FDB84201D04F
:104100000120DDE700212846FFF789FD04464B48E2
:10411000204008B90020D3E704F00040B0F1004F80
:1041200002D14FF00070CBE704F08040B0F1804F37
:1041300001D14020C4E704F00050B0F1005F01D18C
:104140008020BDE704F08050B0F1805F02D14FF4D1
:104150008070B5E704F00060B0F1006F02D14FF459
:104160000070ADE704F08060B0F1806F02D14FF4D1
:104170008060A5E704F08070B0F1807F02D14FF439
:1041800000609DE704F40000B0F5000F02D14FF489
:10419000805095E704F48000B0F5800F02D14FF411
:1041A00000508DE704F40010B0F5001F02D14FF469
:1041B000804085E704F48010B0F5801F02D14FF4F1
:1041C00000407DE704F48020B0F5802F02D14FF449
:1041D000003075E704F40030B0F5003F02D14FF431
:1041E00080206DE704F48030B0F5803F02D14FF4B9
:1041F000002065E704F40040B0F5004F02D14FF411
:1042000080105DE704F48040B0F5804F02D14FF498
:10421000001055E704F40050B0F5005F02D14FF4F0
:1042200080004DE704F00800082801D1000547E7A9
:104230004FF4803044E700000000002008E0FFFD5C
:1042400010B5014616480068C0084FF47A74B0FBF8
:10425000F4F041F2883400FB04F300BF181EA3F110
:10426000010302D14FF0004010BD4A6B02F045003F
:104270000028F3D002F400600028EFD1486B00F072
:10428000040010B104208863EEE7486B00F00100E1
:1042900010B101208863E7E7C52088630020E3E7C9
:1042A0000000002010B5014613480068C0084FF414
:1042B0007A74B0FBF4F041F2883400FB04F300BFE1
:1042C000181EA3F1010302D14FF0004010BD4A6B4C
:1042D00002F045000028F3D002F400600028EFD17E
:1042E000486B00F0040010B104208863EEE7C5209D
:1042F00088630020EAE70000000000202DE9F04379
:1043000004460F4690462A480068C0084FF47A7168
:10431000B0FBF1F041F2883100FB01F900BFB9F1C7
:104320000000A9F1010903D14FF00040BDE8F0837E
:10433000666B06F045000028F1D006F40060002806
:10434000EDD1606B00F0040010B10420A063EDE734
:10435000606B00F0010010B10120A063E6E7204689
:10436000FFF754FCB84201D00120DFE7C520A0636D
:1043700000212046FFF753FC054605F4604020B9B4
:10438000280CA8F800000020D0E705F48040B0F524
:10439000804F02D14FF40050C8E705F40040B0F55B
:1043A000004F02D14FF48050C0E74FF48030BDE79A
:1043B0000000002010B5014618480068C0084FF4FE
:1043C0007A74B0FBF4F041F2883400FB04F300BFD0
:1043D000181EA3F1010302D14FF0004010BD4A6B3B
:1043E00002F045000028F3D002F400600028EFD16D
:1043F000486B00F0040010B104208863EEE7486BBE
:1044000000F0010010B101208863E7E7486B00F07D
:10441000400008B1402088630020DFE70000002052
:104420002DE9F04389B004460F46FCF7F5FF8146BD
:104430004FF000080020019002903E4608212068BD
:10444000FFF76EFC05461DB1284609B0BDE8F083B4
:104450005022125B11042068FFF728FC05460DB1BD
:104460002846F2E74FF0FF300390082004903020F8
:10447000059002200690002007900120089003A9D3
:104480002068FFF7ADFB2068FFF739FD05460DB149
:104490002846DAE71CE02068406B00F4001040B1C9
:1044A0002068FFF7E5FB01A941F8280008F10108A1
:1044B00005E02068406B00F4005000B90EE0FCF706
:1044C000ABFFA0EB0900401C10B94FF00040BCE767
:1044D0002068406B00F02A000028DCD000BF206874
:1044E000406B00F0080018B1082021688863ACE731
:1044F0002068406B00F0020018B102202168886338
:10450000A3E72068406B00F0200018B1202021684C
:1045100088639AE740F23A5021688863029800065F
:10452000029901F47F4140EA0120029901F47F01E0
:1045300040EA1120029940EA11603060361D01986E
:104540000006019901F47F4140EA0120019901F43C
:104550007F0140EA1120019940EA1160306000209B
:1045600073E730B58FB00446012003902068FFF751
:1045700051FB18B94FF080600FB030BD606C03285C
:104580001BD02068FFF789FC05460DB12846F3E7EC
:1045900000212068FFF743FB606704212068FFF7D4
:1045A0003EFBA06708212068FFF739FBE0670C217C
:1045B0002068FFF734FB80210851606C032807D086
:1045C00003A92068FFF7D3FC05460DB12846D3E7C1
:1045D000606C032820D0BDF80C1021655022125BBE
:1045E00011042068FFF772FC05460DB12846C3E7A9
:1045F00000212068FFF713FB606604212068FFF7A5
:104600000EFBA06608212068FFF709FBE0660C217D
:104610002068FFF704FB206704212068FFF7FFFAFA
:10462000010DE16404A92046FDF762FF10B14FF0CF
:104630008050A1E75020005B01040A460023206857
:10464000FFF70EFC05460DB1284695E7D4E90412A4
:10465000A069CDE90012029094E80F00FFF7E5FA97
:10466000002089E7F8B504460020009000260027C6
:104670002068FFF78DFB05460DB12846F8BD206880
:10468000FFF79CFB054645B10021A1642068FFF7B8
:104690007FFB05461DB12846F0E70121A164A06C0F
:1046A000012808D100212068FFF700FB054615B15D
:1046B0004FF08050E2E71DE000212068FFF7F6FA96
:1046C00005460DB12846D9E718492068FFF70AFBCF
:1046D000054615B14FF08050D0E700212068FFF764
:1046E0009EFA0646012080EAD67080F00107009805
:1046F000401C00904FF6FF710098884201D2002FB5
:10470000DAD04FF6FF710098884202D34FF08070E4
:10471000B4E706F08040B0F1804F02D10120606420
:1047200001E0002060640020A8E70000000010C144
:1047300070B504460D4615B94FF0006070BD5022AB
:10474000125B11042068FFF7F6FB06460EB13046F7
:10475000F4E700212068FFF762FA28600020EDE707
:104760007CB5044600200090019000212068FFF7EE
:1047700056FA00F00070B0F1007F02D14FF40060F3
:104780007CBD69462046FFF74BFE05460DB1284625
:10479000F6E7019800F4803098B15022125B1104C2
:1047A0002068FFF783FA05460DB12846E8E70021A7
:1047B0002068FFF7D1FA05460DB12846E0E7002052
:1047C000DEE74FF08060DBE77CB504460020009018
:1047D000019000212068FFF722FA00F00070B0F18C
:1047E000007F02D14FF400607CBD69462046FFF790
:1047F00017FE05460DB12846F6E7019800F4802023
:1048000098B15022125B11042068FFF74FFA054659
:104810000DB12846E8E702212068FFF79DFA05461A
:104820000DB12846E0E70020DEE74FF08060DBE7CF
:104830007CB504460D461646164800681821B0FBA4
:10484000F1F01549B0FBF1F04FF47A714843019053
:104850006068B0F5827F0DD12B4600228021204672
:10486000009600F01BF898B1606D40F02000606584
:1048700003207CBD00BF019800B908E00198401EEC
:10488000019020688068C0F3C0100028F3D100BFF9
:104890000020EEE70000002040420F002DE9F84F15
:1048A00004460D4690461E46DDF82890FCF7B4FD00
:1048B000A0EB0900371AFCF7AFFD82462C480068D0
:1048C000C0F3CB307843009045E0701C002842D004
:1048D000FCF7A2FDA0EB0A00B84200D2A7BB2068FB
:1048E000406820F0E000216848606068B0F5827F91
:1048F0000DD1A068B0F5004F03D0A068B0F5806F6F
:1049000005D12068006820F0400021680860A06A96
:10491000B0F5005F0DD100BF2068006820F40050A2
:10492000216808602068006840F400502168086031
:1049300000BF012084F8510000BF002084F850001F
:1049400000BF0320BDE8F88FFFE7009800B90027FB
:104950000098401E0090206880682840A84201D13D
:10496000012000E000204045AFD10020EAE7000030
:1049700000000020704710B5FDF702F810BD0000E0
:104980000348006840F47000014908607047000067
:1049900088ED00E010B50E480068C06800F0010026
:1049A00078B10C49086980470020094909684862C4
:1049B00000BF642006490968C86264210448C160D8
:1049C00000BF6FF0010002490968086110BD0000D6
:1049D00054160020E400002010B50268294B9842CC
:1049E0000ED0B0F1804F0BD0274B984208D0274B08
:1049F000984205D0264B984202D0264B984203D1CC
:104A000022F070024B681A431E4B984220D0B0F13E
:104A1000804F1DD01C4B98421AD01C4B984217D087
:104A20001B4B984214D01B4B984211D01A4B984202
:104A30000ED01A4B98420BD0194B984208D0194B04
:104A4000984205D0184B984202D0184B984203D197
:104A500022F44072CB681A4322F080034C6943EA87
:104A6000040202608B68C3620B688362054B984244
:104A700002D0084B984201D10B69036301234361C3
:104A800010BD00000000014000040040000800408C
:104A9000000C00400004014000400140004401407F
:104AA0000048014000180040001C00400020004069
:104AB00070B50546AC6B0020E085E0842046FEF72B
:104AC00006FD70BD0168C96821F490710268D1606B
:104AD0000168496921F0010102685161016B0129F6
:104AE00005D10168C96821F010010268D160202158
:104AF00080F83E1000210163704710B5044620681D
:104B0000C06820F040002168C860202084F83D0083
:104B10002046FEF715FF002010BD70B5044694F83E
:104B20003E00222856D1A068B0F5805F0CD12069E4
:104B300050B90025A66A20684068C0F3080030809C
:104B4000A06A801CA06215E0A56A0026A068B0F5E6
:104B5000805F03D0A06828B9206918B92068406830
:104B6000287004E02068406800F07F002870A06A88
:104B7000401CA062E08D401E80B2E08540BB2068F2
:104B8000C06820F020002168C8602068C06820F458
:104B900080702168C8602068406920F001002168A9
:104BA0004861202084F83E00206B01280AD120684B
:104BB000C06820F010002168C860A18D2046FEF773
:104BC00085FC02E02046FEF76DFE0020206370BDEC
:104BD0000020FCE70220FAE72DE9F84F04462068A0
:104BE000006920F44050E1680843216808612169A8
:104BF000A068084361690843E169084300902068A0
:104C0000C06849F20C618843009908432168C86074
:104C10002068406920F44070A16908432168486118
:104C200076492068884203D075492068884203D1BC
:104C3000FDF744F9814602E0FDF730F98146E0696D
:104C4000B0F5004F6CD102206168A0FB0150034613
:104C50001920A9FB007001462A463846FBF73BFBAA
:104C60006421B0FBF1F04FEA001A02206168A0FB5A
:104C700001510B461920A9FB00712A463846FBF763
:104C80002AFB834602206168A0FB015003461920DD
:104C9000A9FB00712A463846FBF71DFB6421B0FBD7
:104CA000F1F000EBC00101EB0010ABEB8000322112
:104CB00001EBC0006421B0FBF1F000F0F8000AEB5A
:104CC000400A02206168A0FB015003461920A9FB9D
:104CD000007001462A463846FBF7FDFA834602205B
:104CE0006168A0FB015003461920A9FB00712A4608
:104CF0003846FBF7F0FA6421B0FBF1F000EBC0019D
:104D000001EB0010ABEB8000322101EBC00064210D
:104D1000B0FBF1F000F007005044216888606AE0C1
:104D200004206168A0FB015003461920A9FB007014
:104D300001462A463846FBF7CEFA824604206168CF
:104D4000A0FB015003461920A9FB007001462A462A
:104D50003846FBF7C0FA6421B0FBF1F000EBC0016C
:104D600001EB0010AAEB8000322101EB001064215E
:104D7000B0FBF1F000F0F00A04206168A0FB0170C4
:104D800003461920A9FB00513A462846FBF7A3FA2F
:104D90006421B0FBF1F00AEB001A04206168A0FB6B
:104DA00001510B461920A9FB00712A463846FBF732
:104DB00092FA834604206168A0FB01500346192043
:104DC000A9FB007001462A463846FBF784FA6421A5
:104DD000B0FBF1F000EBC00101EB0010ABEB800089
:104DE000322101EB00106421B0FBF1F000F00F0064
:104DF000504421688860BDE8F88F00000010014031
:104E00000014014010B5034699629A85DA850020A6
:104E10001864222083F83E0000BF002083F83C0085
:104E200000BF1868C06840F480701C68E0601868B3
:104E3000406940F001001C6860611868C06840F07B
:104E400020001C68E060002010BD014691F83D0084
:104E5000212828D18868B0F5805F0BD1086948B94E
:104E60000A6A1088C0F308000B685860086A801C42
:104E7000086205E00B6A581C086218780B685860D5
:104E8000C88C401E80B2C88458B90868C06820F039
:104E900080000B68D8600868C06840F040000B686C
:104EA000D860002070470220FCE7000010B50248DF
:104EB000FEF70EFB10BD00001403002000BFFEE74C
:104EC00002480068C0F30220704700000CED00E0CB
:104ED00010B5002804DB0A07130E054A135406E038
:104EE0000A07140E034A00F00F031B1FD45410BD11
:104EF00000E400E018ED00E030380A2801D201207B
:104F000070470020704700BF70470000FEB50446A0
:104F10000D46164642480088A8427DD040490D8083
:104F2000084600883C2190FBF1F74FF478401021AF
:104F300002233A46CDE90010D2211E2006F038FFA8
:104F40004FF47840002110233A22CDE90010D221FD
:104F50002E2006F08DFE324800883C2190FBF1F2B5
:104F600001FB12074FF47840102102233A46CDE9A5
:104F70000010D221362006F01BFF4FF478400021AC
:104F800010232F22CDE90010D221462006F070FE1A
:104F90003C20B4FBF0F74FF47840102102233A464E
:104FA000CDE90010D2214E2006F002FF4FF47840E8
:104FB000002110233A22CDE90010D2215E2006F014
:104FC00057FE3C20B4FBF0F100FB11474FF4784052
:104FD000102102233A46CDE90010D221662006F0C6
:104FE000E7FE4FF47A70B6FBF0F74FF478401021EB
:104FF00004233A46CDE90010D2218C2006F0D8FED9
:105000004FF4784007A110221346CDE90021029009
:10501000C822D221AC2000E001E006F015FFFEBD61
:10502000040000204B6270730000000070B504465D
:10503000204601F03BFA0546402D04D120460AF0F7
:1050400041FB054605E0214603A0FBF7DFF90125FA
:1050500000BF00BF284670BD63616E277420706C6E
:1050600061793A25730D0A0010B5032002490874CE
:1050700003F048F810BD00001002002010B5002019
:105080000249087403F04AF810BD00001002002025
:105090002DE9F04704460D4690469946AD1E606BDB
:1050A00000EB153AC5F3C80605F00701012088405A
:1050B000C7B200BF51460AF1010A204607F052FC70
:1050C00010B10120BDE8F08700BF00BF04F13C0033
:1050D000805D384008B1012000E00020484501D142
:1050E0000220EFE704F13C00805D784004F13C01D0
:1050F00088550120E070A8F10100B0F1000800D14E
:10510000E0E77806000E071EE0D10127701C064676
:10511000B0F5007FD9D30026CCE700002DE9F0419F
:10512000044688460020E070401EA06341462046A9
:1051300007F018FC10B10420BDE8F08104F23A2019
:1051400006F064FF07464AF65520874208D10B2235
:105150002DA104F13C00FBF7FFFA08B90120EBE7B1
:1051600094F83C50EB2D03D0E92D01D0E82D43D12C
:105170004AF65520874208D1082226A104F18E0064
:10518000FBF7EAFA08B90020D6E704F1470006F079
:105190003DFF06464920055D701E304060BBB6F5F8
:1051A000007F29DBB6F5007F26DC2DB3681E284082
:1051B00010BB04F14A0006F029FFE8B14C20005D65
:1051C000401E012818D804F14D0006F01FFF98B1C9
:1051D00004F14F0006F01AFF802806DA04F15C00A3
:1051E00006F0D7FEB0F5803F06D304F1520006F07A
:1051F0000DFF08B100209FE74AF65520874201D1F4
:10520000022099E7032097E7EB76904558464154F2
:10521000202020004641543332202020000000008E
:105220002DE9F84F824615461E46DAF80000009038
:10523000DAF8500000F104094FF400720023284608
:105240003146FBF748F807460098B0F80AC06246B6
:1052500000233846FBF73FF8834600BF59F8044B5C
:1052600014B90020BDE8F88FA34500D204E0ABEBF1
:10527000040B09F10409F1E700BFD9F80000584414
:10528000F0E70246891ED069801E884201D80020BE
:1052900070475389106B03FB0100F9E72DE9F047D4
:1052A00080460C4604F11A0006F0B0FE10B1002052
:1052B000BDE8F087207800F03F00401E00EB800141
:1052C00001EBC0054FF00109002621E01849895D76
:1052D000081906F09BFE0746B9F1000F11D0FF2D0B
:1052E0000BD8384602F086FA824629466D1C38F8FB
:1052F000110002F07FFA824501D00020D8E7B946BC
:1053000005E04FF6FF70874201D00020D0E7761C01
:105310000D2EDBD3207800F0400038B1B9F1000F3A
:1053200004D038F8150008B10020C1E70120BFE71C
:10533000343101082DE9F04706468A463468BAF14F
:10534000000F0AD1D4F81480B8F1000F02D0E06940
:10535000404516D84FF0010813E05146304602F0A0
:1053600067FC0746022F02D20120BDE8F087781CB7
:1053700008B93846F9E7E069B84201D93846F4E798
:10538000D046A06908B90020EFE7207804284ED164
:1053900001224146204602F0C2FA05460DB1681CC2
:1053A00008B92846E1E701231A4629462046FFF7B7
:1053B0006FFE8146B9F1020F01D10120D5E7B9F1A5
:1053C000010F02D14FF0FF30CFE7BAF1000F02D149
:1053D0000220F0710CE0F079022809D108F10100F7
:1053E000854205D0B068A8EB0000B0610320F071E1
:1053F000F079022869D00AF10100854207D1F069ED
:1054000010B1F069401C00E00220F0615DE0F0693D
:1054100008B90120F0612A465146304602F05DFA93
:105420008146B9F1000F50D10120F0614DE0002517
:10543000D04519D108F10105E069A84200D802253C
:105440002946304602F0F4FB0746012F01D0781CB4
:1054500008B9384689E73FB16769022F03D3E0698D
:10546000B84200D9B8460025E5B9454600BF6D1CD5
:10547000E069A84204D80225454501D9002074E717
:105480002946304602F0D4FB074607B909E0012F50
:1054900001D0781C08B9384667E74545E7D10020B8
:1054A00063E700BF4FF0FF322946204607F0BEFDFC
:1054B0008146B9F1000F08D1BAF1000F05D02A4694
:1054C0005146204607F0B2FD8146B9F1000F0DD1DB
:1054D0006561D4E90610801E814202D8A069401E91
:1054E000A061207940F00100207107E0B9F1010FBF
:1054F00002D14FF0FF3000E001200546284634E796
:105500002DE9F34F85B08146069800680290D9F8DE
:105510000000D0F80CA0002500BF02A808F09EFCF7
:1055200083460BF1010018B9062007B0BDE8F08FE3
:10553000BBF5803F05D34FEA1B4228466D1C2AF875
:1055400010201FFA8BF4202C03DB2F2C01D05C2CB5
:1055500000D111E0802C06DA21467BA0FBF7F2F89F
:1055600008B10620E1E7FF2D01D30620DDE728463C
:105570006D1C2AF81040D0E700BF202C01DA042669
:1055800011E002E00298401C0290029800782F2857
:10559000F8D0029800785C28F4D0002602980078B1
:1055A000202800D2042602990698016008E0681EAF
:1055B0003AF81040202C02D02E2C00D002E06D1EB4
:1055C000002DF4D100BF00202AF815000DB90620E7
:1055D000ABE7002700E07F1C3AF817002028FAD03C
:1055E0001FB93AF817002E2801D146F0030600E053
:1055F0006D1E25B1681E3AF810002E28F8D1202221
:105600000B2109F14000FBF76EF94FF00008CDF8CF
:1056100010800820039000BF38467F1C3AF81040E5
:1056200004B966E0202C03D02E2C04D1AF4202D066
:1056300046F00306F0E7DDE90310884201D2AF42ED
:1056400016D103980B2802D146F0030651E0AF4271
:1056500001D046F00306AF4200D94AE02F460820A9
:1056600004900B2003904FEA88604FEA1068D3E75C
:10567000802C0ADB46F00206204602F0BBF84FF40D
:105680006A71019002F074F80446FF2C11DD039852
:10569000401E0499884204D846F0030603980490FB
:1056A000BAE722120498411C049109F140010A54FE
:1056B00018E024B1214627A0FBF744F818B15F2475
:1056C00046F003060EE0412C03DB5A2C01DC48F0C7
:1056D0000208612C06DB7A2C04DC48F00108A4F1F6
:1056E000200084B20498411C049109F140010C543B
:1056F00092E700BF99F84000E52802D1052089F81B
:1057000040000398082803D14FEA88604FEA1068E8
:1057100008F00C000C2803D008F00300032801D186
:1057200046F0020606F0020048B908F0010008B190
:1057300046F0100608F0040008B146F008064B20B9
:1057400000F809600020F0E62A3A3C3E7C223F7FC8
:10575000000000002B2C3B3D5B5D00002DE9F04775
:1057600004460E4640212046FBF7C5F885202070F0
:10577000C02084F8200040250020804607464FF0D6
:10578000010900BFC12228466D1C22540022284670
:105790006D1C225400BFB9F1000F06D036F8170077
:1057A000B0F1000901D0781CC7B26019494608F071
:1057B0002BFAAD1C05F01F000028ECD108F1010008
:1057C00000F0FF0836F817000028DBD184F82370BA
:1057D00008F10100607030460AF0C5FA8246514671
:1057E00004F1240008F010FABDE8F08701460B48E8
:1057F000007888420FDC09484078884201DB0120AC
:10580000704706488078884205DC0448C0788842A2
:1058100001DB0120F4E70020F2E70000413101083C
:10582000014610480079884219DC0E4840798842C8
:1058300001DB012070470B488079884205DC09486C
:10584000C079884201DB0120F4E70648007A8842EB
:1058500005DC0448407A884201DB0120EAE70020A9
:10586000E8E7000041310108014908607047000085
:105870001C00002010B504464FF47A7104FB01F0BF
:1058800000F002F810BD000070B5034600224FF092
:10589000E02675690D4E366803FB06F44FF0E026EE
:1058A000B16910E04FF0E026B06988420BD0884221
:1058B00002D20E1A324402E02E1A0E44324401463D
:1058C000A24200D300E0EDE700BF70BD1C00002045
:1058D0002DE9F04104460E46D4F800800021204610
:1058E00000F06FFB05465DBB002700BF4046A16B83
:1058F00007F038F8054605B121E098F800000428C3
:1059000005D1E06B0078012121EAD01009E0E06BBD
:105910000078E52802D0E06B007808B9012000E0AB
:10592000002020B1781C0746B04201D107E00027D3
:105930000121204600F03FF90546002DD6D000BFDA
:10594000042D00D107252846BDE8F0812DE9F04758
:1059500004468946204608F0EDF910B10120BDE863
:10596000F08749462046FFF78CFC0746A7634FF4B3
:10597000007104F13C00FAF7E0FF60894FF4004148
:10598000B1EB402F01D8084601E06089400206468D
:105990004FF0000800E07608B6F5007F05D93046E4
:1059A00001F093FEB0F10008F5D0B6F5007F16D9EE
:1059B00031464046FAF79FFF760A002500E035445D
:1059C0006089A84207D97A1960783346414600F0C9
:1059D000E5FB0028F3D0404601F07EFE10E004F124
:1059E0003C080126002500E035446089A84207D91B
:1059F0007A1960783346414600F0D0FB0028F3D096
:105A00006089A84201D00120A9E70020A7E72DE97D
:105A1000F04F85B0044625680021204600F0D1FAF9
:105A200007461FB1384605B0BDE8F08F2878042836
:105A30004CD1E8680AF097F901903EE0296901F13C
:105A4000240006F0E3FA0199884200D035E0286985
:105A500090F8230003904FF0400A002002901FE0CE
:105A60000AF01F0008B90AF1020A296901EB0A00CD
:105A700006F0CCFA009001F0BDFE8346EA68029978
:105A800032F8110001F0B6FE834500D00BE0039818
:105A9000401EC0B203900AF1020A0298401C029014
:105AA00003980028DCD100BF039828B9E968029860
:105AB00031F8100000B906E000BF0021204600F0D8
:105AC000EAF8071EBAD000BF3846ACE74FF0FF092E
:105AD000CDF810904FF0FF30E06400BF2846A16B76
