:020000040800F2
:10000000C81D002031020008411C0008391C0008EE
:100010003D1C00080D060008192100080000000022
:10002000000000000000000000000000451C000867
:100030001B07000800000000431C0008471C0008C4
:100040005502000855020008550200085502000834
:100050005502000855020008550200085502000824
:100060005502000855020008550200085502000814
:100070005502000855020008550200085502000804
:1000800055020008550200085502000855020008F4
:1000900055020008550200085502000855020008E4
:1000A00055020008550200085502000855020008D4
:1000B00055020008550200085502000855020008C4
:1000C00055020008550200085502000855020008B4
:1000D00055020008092100085502000855020008D1
:1000E0005502000855020008550200085502000894
:1000F0005502000855020008550200085502000884
:100100005502000855020008550200085502000873
:100110005502000855020008550200085502000863
:100120005502000855020008550200085502000853
:100130005502000855020008550200085502000843
:100140005502000855020008550200085502000833
:100150005502000855020008550200085502000823
:100160005502000855020008550200085502000813
:100170005502000855020008550200080000000062
:10018000550200085502000800F002F800F041F89E
:100190000AA090E8000C82448344AAF10107DA45E2
:1001A00001D100F036F8AFF2090EBAE80F0013F0F3
:1001B000010F18BFFB1A43F001031847F08F00002E
:1001C00010900000103A24BF78C878C1FAD85207BE
:1001D00024BF30C830C144BF04680C6070470000C1
:1001E0000023002400250026103A28BF78C1FBD840
:1001F000520728BF30C148BF0B607047782900F014
:10020000F580002070471FB505F0D8FF1FBD10B561
:1002100010BD00F0C9F91146FFF7F5FF05F070FCBD
:1002200000F0E7F903B4FFF7F2FF03BC01F092FF1F
:100230000C48016841F4700101600B4880470B488D
:100240000047FEE7FEE7FEE7FEE7FEE7FEE7FEE724
:10025000FEE7FEE7FEE7000005480649044A064BB4
:100260007047000088ED00E0511C0008890100087B
:10027000C8190020C81D0020C8190020704753EA83
:10028000020C00F069802DE9F04B4FF00006002BC6
:100290001FBFB3FA83F503FA05F424FA05F65E40AE
:1002A00012BF1643B2FA82F502FA05F4C5F1200531
:1002B0001EBF22FA05FC44EA0C04203556EA044C21
:1002C0004FEA144418BF641C4FF000084FF00009B7
:1002D000904271EB030C39D3002919BFB1FA81F7B1
:1002E00001FA07F6B0FA80F700FA07F6C7F120071F
:1002F0001EBF20FA07FC46EA0C062037B6FBF4FCCA
:10030000A7EB0507103F07F01F0BCBF120060CFAF7
:100310000BFB2CFA06F644BFB3460026202FA4BFE1
:100320005E464FF0000B5BEA060C08BF4FF0010B76
:1003300019EB0B09ABFB027C48EB0608C01B06FB64
:1003400002CC0BFB03CC71EB0C01C1E70B46024660
:1003500041464846BDE8F08B13B54FF000004FF022
:100360000001AFF30080BDE81C4070470FB40449A2
:1003700010B503AA029800F0E9F810BC5DF814FB70
:10038000080000202DE9F0410E46044600202062BE
:100390002046E168884730B3252805D0D4E90121FB
:1003A0009047206A401CF2E7E16820460027884712
:1003B000050018D0A5F14100192802D820354FF4C6
:1003C00000673246294620462760FFF717FF40B1F5
:1003D000012804D0F61D26F007060836D8E7361D9A
:1003E000D6E72846DAE7206ABDE8F08170B5044612
:1003F0000D4621461068AFF300802188090502D51B
:100400000F4A7A4402E00E4A7A440E32002104F187
:10041000240305E000F00F060009965D5E54491CB8
:100420000028F7D120780023000704D5702D02D0D2
:1004300009B1022311322046BDE8704000F02DB80A
:100440007C8D00004FF0000200B51346944696469E
:10045000203922BFA0E80C50A0E80C50B1F12001D7
:10046000BFF4F7AF090728BFA0E80C5048BF0CC085
:100470005DF804EB890028BF40F8042B08BF7047E3
:1004800048BF20F8022B11F0804F18BF00F8012B55
:10049000704770477047704770472DE9F0470D4629
:1004A00099469246044600F124080168880604D55E
:1004B000E06921F01001216000E00120A84201DD87
:1004C000471B00E00027A1697A1902EB0900081A0E
:1004D000A0612078C00602D42046AFF30080002639
:1004E00008E0D4E901211AF806009047206A401C70
:1004F000761C20624E45F4DB2078C0060AD52046E3
:10050000AFF3008006E0D4E9012130209047206A53
:10051000401C2062381EA7F10107F4DC07E0D4E993
:10052000012118F805009047206A401C2062281E0F
:10053000A5F10105F3DC2046AFF30080207800062A
:1005400002D50220BDE8F0870120FBE7074B70B51C
:100550000D467B4400F011F80446284600F020F8D0
:1005600010B14FF0FF3070BD204670BD131D00006C
:1005700001694A1C02610878704700B58FB0CDE967
:1005800001310021059105497944CDE90310114657
:100590006846FFF7F7FE0FB000BD0000E5FFFFFF64
:1005A000007B00F080007047754600F02BF8AE46E7
:1005B00005006946534620F00700854618B020B56F
:1005C000FFF74AFEBDE820404FF000064FF000075D
:1005D0004FF000084FF0000B21F00701AC46ACE8EB
:1005E000C009ACE8C009ACE8C009ACE8C0098D4658
:1005F000704710B50446AFF300802046BDE81040B8
:10060000FFF710BE004870476419002000BFFEE7E6
:100610000146087810381823B0FBF3F20848805CD4
:10062000C865032A05D908686FF30900001D8865AD
:1006300003E008686FF309008865886D7047000063
:10064000FA610008014600208A6A8B69CBB932B191
:10065000012A0DD0022A03D0032A10D10EE000BFD8
:10066000CB6A03F08073B3F1807F00D1012007E0F3
:10067000CB6AB3F1C07F00D1012001E000E000BFF0
:1006800034E08B69B3F5005F1AD132B1012A07D08B
:10069000022A03D0032A11D10AE000BF01200EE094
:1006A000CB6A03F08073B3F1807F00D1012006E0B4
:1006B000CB6AB3F1C07F00D1012000E000BF15E09C
:1006C00032B1012A05D0022A04D0032A0CD103E05A
:1006D00000BF00BF012008E0CB6A03F08073B3F1D4
:1006E000807F00D1012000E000BF00BF704730B51F
:1006F0000468246824F4802405682C60046863601E
:100700008468402C04D10468A2600468E16003E0BE
:100710000468A1600468E26030BD704770B50446AB
:100720001D460023B5F5804F13D154F822300C48F4
:100730000340D1E9000640EA06108E6840EA062030
:100740008E8940EA06408E693043034344F82230E4
:1007500003E06FF0704044F82200002070BD0000FC
:100760000000F0CF10B503460022086853F820209F
:1007700012480240D1E901042043CC6820430C69AF
:1007800020434C6920438C692043CC6920430C6A88
:1007900020434C6A20438C6A2043CC6A2043CC6BB4
:1007A00020430C6B204302438868082801D142F0A3
:1007B0004002086843F82020002010BD8000F0FFB0
:1007C00030B503460024501C53F8204004F0404448
:1007D000D1E9000540EA05108D6840EA05208D89C1
:1007E00040EA0545088A401E45EA0055087D801EFE
:1007F00045EA00608D6928430443501C43F82040BB
:10080000002030BD70B50446A56D00F07DFA0646A7
:1008100094F83500022808D08020606500BF0020D1
:1008200084F8340000BF012070BD2068006820F00B
:100830001600216808602068406920F08000216867
:100840004861206C08B9A06C28B12068006820F0CD
:100850000800216808602068006820F00100216815
:1008600008600FE000F050FA801B05280AD920200C
:10087000606500BF002084F8340000BF032084F8C6
:100880003500D1E72068006800F001000028E9D1B8
:1008900094F85C103F208840A86000BF002084F8D6
:1008A000340000BF012084F835000020BCE7014679
:1008B00091F83500022803D0802048650120704758
:1008C000052081F835000868006820F001000A68FA
:1008D00010600020F3E770B504460CB9012070BD2C
:1008E00094F83500022800D1F9E72068006820F06C
:1008F00001002168086000202168086021684860C4
:10090000216888602168C860216808612120216809
:1009100048612046FFF77CFE05460020E063206426
:100920006064A064E064206594F85C103F20884017
:10093000A8600020606584F8350000BF84F83400AA
:1009400000BF00BFCBE700002DE9F04104460025C1
:1009500000F0DAF9074614B90120BDE8F081606AB9
:1009600000B100BF00BF002084F8340000BF0220A7
:1009700084F835002068006820F0010021680860D4
:100980000AE000F0C1F9C01B052805D920206065E8
:10099000032084F83500E0E72068006800F00100DB
:1009A0000028EED12068056821480540D4E90101FE
:1009B0000843E16808432169084361690843A16964
:1009C0000843E1690843216A08430543606A042833
:1009D00003D1D4E90B010843054320680560206872
:1009E000456925F00705606A0543606A04280DD152
:1009F000A06A0543E06A48B12046FFF723FE28B10C
:100A000040206065012084F83500A6E72068456134
:100A10002046FFF7FDFD064694F85C103F20884015
:100A2000B06000206065012084F83500002094E764
:100A30003F8010F02DE9F04704460D4616461F464C
:100A40004FF00008D4F8589000BF94F83400012803
:100A500002D10220BDE8F087012084F8340000BFF5
:100A600094F83500012825D1022084F835000020B3
:100A700060653B46324629462046FFF738FE94F82B
:100A80005C103F208840C9F808002068006840F0EA
:100A9000160021680860206C28B12068006840F0CA
:100AA0000800216808602068006840F001002168A3
:100AB000086006E000BF002084F8340000BF4FF05B
:100AC00002084046C6E70000F8B502460B4600257E
:100AD000002400200021DEE0012606FA01F51E6850
:100AE00006EA0504AC4275D11E7906F00306012E14
:100AF00004D01E7906F00306022E13D190684F0031
:100B00000326BE40B0434F00DE68BE4030439060D5
:100B1000506801268E40B0431E79C6F300168E4001
:100B2000304350601E7906F00306032E09D0D068CA
:100B30004F000326BE40B0434F009E68BE40304386
:100B4000D0601E7906F00306022E13D1CF0802F101
:100B5000200656F827004E07F70E0F26BE40B0437A
:100B60004F07FF0E1E69BE403043CF0802F120063A
:100B700046F8270010684F000326BE40B0431E7998
:100B800006F003064F00BE40304310605E6806F07A
:100B90008056B6F1805F7DD100BF00260096404EA2
:100BA000366846F480463E4F3E603E46366806F460
:100BB0008046009600BF00BF3A4E8F0856F82700C7
:100BC0008E07370F0F26BE40B043374EB24202D1D8
:100BD000002624E05EE0354EB24201D101261EE03F
:100BE000334EB24201D1022619E0324EB24201D157
:100BF000032614E0304EB24201D104260FE02F4EFE
:100C0000B24201D105260AE02D4EB24201D106269C
:100C100005E02C4EB24201D1072600E008268F07DE
:100C20003F0FBE4030431F4E8F0846F82700264E28
:100C30003068A0435E6806F48036B6F5803F00D188
:100C40002043214E3060361D3068A0435E6806F4B4
:100C50000036B6F5003F00D120431B4E361D3060F4
:100C6000361D3068A0435E6806F48016B6F5801F16
:100C700000D12043144E08363060361D3068A04342
:100C80005E6806F40016B6F5001F00D120430E4E34
:100C90000C363060491C1029FFF41EAFF8BD00006F
:100CA000443802400838014000000240000402407D
:100CB00000080240000C02400010024000140240F4
:100CC00000180240001C0240003C0140024613692B
:100CD0000B400BB1012000E00020704710B54269C5
:100CE00021EA020302EA010443EA0443836110BDDE
:100CF0000AB1816101E00B0483617047014800681B
:100D0000000C7047002004E00148006870470000B4
:100D1000100000200348006803490978084401498D
:100D200008607047100000201800002010B50A4825
:100D3000006840F40070084908600846006840F404
:100D400080600860052000F07FF80F2000F006F8B2
:100D500000F02AF8002010BD003C024070B50446A7
:100D60000E4800784FF47A71B1FBF0F00C49096835
:100D7000B1FBF0F5284600F087FC08B1012070BDFA
:100D8000102C07D200222146501E00F01EF8054804
:100D9000046001E00120F2E70020F0E718000020E5
:100DA000000000201400002070470146084600287B
:100DB00009DB00F01F0301229A4043099B0003F165
:100DC000E023C3F8002100BF70472DE9F05F8046A3
:100DD0000D461646002701F0A1F9074639462A4676
:100DE000334601F00700C0F1070ABAF1040F02D937
:100DF0004FF0040A01E0C0F1070AD14600F1040AED
:100E0000BAF1070F02D24FF0000A01E0A0F1030A85
:100E1000D4464FF0010A0AFA09FAAAF1010A0AEACD
:100E2000020A0AFA0CFA4FF0010B0BFA0CFBABF1B9
:100E3000010B0BEA030B4AEA0B042146404601F082
:100E400075F9BDE8F09F000000BF00F00702064BF7
:100E500019684FF6FF031940044B0B4343EA022184
:100E6000014B196000BF70470CED00E00000FA056F
:100E700070B504460D460CB9012070BD5848006895
:100E800000F00700A84209D255490D7008460068D5
:100E900000F00700A84201D00120EEE7207800F022
:100EA000020002281DD1207800F00400042805D19A
:100EB0004C48006840F4E0504A490860207800F04F
:100EC0000800082805D14748006840F460404549BB
:100ED00008604448006820F0F000A16808434149D8
:100EE0000860207800F00100A8B36068012807D1ED
:100EF0003C4808380068C0F34040B8B90120BCE75E
:100F00006068022802D06068032807D13548083895
:100F10000068C0F3406048B90120AEE731480838A6
:100F20000068C0F3400008B90120A6E72D4800681A
:100F300020F00300616808432A490860FFF7E4FED7
:100F4000064609E0FFF7E0FE801B41F28831884247
:100F500002D9032091E707E02248006800F00C0066
:100F60006168B0EB810FEDD11D48006800F007000B
:100F7000A84209D91A490D700846006800F0070018
:100F8000A84201D0012078E7207800F0040004286E
:100F900007D11448006820F4E050E1680843114983
:100FA0000860207800F00800082808D10D48006883
:100FB00020F46040216940EAC1000A49086000F05D
:100FC0003FF808490968C1F30311074A515CC8405A
:100FD0000649086006480068FFF7C0FE00204CE79D
:100FE000003C024008380240E26100080000002096
:100FF0001400002001480068704700000000002035
:1010000000B5FFF7F7FF04490968C1F38221034ADD
:10101000515CC84000BD000008380240F261000881
:1010200000B5FFF7E7FF04490968C1F34231034AFD
:10103000515CC84000BD000008380240F261000861
:101040002DE9F047002400250026A1462548006828
:1010500000F00C0020B1042805D008283AD105E0A2
:10106000DFF8849039E0DFF8849036E01D48001FF7
:10107000006800F03F041B48001F006800F4800077
:1010800078B11A481749091F0968C1F38811A0FBF4
:1010900001700146224600233846FFF7F0F8054666
:1010A0000EE011480F49091F0968C1F38811A0FB20
:1010B00001700146224600233846FFF7E0F8054656
:1010C0000848001F0068C0F30140401C4600B5FB03
:1010D000F6F902E0DFF8109000BF00BF4846BDE817
:1010E000F0870000083802400024F40000127A0063
:1010F000F8B504460CB90120F8BD207800F00100D5
:10110000002874D0F948006800F00C0004280DD0C5
:10111000F648006800F00C00082813D1F348001FBF
:10112000006800F48000B0F5800F0BD1EF4808385C
:101130000068C0F34040002859D06068002856D1AC
:101140000120D9E700BF6068B0F5803F08D1E748CB
:101150000838006840F48030E449083908601EE02F
:101160006068B0F5A02F0DD1E0480838006840F461
:101170008020DE49083908600846006840F4803065
:1011800008600CE0D9480838006820F48030D7495E
:10119000083908600846006820F48020086000BF15
:1011A000606890B1FFF7B0FD054606E0FFF7ACFDC3
:1011B000401B642801D903209EE7CC48083800680A
:1011C000C0F340400028F1D011E0FFF79DFD054637
:1011D00006E0FFF799FD401B642801D903208BE747
:1011E000C24808380068C0F340400028F1D1207898
:1011F00000F0020002285FD1BC48006800F00C003B
:1012000058B1BA48006800F00C0008281CD1B74853
:10121000001F006800F48000B0B9B44808380068C6
:10122000C0F3400020B1E068012801D0012063E74D
:10123000AE480838006820F0F800216940EAC10093
:10124000AA490839086037E0E06800B30120A849DE
:101250000860FFF759FD054606E0FFF755FD401B06
:10126000022801D9032047E7A04808380068C0F3E6
:1012700040000028F1D09D480838006820F0F800B0
:10128000216940EAC10099490839086014E000204A
:1012900097490860FFF738FD054606E0FFF734FD83
:1012A000401B022801D9032026E79048083800682F
:1012B000C0F340000028F1D1207800F00800082891
:1012C0002CD16069A8B101208A490860FFF71CFD94
:1012D000054606E0FFF718FD401B022801D9032050
:1012E0000AE782486C300068C0F340000028F1D063
:1012F00014E000207F490860FFF706FD054606E080
:10130000FFF702FD401B022801D90320F4E67748CD
:101310006C300068C0F340000028F1D1207800F064
:101320000400042870D1002770483830006800F0AD
:10133000805090B900BF002000906C4838300068A1
:1013400040F080506949383108600846006800F074
:101350008050009000BF00BF01276748006800F47C
:101360008070B0B96448006840F4807062490860D9
:10137000FFF7CAFC054606E0FFF7C6FC401B022843
:1013800001D90320B8E65C48006800F480700028AA
:10139000F2D000BFA068012808D154486830006826
:1013A00040F001005149683108601DE0A06805283F
:1013B0000DD14E486830006840F004004B49683158
:1013C00008600846006840F0010008600CE04748EB
:1013D0006830006820F00100444968310860084620
:1013E000006820F00400086000BFA068A8B1FFF703
:1013F0008BFC054609E0FFF787FC401B41F2883172
:10140000884202D9032077E626E038486830006831
:10141000C0F340000028EED013E0FFF775FC05464E
:1014200008E0FFF771FC401B41F28831884201D986
:10143000032061E62D4868300068C0F340000028B2
:10144000EFD1012F07D129483830006820F08050B3
:1014500026493831086000BFA069002845D02348DC
:10146000006800F00C0008285DD0A069022845D172
:1014700000201F490866FFF747FC054606E0FFF716
:1014800043FC401B022801D9032035E617480838E1
:101490000068C0F340600028F1D1D4E90701084397
:1014A000616A40EA81110122A06AC2EB500041EA60
:1014B00000412C20005D41EA00600C49091F0860D2
:1014C00001200B490866FFF71FFC054606E0FFF701
:1014D0001BFC401B022801D903200DE603480838F5
:1014E0000068C0F340600028F1D049E008380240AD
:1014F00000004742800E4742007000400020214912
:101500000866FFF701FC054606E0FFF7FDFB401B00
:10151000022801D90320EFE51B480068C0F34060B2
:101520000028F2D12CE0A069012800D1E4E516489A
:10153000001D0668A069012820D006F48001E0693A
:1015400081421BD106F03F01206A814216D147F645
:10155000C0703040616AB0EB811F0FD106F440319A
:101560000122A06AC2EB5000B1EB004F06D106F099
:1015700070612C20005DB1EB006F01D00120BBE554
:101580000020B9E5000047420038024070B504462B
:101590000E4615460CB9012070BD94F8490028B9D3
:1015A000002084F84800204600F01CF804F10801EF
:1015B0002068FFF7D7F83146A2682068FFF700F9E6
:1015C0002946236BD4E90102FFF7A8F8A168206837
:1015D00050F8210040F00100A268216841F8220083
:1015E0000020D9E710B586B0044600BF0020009067
:1015F0002248006840F00100204908600846006861
:1016000000F00100009000BF00BF00BF002000906C
:101610001A480838006840F008001849083908607E
:101620000846006800F00800009000BF00BF00BF3F
:10163000002000900846006840F01000086008464E
:10164000006800F01000009000BF00BF4CF2037073
:1016500001900220029001200390022004900C20AF
:10166000059001A90648FFF72FFA4FF68070019008
:1016700001A90448FFF728FA06B010BD3838024027
:10168000000C02400010024070B504462546681E5A
:10169000B0F1807F01D301200FE0681E4FF0E02100
:1016A00048610F214FF0FF3000F040FD00204FF067
:1016B000E021886107200861002070BD704770B587
:1016C0000446002520684069C0F3C01594F83D0029
:1016D00021280ED16DB12068406920F0800021687A
:1016E0004861606B10B1606BFFF78CF8204600F02A
:1016F00038FB20684069C0F3801594F83E0022282A
:101700000ED16DB12068406920F040002168486129
:10171000A06B10B1A06BFFF775F8204600F0F6FA49
:10172000002070BD704700002DE9F84F0446206886
:1017300005682068C668206847694FF00009CA46F6
:1017400005F00F09B9F1000F0AD105F0200038B1FA
:1017500006F0200020B1204600F00DFBBDE8F88F18
:10176000B9F1000F72D007F0010018B906F49070BB
:1017700000286BD005F0010030B106F4807018B17C
:10178000206C40F00100206405F0040030B107F047
:10179000010018B1206C40F00200206405F0020046
:1017A00030B107F0010018B1206C40F00400206453
:1017B00005F0080048B106F0200010B907F001005C
:1017C00018B1206C40F008002064206C70B305F064
:1017D000200028B106F0200010B1204600F0CBFA1E
:1017E00020684069C0F3801A206C00F0080010B92E
:1017F000BAF1000F23D0204600F088FA2068406933
:1018000000F04000402816D12068406920F04000D8
:1018100021684861A06B50B15648A16B0865A06B68
:10182000FFF745F810B1A06B016D88470CE020462A
:10183000FFF778FF08E02046FFF774FF04E020463A
:10184000FFF770FF0020206488E7FFE7206B012886
:1018500079D105F01000002875D006F0100000289E
:1018600071D000BF002000902068006800902068C0
:101870004068009000BF00BF2068406900F0400051
:10188000402839D1A06B006840681FFA80F8B8F191
:10189000000F30D0A08D40452DDDA4F82E80A06B28
:1018A000C069B0F5807F1FD02068C06820F48070C8
:1018B0002168C8602068406920F001002168486103
:1018C0002068406920F0400021684861202084F8A9
:1018D0003E00002020632068C06820F010002168CE
:1018E000C860A06BFEF78EFFA08DE28D801A81B2DA
:1018F0002046FFF7E3FE31E7A08DE18D401A1FFA85
:1019000080F8E08DE8B1B8F1000F1AD02068C06807
:1019100020F490702168C8602068406920F00100C0
:1019200021684861202084F83E0000202063206860
:10193000C06820F010002168C86041462046FFF7CB
:10194000BDFE0BE7FFE705F0800030B106F0800038
:1019500018B1204600F0A7FB00E705F0400030B1C9
:1019600006F0400018B1204600F0EBF9F6E600BFA3
:10197000F4E60000651C000810B504460CB901200F
:1019800010BDA06900B100E000BF94F83D0028B987
:10199000002084F83C00204600F028F8242084F839
:1019A0003D002068C06820F400502168C8602046CF
:1019B00000F040FA2068006920F490402168086136
:1019C0002068406920F02A00216848612068C068CA
:1019D00040F400502168C86000202064202084F872
:1019E0003D0084F83E000020CAE7000010B586B034
:1019F00004462E492068884255D100BF00BF002010
:101A000000902B48006840F0100029490860084603
:101A1000006800F01000009000BF00BF00BF00BFD2
:101A200000BF0020009022481438006840F00100F8
:101A30001F49143908600846006800F00100009052
:101A400000BF00BF00BF00BF00BF002000900846DD
:101A5000006840F0010008600846006800F00100DE
:101A6000009000BF00BF00BF481501900220029007
:101A700001200390022004900720059001A90D4841
:101A8000FFF722F84FF4806001900720059001A92C
:101A90000848FFF719F82520FFF787F903221146B8
:101AA0002520FFF792F906B010BD0000001001409C
:101AB000443802400000024070B504460D46164608
:101AC00094F83E00202816D105B10EB9012070BD52
:101AD00000BF94F83C00012801D10220F7E7012063
:101AE00084F83C0000BF002020633246294620468F
:101AF00000F0B6FAEBE70220E9E7000010B5044673
:101B00002049206888423BD11F48008800F40040EB
:101B100088BB1D48008800F4804070B11B480078E5
:101B20000A2803D000201849088024E016480088BD
:101B300040F40040144908801DE0144800780D2846
:101B400006D11148008840F480400F49088012E017
:101B50000E4800780C490988C1F30D010C4A505415
:101B600009480088401C0849088008460088C728A2
:101B700001DD00200880012204490648FFF79CFF90
:101B800010BD0000001001400C0000200E000020DD
:101B90009817002060180020F7B50446154694F801
:101BA0003D0020283DD1019800B10DB90120FEBDB6
:101BB00000BF94F83C00012801D10220F7E7012082
:101BC00084F83C0000BF01982062A584E5840020D1
:101BD0002064212084F83D001348616BC8631348DA
:101BE000616B08641248616BC8640020616B086512
:101BF00001AE23681A1D31682B46606BFEF71AFF91
:101C00006FF040002168086000BF002084F83C00AD
:101C100000BF2068406940F08000216848610020D2
:101C2000C5E70220C3E70000C91C0008FF1C00082C
:101C3000791C00087047704700BFFEE700BFFEE751
:101C400070477047704710B5FFF764F810BD00008B
:101C50000348006840F470000149086070470000C4
:101C600088ED00E070B50546AC6B0020E085E084AF
:101C70002046FFF757FD70BD70B506460025B46BD2
:101C800020684069C0F3C01594F83D00212805D1B3
:101C900025B10020E084204600F063F82068406908
:101CA000C0F3801594F83E00222805D125B100200C
:101CB000E085204600F02AF8206C40F010002064F7
:101CC0002046FFF72FFD70BD70B50546AC6B286848
:101CD000006800F4807070B90020E08420684069DA
:101CE00020F08000216848612068C06840F0400012
:101CF0002168C86002E02046FFF79CFF70BD70B508
:101D00000446A56B2846FFF796FF70BD0168C968B9
:101D100021F490710268D1600168496921F00101E4
:101D200002685161016B012905D10168C96821F080
:101D300010010268D160202180F83E10002101636B
:101D4000704710B504462068C06820F04000216844
:101D5000C860202084F83D002046FFF76BFF00207C
:101D600010BD0168C96821F0C0010268D16020215E
:101D700080F83D10704770B5044694F83E00222864
:101D800056D1A068B0F5805F0CD1206950B900250C
:101D9000A66A20684068C0F308003080A06A801CF2
:101DA000A06215E0A56A0026A068B0F5805F03D0A8
:101DB000A06828B9206918B920684068287004E034
:101DC0002068406800F07F002870A06A401CA06274
:101DD000E08D401E80B2E08540BB2068C06820F0E6
:101DE00020002168C8602068C06820F480702168E5
:101DF000C8602068406920F0010021684861202007
:101E000084F83E00206B01280AD12068C06820F0C9
:101E100010002168C860A18D2046FFF74FFC02E04A
:101E20002046FFF76BFE0020206370BD0020FCE71A
:101E30000220FAE72DE9F84F04462068006920F4F3
:101E40004050E1680843216808612169A06808439F
:101E500061690843E169084300902068C06849F25D
:101E60000C618843009908432168C8602068406974
:101E700020F44070A16908432168486176492068D0
:101E8000884203D075492068884203D1FFF7C8F81B
:101E9000814602E0FFF7B4F88146E069B0F5004FF3
:101EA0006CD102206168A0FB015003461920A9FBF8
:101EB000007001462A463846FEF7E1F96421B0FB7E
:101EC000F1F04FEA001A02206168A0FB01510B46B5
:101ED0001920A9FB00712A463846FEF7D0F983463F
:101EE00002206168A0FB015003461920A9FB007184
:101EF0002A463846FEF7C3F96421B0FBF1F000EB47
:101F0000C00101EB0010ABEB8000322101EBC000FF
:101F10006421B0FBF1F000F0F8000AEB400A022067
:101F20006168A0FB015003461920A9FB007001461F
:101F30002A463846FEF7A3F9834602206168A0FBD3
:101F4000015003461920A9FB00712A463846FEF7C6
:101F500096F96421B0FBF1F000EBC00101EB001039
:101F6000ABEB8000322101EBC0006421B0FBF1F04B
:101F700000F007005044216888606AE0042061682E
:101F8000A0FB015003461920A9FB007001462A4618
:101F90003846FEF774F9824604206168A0FB0150C0
:101FA00003461920A9FB007001462A463846FEF771
:101FB00066F96421B0FBF1F000EBC00101EB001009
:101FC000AAEB8000322101EB00106421B0FBF1F09C
:101FD00000F0F00A04206168A0FB0170034619209C
:101FE000A9FB00513A462846FEF749F96421B0FBA7
:101FF000F1F00AEB001A04206168A0FB01510B46C6
:102000001920A9FB00712A463846FEF738F98346A5
:1020100004206168A0FB015003461920A9FB007051
:1020200001462A463846FEF72AF96421B0FBF1F052
:1020300000EBC00101EB0010ABEB8000322101EBA3
:1020400000106421B0FBF1F000F00F005044216853
:102050008860BDE8F88F00000010014000140140C6
:1020600010B5034699629A85DA850020186422200B
:1020700083F83E0000BF002083F83C0000BF1868D2
:10208000C06840F480701C68E0601868406940F0E7
:1020900001001C6860611868C06840F020001C687E
:1020A000E060002010BD014691F83D00212828D1B4
:1020B0008868B0F5805F0BD1086948B90A6A108852
:1020C000C0F308000B685860086A801C086205E0CD
:1020D0000B6A581C086218780B685860C88C401E40
:1020E00080B2C88458B90868C06820F080000B68C6
:1020F000D8600868C06840F040000B68D8600020D5
:1021000070470220FCE7000010B50248FFF70CFB07
:1021100010BD00006018002000BFFEE70248006804
:10212000C0F30220704700000CED00E010B500285D
:1021300004DB0A07130E054A135406E00A07140EBF
:10214000034A00F00F031B1FD45410BD00E400E04D
:1021500018ED00E000BF70470149086070470000BB
:102160000400002010B504464FF47A7104FB01F01E
:1021700000F002F810BD000070B5034600224FF0D9
:10218000E02675690D4E366803FB06F44FF0E02635
:10219000B16910E04FF0E026B06988420BD0884268
:1021A00002D20E1A324402E02E1A0E443244014684
:1021B000A24200D300E0EDE700BF70BD04000020A4
:1021C00038B504460D46244884420FD900BF00208C
:1021D00000902248006840F48000204908600846CA
:1021E000006800F48000009000BF0FE000BF0020F6
:1021F00000901A48006840F400101849086008462A
:10220000006800F40010009000BF00BF00BF144839
:102210001449486308461249886300BF08460460B1
:102220004560402181600021C1604FF480610161FF
:10223000002141618161C1614FF48031016200215F
:102240004162032181620021C1620163FEF743FB09
:102250000348FEF779FB38BD006402403038024085
:10226000041900206018002000BF054A126802F01F
:102270004002002AF9D0C2B2014B5A6070470000F8
:102280000010014000B587B000BF00BF00200190E2
:102290003848006840F01000364908600846006879
:1022A00000F01000019000BF00BF00BF00BF00BFE2
:1022B000002001900846006840F0100008600846C1
:1022C000006800F01000019000BF00BF00BF00BF19
:1022D00000BF002001900846006840F01000086030
:1022E0000846006800F01000019000BF00BF00BF6A
:1022F00000BF00BF002001900846006840F00100C8
:1023000008600846006800F00100019000BF00BFAF
:1023100000BF1020029000200390012004900220B2
:10232000059002A91448FEF7CFFB08200290002078
:102330000390012004900220059002A90E48FEF7A8
:10234000C3FB04200290002003900120049002208F
:10235000059002A90848FEF7B7FB01200290002073
:10236000039002200490059002A90448FEF7ACFBFC
:1023700007B000BD303802400010024000000240AB
:1023800070B50446002514B101202B4908702A4875
:102390000078002834D010212848FEF797FC78B147
:1023A00008212648FEF792FC50B104212348FEF78D
:1023B0008DFC28B101212248FEF788FC01281FD19D
:1023C0000A20FFF7CFFE00201B49087010211B4890
:1023D000FEF77CFC00B9012508211848FEF776FCC1
:1023E00000B9022504211548FEF770FC00B9032549
:1023F00001211348FEF76AFC01281BD1042519E0CE
:1024000010210E48FEF762FC012813D108210B4869
:10241000FEF75CFC01280DD104210848FEF756FCAC
:10242000012807D101210648FEF750FC10B9012010
:1024300001490870284670BD2400002000100240A9
:102440000000024070B5044600260948058840880F
:1024500045430021084603F0F9F803F0F1FA00BF04
:1024600002E004480480761CAE42FAD370BD00003E
:10247000F41800208000006C10B5044658488471A0
:10248000002C58D1F020564908804FF4A0704880A5
:102490000846808845F21051884210D14FF43050E0
:1024A0004F4908814FF4285048814FF42C508881BF
:1024B0004FF4F07008804FF4487048801AE04848A4
:1024C000808841F6631188420DD12C20444908814F
:1024D0002B2048812A2088814FF4F07008804FF427
:1024E0004870488006E02C203D4908812A20488118
:1024F0002B2088813A48808845F21031884205D0E7
:102500003748808847F29671884206D14FF4A07010
:10251000334908804FF4F07048803148808849F68C
:102520000601884258D14FF4F0702D4908804FF4CD
:102530004870488050E04FF4A07029490880F0208E
:1025400048800846808845F21051884210D14FF4E7
:102550003050234908814FF4285048814FF42C50C3
:1025600088814FF4487008804FF4F070488020E074
:102570001B48808841F66311884205D0184880883E
:1025800049F6060188420DD12C20154908812A20E0
:1025900048812B2088814FF4487008804FF4F070F8
:1025A000488006E02C200E4908812A2048812B20F3
:1025B00088810B48808845F21031884205D0084850
:1025C000808847F29671884206D14FF4F070044932
:1025D00008804FF4A0704880002002F019FF10BD61
:1025E000F418002070B505460E46144631462846BC
:1025F00003F02CF803F024FA01490C8070BD0000B0
:102600008000006C10B5CF2003F00EFA002003F01C
:10261000FFF9C12003F0FCF9302003F0F9F9ED20B7
:1026200003F002FA642003F0F3F9032003F0F0F959
:10263000122003F0EDF9812003F0EAF9E82003F01D
:10264000F3F9852003F0E4F9102003F0E1F97A2092
:1026500003F0DEF9CB2003F0E7F9392003F0D8F9D5
:102660002C2003F0D5F9002003F0D2F9342003F038
:10267000CFF9022003F0CCF9F72003F0D5F92020A0
:1026800003F0C6F9EA2003F0CFF9002003F0C0F907
:10269000002003F0BDF9C02003F0C6F91B2003F0B1
:1026A000B7F9C12003F0C0F9012003F0B1F9C5204A
:1026B00003F0BAF9302003F0ABF9302003F0A8F9A9
:1026C000C72003F0B1F9B72003F0A2F9362003F0D8
:1026D000ABF9482003F09CF93A2003F0A5F9552006
:1026E00003F096F9B12003F09FF9002003F090F970
:1026F0001A2003F08DF9B62003F096F90A2003F0B2
:1027000087F9A22003F084F9F22003F08DF900206C
:1027100003F07EF9262003F087F9012003F078F911
:10272000E02003F081F90F2003F072F92A2003F072
:102730006FF9282003F06CF9082003F069F90E20E6
:1027400003F066F9082003F063F9542003F060F900
:10275000A92003F05DF9432003F05AF90A2003F0A1
:1027600057F90F2003F054F9002003F051F900202D
:1027700003F04EF9002003F04BF9002003F048F974
:10278000E12003F051F9002003F042F9152003F095
:102790003FF9172003F03CF9072003F039F9112025
:1027A00003F036F9062003F033F92B2003F030F95B
:1027B000562003F02DF93C2003F02AF9052003F000
:1027C00027F9102003F024F90F2003F021F93F200E
:1027D00003F01EF93F2003F01BF90F2003F018F956
:1027E0002B2003F021F9002003F012F9002003F060
:1027F0000FF9012003F00CF93F2003F009F92A201A
:1028000003F012F9002003F003F9002003F000F9AF
:10281000002003F0FDF8EF2003F0FAF8112003F098
:1028200003F97820FFF79EFC292003F0FDF810BD86
:1028300010B5FF2003F0F8F8FF2003F0E9F8982026
:1028400003F0E6F8062003F0E3F8BC2003F0ECF810
:10285000012003F0DDF80F2003F0DAF8612003F027
:10286000D7F8FF2003F0D4F8012003F0D1F80120BD
:1028700003F0CEF80B2003F0CBF8102003F0C8F8DB
:10288000372003F0C5F8632003F0C2F8FF2003F0FF
:10289000BFF8FF2003F0BCF8012003F0B9F80120D5
:1028A00003F0B6F8002003F0B3F8002003F0B0F80E
:1028B000FF2003F0ADF8522003F0AAF8012003F046
:1028C000A7F8002003F0A4F8402003F0A1F8BD20F1
:1028D00003F0AAF8012003F09BF8232003F098F8F6
:1028E000452003F095F8672003F092F8012003F0EB
:1028F0008FF8232003F08CF8452003F089F8672037
:1029000003F086F8BE2003F08FF8002003F080F873
:10291000012003F07DF8AB2003F07AF8602003F08B
:1029200077F8222003F074F8222003F071F82220B7
:1029300003F06EF8222003F06BF8222003F068F811
:10294000C72003F071F8362003F062F8ED2003F0A1
:102950006BF87F2003F05CF80F2003F059F8C020DB
:1029600003F062F80F2003F053F80B2003F050F847
:102970000A2003F04DF8FC2003F056F8082003F07D
:1029800047F8DF2003F050F8002003F041F8002062
:1029900003F03EF8002003F03BF8002003F038F885
:1029A000002003F035F8202003F032F8F32003F084
:1029B0003BF8742003F02CF8B42003F035F8002025
:1029C00003F026F8002003F023F8002003F020F89D
:1029D000F72003F029F8822003F01AF8B12003F061
:1029E00023F8002003F014F8132003F011F813204B
:1029F00003F00EF8F22003F017F8802003F008F837
:102A0000042003F005F8402003F002F8282002F02B
:102A1000FFFFC12003F008F8172002F0F9FF88201B
:102A200002F0F6FF882002F0F3FF202002F0F0FF12
:102A3000E02002F0F9FF002002F0EAFF0A2002F095
:102A4000E7FF122002F0E4FF102002F0E1FF0E2069
:102A500002F0DEFF202002F0DBFFCC2002F0D8FFE6
:102A6000072002F0D5FF062002F0D2FF0B2002F073
:102A7000CFFF0E2002F0CCFF0F2002F0C9FF0D2087
:102A800002F0C6FF152002F0C3FF102002F0C0FFC5
:102A9000002002F0BDFFE12002F0C6FF002002F09E
:102AA000B7FF0B2002F0B4FF132002F0B1FF0D209E
:102AB00002F0AEFF0E2002F0ABFF1B2002F0A8FFD9
:102AC000712002F0A5FF062002F0A2FF062002F00E
:102AD0009FFF0A2002F09CFF0F2002F099FF0E20BA
:102AE00002F096FF0F2002F093FF152002F090FFF6
:102AF0000C2002F08DFF002002F08AFF2A2002F055
:102B000093FF002002F084FF002002F081FF0120EB
:102B100002F07EFFDF2002F07BFF2B2002F084FF1B
:102B2000002002F075FF002002F072FF032002F087
:102B30006FFF1F2002F06CFF3A2002F075FF552056
:102B400002F066FF362002F06FFF002002F060FF07
:102B5000112002F069FF7820FFF704FB292002F022
:102B600063FF1420FFF7FEFA2C2002F05DFF10BD7A
:102B700010B5ED2002F058FF012002F049FFFE20C1
:102B800002F046FFEE2002F04FFFDE2002F040FF91
:102B9000212002F03DFFF12002F046FF012002F06B
:102BA00037FFDF2002F040FF102002F031FFC42089
:102BB00002F03AFF8F2002F02BFFC62002F034FF14
:102BC000002002F025FFE22002F022FFE22002F0C6
:102BD0001FFFE22002F01CFFBF2002F025FFAA2009
:102BE00002F016FFB02002F01FFF0D2002F010FFD0
:102BF000002002F00DFF0D2002F00AFF002002F07D
:102C000007FF112002F004FF002002F001FF19204D
:102C100002F0FEFE002002F0FBFE212002F0F8FE92
:102C2000002002F0F5FE2D2002F0F2FE002002F05E
:102C3000EFFE3D2002F0ECFE002002F0E9FE5D20F8
:102C400002F0E6FE002002F0E3FE5D2002F0E0FE6E
:102C5000002002F0DDFEB12002F0E6FE802002F04E
:102C6000D7FE002002F0D4FE8B2002F0D1FE00201F
:102C700002F0CEFE962002F0CBFE002002F0C8FE4D
:102C8000B22002F0D1FE002002F0C2FE002002F0CD
:102C9000BFFE022002F0BCFE002002F0B9FE0320BD
:102CA00002F0B6FE002002F0B3FEB32002F0BCFE3C
:102CB000002002F0ADFE002002F0AAFE002002F08B
:102CC000A7FE002002F0A4FE002002F0A1FE0020DA
:102CD00002F09EFE002002F09BFE002002F098FE13
:102CE000002002F095FE002002F092FE002002F08B
:102CF0008FFE002002F08CFE002002F089FE0020F2
:102D000002F086FE002002F083FE002002F080FE2A
:102D1000002002F07DFE002002F07AFE002002F08A
:102D200077FE002002F074FE002002F071FE002009
:102D300002F06EFE002002F06BFE002002F068FE42
:102D4000B42002F071FE8B2002F062FE002002F03F
:102D50005FFE962002F05CFE002002F059FEA120EA
:102D600002F056FE002002F053FEB52002F05CFE99
:102D7000022002F04DFE002002F04AFE032002F085
:102D800047FE002002F044FE042002F041FE002035
:102D900002F03EFEB62002F047FE002002F038FEB0
:102DA000002002F035FEB72002F03EFE002002F0C7
:102DB0002FFE002002F02CFE3F2002F029FE002012
:102DC00002F026FE5E2002F023FE002002F020FE2C
:102DD000642002F01DFE002002F01AFE8C2002F09A
:102DE00017FE002002F014FEAC2002F011FE0020BD
:102DF00002F00EFEDC2002F00BFE002002F008FEC6
:102E0000702002F005FE002002F002FE902002F089
:102E1000FFFD002002F0FCFDEB2002F0F9FD002098
:102E200002F0F6FDDC2002F0F3FD002002F0F0FDE0
:102E3000B82002F0F9FD002002F0EAFD002002F0C7
:102E4000E7FD002002F0E4FD002002F0E1FD00209B
:102E500002F0DEFD002002F0DBFD002002F0D8FDD4
:102E6000002002F0D5FDBA2002F0DEFD242002F0A1
:102E7000CFFD002002F0CCFD002002F0C9FD0020B3
:102E800002F0C6FDC12002F0CFFD202002F0C0FDFF
:102E9000002002F0BDFD542002F0BAFD002002F037
:102EA000B7FDFF2002F0B4FD002002F0B1FDC2200A
:102EB00002F0BAFD0A2002F0ABFD002002F0A8FDEE
:102EC000042002F0A5FD002002F0A2FDC32002F0C4
:102ED000ABFD3C2002F09CFD002002F099FD3A2061
:102EE00002F096FD002002F093FD392002F090FDE3
:102EF000002002F08DFD372002F08AFD002002F054
:102F000087FD3C2002F084FD002002F081FD362088
:102F100002F07EFD002002F07BFD322002F078FD01
:102F2000002002F075FD2F2002F072FD002002F05B
:102F30006FFD2C2002F06CFD002002F069FD2920BD
:102F400002F066FD002002F063FD262002F060FD25
:102F5000002002F05DFD242002F05AFD002002F066
:102F600057FD242002F054FD002002F051FD2320E3
:102F700002F04EFD002002F04BFD3C2002F048FD27
:102F8000002002F045FD362002F042FD002002F054
:102F90003FFD322002F03CFD002002F039FD2F20E1
:102FA00002F036FD002002F033FD2C2002F030FD4F
:102FB000002002F02DFD292002F02AFD002002F061
:102FC00027FD262002F024FD002002F021FD242010
:102FD00002F01EFD002002F01BFD242002F018FD6F
:102FE000002002F015FD232002F012FD002002F067
:102FF0000FFDC42002F018FD622002F009FD002040
:1030000002F006FD052002F003FD002002F000FDA5
:10301000842002F0FDFC002002F0FAFCF02002F017
:10302000F7FC002002F0F4FC182002F0F1FC002074
:1030300002F0EEFCA42002F0EBFC002002F0E8FC21
:10304000182002F0E5FC002002F0E2FC502002F023
:10305000DFFC002002F0DCFC0C2002F0D9FC002098
:1030600002F0D6FC172002F0D3FC002002F0D0FCC6
:10307000952002F0CDFC002002F0CAFCF32002F003
:10308000C7FC002002F0C4FCE62002F0C1FC0020D6
:1030900002F0BEFCC52002F0C7FC322002F0B8FCF2
:1030A000002002F0B5FC442002F0B2FC002002F047
:1030B000AFFC652002F0ACFC002002F0A9FC7620F9
:1030C00002F0A6FC002002F0A3FC882002F0A0FC85
:1030D000002002F09DFCC62002F0A6FC202002F099
:1030E00097FC002002F094FC172002F091FC0020D5
:1030F00002F08EFC012002F08BFC002002F088FC24
:10310000C72002F091FC002002F082FC002002F0B7
:103110007FFC002002F07CFC002002F079FCC8203B
:1031200002F082FC002002F073FC002002F070FC30
:10313000002002F06DFC002002F06AFCC92002F0C1
:1031400073FC002002F064FC002002F061FC00200F
:1031500002F05EFC002002F05BFC002002F058FC54
:10316000002002F055FC002002F052FC002002F08A
:103170004FFC002002F04CFC002002F049FC002033
:1031800002F046FC002002F043FC002002F040FC6C
:10319000002002F03DFC002002F03AFC002002F08A
:1031A00037FCE02002F040FC162002F031FC002049
:1031B00002F02EFC1C2002F02BFC002002F028FC68
:1031C000212002F025FC002002F022FC362002F033
:1031D0001FFC002002F01CFC462002F019FC00201D
:1031E00002F016FC522002F013FC002002F010FC4A
:1031F000642002F00DFC002002F00AFC7A2002F0AC
:1032000007FC002002F004FC8B2002F001FC0020EF
:1032100002F0FEFB992002F0FBFB002002F0F8FB1D
:10322000A82002F0F5FB002002F0F2FBB92002F02A
:10323000EFFB002002F0ECFBC42002F0E9FB0020D1
:1032400002F0E6FBCA2002F0E3FB002002F0E0FB04
:10325000D22002F0DDFB002002F0DAFBD92002F0E0
:10326000D7FB002002F0D4FBE02002F0D1FB0020CD
:1032700002F0CEFBF32002F0CBFB002002F0C8FBF3
:10328000E12002F0D1FB162002F0C2FB002002F088
:10329000BFFB1C2002F0BCFB002002F0B9FB222087
:1032A00002F0B6FB002002F0B3FB362002F0B0FBC8
:1032B000002002F0ADFB452002F0AAFB002002F046
:1032C000A7FB522002F0A4FB002002F0A1FB642027
:1032D00002F09EFB002002F09BFB7A2002F098FB9C
:1032E000002002F095FB8B2002F092FB002002F000
:1032F0008FFB992002F08CFB002002F089FBA820B4
:1033000002F086FB002002F083FBB92002F080FB74
:10331000002002F07DFBC42002F07AFB002002F0C6
:1033200077FBCA2002F074FB002002F071FBD22070
:1033300002F06EFB002002F06BFBD82002F068FB6D
:10334000002002F065FBE02002F062FB002002F0AA
:103350005FFBF32002F05CFB002002F059FBE2204F
:1033600002F062FB052002F053FB002002F050FB4C
:103370000B2002F04DFB002002F04AFB1B2002F064
:1033800047FB002002F044FB342002F041FB002008
:1033900002F03EFB442002F03BFB002002F038FB31
:1033A0004F2002F035FB002002F032FB612002F0DA
:1033B0002FFB002002F02CFB792002F029FB0020DB
:1033C00002F026FB882002F023FB002002F020FB05
:1033D000972002F01DFB002002F01AFBA62002F04D
:1033E00017FB002002F014FBB72002F011FB0020B5
:1033F00002F00EFBC22002F00BFB002002F008FBE3
:10340000C72002F005FB002002F002FBD12002F0F1
:10341000FFFA002002F0FCFAD62002F0F9FA0020B0
:1034200002F0F6FADD2002F0F3FA002002F0F0FAE2
:10343000F32002F0EDFA002002F0EAFAE32002F0B5
:10344000F3FA052002F0E4FA002002F0E1FA0A2083
:1034500002F0DEFA002002F0DBFA1C2002F0D8FABB
:10346000002002F0D5FA332002F0D2FA002002F058
:10347000CFFA442002F0CCFA002002F0C9FA502022
:1034800002F0C6FA002002F0C3FA622002F0C0FA8D
:10349000002002F0BDFA782002F0BAFA002002F013
:1034A000B7FA882002F0B4FA002002F0B1FA9720AF
:1034B00002F0AEFA002002F0ABFAA62002F0A8FA61
:1034C000002002F0A5FAB72002F0A2FA002002F0D4
:1034D0009FFAC22002F09CFA002002F099FAC7205D
:1034E00002F096FA002002F093FAD12002F090FA4E
:1034F000002002F08DFAD52002F08AFA002002F0B6
:1035000087FADD2002F084FA002002F081FAF3202D
:1035100002F07EFA002002F07BFAE42002F084FA46
:10352000012002F075FA002002F072FA012002F088
:103530006FFA002002F06CFA022002F069FA002013
:1035400002F066FA2A2002F063FA002002F060FA24
:103550003C2002F05DFA002002F05AFA4B2002F003
:1035600057FA002002F054FA5D2002F051FA0020D0
:1035700002F04EFA742002F04BFA002002F048FAF2
:10358000842002F045FA002002F042FA932002F073
:103590003FFA002002F03CFAA22002F039FA0020A3
:1035A00002F036FAB32002F033FA002002F030FACB
:1035B000BE2002F02DFA002002F02AFAC42002F008
:1035C00027FA002002F024FACD2002F021FA002090
:1035D00002F01EFAD32002F01BFA002002F018FAC3
:1035E000DD2002F015FA002002F012FAF32002F0BA
:1035F0000FFA002002F00CFAE52002F015FA002084
:1036000002F006FA002002F003FA002002F000FAAD
:10361000002002F0FDF9022002F0FAF9002002F089
:10362000F7F9292002F0F4F9002002F0F1F93C202A
:1036300002F0EEF9002002F0EBF94B2002F0E8F97D
:10364000002002F0E5F95D2002F0E2F9002002F02E
:10365000DFF9742002F0DCF9002002F0D9F98420AF
:1036600002F0D6F9002002F0D3F9932002F0D0F94D
:10367000002002F0CDF9A22002F0CAF9002002F0E9
:10368000C7F9B32002F0C4F9002002F0C1F9BE204E
:1036900002F0BEF9002002F0BBF9C42002F0B8F934
:1036A000002002F0B5F9CD2002F0B2F9002002F0BE
:1036B000AFF9D32002F0ACF9002002F0A9F9DC2028
:1036C00002F0A6F9002002F0A3F9F32002F0A0F91D
:1036D000002002F09DF9E62002F0A6F9112002F088
:1036E00097F9002002F094F9342002F091F90020BB
:1036F00002F08EF9562002F08BF9002002F088F9D2
:10370000762002F085F9002002F082F9772002F09D
:103710007FF9002002F07CF9662002F079F90020A0
:1037200002F076F9882002F073F9002002F070F9B7
:10373000992002F06DF9002002F06AF9BB2002F036
:1037400067F9002002F064F9992002F061F9002085
:1037500002F05EF9662002F05BF9002002F058F9F1
:10376000552002F055F9002002F052F9552002F0E0
:103770004FF9002002F04CF9452002F049F90020F1
:1037800002F046F9432002F043F9002002F040F92C
:10379000442002F03DF9002002F03AF9E72002F05F
:1037A00043F9322002F034F9002002F031F95520BB
:1037B00002F02EF9002002F02BF9762002F028F911
:1037C000002002F025F9662002F022F9002002F024
:1037D0001FF9672002F01CF9002002F019F9672098
:1037E00002F016F9002002F013F9872002F010F918
:1037F000002002F00DF9992002F00AF9002002F0F1
:1038000007F9BB2002F004F9002002F001F9992029
:1038100002F0FEF8002002F0FBF8772002F0F8F842
:10382000002002F0F5F8442002F0F2F8002002F047
:10383000EFF8562002F0ECF8002002F0E9F823201F
:1038400002F0E6F8002002F0E3F8332002F0E0F89E
:10385000002002F0DDF8452002F0DAF8002002F046
:10386000D7F8E82002F0E0F8002002F0D1F80020BC
:1038700002F0CEF8992002F0CBF8002002F0C8F850
:10388000872002F0C5F8002002F0C2F8882002F07C
:10389000BFF8002002F0BCF8772002F0B9F8002051
:1038A00002F0B6F8662002F0B3F8002002F0B0F89B
:1038B000882002F0ADF8002002F0AAF8AA2002F059
:1038C000A7F8002002F0A4F8BB2002F0A1F8002025
:1038D00002F09EF8992002F09BF8002002F098F880
:1038E000662002F095F8002002F092F8552002F0D0
:1038F0008FF8002002F08CF8552002F089F80020A3
:1039000002F086F8442002F083F8002002F080F8EC
:10391000442002F07DF8002002F07AF8552002F0F1
:1039200077F8002002F074F8E92002F07DF8AA2070
:1039300002F06EF8002002F06BF8002002F068F848
:10394000002002F065F8002002F06EF8AA2002F0D4
:103950005FF8CF2002F068F8002002F059F800204C
:1039600002F056F8002002F053F8002002F050F860
:10397000002002F04DF8002002F04AF8002002F08A
:1039800047F8002002F044F8002002F041F800203F
:1039900002F03EF8002002F03BF8002002F038F878
:1039A000002002F035F8002002F032F8002002F08A
:1039B0002FF8002002F02CF8002002F029F8F02067
:1039C00002F032F8002002F023F8502002F020F834
:1039D000002002F01DF8002002F01AF8002002F08A
:1039E00017F8F32002F020F8002002F011F8F92077
:1039F00002F01AF8062002F00BF8102002F008F886
:103A0000292002F005F8002002F002F83A2002F026
:103A10000BF8552001F0FCFF112002F005F864209E
:103A2000FEF7A0FB292001F0FFFF352001F0FCFF8D
:103A3000002001F0EDFF512001F0F6FFFF2001F022
:103A4000E7FF532001F0F0FF2C2001F0E1FF5520AB
:103A500001F0EAFF822001F0DBFF2C2001F0E4FFFF
:103A600010BD10B555214FF4704001F0F3FFAA21AD
:103A70004FF2010001F0EEFF52214FF2020001F07F
:103A8000E9FF08214FF2030001F0E4FF01214FF2AA
:103A9000040001F0DFFF34214FF4364001F0DAFF7B
:103AA00034214BF2016001F0D5FF34214BF202606A
:103AB00001F0D0FF0D214FF4304001F0CBFF0D217C
:103AC0004BF2010001F0C6FF0D214BF2020001F0A4
:103AD000C1FF24214FF4374001F0BCFF24214BF2F9
:103AE000017001F0B7FF24214BF2027001F0B2FF28
:103AF0000D214FF4314001F0ADFF0D214BF20110CB
:103B000001F0A8FF0D214BF2021001F0A3FF2421C8
:103B10004FF4384001F09EFF24214BF6010001F0E4
:103B200099FF24214BF6020001F094FF00214FF48D
:103B3000324001F08FFF24214FF4394001F08AFF19
:103B400024214BF6011001F085FF24214BF60210D1
:103B500001F080FF05214FF4334001F07BFF052188
:103B60004BF2013001F076FF05214BF2023001F0FB
:103B700071FF34214FF43A4001F06CFF34214BF6D1
:103B8000012001F067FF34214BF6022001F062FFB3
:103B90000B214FF4354001F05DFF0B214BF201503A
:103BA00001F058FF0B214BF2025001F053FF0021AE
:103BB0004FF43C4001F04EFFA3214BF6014001F0D1
:103BC00049FF00214BF6024001F044FF00214FF471
:103BD0003D4001F03FFFA3214BF6015001F03AFFB9
:103BE00000214BF6025001F035FF00214FF43E401A
:103BF00001F030FF37214BF6016001F02BFF00216F
:103C00004FF4514001F026FF37214DF2011001F031
:103C100021FF00214DF2021001F01CFF53214DF253
:103C2000031001F017FF00214DF2041001F012FF04
:103C300079214DF2051001F00DFF00214DF2061023
:103C400001F008FF97214DF2071001F003FF00215A
:103C50004DF2081001F0FEFEB1214DF2091001F005
:103C6000F9FE00214DF20A1001F0F4FED5214DF2CB
:103C70000B1001F0EFFE00214DF20C1001F0EAFEF6
:103C8000F4214DF20D1001F0E5FE01214DF20E1070
:103C900001F0E0FE23214DF20F1001F0DBFE0121C7
:103CA0004DF2101001F0D6FE49214DF2111001F035
:103CB000D1FE01214DF2121001F0CCFE87214DF210
:103CC000131001F0C7FE01214DF2141001F0C2FEE5
:103CD000B6214DF2151001F0BDFE02214DF2161075
:103CE00001F0B8FE00214DF2171001F0B3FE0221E1
:103CF0004DF2181001F0AEFE3B214DF2191001F00B
:103D0000A9FE02214DF21A1001F0A4FE3D214DF250
:103D10001B1001F09FFE02214DF21C1001F09AFED3
:103D200075214DF21D1001F095FE02214DF21E107D
:103D300001F090FEB1214DF21F1001F08BFE022127
:103D40004DF2201001F086FED5214DF2211001F038
:103D500081FE03214DF2221001F07CFE09214DF27B
:103D6000231001F077FE03214DF2241001F072FEC2
:103D700028214DF2251001F06DFE03214DF2261091
:103D800001F068FE52214DF2271001F063FE03217D
:103D90004DF2281001F05EFE6B214DF2291001F06A
:103DA00059FE03214DF22A1001F054FE8D214DF2EF
:103DB0002B1001F04FFE03214DF22C1001F04AFEB2
:103DC000A2214DF22D1001F045FE03214DF22E10DF
:103DD00001F040FEBB214DF22F1001F03BFE03210C
:103DE0004DF2301001F036FEC1214DF2311001F0DC
:103DF00031FE03214DF2321001F02CFEC1214DF2B3
:103E0000331001F027FE00214FF4524001F022FE52
:103E100037214DF2012001F01DFE00214DF202205C
:103E200001F018FE53214DF2032001F013FE002192
:103E30004DF2042001F00EFE79214DF2052001F033
:103E400009FE00214DF2062001F004FE97214DF2FB
:103E5000072001F0FFFD00214DF2082001F0FAFDDE
:103E6000B1214DF2092001F0F5FD00214DF20A20AB
:103E700001F0F0FDD5214DF20B2001F0EBFD00210A
:103E80004DF20C2001F0E6FDF4214DF20D2001F081
:103E9000E1FD01214DF20E2001F0DCFD23214DF268
:103EA0000F2001F0D7FD01214DF2102001F0D2FDCD
:103EB00049214DF2112001F0CDFD01214DF21220DA
:103EC00001F0C8FD87214DF2132001F0C3FD01214F
:103ED0004DF2142001F0BEFDB6214DF2152001F087
:103EE000B9FD02214DF2162001F0B4FD00214DF282
:103EF000172001F0AFFD02214DF2182001F0AAFDBC
:103F00003B214DF2192001F0A5FD02214DF21A20AE
:103F100001F0A0FD3D214DF21B2001F09BFD02218F
:103F20004DF21C2001F096FD75214DF21D2001F08F
:103F300091FD02214DF21E2001F08CFDB1214DF2C8
:103F40001F2001F087FD02214DF2202001F082FDAB
:103F5000D5214DF2212001F07DFD03214DF22220DB
:103F600001F078FD09214DF2232001F073FD0321BA
:103F70004DF2242001F06EFD28214DF2252001F0A4
:103F800069FD03214DF2262001F064FD52214DF21E
:103F9000272001F05FFD03214DF2282001F05AFD9A
:103FA0006B214DF2292001F055FD03214DF22A200D
:103FB00001F050FD8D214DF22B2001F04BFD03212E
:103FC0004DF22C2001F046FDA2214DF22D2001F0F2
:103FD00041FD03214DF22E2001F03CFDBB214DF2AD
:103FE0002F2001F037FD03214DF2302001F032FD8A
:103FF000C1214DF2312001F02DFD03214DF232207F
:1040000001F028FDC1214DF2332001F023FD0021F4
:104010004FF4534001F01EFD37214DF2013001F005
:1040200019FD00214DF2023001F014FD53214DF233
:10403000033001F00FFD00214DF2043001F00AFDC4
:1040400079214DF2053001F005FD00214DF20630D9
:1040500001F000FD97214DF2073001F0FBFC00213B
:104060004DF2083001F0F6FCB1214DF2093001F0BB
:10407000F1FC00214DF20A3001F0ECFCD5214DF2AB
:104080000B3001F0E7FC00214DF20C3001F0E2FCB6
:10409000F4214DF20D3001F0DDFC01214DF20E3026
:1040A00001F0D8FC23214DF20F3001F0D3FC0121A7
:1040B0004DF2103001F0CEFC49214DF2113001F0EB
:1040C000C9FC01214DF2123001F0C4FC87214DF2F0
:1040D000133001F0BFFC01214DF2143001F0BAFCA5
:1040E000B6214DF2153001F0B5FC02214DF216302B
:1040F00001F0B0FC00214DF2173001F0ABFC0221C1
:104100004DF2183001F0A6FC3B214DF2193001F0C0
:10411000A1FC02214DF21A3001F09CFC3D214DF230
:104120001B3001F097FC02214DF21C3001F092FC93
:1041300075214DF21D3001F08DFC02214DF21E3033
:1041400001F088FCB1214DF21F3001F083FC022107
:104150004DF2203001F07EFCD5214DF2213001F0EE
:1041600079FC03214DF2223001F074FC09214DF25B
:10417000233001F06FFC03214DF2243001F06AFC82
:1041800028214DF2253001F065FC03214DF2263047
:1041900001F060FC52214DF2273001F05BFC03215D
:1041A0004DF2283001F056FC6B214DF2293001F020
:1041B00051FC03214DF22A3001F04CFC8D214DF2CF
:1041C0002B3001F047FC03214DF22C3001F042FC72
:1041D000A2214DF22D3001F03DFC03214DF22E3095
:1041E00001F038FCBB214DF22F3001F033FC0321EC
:1041F0004DF2303001F02EFCC1214DF2313001F092
:1042000029FC03214DF2323001F024FCC1214DF292
:10421000333001F01FFC00214FF4544001F01AFC30
:1042200037214DF2014001F015FC00214DF2024012
:1042300001F010FC53214DF2034001F00BFC002172
:104240004DF2044001F006FC79214DF2054001F0E9
:1042500001FC00214DF2064001F0FCFB97214DF2DC
:10426000074001F0F7FB00214DF2084001F0F2FB9E
:10427000B1214DF2094001F0EDFB00214DF20A4061
:1042800001F0E8FBD5214DF20B4001F0E3FB0021EA
:104290004DF20C4001F0DEFBF4214DF20D4001F037
:1042A000D9FB01214DF20E4001F0D4FB23214DF248
:1042B0000F4001F0CFFB01214DF2104001F0CAFB8D
:1042C00049214DF2114001F0C5FB01214DF2124090
:1042D00001F0C0FB87214DF2134001F0BBFB01212F
:1042E0004DF2144001F0B6FBB6214DF2154001F03D
:1042F000B1FB02214DF2164001F0ACFB00214DF262
:10430000174001F0A7FB02214DF2184001F0A2FB7B
:104310003B214DF2194001F09DFB02214DF21A4064
:1043200001F098FB3D214DF21B4001F093FB02216F
:104330004DF21C4001F08EFB75214DF21D4001F045
:1043400089FB02214DF21E4001F084FBB1214DF2A8
:104350001F4001F07FFB02214DF2204001F07AFB6B
:10436000D5214DF2214001F075FB03214DF2224091
:1043700001F070FB09214DF2234001F06BFB03219A
:104380004DF2244001F066FB28214DF2254001F05A
:1043900061FB03214DF2264001F05CFB52214DF2FE
:1043A000274001F057FB03214DF2284001F052FB5A
:1043B0006B214DF2294001F04DFB03214DF22A40C3
:1043C00001F048FB8D214DF22B4001F043FB03210E
:1043D0004DF22C4001F03EFBA2214DF22D4001F0A8
:1043E00039FB03214DF22E4001F034FBBB214DF28D
:1043F0002F4001F02FFB03214DF2304001F02AFB4A
:10440000C1214DF2314001F025FB03214DF2324034
:1044100001F020FBC1214DF2334001F01BFB0021D4
:104420004FF4554001F016FB37214DF2015001F0D9
:1044300011FB00214DF2025001F00CFB53214DF213
:10444000035001F007FB00214DF2045001F002FB84
:1044500079214DF2055001F0FDFA00214DF2065090
:1044600001F0F8FA97214DF2075001F0F3FA00211C
:104470004DF2085001F0EEFAB1214DF2095001F071
:10448000E9FA00214DF20A5001F0E4FAD5214DF28B
:104490000B5001F0DFFA00214DF20C5001F0DAFA76
:1044A000F4214DF20D5001F0D5FA01214DF20E50DC
:1044B00001F0D0FA23214DF20F5001F0CBFA012187
:1044C0004DF2105001F0C6FA49214DF2115001F0A1
:1044D000C1FA01214DF2125001F0BCFA87214DF2D0
:1044E000135001F0B7FA01214DF2145001F0B2FA65
:1044F000B6214DF2155001F0ADFA02214DF21650E1
:1045000001F0A8FA00214DF2175001F0A3FA0221A0
:104510004DF2185001F09EFA3B214DF2195001F076
:1045200099FA02214DF21A5001F094FA3D214DF210
:104530001B5001F08FFA02214DF21C5001F08AFA53
:1045400075214DF21D5001F085FA02214DF21E50E9
:1045500001F080FAB1214DF21F5001F07BFA0221E7
:104560004DF2205001F076FAD5214DF2215001F0A4
:1045700071FA03214DF2225001F06CFA09214DF23B
:10458000235001F067FA03214DF2245001F062FA42
:1045900028214DF2255001F05DFA03214DF22650FD
:1045A00001F058FA52214DF2275001F053FA03213D
:1045B0004DF2285001F04EFA6B214DF2295001F0D6
:1045C00049FA03214DF22A5001F044FA8D214DF2AF
:1045D0002B5001F03FFA03214DF22C5001F03AFA32
:1045E000A2214DF22D5001F035FA03214DF22E504B
:1045F00001F030FABB214DF22F5001F02BFA0321CC
:104600004DF2305001F026FAC1214DF2315001F047
:1046100021FA03214DF2325001F01CFAC1214DF272
:10462000335001F017FA00214FF4564001F012FA0E
:1046300037214DF2016001F00DFA00214DF20260C8
:1046400001F008FA53214DF2036001F003FA002152
:104650004DF2046001F0FEF979214DF2056001F0A0
:10466000F9F900214DF2066001F0F4F997214DF2BD
:10467000076001F0EFF900214DF2086001F0EAF95E
:10468000B1214DF2096001F0E5F900214DF20A6017
:1046900001F0E0F9D5214DF20B6001F0DBF90021CA
:1046A0004DF20C6001F0D6F9F4214DF20D6001F0ED
:1046B000D1F901214DF20E6001F0CCF923214DF228
:1046C0000F6001F0C7F901214DF2106001F0C2F94D
:1046D00049214DF2116001F0BDF901214DF2126046
:1046E00001F0B8F987214DF2136001F0B3F901210F
:1046F0004DF2146001F0AEF9B6214DF2156001F0F3
:10470000A9F902214DF2166001F0A4F900214DF241
:10471000176001F09FF902214DF2186001F09AF93B
:104720003B214DF2196001F095F902214DF21A601A
:1047300001F090F93D214DF21B6001F08BF902214F
:104740004DF21C6001F086F975214DF21D6001F0FB
:1047500081F902214DF21E6001F07CF9B1214DF288
:104760001F6001F077F902214DF2206001F072F92B
:10477000D5214DF2216001F06DF903214DF2226047
:1047800001F068F909214DF2236001F063F903217A
:104790004DF2246001F05EF928214DF2256001F010
:1047A00059F903214DF2266001F054F952214DF2DE
:1047B000276001F04FF903214DF2286001F04AF91A
:1047C0006B214DF2296001F045F903214DF22A6079
:1047D00001F040F98D214DF22B6001F03BF90321EE
:1047E0004DF22C6001F036F9A2214DF22D6001F05E
:1047F00031F903214DF22E6001F02CF9BB214DF26D
:104800002F6001F027F903214DF2306001F022F909
:10481000C1214DF2316001F01DF903214DF23260EA
:1048200001F018F9C1214DF2336001F013F955215F
:104830004FF4704001F00EF9AA214FF2010001F08F
:1048400009F952214FF2020001F004F908214FF258
:10485000030001F0FFF800214FF2040001F0FAF824
:1048600000214FF4304001F0F5F805214BF2010032
:1048700001F0F0F802214BF2020001F0EBF8052103
:104880004BF2030001F0E6F802214BF2040001F0C4
:10489000E1F808214FF4364001F0DCF850214FF4E4
:1048A000354001F0D7F805214FF4364001F0D2F839
:1048B00000214FF4374001F0CDF800214BF2017098
:1048C00001F0C8F801214FF4384001F0C3F8052188
:1048D0004BF6010001F0BEF805214BF6020001F095
:1048E000B9F805214BF6030001F0B4F802214FF4AA
:1048F0003C4001F0AFF800214BF6014001F0AAF86E
:1049000000214BF6024001F0A5F803214FF44C4082
:1049100001F0A0F800214CF6014001F09BF80021C5
:104920004CF6024001F096F801214FF43D4001F0B1
:1049300091F884214BF6015001F08CF807214BF6D9
:10494000025001F087F831214BF6035001F082F854
:1049500000214BF6045001F07DF801214FF43A405C
:1049600001F078F8AA214FF47F4001F073F8552147
:104970004FF6017001F06EF825214FF6027001F03C
:1049800069F801214FF6037001F064F840214FF4FB
:10499000585001F05FF800214FF4545001F05AF8DC
:1049A00005214FF4685001F055F84FF4885001F09C
:1049B0003BF87820FDF7D6FB4FF4245001F034F893
:1049C0000A20FDF7CFFB4FF4305001F02DF810BD59
:1049D00010B5E22001F028F81D2001F019F802209E
:1049E00001F016F8042001F013F86420FDF7C4FB71
:1049F000E02001F019F8012001F00AF80A20FDF783
:104A0000B1FBE02001F010F8032001F001F80C20C8
:104A1000FDF7A8FB012001F007F80A20FDF7A2FB33
:104A2000E62001F001F82F2000F0F2FFFF2000F057
:104A3000EFFFFF2000F0ECFFB02000F0F5FF20209A
:104A400000F0E6FF002000F0E3FF032000F0E0FFAD
:104A500040F21F3000F0DCFF012000F0D9FF40F2EF
:104A6000DF1000F0D5FF002000F0D2FFB42000F0EE
:104A7000DBFF042000F0CCFF40F21F4000F0C8FF35
:104A8000002000F0C5FF2E2000F0C2FF002000F043
:104A9000BFFF002000F0BCFF002000F0B9FF0020A5
:104AA00000F0B6FFB62000F0BFFF022000F0B0FF1C
:104AB0004FF4037000F0ACFF002000F0A9FF1720B6
:104AC00000F0A6FF152000F0A3FF002000F0A0FFDB
:104AD000002000F09DFFF02000F0A6FF032000F072
:104AE00097FF292000F0A0FFD02000F09DFF0020BC
:104AF00000F08EFFBE2000F097FF052000F088FF39
:104B0000FE2000F085FF012000F082FF002000F071
:104B10007FFF002000F07CFF002000F079FFB8202C
:104B200000F082FF032000F073FF012000F070FF0F
:104B3000BA2000F079FF012000F06AFF10BD10B527
:104B4000112000F071FF7820FDF70CFB362000F0FB
:104B50006BFF002000F05CFF3A2000F065FF0520AD
:104B600000F056FFB22000F05FFF0C2000F050FF75
:104B70000C2000F04DFF002000F04AFF332000F031
:104B800047FF332000F044FFB72000F04DFF3520F1
:104B900000F03EFFBB2000F047FF322000F038FF5E
:104BA000C02000F041FF0C2000F032FFC22000F0D6
:104BB0003BFF012000F02CFFC32000F035FF102048
:104BC00000F026FFC42000F02FFF202000F020FF7F
:104BD000C62000F029FF0F2000F01AFFD02000F0BF
:104BE00023FFA42000F014FFA12000F011FFE0201B
:104BF00000F01AFFD02000F00BFF002000F008FFAB
:104C0000022000F005FF072000F002FF0A2000F05C
:104C1000FFFE282000F0FCFE322000F0F9FE4420C8
:104C200000F0F6FE422000F0F3FE062000F0F0FE59
:104C30000E2000F0EDFE122000F0EAFE142000F03D
:104C4000E7FE172000F0E4FEE12000F0EDFED020AA
:104C500000F0DEFE002000F0DBFE022000F0D8FEB7
:104C6000072000F0D5FE0A2000F0D2FE282000F038
:104C7000CFFE312000F0CCFE542000F0C9FE4720CA
:104C800000F0C6FE0E2000F0C3FE1C2000F0C0FEA7
:104C9000172000F0BDFE1B2000F0BAFE1E2000F021
:104CA000B7FE2A2000F0C0FE002000F0B1FE002078
:104CB00000F0AEFE002000F0ABFEEF2000F0A8FEFA
:104CC0002B2000F0B1FE002000F0A2FE002000F03A
:104CD0009FFE012000F09CFE3F2000F099FE29205D
:104CE00000F0A2FE10BD10B5112000F09DFE78204E
:104CF000FDF738FA362000F097FE482000F088FED5
:104D00003A2000F091FE552000F082FEF02000F0E5
:104D10008BFEC32000F07CFEF02000F085FE962084
:104D200000F076FEB42000F07FFE012000F070FE5F
:104D3000B62000F079FE0A2000F06AFEA22000F002
:104D400067FEB72000F070FEC62000F061FEB920BB
:104D500000F06AFE022000F05BFEE02000F058FE4A
:104D6000C02000F061FE802000F052FE162000F00E
:104D70004FFEC12000F058FE192000F049FEC2206D
:104D800000F052FEA72000F043FEC52000F04CFECC
:104D9000162000F03DFEE82000F046FE402000F026
:104DA00037FE8A2000F034FE002000F031FE0020A3
:104DB00000F02EFE292000F02BFE192000F028FE26
:104DC000A52000F025FE332000F022FEE02000F0B8
:104DD0002BFEF02000F01CFE072000F019FE0D2035
:104DE00000F016FE042000F013FE052000F010FE77
:104DF000142000F00DFE362000F00AFE542000F0D2
:104E000007FE4C2000F004FE382000F001FE1320C5
:104E100000F0FEFD142000F0FBFD2E2000F0F8FD58
:104E2000342000F0F5FDE12000F0FEFDF02000F060
:104E3000EFFD102000F0ECFD142000F0E9FD0E2045
:104E400000F0E6FD0C2000F0E3FD082000F0E0FD9E
:104E5000352000F0DDFD442000F0DAFD4C2000F0AC
:104E6000D7FD262000F0D4FD102000F0D1FD122047
:104E700000F0CEFD2C2000F0CBFD322000F0C8FD6C
:104E8000F02000F0D1FD3C2000F0C2FDF02000F049
:104E9000CBFD692000F0BCFD7820FDF763F92120EF
:104EA00000F0C2FD292000F0BFFD10BD00B595B097
:104EB00000BF00BF00200190F848006840F04000AB
:104EC000F64908600846006800F04000019000BF05
:104ED00000BF00BF00BF00BF00200190084600686F
:104EE00040F0080008600846006800F008000190E3
:104EF00000BF00BF00BF00BF00BF002001900846F8
:104F0000006840F0080008600846006800F00800EB
:104F1000019000BF00BF00BF00BF00BF0020019094
:104F20000846006840F0200008600846006800F06D
:104F30002000019000BF00BF00BF00BF00BF0020E5
:104F400001900846006840F00200086008460068CA
:104F500000F00200019000BF00BF00BF8814109055
:104F60000220119001201290022013900C20149026
:104F700010A9CB48FBF7A8FD2020109010A9C94824
:104F8000FBF7A2FD1020109010A9C648FBF79CFD6E
:104F90004FF48050109010A9C348FBF795FD4FF4D3
:104FA000004010900120119010A9C048FBF78CFD23
:104FB0004FF02040BE490860BE4848600620886027
:104FC0000021BB48C1601021416100218161C161A4
:104FD00041624FF4805181620021C1624FF48041EF
:104FE00001630021416381630F20099000200A9032
:104FF0003C200B9000200F9009200290002003908D
:10500000092004900020089002AA09A9A848FCF7EA
:10501000BDFA3220FDF7A6F8D32000F005FD00F020
:10502000EBF9A549888000F0E7F9A349888000F0F2
:10503000E3F9A1498880084680884FF6FF7101EAAC
:1050400000209D49888000F0D7F99B498988084352
:10505000994988800846808849F2413188427CD04D
:10506000042000F0E1FC00F0C7F99349888000F0CB
:10507000C3F99149888000F0BFF98F4988800846BC
:1050800080884FF6FF7101EA00208B49888000F08C
:10509000B3F9894989880843874988800846808808
:1050A00048F25251884203D147F289708249888080
:1050B0008148808847F289718842D0D0D42000F09E
:1050C000B3FC00F099F97C49888000F095F97A49A1
:1050D000888000F091F978498880084680884FF6EA
:1050E000FF7101EA00207449888000F085F9724957
:1050F00089880843704988800846808845F21031C5
:105100008842ACD0D32000F08FFC00F075F96A49DA
:10511000888000F071F96849888000F06DF966496F
:105120008880084680884FF6FF7101EA00206249B6
:10513000888000F061F96049898808435E49888069
:105140000846808847F29671884288D055214FF4EE
:10515000704000F07FFCAA2100E07EE04FF20100E9
:1051600000F078FC52214FF2020000F073FC08219D
:105170004FF2030000F06EFC01214FF2040000F03A
:1051800069FC4FF4454000F04FFC00F035F94A4906
:105190008880084680884FF6FF7101EA0020464962
:1051A00088804CF2015000F03FFC00F025F94249A4
:1051B00089880843404988800520FCF7D3FF3E4892
:1051C000808845F21051884247D0D32000F02CFC53
:1051D00000F012F93849888000F00EF936498880CD
:1051E00000F00AF934498880084680884FF6FF713C
:1051F00001EA00203049888000F0FEF82E498988B5
:1052000008432D4988800846808849F6060188426F
:1052100023D0A12000F008FC00F0EEF82649888099
:1052200000F0EAF824498880084680884FF6FF712C
:1052300001EA00202049888000F0DEF81E498988B4
:1052400008431D4988800846808845F2617188427C
:1052500003D141F66310184988801748818817A048
:10526000FBF784F81448808847F28971884202D19C
:10527000FFF765FC4EE01048808849F241318842D2
:1052800002D1FDF7BFF945E00B48808845F21031A7
:10529000884219D1FDF76CFC3CE000003038024038
:1052A00000180240000C02400014024000040240BA
:1052B000A4180020040100A0F41800204C4344204E
:1052C00049443A25780D0A003F48808847F2967194
:1052D000884202D1FFF707FD1CE03B48808845F279
:1052E0001051884202D1FEF7BCFB13E0364880889B
:1052F00049F60601884202D1FDF79AFA0AE03248DF
:10530000808841F66311884204D1FFF761FB642075
:1053100000F04EFB2C48808847F2897188420AD100
:1053200003200290049029490B6B8A68486802A9FF
:10533000FBF7F4F938E02448808849F606018842F2
:105340000BD02148808849F24131884205D01E485F
:10535000808845F2105188420AD1022002900490C0
:105360001A490B6B8A68486802A9FBF7D7F91BE05A
:105370001548808845F2103188420BD01248808849
:1053800047F29671884205D00F48808841F6631134
:10539000884209D10120029004900C490B6B8A6865
:1053A000486802A9FBF7BAF90020FDF765F800BFCD
:1053B0000122D1030648FBF79BFC00BF4FF6FF70AC
:1053C000FDF740F815B000BDF4180020A418002027
:1053D0000004024000BF011EA0F10100FBD1704794
:1053E00010B50246012000E050430B1EA1F101045C
:1053F000E1B2F9D110BD000008B50220FFF7EAFFC5
:10540000024800880090BDF8000008BD8000006CD4
:10541000F0B50546002400278B488079012805D186
:105420008948808841F66311884208D1864880798E
:10543000F0B98548808841F66311884218D1082D5B
:1054400015D2DFE805F00406080A0C0E1012062536
:105450000DE007250BE0042509E0052507E00125FF
:1054600005E0002503E0032501E0022500BF00BFA1
:10547000082D1CD2DFE805F00406090C0F121518E0
:1054800000BF14E044F0800411E044F040040EE05A
:1054900044F0C0040BE044F0200408E044F0600451
:1054A00005E044F0A00402E044F0E00400BF00BFC7
:1054B00036276548808845F21051884200D13F0266
:1054C0006148808849F2413188420BD05E4880882B
:1054D00047F28971884205D05B48808847F296710F
:1054E000884201D144F008042146384600F0B2FA5F
:1054F0005548808841F6631188421DD004F0200091
:1055000068B15148008850494988884214DA4E48A9
:10551000068840884C490880084646800CE04A4886
:10552000008849494988884206DD474806884088FE
:1055300045490880084646804348808845F2105116
:10554000884252D14049488900F06EFA002000F0AC
:105550005FFA3D494989491C88B200F065FA00208C
:1055600000F056FA38494989891C88B200F05CFA83
:1055700035490988491EC1F30F2000F049FA324924
:105580004989C91C88B200F04FFA2F490978491E91
:10559000C8B200F03DFA2C49888900F045FA002095
:1055A00000F036FA28498989491C88B200F03CFA93
:1055B000002000F02DFA24498989891C88B200F066
:1055C00033FA21494988491EC1F30F2000F020FA1F
:1055D0001D498989C91C88B200F026FA1A498978C0
:1055E000491EC8B200F014FA2DE01749488900F0AE
:1055F0001BFA002000F00CFA002000F009FA124912
:105600000988491EC1F30F2000F002FA0E490978FB
:10561000491EC8B200F0FCF90B49888900F004FA71
:10562000002000F0F5F9002000F0F2F90649498861
:10563000491EC1F30F2000F0EBF903498978491E98
:10564000C8B200F0E5F9F0BDF418002010B502462C
:105650000C464548808841F66311884247D142484C
:105660008079A8B940480088401E801A82B23E491D
:10567000488900F0D9F9002000F0CAF9002000F0B4
:10568000C7F9101200F0C4F9D0B200F0C1F916E069
:105690003549488900F0C8F9101200F0B9F9D0B2C4
:1056A00000F0B6F930490988491EC1F30F2000F017
:1056B000AFF92D490978491EC8B200F0A9F92A4965
:1056C000888900F0B1F9201200F0A2F9E0B200F0F0
:1056D0009FF925494988491EC1F30F2000F098F928
:1056E00021498978491EC8B200F092F93AE01E4873
:1056F000808845F21051884220D11B49488900F02A
:1057000093F9101200F084F917494989491C88B2AD
:1057100000F08AF9D0B200F07BF91349888900F0D3
:1057200083F9201200F074F90F498989491C88B265
:1057300000F07AF9E0B200F06BF913E00A49488909
:1057400000F072F9101200F063F9D0B200F060F9C5
:105750000549888900F068F9201200F059F9E0B293
:1057600000F056F910BD0000F41800202DE9FC4FA0
:1057700080460E4615461C46B34600200190009018
:105780002046E31704EB5373DB1021464FEAE47C19
:1057900004EB5C7C4FEAEC0CA4EBCC0CBCF1000FEE
:1057A00002D04FF0010C01E04FF0000C63442246A0
:1057B00004EBD27C4FEA6C0C03FB0CF3DBB20193DD
:1057C000A5F12000C5B20C2C06D0102C0BD0182C43
:1057D0000ED0202C18D112E005EB45002D4901EB2D
:1057E0008000009012E02C4800EB051000900DE0C6
:1057F00005EBC500294901EB8000009006E0284830
:1058000000EB8510009001E0BDE8FC8F00BF002791
:105810003AE0009810F807904FF0000A2EE009F0E7
:10582000800028B1314640460C9AFCF7DBFE07E0C9
:105830000B9828B91B48314602684046FCF7D2FE57
:105840004FEA49604FEA1069701C86B216484088DA
:10585000B04200DCD8E7A6EB0B00A0420AD15E46BE
:1058600008F101001FFA80F80F480088404500DC6D
:10587000CAE706E00AF1010000F0FF0ABAF1080FDA
:10588000CDDB00BF781CC7B201988742C1DB00BFE7
:10589000BAE700000262000876660008666C00083D
:1058A000C279000820000020F41800202DE9FF4FE5
:1058B00083B0074691461E46DDE9105A002002904B
:1058C00000243AE0301B401EC1B20A20FFF788FDD9
:1058D000B9FBF0F00A21B0FBF1F201FB12080298CB
:1058E000B8B9701EA04214DDB8F1000F0FD100202E
:1058F000AB4605EBDB71491001FB0471CDE9000AF1
:1059000088B22B4620220499FFF730FF13E00120D4
:1059100002900020AB4605EBDB71491001FB0471DE
:10592000CDE9000A88B208F13001CAB22B460499C9
:10593000FFF71CFF00BF601CC4B2B442C2DB07B05B
:10594000BDE8F08F2DE9FC4F04460D469046994680
:10595000DDE90C7A0B9E04F0FF0B08EB04001FFA44
:1059600080F809EB05001FFA80F917E0444502DBD7
:105970005C46A81985B24D4500DB15E00020CDE955
:10598000000A3A78334629462046FFF7EFFE3046B4
:1059900006EBD07104EB61018CB27F1C38787E2855
:1059A00002DC38782028E1DA00BFBDE8FC8F000077
:1059B00070B52DED048B0446BE2000F035F80520AF
:1059C00000F026F8204600F0E8FA41EC190B9FEDB4
:1059D0000E0B53EC102B00F0F3FA41EC180B00F017
:1059E000AFFA85B2284600F013F8012000F010F855
:1059F000FF2000F00DF8002000F00AF8002000F071
:105A000007F8BDEC048B70BD66666666666604408A
:105A100001B5BDF800000090BDF800000149088004
:105A200008BD00008000006C01B5BDF800000090CA
:105A3000BDF800000149088008BD00007E00006C30
:105A4000024800890249088070470000F4180020CD
:105A50007E00006C034A10804FF0D842A2F88010FC
:105A6000704700007E00006C00B587B000BF00BF2B
:105A7000002001902048006840F020001E49086086
:105A80000846006800F02000019000BF00BF00BF82
:105A900000BF00BF002001900846006840F02000D1
:105AA00008600846006800F02000019000BF00BFB9
:105AB00000BF481502900120039004900220059039
:105AC00002A90E48FBF700F84FF48060029002A98B
:105AD0000A48FAF7F9FF00BF012251020748FBF715
