:020000040800F2
:10000000F005002031020008431800083B180008E2
:100010003F1800080D060008711C000800000000D1
:100020000000000000000000000000004718000869
:1000300011060008000000004518000849180008D3
:100040005502000855020008550200085502000834
:100050005502000855020008550200085502000824
:100060005502000855020008550200085502000814
:100070005502000855020008550200085502000804
:1000800055020008550200085502000855020008F4
:1000900055020008550200085502000855020008E4
:1000A00055020008550200085502000855020008D4
:1000B00055020008550200085502000855020008C4
:1000C00055020008550200085502000855020008B4
:1000D00055020008611C000855020008550200087E
:1000E0005502000855020008550200085502000894
:1000F0005502000855020008550200085502000884
:100100005502000855020008550200085502000873
:100110005502000855020008550200085502000863
:100120005502000855020008550200085502000853
:100130005502000855020008550200085502000843
:100140005502000855020008550200085502000833
:100150005502000855020008550200085502000823
:100160005502000855020008550200085502000813
:100170005502000855020008550200080000000062
:10018000550200085502000800F002F800F041F89E
:100190000AA090E8000C82448344AAF10107DA45E2
:1001A00001D100F036F8AFF2090EBAE80F0013F0F3
:1001B000010F18BFFB1A43F001031847D08A000053
:1001C000F08A0000103A24BF78C878C1FAD85207E4
:1001D00024BF30C830C144BF04680C6070470000C1
:1001E0000023002400250026103A28BF78C1FBD840
:1001F000520728BF30C148BF0B607047782900F014
:10020000F580002070471FB505F05AFD1FBD10B5E1
:1002100010BD00F0C9F91146FFF7F5FF05F050FADF
:1002200000F0E7F903B4FFF7F2FF03BC01F03EFD75
:100230000C48016841F4700101600B4880470B488D
:100240000047FEE7FEE7FEE7FEE7FEE7FEE7FEE724
:10025000FEE7FEE7FEE7000005480649044A064BB4
:100260007047000088ED00E051180008890100087F
:10027000F0010020F0050020F0010020704753EA53
:10028000020C00F069802DE9F04B4FF00006002BC6
:100290001FBFB3FA83F503FA05F424FA05F65E40AE
:1002A00012BF1643B2FA82F502FA05F4C5F1200531
:1002B0001EBF22FA05FC44EA0C04203556EA044C21
:1002C0004FEA144418BF641C4FF000084FF00009B7
:1002D000904271EB030C39D3002919BFB1FA81F7B1
:1002E00001FA07F6B0FA80F700FA07F6C7F120071F
:1002F0001EBF20FA07FC46EA0C062037B6FBF4FCCA
:10030000A7EB0507103F07F01F0BCBF120060CFAF7
:100310000BFB2CFA06F644BFB3460026202FA4BFE1
:100320005E464FF0000B5BEA060C08BF4FF0010B76
:1003300019EB0B09ABFB027C48EB0608C01B06FB64
:1003400002CC0BFB03CC71EB0C01C1E70B46024660
:1003500041464846BDE8F08B13B54FF000004FF022
:100360000001AFF30080BDE81C4070470FB40449A2
:1003700010B503AA029800F0E9F810BC5DF814FB70
:10038000080000202DE9F0410E46044600202062BE
:100390002046E168884730B3252805D0D4E90121FB
:1003A0009047206A401CF2E7E16820460027884712
:1003B000050018D0A5F14100192802D820354FF4C6
:1003C00000673246294620462760FFF717FF40B1F5
:1003D000012804D0F61D26F007060836D8E7361D9A
:1003E000D6E72846DAE7206ABDE8F08170B5044612
:1003F0000D4621461068AFF300802188090502D51B
:100400000F4A7A4402E00E4A7A440E32002104F187
:10041000240305E000F00F060009965D5E54491CB8
:100420000028F7D120780023000704D5702D02D0D2
:1004300009B1022311322046BDE8704000F02DB80A
:100440005C8800004FF0000200B5134694469646C3
:10045000203922BFA0E80C50A0E80C50B1F12001D7
:10046000BFF4F7AF090728BFA0E80C5048BF0CC085
:100470005DF804EB890028BF40F8042B08BF7047E3
:1004800048BF20F8022B11F0804F18BF00F8012B55
:10049000704770477047704770472DE9F0470D4629
:1004A00099469246044600F124080168880604D55E
:1004B000E06921F01001216000E00120A84201DD87
:1004C000471B00E00027A1697A1902EB0900081A0E
:1004D000A0612078C00602D42046AFF30080002639
:1004E00008E0D4E901211AF806009047206A401C70
:1004F000761C20624E45F4DB2078C0060AD52046E3
:10050000AFF3008006E0D4E9012130209047206A53
:10051000401C2062381EA7F10107F4DC07E0D4E993
:10052000012118F805009047206A401C2062281E0F
:10053000A5F10105F3DC2046AFF30080207800062A
:1005400002D50220BDE8F0870120FBE7074B70B51C
:100550000D467B4400F011F80446284600F020F8D0
:1005600010B14FF0FF3070BD204670BD3F1A000043
:1005700001694A1C02610878704700B58FB0CDE967
:1005800001310021059105497944CDE90310114657
:100590006846FFF7F7FE0FB000BD0000E5FFFFFF64
:1005A000007B00F080007047754600F02BF8AE46E7
:1005B00005006946534620F00700854618B020B56F
:1005C000FFF74AFEBDE820404FF000064FF000075D
:1005D0004FF000084FF0000B21F00701AC46ACE8EB
:1005E000C009ACE8C009ACE8C009ACE8C0098D4658
:1005F000704710B50446AFF300802046BDE81040B8
:10060000FFF710BE004870479001002000BFFEE7D2
:100610007047000070B504461D460023B5F5804FB5
:1006200013D154F822300C480340D1E9000640EAC7
:1006300006108E6840EA06208E8940EA06408E69E0
:100640003043034344F8223003E06FF0704044F835
:100650002200002070BD00000000F0CF10B503465E
:100660000022086853F8202012480240D1E9010412
:100670002043CC6820430C6920434C6920438C699B
:100680002043CC6920430C6A20434C6A20438C6A87
:100690002043CC6A2043CC6B20430C6B20430243A5
:1006A0008868082801D142F04002086843F82020F9
:1006B000002010BD8000F0FF30B503460024501C20
:1006C00053F8204004F04044D1E9000540EA051009
:1006D0008D6840EA05208D8940EA0545088A401E5C
:1006E00045EA0055087D801E45EA00608D69284373
:1006F0000443501C43F82040002030BD70B5044630
:10070000A56D00F085F9064694F83500022808D05A
:100710008020606500BF002084F8340000BF012005
:1007200070BD2068006820F016002168086020680D
:10073000406920F0800021684861206C08B9A06CF5
:1007400028B12068006820F008002168086020684F
:10075000006820F00100216808600FE000F058F9FF
:10076000801B05280AD92020606500BF002084F87E
:10077000340000BF032084F83500D1E7206800680A
:1007800000F001000028E9D194F85C103F20884077
:10079000A86000BF002084F8340000BF012084F866
:1007A00035000020BCE7014691F83500022803D04F
:1007B0008020486501207047052081F835000868D1
:1007C000006820F001000A6810600020F3E70000D4
:1007D000F8B502460B460025002400200021DEE08B
:1007E000012606FA01F51E6806EA0504AC4275D139
:1007F0001E7906F00306012E04D01E7906F00306CA
:10080000022E13D190684F000326BE40B0434F0024
:10081000DE68BE4030439060506801268E40B04391
:100820001E79C6F300168E40304350601E7906F0E4
:100830000306032E09D0D0684F000326BE40B04304
:100840004F009E68BE403043D0601E7906F003061C
:10085000022E13D1CF0802F1200656F827004E07CA
:10086000F70E0F26BE40B0434F07FF0E1E69BE4075
:100870003043CF0802F1200646F8270010684F00E9
:100880000326BE40B0431E7906F003064F00BE406B
:10089000304310605E6806F08056B6F1805F7DD10F
:1008A00000BF00260096404E366846F480463E4F14
:1008B0003E603E46366806F48046009600BF00BFA4
:1008C0003A4E8F0856F827008E07370F0F26BE4086
:1008D000B043374EB24202D1002624E05EE0354EEE
:1008E000B24201D101261EE0334EB24201D10226AE
:1008F00019E0324EB24201D1032614E0304EB2422A
:1009000001D104260FE02F4EB24201D105260AE0A4
:100910002D4EB24201D1062605E02C4EB24201D145
:10092000072600E008268F073F0FBE4030431F4ECA
:100930008F0846F82700264E3068A0435E6806F40C
:100940008036B6F5803F00D12043214E3060361D01
:100950003068A0435E6806F40036B6F5003F00D16B
:1009600020431B4E361D3060361D3068A0435E6844
:1009700006F48016B6F5801F00D12043144E0836C9
:100980003060361D3068A0435E6806F40016B6F588
:10099000001F00D120430E4E0C363060491C102938
:1009A000FFF41EAFF8BD0000443802400838014093
:1009B000000002400004024000080240000C024017
:1009C000001002400014024000180240001C0240C7
:1009D000003C0140024613690B400BB1012000E0CE
:1009E0000020704710B5426921EA020302EA0104BF
:1009F00043EA0443836110BD0AB1816101E00B0445
:100A00008361704701480068000C7047002004E0D3
:100A1000014800687047000010000020034800688B
:100A20000349097808440149086070471000002014
:100A30001800002010B50A48006840F4007008490A
:100A400008600846006840F480600860052000F0F7
:100A50007FF80F2000F006F800F02AF8002010BD03
:100A6000003C024070B504460E4800784FF47A719D
:100A7000B1FBF0F00C490968B1FBF0F5284600F035
:100A800087FC08B1012070BD102C07D2002221463E
:100A9000501E00F01EF80548046001E00120F2E756
:100AA0000020F0E7180000200000002014000020C3
:100AB000704701460846002809DB00F01F030122A9
:100AC0009A4043099B0003F1E023C3F8002100BFD3
:100AD00070472DE9F05F80460D461646002701F06D
:100AE000C9F8074639462A46334601F00700C0F1E7
:100AF000070ABAF1040F02D94FF0040A01E0C0F16D
:100B0000070AD14600F1040ABAF1070F02D24FF0EA
:100B1000000A01E0A0F1030AD4464FF0010A0AFAE4
:100B200009FAAAF1010A0AEA020A0AFA0CFA4FF0D3
:100B3000010B0BFA0CFBABF1010B0BEA030B4AEABE
:100B40000B042146404601F09DF8BDE8F09F0000EF
:100B500000BF00F00702064B19684FF6FF0319406B
:100B6000044B0B4343EA0221014B196000BF70475D
:100B70000CED00E00000FA0570B504460D460CB916
:100B8000012070BD5848006800F00700A84209D253
:100B900055490D700846006800F00700A84201D0D2
:100BA0000120EEE7207800F0020002281DD1207815
:100BB00000F00400042805D14C48006840F4E050DF
:100BC0004A490860207800F00800082805D1474805
:100BD000006840F46040454908604448006820F0DF
:100BE000F000A168084341490860207800F0010046
:100BF000A8B36068012807D13C4808380068C0F3F2
:100C00004040B8B90120BCE76068022802D06068A3
:100C1000032807D1354808380068C0F3406048B958
:100C20000120AEE7314808380068C0F3400008B939
:100C30000120A6E72D48006820F003006168084302
:100C40002A490860FFF7E4FE064609E0FFF7E0FEE8
:100C5000801B41F28831884202D9032091E707E0E6
:100C60002248006800F00C006168B0EB810FEDD104
:100C70001D48006800F00700A84209D91A490D7004
:100C80000846006800F00700A84201D0012078E77C
:100C9000207800F00400042807D11448006820F4EC
:100CA000E050E168084311490860207800F008002E
:100CB000082808D10D48006820F46040216940EA06
:100CC000C1000A49086000F03FF808490968C1F30B
:100CD0000311074A515CC84006490860064800688D
:100CE000FFF7C0FE00204CE7003C024008380240FD
:100CF000CA5C0008000000201400002001480068C1
:100D0000704700000000002000B5FFF7F7FF04491E
:100D10000968C1F38221034A515CC84000BD00004C
:100D200008380240DA5C000800B5FFF7E7FF044925
:100D30000968C1F34231034A515CC84000BD00005C
:100D400008380240DA5C00082DE9F047002400254D
:100D50000026A1462548006800F00C0020B10428B8
:100D600005D008283AD105E0DFF8849039E0DFF8B3
:100D7000849036E01D48001F006800F03F041B48C7
:100D8000001F006800F4800078B11A481749091F55
:100D90000968C1F38811A0FB0170014622460023B7
:100DA0003846FFF76CFA05460EE011480F49091F57
:100DB0000968C1F38811A0FB017001462246002397
:100DC0003846FFF75CFA05460848001F0068C0F384
:100DD0000140401C4600B5FBF6F902E0DFF8109038
:100DE00000BF00BF4846BDE8F08700000838024059
:100DF0000024F40000127A00F8B504460CB9012072
:100E0000F8BD207800F00100002874D0F94800688F
:100E100000F00C0004280DD0F648006800F00C002B
:100E2000082813D1F348001F006800F48000B0F5D3
:100E3000800F0BD1EF4808380068C0F3404000280D
:100E400059D06068002856D10120D9E700BF6068FA
:100E5000B0F5803F08D1E7480838006840F480309A
:100E6000E449083908601EE06068B0F5A02F0DD194
:100E7000E0480838006840F48020DE4908390860FE
:100E80000846006840F4803008600CE0D948083813
:100E9000006820F48030D7490839086008460068A7
:100EA00020F48020086000BF606890B1FFF7B0FDBB
:100EB000054606E0FFF7ACFD401B642801D903207E
:100EC0009EE7CC4808380068C0F340400028F1D0C5
:100ED00011E0FFF79DFD054606E0FFF799FD401B79
:100EE000642801D903208BE7C24808380068C0F3A2
:100EF00040400028F1D1207800F0020002285FD1A4
:100F0000BC48006800F00C0058B1BA48006800F016
:100F10000C0008281CD1B748001F006800F48000AE
:100F2000B0B9B44808380068C0F3400020B1E068A8
:100F3000012801D0012063E7AE480838006820F09E
:100F4000F800216940EAC100AA490839086037E081
:100F5000E06800B30120A8490860FFF759FD054685
:100F600006E0FFF755FD401B022801D9032047E7A3
:100F7000A04808380068C0F340000028F1D09D4820
:100F80000838006820F0F800216940EAC10099495A
:100F90000839086014E0002097490860FFF738FD21
:100FA000054606E0FFF734FD401B022801D9032067
:100FB00026E7904808380068C0F340000028F1D1C7
:100FC000207800F0080008282CD16069A8B1012021
:100FD0008A490860FFF71CFD054606E0FFF718FD8B
:100FE000401B022801D903200AE782486C300068C0
:100FF000C0F340000028F1D014E000207F490860D1
:10100000FFF706FD054606E0FFF702FD401B02283C
:1010100001D90320F4E677486C300068C0F3400043
:101020000028F1D1207800F00400042870D10027B6
:1010300070483830006800F0805090B900BF002040
:1010400000906C483830006840F080506949383171
:1010500008600846006800F08050009000BF00BFA4
:1010600001276748006800F48070B0B964480068E0
:1010700040F4807062490860FFF7CAFC054606E04C
:10108000FFF7C6FC401B022801D90320B8E65C48E4
:10109000006800F480700028F2D000BFA06801282A
:1010A00008D154486830006840F001005149683167
:1010B00008601DE0A06805280DD14E486830006822
:1010C00040F004004B49683108600846006840F071
:1010D000010008600CE047486830006820F001001B
:1010E0004449683108600846006820F00400086040
:1010F00000BFA068A8B1FFF78BFC054609E0FFF729
:1011000087FC401B41F28831884202D9032077E6F0
:1011100026E0384868300068C0F340000028EED070
:1011200013E0FFF775FC054608E0FFF771FC401B74
:1011300041F28831884201D9032061E62D486830A8
:101140000068C0F340000028EFD1012F07D12948E3
:101150003830006820F0805026493831086000BFE0
:10116000A069002845D02348006800F00C0008283A
:101170005DD0A069022845D100201F490866FFF70D
:1011800047FC054606E0FFF743FC401B022801D957
:10119000032035E6174808380068C0F3406000288F
:1011A000F1D1D4E907010843616A40EA81110122C3
:1011B000A06AC2EB500041EA00412C20005D41EAE8
:1011C00000600C49091F086001200B490866FFF701
:1011D0001FFC054606E0FFF71BFC401B022801D957
:1011E00003200DE6034808380068C0F3406000287B
:1011F000F1D049E00838024000004742800E4742E3
:1012000000700040002021490866FFF701FC0546F8
:1012100006E0FFF7FDFB401B022801D90320EFE5A4
:101220001B480068C0F340600028F2D12CE0A069A0
:10123000012800D1E4E51648001D0668A0690128D0
:1012400020D006F48001E06981421BD106F03F0105
:10125000206A814216D147F6C0703040616AB0EB17
:10126000811F0FD106F440310122A06AC2EB500069
:10127000B1EB004F06D106F070612C20005DB1EBA0
:10128000006F01D00120BBE50020B9E50000474216
:101290000038024070B504460E4615460CB90120D0
:1012A00070BD94F8490028B9002084F84800204611
:1012B00000F01CF804F108012068FFF7CFF931466F
:1012C000A2682068FFF7F8F92946236BD4E90102E8
:1012D000FFF7A0F9A168206850F8210040F0010054
:1012E000A268216841F822000020D9E710B586B035
:1012F000044600BF002000902248006840F0010032
:10130000204908600846006800F00100009000BF16
:1013100000BF00BF002000901A480838006840F065
:1013200008001849083908600846006800F00800FD
:10133000009000BF00BF00BF00200090084600687A
:1013400040F0100008600846006800F010000090AF
:1013500000BF00BF4CF203700190022002900120F8
:101360000390022004900C20059001A90648FFF785
:101370002FFA4FF68070019001A90448FFF728FA70
:1013800006B010BD38380240000C02400010024088
:1013900070B504462546681EB0F1807F01D3012058
:1013A0000FE0681E4FF0E02148610F214FF0FF3041
:1013B00000F068FC00204FF0E02188610720086100
:1013C000002070BD704770472DE9F84F0446206833
:1013D00005682068C668206847694FF00009CA465A
:1013E00005F00F09B9F1000F0AD105F0200038B15E
:1013F00006F0200020B1204600F069FABDE8F88F21
:10140000B9F1000F72D007F0010018B906F490701E
:1014100000286BD005F0010030B106F4807018B1DF
:10142000206C40F00100206405F0040030B107F0AA
:10143000010018B1206C40F00200206405F00200A9
:1014400030B107F0010018B1206C40F004002064B6
:1014500005F0080048B106F0200010B907F00100BF
:1014600018B1206C40F008002064206C70B305F0C7
:10147000200028B106F0200010B1204600F027FA25
:1014800020684069C0F3801A206C00F0080010B991
:10149000BAF1000F23D0204600F0EEF92068406931
:1014A00000F04000402816D12068406920F040003C
:1014B00021684861A06B50B15648A16B0865A06BCC
:1014C000FFF771F910B1A06B016D88470CE0204661
:1014D000FFF779FF08E02046FFF775FF04E020469C
:1014E000FFF771FF0020206488E7FFE7206B0128E9
:1014F00079D105F01000002875D006F01000002802
:1015000071D000BF00200090206800680090206823
:101510004068009000BF00BF2068406900F04000B4
:10152000402839D1A06B006840681FFA80F8B8F1F4
:10153000000F30D0A08D40452DDDA4F82E80A06B8B
:10154000C069B0F5807F1FD02068C06820F480702B
:101550002168C8602068406920F001002168486166
:101560002068406920F0400021684861202084F80C
:101570003E00002020632068C06820F01000216831
:10158000C860A06BFFF7BAF8A08DE28D801A81B217
:101590002046FFF717FF31E7A08DE18D401A1FFAB3
:1015A00080F8E08DE8B1B8F1000F1AD02068C0686B
:1015B00020F490702168C8602068406920F0010024
:1015C00021684861202084F83E00002020632068C4
:1015D000C06820F010002168C86041462046FFF72F
:1015E000F1FE0BE7FFE705F0800030B106F0800068
:1015F00018B1204600F003FB00E705F0400030B1D1
:1016000006F0400018B1204600F051F9F6E600BFA0
:10161000F4E600006518000810B504460CB9012076
:1016200010BDA06900B100E000BF94F83D0028B9EA
:10163000002084F83C00204600F028F8242084F89C
:101640003D002068C06820F400502168C860204632
:1016500000F09CF92068006920F49040216808613E
:101660002068406920F02A00216848612068C0682D
:1016700040F400502168C86000202064202084F8D5
:101680003D0084F83E000020CAE7000010B586B097
:1016900004462E492068884255D100BF00BF002073
:1016A00000902B48006840F0100029490860084667
:1016B000006800F01000009000BF00BF00BF00BF36
:1016C00000BF0020009022481438006840F001005C
:1016D0001F49143908600846006800F001000090B6
:1016E00000BF00BF00BF00BF00BF00200090084641
:1016F000006840F0010008600846006800F0010042
:10170000009000BF00BF00BF48150190022002906A
:1017100001200390022004900720059001A90D48A4
:10172000FFF756F84FF4806001900720059001A95B
:101730000848FFF74DF82520FFF7BBF903221146B3
:101740002520FFF7C6F906B010BD000000100140CB
:10175000443802400000024070B504460D4616466B
:1017600094F83E00202816D105B10EB9012070BDB5
:1017700000BF94F83C00012801D10220F7E70120C6
:1017800084F83C0000BF00202063324629462046F2
:1017900000F012FAEBE70220E9E7000010B504467A
:1017A0002049206888423BD11F48008800F400404F
:1017B00088BB1D48008800F4804070B11B48007849
:1017C0000A2803D000201849088024E01648008821
:1017D00040F40040144908801DE0144800780D28AA
:1017E00006D11148008840F480400F49088012E07B
:1017F0000E4800780C490988C1F30D010C4A505479
:1018000009480088401C0849088008460088C72805
:1018100001DD00200880012204490648FFF79CFFF3
:1018200010BD0000001001400C0000200E00002040
:1018300024000020EC000020704700BFFEE700BF3E
:10184000FEE770477047704710B5FFF7E7F810BD27
:101850000348006840F470000149086070470000C8
:1018600088ED00E070B50546AC6B0020E085E084B3
:101870002046FFF7A8FD70BD0168C96821F490718A
:101880000268D1600168496921F001010268516173
:10189000016B012905D10168C96821F010010268B6
:1018A000D160202180F83E1000210163704710B5FF
:1018B00004462068C06820F040002168C8602020ED
:1018C00084F83D002046FFF7B7FF002010BD70B53B
:1018D000044694F83E00222856D1A068B0F5805FF7
:1018E0000CD1206950B90025A66A20684068C0F371
:1018F00008003080A06A801CA06215E0A56A00265E
:10190000A068B0F5805F03D0A06828B9206918B935
:1019100020684068287004E02068406800F07F007C
:101920002870A06A401CA062E08D401E80B2E08555
:1019300040BB2068C06820F020002168C860206893
:10194000C06820F480702168C8602068406920F079
:10195000010021684861202084F83E00206B0128A6
:101960000AD12068C06820F010002168C860A18DED
:101970002046FFF727FD02E02046FFF70FFF00207B
:10198000206370BD0020FCE70220FAE72DE9F84F44
:1019900004462068006920F44050E168084321684B
:1019A00008612169A068084361690843E169084347
:1019B00000902068C06849F20C6188430099084390
:1019C0002168C8602068406920F44070A16908431C
:1019D0002168486176492068884203D075492068AB
:1019E000884203D1FFF7A0F9814602E0FFF78CF9A6
:1019F0008146E069B0F5004F6CD102206168A0FB20
:101A0000015003461920A9FB007001462A463846BA
:101A1000FEF735FC6421B0FBF1F04FEA001A02201A
:101A20006168A0FB01510B461920A9FB00712A46F1
:101A30003846FEF724FC834602206168A0FB015073
:101A400003461920A9FB00712A463846FEF717FC09
:101A50006421B0FBF1F000EBC00101EB0010ABEB37
:101A60008000322101EBC0006421B0FBF1F000F0F6
:101A7000F8000AEB400A02206168A0FB015003460F
:101A80001920A9FB007001462A463846FEF7F7FBED
:101A9000834602206168A0FB015003461920A9FB80
:101AA00000712A463846FEF7EAFB6421B0FBF1F0EC
:101AB00000EBC00101EB0010ABEB8000322101EB29
:101AC000C0006421B0FBF1F000F007005044216831
:101AD00088606AE004206168A0FB01500346192079
:101AE000A9FB007001462A463846FEF7C8FB82462D
:101AF00004206168A0FB015003461920A9FB007077
:101B000001462A463846FEF7BAFB6421B0FBF1F0E5
:101B100000EBC00101EB0010AAEB8000322101EBC9
:101B200000106421B0FBF1F000F0F00A04206168BD
:101B3000A0FB017003461920A9FB00513A46284634
:101B4000FEF79DFB6421B0FBF1F00AEB001A0420C4
:101B50006168A0FB01510B461920A9FB00712A46C0
:101B60003846FEF78CFB834604206168A0FB0150D9
:101B700003461920A9FB007001462A463846FEF7A5
:101B80007EFB6421B0FBF1F000EBC00101EB001023
:101B9000ABEB8000322101EB00106421B0FBF1F0CF
:101BA00000F00F00504421688860BDE8F88F000005
:101BB000001001400014014010B5034699629A8557
:101BC000DA8500201864222083F83E0000BF002040
:101BD00083F83C0000BF1868C06840F480701C683F
:101BE000E0601868406940F001001C686061186896
:101BF000C06840F020001C68E060002010BD014675
:101C000091F83D00212828D18868B0F5805F0BD17C
:101C1000086948B90A6A1088C0F308000B68586060
:101C2000086A801C086205E00B6A581C0862187874
:101C30000B685860C88C401E80B2C88458B90868C8
:101C4000C06820F080000B68D8600868C06840F069
:101C500040000B68D860002070470220FCE70000BD
:101C600010B50248FFF7B0FB10BD0000EC000020EB
:101C700000BFFEE702480068C0F302207047000082
:101C80000CED00E010B5002804DB0A07130E054A2E
:101C9000135406E00A07140E034A00F00F031B1F3B
:101CA000D45410BD00E400E018ED00E000BF704720
:101CB00001490860704700000400002010B5044688
:101CC0004FF47A7104FB01F000F002F810BD00003F
:101CD00070B5034600224FF0E02675690D4E366858
:101CE00003FB06F44FF0E026B16910E04FF0E02668
:101CF000B06988420BD0884202D20E1A324402E008
:101D00002E1A0E4432440146A24200D300E0EDE711
:101D100000BF70BD0400002070B50024002504E061
:101D2000601CC4B20120FFF7D3FF4FF400710F48CD
:101D3000FEF750FE08B1C82CF2DBC82C01DB0125F0
:101D400011E0002404E0601CC4B20120FFF7C0FFD2
:101D50004FF400710548FEF73DFE08B9F02CF2DBA8
:101D6000F02C00DB0125284670BD00000018024061
:101D70002DE9F0412DED048B012700F0C5F800F0AE
:101D8000A9F8FFF7C9FFCC2000F0CAF8BE2000F088
:101D9000C7F800F08DF8064600F08AF80546072DD2
:101DA00004DDE843C5B2F043C6B200272C4620024A
:101DB00004B2A01904B297B9601C03F058FE41ECBC
:101DC000190B9FED110B53EC102B03F07BFE41EC34
:101DD000180B03F0EFFD04B2604204B20FE020469E
:101DE00003F045FE41EC190B9FED070B53EC102B54
:101DF00003F068FE41EC180B03F0DCFD04B2204652
:101E0000BDEC048BBDE8F081000000000000E43F61
:101E100000B587B000BF00BF002001900F480068E8
:101E200040F040000D4908600846006800F040009E
:101E3000019000BF00BF00BF481502901120039021
:101E4000012004900220059002A90548FEF7C0FC7D
:101E500000F040F8FFF760FF07B000BD30380240E7
:101E60000018024010B5002400BF00224FF400719A
:101E70000E48FEF7C1FD00BF0220FFF729FF00BF9B
:101E8000012251020948FEF7B7FD00BF0C20FFF701
:101E90001FFF4FF400710548FEF79CFD00B10124BF
:101EA0003220FFF715FF204610BD00000018024049
:101EB00070B50026002408E0FFF7D4FF054605FAB8
:101EC00004F03043C6B2601CC4B2082CF4DB3046C8
:101ED00070BD000010B500BF00224FF4007109482A
:101EE000FEF78AFD00BF40F2EE20FFF7F1FE00BFD3
:101EF000012251020348FEF77FFD00BF0F20FFF7CC
:101F0000E7FE10BD0018024010B5FFF7E3FFFFF732
:101F100003FFCC2000F004F8442000F001F810BDCD
:101F200070B50446012530E004F00100A8B100BFFF
:101F300000224FF400711648FEF75EFD00BF02203C
:101F4000FFF7C6FE00BF012251021148FEF754FD03
:101F500000BF3C20FFF7BCFE14E000BF00224FF49E
:101F600000710B48FEF748FD00BF3C20FFF7B0FEB4
:101F700000BF012251020648FEF73EFD00BF0220CD
:101F8000FFF7A6FE6410681CC5B2082DCCDD70BD3D
:101F90000018024000BF054A126802F04002002A01
:101FA000F9D0C2B2014B5A607047000000100140E6
:101FB00070B504460026094805884088454300213D
:101FC000084603F023F903F01BFB00BF02E00448BE
:101FD0000480761CAE42FAD370BD00008001002060
:101FE0008000006C10B5044658488471002C58D10C
:101FF000F020564908804FF4A07048800846808839
:1020000045F21051884210D14FF430504F490881A9
:102010004FF4285048814FF42C5088814FF4F070D1
:1020200008804FF4487048801AE04848808841F69C
:10203000631188420DD12C20444908812B2048810E
:102040002A2088814FF4F07008804FF4487048804F
:1020500006E02C203D4908812A2048812B208881D8
:102060003A48808845F21031884205D03748808848
:1020700047F29671884206D14FF4A0703349088028
:102080004FF4F07048803148808849F60601884254
:1020900058D14FF4F0702D4908804FF448704880B3
:1020A00050E04FF4A07029490880F020488008468D
:1020B000808845F21051884210D14FF430502349A6
:1020C00008814FF4285048814FF42C5088814FF4F8
:1020D000487008804FF4F070488020E01B488088EA
:1020E00041F66311884205D01848808849F60601F8
:1020F00088420DD12C20154908812A2048812B20A7
:1021000088814FF4487008804FF4F070488006E0F2
:102110002C200E4908812A2048812B2088810B48D9
:10212000808845F21031884205D00848808847F2FF
:102130009671884206D14FF4F070044908804FF43C
:10214000A0704880002002F043FF10BD80010020F5
:1021500070B505460E4614463146284603F056F83B
:1021600003F04EFA01490C8070BD00008000006C45
:1021700010B5CF2003F038FA002003F029FAC1206F
:1021800003F026FA302003F023FAED2003F02CFAB6
:10219000642003F01DFA032003F01AFA122003F062
:1021A00017FA812003F014FAE82003F01DFA8520C5
:1021B00003F00EFA102003F00BFA7A2003F008FA6D
:1021C000CB2003F011FA392003F002FA2C2003F09F
:1021D000FFF9002003F0FCF9342003F0F9F90220A4
:1021E00003F0F6F9F72003F0FFF9202003F0F0F9EF
:1021F000EA2003F0F9F9002003F0EAF9002003F0E7
:10220000E7F9C02003F0F0F91B2003F0E1F9C12049
:1022100003F0EAF9012003F0DBF9C52003F0E4F94B
:10222000302003F0D5F9302003F0D2F9C72003F0B5
:10223000DBF9B72003F0CCF9362003F0D5F94820BC
:1022400003F0C6F93A2003F0CFF9552003F0C0F9A6
:10225000B12003F0C9F9002003F0BAF91A2003F005
:10226000B7F9B62003F0C0F90A2003F0B1F9A220B3
:1022700003F0AEF9F22003F0B7F9002003F0A8F95B
:10228000262003F0B1F9012003F0A2F9E02003F0C9
:10229000ABF90F2003F09CF92A2003F099F92820CC
:1022A00003F096F9082003F093F90E2003F090F95B
:1022B000082003F08DF9542003F08AF9A92003F0D7
:1022C00087F9432003F084F90A2003F081F90F20F5
:1022D00003F07EF9002003F07BF9002003F078F989
:1022E000002003F075F9002003F072F9E12003F0FB
:1022F0007BF9002003F06CF9152003F069F9172031
:1023000003F066F9072003F063F9112003F060F988
:10231000062003F05DF92B2003F05AF9562003F054
:1023200057F93C2003F054F9052003F051F910202F
:1023300003F04EF90F2003F04BF93F2003F048F96A
:102340003F2003F045F90F2003F042F92B2003F062
:102350004BF9002003F03CF9002003F039F901208B
:1023600003F036F93F2003F033F92A2003F03CF95B
:10237000002003F02DF9002003F02AF9002003F0DB
:1023800027F9EF2003F024F9112003F02DF978202C
:10239000FFF794FC292003F027F910BD10B5FF20AA
:1023A00003F022F9FF2003F013F9982003F010F94D
:1023B000062003F00DF9BC2003F016F9012003F00C
:1023C00007F90F2003F004F9612003F001F9FF2061
:1023D00003F0FEF8012003F0FBF8012003F0F8F809
:1023E0000B2003F0F5F8102003F0F2F8372003F08B
:1023F000EFF8632003F0ECF8FF2003F0E9F8FF208A
:1024000003F0E6F8012003F0E3F8012003F0E0F820
:10241000002003F0DDF8002003F0DAF8FF2003F0DD
:10242000D7F8522003F0D4F8012003F0D1F80020AF
:1024300003F0CEF8402003F0CBF8BD2003F0D4F831
:10244000012003F0C5F8232003F0C2F8452003F073
:10245000BFF8672003F0BCF8012003F0B9F823208F
:1024600003F0B6F8452003F0B3F8672003F0B0F8A6
:10247000BE2003F0B9F8002003F0AAF8012003F011
:10248000A7F8AB2003F0A4F8602003F0A1F8222005
:1024900003F09EF8222003F09BF8222003F098F826
:1024A000222003F095F8222003F092F8C72003F0D1
:1024B0009BF8362003F08CF8ED2003F095F87F2090
:1024C00003F086F80F2003F083F8C02003F08CF8A7
:1024D0000F2003F07DF80B2003F07AF80A2003F0B8
:1024E00077F8FC2003F080F8082003F071F8DF2073
:1024F00003F07AF8002003F06BF8002003F068F88E
:10250000002003F065F8002003F062F8002003F0DB
:102510005FF8202003F05CF8F32003F065F87420E6
:1025200003F056F8B42003F05FF8002003F050F8F1
:10253000002003F04DF8002003F04AF8F72003F0E4
:1025400053F8822003F044F8B12003F04DF8002046
:1025500003F03EF8132003F03BF8132003F038F8A3
:10256000F22003F041F8802003F032F8042003F059
:102570002FF8402003F02CF8282003F029F8C12080
:1025800003F032F8172003F023F8882003F020F836
:10259000882003F01DF8202003F01AF8E02003F053
:1025A00023F8002003F014F80A2003F011F8122099
:1025B00003F00EF8102003F00BF80E2003F008F8DB
:1025C000202003F005F8CC2003F002F8072002F0E9
:1025D000FFFF062002F0FCFF0B2002F0F9FF0E20A7
:1025E00002F0F6FF0F2002F0F3FF0D2002F0F0FFE3
:1025F000152002F0EDFF102002F0EAFF002002F0AB
:10260000E7FFE12002F0F0FF002002F0E1FF0B20E5
:1026100002F0DEFF132002F0DBFF0D2002F0D8FFF6
:102620000E2002F0D5FF1B2002F0D2FF712002F035
:10263000CFFF062002F0CCFF062002F0C9FF0A20DF
:1026400002F0C6FF0F2002F0C3FF0E2002F0C0FF11
:102650000F2002F0BDFF152002F0BAFF0C2002F09F
:10266000B7FF002002F0B4FF2A2002F0BDFF0020D7
:1026700002F0AEFF002002F0ABFF012002F0A8FF45
:10268000DF2002F0A5FF2B2002F0AEFF002002F0B9
:102690009FFF002002F09CFF032002F099FF1F2003
:1026A00002F096FF3A2002F09FFF552002F090FFC3
:1026B000362002F099FF002002F08AFF112002F07C
:1026C00093FF7820FFF7FAFA292002F08DFF1420FB
:1026D000FFF7F4FA2C2002F087FF10BD10B5ED20B3
:1026E00002F082FF012002F073FFFE2002F070FF73
:1026F000EE2002F079FFDE2002F06AFF212002F0D6
:1027000067FFF12002F070FF012002F061FFDF207F
:1027100002F06AFF102002F05BFFC42002F064FFA9
:102720008F2002F055FFC62002F05EFF002002F06D
:102730004FFFE22002F04CFFE22002F049FFE220CE
:1027400002F046FFBF2002F04FFFAA2002F040FF38
:10275000B02002F049FF0D2002F03AFF002002F005
:1027600037FF0D2002F034FF002002F031FF11206E
:1027700002F02EFF002002F02BFF192002F028FFAC
:10278000002002F025FF212002F022FF002002F0AD
:102790001FFF2D2002F01CFF002002F019FF3D203A
:1027A00002F016FF002002F013FF5D2002F010FF80
:1027B000002002F00DFF5D2002F00AFF002002F071
:1027C00007FFB12002F010FF802002F001FF00207F
:1027D00002F0FEFE8B2002F0FBFE002002F0F8FE6D
:1027E000962002F0F5FE002002F0F2FEB22002F088
:1027F000FBFE002002F0ECFE002002F0E9FE0220C9
:1028000002F0E6FE002002F0E3FE032002F0E0FE0C
:10281000002002F0DDFEB32002F0E6FE002002F010
:10282000D7FE002002F0D4FE002002F0D1FE0020EE
:1028300002F0CEFE002002F0CBFE002002F0C8FE27
:10284000002002F0C5FE002002F0C2FE002002F0CF
:10285000BFFE002002F0BCFE002002F0B9FE002006
:1028600002F0B6FE002002F0B3FE002002F0B0FE3F
:10287000002002F0ADFE002002F0AAFE002002F0CF
:10288000A7FE002002F0A4FE002002F0A1FE00201E
:1028900002F09EFE002002F09BFE002002F098FE57
:1028A000002002F095FE002002F092FEB42002F01B
:1028B0009BFE8B2002F08CFE002002F089FE962009
:1028C00002F086FE002002F083FEA12002F080FECE
:1028D000002002F07DFEB52002F086FE022002F00C
:1028E00077FE002002F074FE032002F071FE00204B
:1028F00002F06EFE042002F06BFE002002F068FE83
:10290000B62002F071FE002002F062FE002002F00C
:102910005FFEB72002F068FE002002F059FE0020A2
:1029200002F056FE3F2002F053FE002002F050FE5F
:102930005E2002F04DFE002002F04AFE642002F00C
:1029400047FE002002F044FE8C2002F041FE0020F1
:1029500002F03EFEAC2002F03BFE002002F038FE0A
:10296000DC2002F035FE002002F032FE702002F082
:102970002FFE002002F02CFE902002F029FE002005
:1029800002F026FEEB2002F023FE002002F020FEE3
:10299000DC2002F01DFE002002F01AFEB82002F03A
:1029A00023FE002002F014FE002002F011FE0020A1
:1029B00002F00EFE002002F00BFE002002F008FEE6
:1029C000002002F005FE002002F002FE002002F0CE
:1029D000FFFDBA2002F008FE242002F0F9FD0020DD
:1029E00002F0F6FD002002F0F3FD002002F0F0FD01
:1029F000C12002F0F9FD202002F0EAFD002002F0E3
:102A0000E7FD542002F0E4FD002002F0E1FDFF208C
:102A100002F0DEFD002002F0DBFDC22002F0E4FD4A
:102A20000A2002F0D5FD002002F0D2FD042002F0C1
:102A3000CFFD002002F0CCFDC32002F0D5FD3C20EC
:102A400002F0C6FD002002F0C3FD3A2002F0C0FDF6
:102A5000002002F0BDFD392002F0BAFD002002F096
:102A6000B7FD372002F0B4FD002002F0B1FD3C209C
:102A700002F0AEFD002002F0ABFD362002F0A8FD12
:102A8000002002F0A5FD322002F0A2FD002002F09D
:102A90009FFD2F2002F09CFD002002F099FD2C20CC
:102AA00002F096FD002002F093FD292002F090FD37
:102AB000002002F08DFD262002F08AFD002002F0A9
:102AC00087FD242002F084FD002002F081FD2420F7
:102AD00002F07EFD002002F07BFD232002F078FD55
:102AE000002002F075FD3C2002F072FD002002F093
:102AF0006FFD362002F06CFD002002F069FD3220EF
:102B000002F066FD002002F063FD2F2002F060FD60
:102B1000002002F05DFD2C2002F05AFD002002F0A2
:102B200057FD292002F054FD002002F051FD26201F
:102B300002F04EFD002002F04BFD242002F048FD83
:102B4000002002F045FD242002F042FD002002F0AA
:102B50003FFD232002F03CFD002002F039FDC4209F
:102B600002F042FD622002F033FD002002F030FD51
:102B7000052002F02DFD002002F02AFD842002F045
:102B800027FD002002F024FDF02002F021FD0020AE
:102B900002F01EFD182002F01BFD002002F018FDBF
:102BA000A42002F015FD002002F012FD182002F012
:102BB0000FFD002002F00CFD502002F009FD002066
:102BC00002F006FD0C2002F003FD002002F000FDE3
:102BD000172002F0FDFC002002F0FAFC952002F024
:102BE000F7FC002002F0F4FCF32002F0F1FC0020DE
:102BF00002F0EEFCE62002F0EBFC002002F0E8FC24
:102C0000C52002F0F1FC322002F0E2FC002002F0CC
:102C1000DFFC442002F0DCFC002002F0D9FC65203F
:102C200002F0D6FC002002F0D3FC762002F0D0FCAB
:102C3000002002F0CDFC882002F0CAFC002002F047
:102C4000C7FCC62002F0D0FC202002F0C1FC00200E
:102C500002F0BEFC172002F0BBFC002002F0B8FC22
:102C6000012002F0B5FC002002F0B2FCC72002F007
:102C7000BBFC002002F0ACFC002002F0A9FC00200C
:102C800002F0A6FC002002F0A3FCC82002F0ACFC7D
:102C9000002002F09DFC002002F09AFC002002F0CF
:102CA00097FC002002F094FCC92002F09DFC00205B
:102CB00002F08EFC002002F08BFC002002F088FC69
:102CC000002002F085FC002002F082FC002002F0CF
:102CD0007FFC002002F07CFC002002F079FC002048
:102CE00002F076FC002002F073FC002002F070FC81
:102CF000002002F06DFC002002F06AFC002002F0CF
:102D000067FC002002F064FC002002F061FCE0207F
:102D100002F06AFC162002F05BFC002002F058FC76
:102D20001C2002F055FC002002F052FC212002F091
:102D30004FFC002002F04CFC362002F049FC002041
:102D400002F046FC462002F043FC002002F040FC6A
:102D5000522002F03DFC002002F03AFC642002F018
:102D600037FC002002F034FC7A2002F031FC002015
:102D700002F02EFC8B2002F02BFC002002F028FC3D
:102D8000992002F025FC002002F022FCA82002F08D
:102D90001FFC002002F01CFCB92002F019FC0020EE
:102DA00002F016FCC42002F013FC002002F010FC1C
:102DB000CA2002F00DFC002002F00AFCD22002F032
:102DC00007FC002002F004FCD92002F001FC0020E6
:102DD00002F0FEFBE02002F0FBFB002002F0F8FB1B
:102DE000F32002F0F5FB002002F0F2FBE12002F0FC
:102DF000FBFB162002F0ECFB002002F0E9FB1C209C
:102E000002F0E6FB002002F0E3FB222002F0E0FBF0
:102E1000002002F0DDFB362002F0DAFB002002F099
:102E2000D7FB452002F0D4FB002002F0D1FB52205A
:102E300002F0CEFB002002F0CBFB642002F0C8FBC6
:102E4000002002F0C5FB7A2002F0C2FB002002F055
:102E5000BFFB8B2002F0BCFB002002F0B9FB9920E5
:102E600002F0B6FB002002F0B3FBA82002F0B0FB9A
:102E7000002002F0ADFBB92002F0AAFB002002F016
:102E8000A7FBC42002F0A4FB002002F0A1FBCA2093
:102E900002F09EFB002002F09BFBD22002F098FB88
:102EA000002002F095FBD82002F092FB002002F0F7
:102EB0008FFBE02002F08CFB002002F089FBF32066
:102EC00002F086FB002002F083FBE22002F08CFB84
:102ED000052002F07DFB002002F07AFB0B2002F0BF
:102EE00077FB002002F074FB1B2002F071FB002036
:102EF00002F06EFB342002F06BFB002002F068FB56
:102F0000442002F065FB002002F062FB4F2002F03B
:102F10005FFB002002F05CFB612002F059FB002007
:102F200002F056FB792002F053FB002002F050FB28
:102F3000882002F04DFB002002F04AFB972002F0AF
:102F400047FB002002F044FBA62002F041FB0020DA
:102F500002F03EFBB72002F03BFB002002F038FB02
:102F6000C22002F035FB002002F032FBC72002F045
:102F70002FFB002002F02CFBD12002F029FB0020C7
:102F800002F026FBD62002F023FB002002F020FBFB
:102F9000DD2002F01DFB002002F01AFBF32002F0FE
:102FA00017FB002002F014FBE32002F01DFB0520BC
:102FB00002F00EFB002002F00BFB0A2002F008FBDF
:102FC000002002F005FB1C2002F002FB002002F0B2
:102FD000FFFA332002F0FCFA002002F0F9FA442054
:102FE00002F0F6FA002002F0F3FA502002F0F0FAB4
:102FF000002002F0EDFA622002F0EAFA002002F06E
:10300000E7FA782002F0E4FA002002F0E1FA8820E2
:1030100002F0DEFA002002F0DBFA972002F0D8FA84
:10302000002002F0D5FAA62002F0D2FA002002F029
:10303000CFFAB72002F0CCFA002002F0C9FAC22081
:1030400002F0C6FA002002F0C3FAC72002F0C0FA6C
:10305000002002F0BDFAD12002F0BAFA002002F0FE
:10306000B7FAD52002F0B4FA002002F0B1FADD2060
:1030700002F0AEFA002002F0ABFAF32002F0A8FA58
:10308000002002F0A5FAE42002F0AEFA012002F0DE
:103090009FFA002002F09CFA012002F099FA002029
:1030A00002F096FA022002F093FA002002F090FA61
:1030B0002A2002F08DFA002002F08AFA3C2002F069
:1030C00087FA002002F084FA4B2002F081FA0020F7
:1030D00002F07EFA5D2002F07BFA002002F078FA1E
:1030E000742002F075FA002002F072FA842002F0D7
:1030F0006FFA002002F06CFA932002F069FA0020C7
:1031000002F066FAA22002F063FA002002F060FAF0
:10311000B32002F05DFA002002F05AFABE2002F05D
:1031200057FA002002F054FAC42002F051FA0020AD
:1031300002F04EFACD2002F04BFA002002F048FADD
:10314000D32002F045FA002002F042FADD2002F01E
:103150003FFA002002F03CFAF32002F039FA002096
:1031600002F036FAE52002F03FFA002002F030FAD1
:10317000002002F02DFA002002F02AFA002002F0CE
:1031800027FA022002F024FA002002F021FA292076
:1031900002F01EFA002002F01BFA3C2002F018FA9E
:1031A000002002F015FA4B2002F012FA002002F083
:1031B0000FFA5D2002F00CFA002002F009FA7420E8
:1031C00002F006FA002002F003FA842002F000FA6E
:1031D000002002F0FDF9932002F0FAF9002002F03D
:1031E000F7F9A22002F0F4F9002002F0F1F9B3207F
:1031F00002F0EEF9002002F0EBF9BE2002F0E8F94F
:10320000002002F0E5F9C42002F0E2F9002002F00B
:10321000DFF9CD2002F0DCF9002002F0D9F9D3204B
:1032200002F0D6F9002002F0D3F9DC2002F0D0F948
:10323000002002F0CDF9F32002F0CAF9002002F0DC
:10324000C7F9E62002F0D0F9112002F0C1F9002000
:1032500002F0BEF9342002F0BBF9002002F0B8F908
:10326000562002F0B5F9002002F0B2F9762002F003
:10327000AFF9002002F0ACF9772002F0A9F90020A4
:1032800002F0A6F9662002F0A3F9002002F0A0F9EE
:10329000882002F09DF9002002F09AF9992002F0AE
:1032A00097F9002002F094F9BB2002F091F9002078
:1032B00002F08EF9992002F08BF9002002F088F9D3
:1032C000662002F085F9002002F082F9552002F014
:1032D0007FF9002002F07CF9552002F079F90020F6
:1032E00002F076F9452002F073F9002002F070F93F
:1032F000432002F06DF9002002F06AF9442002F048
:1033000067F9002002F064F9E72002F06DF932203D
:1033100002F05EF9002002F05BF9552002F058F946
:10332000002002F055F9762002F052F9002002F058
:103330004FF9662002F04CF9002002F049F96720AD
:1033400002F046F9002002F043F9672002F040F94C
:10335000002002F03DF9872002F03AF9002002F047
:1033600037F9992002F034F9002002F031F9BB203E
:1033700002F02EF9002002F02BF9992002F028F932
:10338000002002F025F9772002F022F9002002F057
:103390001FF9442002F01CF9002002F019F9562010
:1033A00002F016F9002002F013F9232002F010F9C0
:1033B000002002F00DF9332002F00AF9002002F09B
:1033C00007F9452002F004F9002002F001F9E82095
:1033D00002F00AF9002002F0FBF8002002F0F8F8F1
:1033E000992002F0F5F8002002F0F2F8872002F0B0
:1033F000EFF8002002F0ECF8882002F0E9F8002055
:1034000002F0E6F8772002F0E3F8002002F0E0F89E
:10341000662002F0DDF8002002F0DAF8882002F0E1
:10342000D7F8002002F0D4F8AA2002F0D1F800204A
:1034300002F0CEF8BB2002F0CBF8002002F0C8F872
:10344000992002F0C5F8002002F0C2F8662002F0D0
:10345000BFF8002002F0BCF8552002F0B9F80020B7
:1034600002F0B6F8552002F0B3F8002002F0B0F8F0
:10347000442002F0ADF8002002F0AAF8442002F047
:10348000A7F8002002F0A4F8552002F0A1F80020CF
:1034900002F09EF8E92002F0A7F8AA2002F098F8BE
:1034A000002002F095F8002002F092F8002002F0CF
:1034B0008FF8002002F098F8AA2002F089F8CF20B7
:1034C00002F092F8002002F083F8002002F080F869
:1034D000002002F07DF8002002F07AF8002002F0CF
:1034E00077F8002002F074F8002002F071F8002054
:1034F00002F06EF8002002F06BF8002002F068F88D
:10350000002002F065F8002002F062F8002002F0CE
:103510005FF8002002F05CF8002002F059F800206B
:1035200002F056F8002002F053F8F02002F05CF8A8
:10353000002002F04DF8502002F04AF8002002F07E
:1035400047F8002002F044F8002002F041F8F32090
:1035500002F04AF8002002F03BF8F92002F044F8AB
:10356000062002F035F8102002F032F8292002F08F
:103570002FF8002002F02CF83A2002F035F8552000
:1035800002F026F8112002F02FF86420FEF796FBD7
:10359000292002F029F8352002F026F8002002F058
:1035A00017F8512002F020F8FF2002F011F8532004
:1035B00002F01AF82C2002F00BF8552002F014F853
:1035C000822002F005F82C2002F00EF810BD10B594
:1035D00055214FF4704002F01DF8AA214FF201006E
:1035E00002F018F852214FF2020002F013F80821FD
:1035F0004FF2030002F00EF801214FF2040002F036
:1036000009F834214FF4364002F004F834214BF22B
:10361000016001F0FFFF34214BF2026001F0FAFF7C
:103620000D214FF4304001F0F5FF0D214BF2010068
:1036300001F0F0FF0D214BF2020001F0EBFF24211D
:103640004FF4374001F0E6FF24214BF2017001F006
:10365000E1FF24214BF2027001F0DCFF0D214FF459
:10366000314001F0D7FF0D214BF2011001F0D2FFE4
:103670000D214BF2021001F0CDFF24214FF4384010
:1036800001F0C8FF24214BF6010001F0C3FF242103
:103690004BF6020001F0BEFF00214FF4324001F072
:1036A000B9FF24214FF4394001F0B4FF24214BF637
:1036B000011001F0AFFF24214BF6021001F0AAFF28
:1036C00005214FF4334001F0A5FF05214BF20130F5
:1036D00001F0A0FF05214BF2023001F09BFF3421E5
:1036E0004FF43A4001F096FF34214BF6012001F0EF
:1036F00091FF34214BF6022001F08CFF0B214FF497
:10370000354001F087FF0B214BF2015001F082FFA1
:103710000B214BF2025001F07DFF00214FF43C40A1
:1037200001F078FFA3214BF6014001F073FF002167
:103730004BF6024001F06EFF00214FF43D4001F0D6
:1037400069FFA3214BF6015001F064FF00214BF605
:10375000025001F05FFF00214FF43E4001F05AFF9C
:1037600037214BF6016001F055FF00214FF4514025
:1037700001F050FF37214DF2011001F04BFF002105
:103780004DF2021001F046FF53214DF2031001F0FB
:1037900041FF00214DF2041001F03CFF79214DF270
:1037A000051001F037FF00214DF2061001F032FF45
:1037B00097214DF2071001F02DFF00214DF2081066
:1037C00001F028FFB1214DF2091001F023FF002183
:1037D0004DF20A1001F01EFFD5214DF20B1001F041
:1037E00019FF00214DF20C1001F014FFF4214DF2ED
:1037F0000D1001F00FFF01214DF20E1001F00AFF34
:1038000023214DF20F1001F005FF01214DF21010A0
:1038100001F000FF49214DF2111001F0FBFE0121E2
:103820004DF2121001F0F6FE87214DF2131001F057
:10383000F1FE01214DF2141001F0ECFEB6214DF223
:10384000151001F0E7FE02214DF2161001F0E2FE24
:1038500000214DF2171001F0DDFE02214DF218108B
:1038600001F0D8FE3B214DF2191001F0D3FE0221E8
:103870004DF21A1001F0CEFE3D214DF21B1001F069
:10388000C9FE02214DF21C1001F0C4FE75214DF25B
:103890001D1001F0BFFE02214DF21E1001F0BAFE14
:1038A000B1214DF21F1001F0B5FE02214DF22010A2
:1038B00001F0B0FED5214DF2211001F0ABFE032145
:1038C0004DF2221001F0A6FE09214DF2231001F065
:1038D000A1FE03214DF2241001F09CFE28214DF29F
:1038E000251001F097FE03214DF2261001F092FE03
:1038F00052214DF2271001F08DFE03214DF22810C8
:1039000001F088FE6B214DF2291001F083FE0321A6
:103910004DF22A1001F07EFE8D214DF22B1001F0A8
:1039200079FE03214DF22C1001F074FEA2214DF21C
:103930002D1001F06FFE03214DF22E1001F06AFEF2
:10394000BB214DF22F1001F065FE03214DF2301026
:1039500001F060FEC1214DF2311001F05BFE032148
:103960004DF2321001F056FEC1214DF2331001F03C
:1039700051FE00214FF4524001F04CFE37214DF230
:10398000012001F047FE00214DF2022001F042FE2D
:1039900053214DF2032001F03DFE00214DF20420A1
:1039A00001F038FE79214DF2052001F033FE0021AF
:1039B0004DF2062001F02EFE97214DF2072001F076
:1039C00029FE00214DF2082001F024FEB1214DF224
:1039D000092001F01FFE00214DF20A2001F01AFE1D
:1039E000D5214DF20B2001F015FE00214DF20C20E7
:1039F00001F010FEF4214DF20D2001F00BFE01212B
:103A00004DF20E2001F006FE23214DF20F2001F0B1
:103A100001FE01214DF2102001F0FCFD49214DF283
:103A2000112001F0F7FD01214DF2122001F0F2FD0D
:103A300087214DF2132001F0EDFD01214DF21420FC
:103A400001F0E8FDB6214DF2152001F0E3FD022161
:103A50004DF2162001F0DEFD00214DF2172001F09D
:103A6000D9FD02214DF2182001F0D4FD3B214DF289
:103A7000192001F0CFFD02214DF21A2001F0CAFDFC
:103A80003D214DF21B2001F0C5FD02214DF21C200D
:103A900001F0C0FD75214DF21D2001F0BBFD02219A
:103AA0004DF21E2001F0B6FDB1214DF21F2001F0B4
:103AB000B1FD02214DF2202001F0ACFDD5214DF2E7
:103AC000212001F0A7FD03214DF2222001F0A2FDEB
:103AD00009214DF2232001F09DFD03214DF2242008
:103AE00001F098FD28214DF2252001F093FD0321DE
:103AF0004DF2262001F08EFD52214DF2272001F0DB
:103B000089FD03214DF2282001F084FD6B214DF247
:103B1000292001F07FFD03214DF22A2001F07AFDDA
:103B20008D214DF22B2001F075FD03214DF22C204B
:103B300001F070FDA2214DF22D2001F06BFD03215B
:103B40004DF22E2001F066FDBB214DF22F2001F039
:103B500061FD03214DF2302001F05CFDC1214DF2E9
:103B6000312001F057FD03214DF2322001F052FDCA
:103B7000C1214DF2332001F04DFD00214FF453409F
:103B800001F048FD37214DF2013001F043FD0021E5
:103B90004DF2023001F03EFD53214DF2033001F0B1
:103BA00039FD00214DF2043001F034FD79214DF250
:103BB000053001F02FFD00214DF2063001F02AFD05
:103BC00097214DF2073001F025FD00214DF208301C
:103BD00001F020FDB1214DF2093001F01BFD002163
:103BE0004DF20A3001F016FDD5214DF20B3001F0F7
:103BF00011FD00214DF20C3001F00CFDF4214DF2CD
:103C00000D3001F007FD01214DF20E3001F002FDF3
:103C100023214DF20F3001F0FDFC01214DF2103057
:103C200001F0F8FC49214DF2113001F0F3FC0121C3
:103C30004DF2123001F0EEFC87214DF2133001F00D
:103C4000E9FC01214DF2143001F0E4FCB6214DF203
:103C5000153001F0DFFC02214DF2163001F0DAFCE4
:103C600000214DF2173001F0D5FC02214DF2183041
:103C700001F0D0FC3B214DF2193001F0CBFC0221C8
:103C80004DF21A3001F0C6FC3D214DF21B3001F01F
:103C9000C1FC02214DF21C3001F0BCFC75214DF23B
:103CA0001D3001F0B7FC02214DF21E3001F0B2FCD4
:103CB000B1214DF21F3001F0ADFC02214DF2203058
:103CC00001F0A8FCD5214DF2213001F0A3FC032125
:103CD0004DF2223001F09EFC09214DF2233001F01B
:103CE00099FC03214DF2243001F094FC28214DF27F
:103CF000253001F08FFC03214DF2263001F08AFCC3
:103D000052214DF2273001F085FC03214DF228307D
:103D100001F080FC6B214DF2293001F07BFC032186
:103D20004DF22A3001F076FC8D214DF22B3001F05E
:103D300071FC03214DF22C3001F06CFCA2214DF2FC
:103D40002D3001F067FC03214DF22E3001F062FCB2
:103D5000BB214DF22F3001F05DFC03214DF23030DC
:103D600001F058FCC1214DF2313001F053FC032128
:103D70004DF2323001F04EFCC1214DF2333001F0F2
:103D800049FC00214FF4544001F044FC37214DF22E
:103D9000014001F03FFC00214DF2024001F03AFCED
:103DA00053214DF2034001F035FC00214DF2044057
:103DB00001F030FC79214DF2054001F02BFC00218F
:103DC0004DF2064001F026FC97214DF2074001F02C
:103DD00021FC00214DF2084001F01CFCB1214DF204
:103DE000094001F017FC00214DF20A4001F012FCDD
:103DF000D5214DF20B4001F00DFC00214DF20C409D
:103E000001F008FCF4214DF20D4001F003FC01210A
:103E10004DF20E4001F0FEFB23214DF20F4001F068
:103E2000F9FB01214DF2104001F0F4FB49214DF264
:103E3000114001F0EFFB01214DF2124001F0EAFBCD
:103E400087214DF2134001F0E5FB01214DF21440B2
:103E500001F0E0FBB6214DF2154001F0DBFB022141
:103E60004DF2164001F0D6FB00214DF2174001F053
:103E7000D1FB02214DF2184001F0CCFB3B214DF269
:103E8000194001F0C7FB02214DF21A4001F0C2FBBC
:103E90003D214DF21B4001F0BDFB02214DF21C40C3
:103EA00001F0B8FB75214DF21D4001F0B3FB02217A
:103EB0004DF21E4001F0AEFBB1214DF21F4001F06A
:103EC000A9FB02214DF2204001F0A4FBD5214DF2C7
:103ED000214001F09FFB03214DF2224001F09AFBAB
:103EE00009214DF2234001F095FB03214DF22440BE
:103EF00001F090FB28214DF2254001F08BFB0321BE
:103F00004DF2264001F086FB52214DF2274001F090
:103F100081FB03214DF2284001F07CFB6B214DF227
:103F2000294001F077FB03214DF22A4001F072FB9A
:103F30008D214DF22B4001F06DFB03214DF22C4001
:103F400001F068FBA2214DF22D4001F063FB03213B
:103F50004DF22E4001F05EFBBB214DF22F4001F0EF
:103F600059FB03214DF2304001F054FBC1214DF2C9
:103F7000314001F04FFB03214DF2324001F04AFB8A
:103F8000C1214DF2334001F045FB00214FF4554073
:103F900001F040FB37214DF2015001F03BFB0021C5
:103FA0004DF2025001F036FB53214DF2035001F067
:103FB00031FB00214DF2045001F02CFB79214DF230
:103FC000055001F027FB00214DF2065001F022FBC5
:103FD00097214DF2075001F01DFB00214DF20850D2
:103FE00001F018FBB1214DF2095001F013FB002143
:103FF0004DF20A5001F00EFBD5214DF20B5001F0AD
:1040000009FB00214DF20C5001F004FBF4214DF2AC
:104010000D5001F0FFFA01214DF20E5001F0FAFAB5
:1040200023214DF20F5001F0F5FA01214DF210500D
:1040300001F0F0FA49214DF2115001F0EBFA0121A3
:104040004DF2125001F0E6FA87214DF2135001F0C3
:10405000E1FA01214DF2145001F0DCFAB6214DF2E3
:10406000155001F0D7FA02214DF2165001F0D2FAA4
:1040700000214DF2175001F0CDFA02214DF21850F7
:1040800001F0C8FA3B214DF2195001F0C3FA0221A8
:104090004DF21A5001F0BEFA3D214DF21B5001F0D5
:1040A000B9FA02214DF21C5001F0B4FA75214DF21B
:1040B0001D5001F0AFFA02214DF21E5001F0AAFA94
:1040C000B1214DF21F5001F0A5FA02214DF220500E
:1040D00001F0A0FAD5214DF2215001F09BFA032105
:1040E0004DF2225001F096FA09214DF2235001F0D1
:1040F00091FA03214DF2245001F08CFA28214DF25F
:10410000255001F087FA03214DF2265001F082FA82
:1041100052214DF2275001F07DFA03214DF2285033
:1041200001F078FA6B214DF2295001F073FA032166
:104130004DF22A5001F06EFA8D214DF22B5001F014
:1041400069FA03214DF22C5001F064FAA2214DF2DC
:104150002D5001F05FFA03214DF22E5001F05AFA72
:10416000BB214DF22F5001F055FA03214DF2305092
:1041700001F050FAC1214DF2315001F04BFA032108
:104180004DF2325001F046FAC1214DF2335001F0A8
:1041900041FA00214FF4564001F03CFA37214DF22C
:1041A000016001F037FA00214DF2026001F032FAAD
:1041B00053214DF2036001F02DFA00214DF204600D
:1041C00001F028FA79214DF2056001F023FA00216F
:1041D0004DF2066001F01EFA97214DF2076001F0E2
:1041E00019FA00214DF2086001F014FAB1214DF2E4
:1041F000096001F00FFA00214DF20A6001F00AFA9D
:10420000D5214DF20B6001F005FA00214DF20C6052
:1042100001F000FAF4214DF20D6001F0FBF90121EB
:104220004DF20E6001F0F6F923214DF20F6001F01E
:10423000F1F901214DF2106001F0ECF949214DF244
:10424000116001F0E7F901214DF2126001F0E2F98D
:1042500087214DF2136001F0DDF901214DF2146068
:1042600001F0D8F9B6214DF2156001F0D3F9022121
:104270004DF2166001F0CEF900214DF2176001F009
:10428000C9F902214DF2186001F0C4F93B214DF249
:10429000196001F0BFF902214DF21A6001F0BAF97C
:1042A0003D214DF21B6001F0B5F902214DF21C6079
:1042B00001F0B0F975214DF21D6001F0ABF902215A
:1042C0004DF21E6001F0A6F9B1214DF21F6001F020
:1042D000A1F902214DF2206001F09CF9D5214DF2A7
:1042E000216001F097F903214DF2226001F092F96B
:1042F00009214DF2236001F08DF903214DF2246074
:1043000001F088F928214DF2256001F083F903219D
:104310004DF2266001F07EF952214DF2276001F046
:1043200079F903214DF2286001F074F96B214DF207
:10433000296001F06FF903214DF22A6001F06AF95A
:104340008D214DF22B6001F065F903214DF22C60B7
:1043500001F060F9A2214DF22D6001F05BF903211B
:104360004DF22E6001F056F9BB214DF22F6001F0A5
:1043700051F903214DF2306001F04CF9C1214DF2A9
:10438000316001F047F903214DF2326001F042F94A
:10439000C1214DF2336001F03DF955214FF47040D9
:1043A00001F038F9AA214FF2010001F033F952214E
:1043B0004FF2020001F02EF908214FF2030001F044
:1043C00029F900214FF2040001F024F900214FF4F3
:1043D000304001F01FF905214BF2010001F01AF9FC
:1043E00002214BF2020001F015F905214BF2030006
:1043F00001F010F902214BF2040001F00BF9082141
:104400004FF4364001F006F950214FF4354001F0E9
:1044100001F905214FF4364001F0FCF800214FF47A
:10442000374001F0F7F800214BF2017001F0F2F88B
:1044300001214FF4384001F0EDF805214BF6010061
:1044400001F0E8F805214BF6020001F0E3F8052140
:104450004BF6030001F0DEF802214FF43C4001F07E
:10446000D9F800214BF6014001F0D4F800214BF6B9
:10447000024001F0CFF803214FF44C4001F0CAF89C
:1044800000214CF6014001F0C5F800214CF6024035
:1044900001F0C0F801214FF43D4001F0BBF8842148
:1044A0004BF6015001F0B6F807214BF6025001F02F
:1044B000B1F831214BF6035001F0ACF800214BF676
:1044C000045001F0A7F801214FF43A4001F0A2F89E
:1044D000AA214FF47F4001F09DF855214FF601705D
:1044E00001F098F825214FF6027001F093F80121B0
:1044F0004FF6037001F08EF840214FF4585001F050
:1045000089F800214FF4545001F084F805214FF44C
:10451000685001F07FF84FF4885001F065F878207A
:10452000FDF7CCFB4FF4245001F05EF80A20FDF7B4
:10453000C5FB4FF4305001F057F810BD10B5E22024
:1045400001F052F81D2001F043F8022001F040F87C
:10455000042001F03DF86420FDF7BAFBE02001F0F3
:1045600043F8012001F034F80A20FDF7A7FBE02012
:1045700001F03AF8032001F02BF80C20FDF79EFB28
:10458000012001F031F80A20FDF798FBE62001F048
:104590002BF82F2001F01CF8FF2001F019F8FF2064
:1045A00001F016F8B02001F01FF8202001F010F8FB
:1045B000002001F00DF8032001F00AF840F21F304E
:1045C00001F006F8012001F003F840F2DF1000F0DE
:1045D000FFFF002000F0FCFFB42001F005F80420EC
:1045E00000F0F6FF40F21F4000F0F2FF002000F064
:1045F000EFFF2E2000F0ECFF002000F0E9FF00208C
:1046000000F0E6FF002000F0E3FF002000F0E0FFF4
:10461000B62000F0E9FF022000F0DAFF4FF403704B
:1046200000F0D6FF002000F0D3FF172000F0D0FFED
:10463000152000F0CDFF002000F0CAFF002000F0A0
:10464000C7FFF02000F0D0FF032000F0C1FF2920B9
:1046500000F0CAFFD02000F0C7FF002000F0B8FF34
:10466000BE2000F0C1FF052000F0B2FFFE2000F0E8
:10467000AFFF012000F0ACFF002000F0A9FF0020F8
:1046800000F0A6FF002000F0A3FFB82000F0ACFF70
:10469000032000F09DFF012000F09AFFBA2000F0F7
:1046A000A3FF012000F094FF10BD10B5112000F011
:1046B0009BFF7820FDF702FB362000F095FF0020DD
:1046C00000F086FF3A2000F08FFF052000F080FF09
:1046D000B22000F089FF0C2000F07AFF0C2000F0DF
:1046E00077FF002000F074FF332000F071FF3320CB
:1046F00000F06EFFB72000F077FF352000F068FF74
:10470000BB2000F071FF322000F062FFC02000F0FB
:104710006BFF0C2000F05CFFC22000F065FF012061
:1047200000F056FFC32000F05FFF102000F050FFA4
:10473000C42000F059FF202000F04AFFC62000F0FE
:1047400053FF0F2000F044FFD02000F04DFFA420C5
:1047500000F03EFFA12000F03BFFE02000F044FF0E
:10476000D02000F035FF002000F032FF022000F0E2
:104770002FFF072000F02CFF0A2000F029FF28203F
:1047800000F026FF322000F023FF442000F020FF3D
:10479000422000F01DFF062000F01AFF0E2000F05E
:1047A00017FF122000F014FF142000F011FF172053
:1047B00000F00EFFE12000F017FFD02000F008FF0E
:1047C000002000F005FF022000F002FF072000F0AB
:1047D000FFFE0A2000F0FCFE282000F0F9FE312048
:1047E00000F0F6FE542000F0F3FE472000F0F0FE4B
:1047F0000E2000F0EDFE1C2000F0EAFE172000F075
:10480000E7FE1B2000F0E4FE1E2000F0E1FE2A205F
:1048100000F0EAFE002000F0DBFE002000F0D8FEF1
:10482000002000F0D5FEEF2000F0D2FE2B2000F09B
:10483000DBFE002000F0CCFE002000F0C9FE0120CD
:1048400000F0C6FE3F2000F0C3FE292000F0CCFEA1
:1048500010BD10B5112000F0C7FE7820FDF72EFA2C
:10486000362000F0C1FE482000F0B2FE3A2000F0F1
:10487000BBFE552000F0ACFEF02000F0B5FEC320DA
:1048800000F0A6FEF02000F0AFFE962000F0A0FEA3
:10489000B42000F0A9FE012000F09AFEB62000F03E
:1048A000A3FE0A2000F094FEA22000F091FEB720A3
:1048B00000F09AFEC62000F08BFEB92000F094FEB6
:1048C000022000F085FEE02000F082FEC02000F013
:1048D0008BFE802000F07CFE162000F079FEC120C7
:1048E00000F082FE192000F073FEC22000F07CFE72
:1048F000A72000F06DFEC52000F076FE162000F027
:1049000067FEE82000F070FE402000F061FE8A2083
:1049100000F05EFE002000F05BFE002000F058FE7C
:10492000292000F055FE192000F052FEA52000F0CD
:104930004FFE332000F04CFEE02000F055FEF0204A
:1049400000F046FE072000F043FE0D2000F040FE80
:10495000042000F03DFE052000F03AFE142000F097
:1049600037FE362000F034FE542000F031FE4C209B
:1049700000F02EFE382000F02BFE132000F028FE61
:10498000142000F025FE2E2000F022FE342000F03E
:104990001FFEE12000F028FEF02000F019FE10209C
:1049A00000F016FE142000F013FE0E2000F010FEA2
:1049B0000C2000F00DFE082000F00AFE352000F06B
:1049C00007FE442000F004FE4C2000F001FE2620EB
:1049D00000F0FEFD102000F0FBFD122000F0F8FDBD
:1049E0002C2000F0F5FD322000F0F2FDF02000F068
:1049F000FBFD3C2000F0ECFDF02000F0F5FD69200F
:104A000000F0E6FD7820FDF759F9212000F0ECFDDB
:104A1000292000F0E9FD10BD2DE9F04F05460E46B6
:104A200017469846DDF824A04FF0000B781B401C79
:104A30001FFA80FB344613E02146284600F0E6FBCF
:104A400000F0DEFD4FF0000906E00749A1F800A0E4
:104A500009F101001FFA80F9D945F6DB601C84B228
:104A60004445E9DDBDE8F08F8000006C00B595B0ED
:104A700000BF00BF00200190F848006840F04000EF
:104A8000F64908600846006800F04000019000BF49
:104A900000BF00BF00BF00BF0020019008460068B3
:104AA00040F0080008600846006800F00800019027
:104AB00000BF00BF00BF00BF00BF0020019008463C
:104AC000006840F0080008600846006800F0080030
:104AD000019000BF00BF00BF00BF00BF00200190D9
:104AE0000846006840F0200008600846006800F0B2
:104AF0002000019000BF00BF00BF00BF00BF00202A
:104B000001900846006840F002000860084600680E
:104B100000F00200019000BF00BF00BF8814109099
:104B20000220119001201290022013900C2014906A
:104B300010A9CB48FBF74CFE2020109010A9C948C3
:104B4000FBF746FE1020109010A9C648FBF740FE68
:104B50004FF48050109010A9C348FBF739FE4FF472
:104B6000004010900120119010A9C048FBF730FEC2
:104B70004FF02040BE490860BE484860062088606B
:104B80000021BB48C1601021416100218161C161E8
:104B900041624FF4805181620021C1624FF4804133
:104BA00001630021416381630F20099000200A9076
:104BB0003C200B9000200F900920029000200390D1
:104BC000092004900020089002AA09A9A848FCF72F
:104BD00061FB3220FDF772F8D32000F005FD00F0F4
:104BE000EBF9A549888000F0E7F9A349888000F037
:104BF000E3F9A1498880084680884FF6FF7101EAF1
:104C000000209D49888000F0D7F99B498988084396
:104C1000994988800846808849F2413188427CD091
:104C2000042000F0E1FC00F0C7F99349888000F00F
:104C3000C3F99149888000F0BFF98F498880084600
:104C400080884FF6FF7101EA00208B49888000F0D0
:104C5000B3F989498988084387498880084680884C
:104C600048F25251884203D147F2897082498880C4
:104C70008148808847F289718842D0D0D42000F0E2
:104C8000B3FC00F099F97C49888000F095F97A49E5
:104C9000888000F091F978498880084680884FF62E
:104CA000FF7101EA00207449888000F085F972499B
:104CB00089880843704988800846808845F2103109
:104CC0008842ACD0D32000F08FFC00F075F96A491F
:104CD000888000F071F96849888000F06DF96649B4
:104CE0008880084680884FF6FF7101EA00206249FB
:104CF000888000F061F96049898808435E498880AE
:104D00000846808847F29671884288D055214FF432
:104D1000704000F07FFCAA2100E07EE04FF201002D
:104D200000F078FC52214FF2020000F073FC0821E1
:104D30004FF2030000F06EFC01214FF2040000F07E
:104D400069FC4FF4454000F04FFC00F035F94A494A
:104D50008880084680884FF6FF7101EA00204649A6
:104D600088804CF2015000F03FFC00F025F94249E8
:104D700089880843404988800520FCF79FFF3E480A
:104D8000808845F21051884247D0D32000F02CFC97
:104D900000F012F93849888000F00EF93649888011
:104DA00000F00AF934498880084680884FF6FF7180
:104DB00001EA00203049888000F0FEF82E498988F9
:104DC00008432D4988800846808849F606018842B4
:104DD00023D0A12000F008FC00F0EEF826498880DE
:104DE00000F0EAF824498880084680884FF6FF7171
:104DF00001EA00202049888000F0DEF81E498988F9
:104E000008431D4988800846808845F261718842C0
:104E100003D141F66310184988801748818817A08C
:104E2000FBF7A4FA1448808847F28971884202D1BE
:104E3000FFF73BFC4EE01048808849F24131884240
:104E400002D1FDF795F945E00B48808845F2103115
:104E5000884219D1FDF742FC3CE0000030380240A6
:104E600000180240000C02400014024000040240FE
:104E700030010020040100A0800100204C434420A8
:104E800049443A25780D0A003F48808847F29671D8
:104E9000884202D1FFF7DDFC1CE03B48808845F2E8
:104EA0001051884202D1FEF792FB13E03648808809
:104EB00049F60601884202D1FDF770FA0AE032484D
:104EC000808841F66311884204D1FFF737FB6420E4
:104ED00000F04EFB2C48808847F2897188420AD145
:104EE00003200290049029490B6B8A68486802A944
:104EF000FBF790FB38E02448808849F60601884299
:104F00000BD02148808849F24131884205D01E48A3
:104F1000808845F2105188420AD102200290049004
:104F20001A490B6B8A68486802A9FBF773FB1BE000
:104F30001548808845F2103188420BD0124880888D
:104F400047F29671884205D00F48808841F6631178
:104F5000884209D10120029004900C490B6B8A68A9
:104F6000486802A9FBF756FB0020FDF73BF800BF9D
:104F70000122D1030648FBF73FFD00BF4FF6FF704B
:104F8000FDF716F815B000BD8001002030010020AB
:104F90000004024000BF011EA0F10100FBD17047D8
:104FA00010B50246012000E050430B1EA1F10104A0
:104FB000E1B2F9D110BD000008B50220FFF7EAFF09
:104FC000024800880090BDF8000008BD8000006C19
:104FD000F0B50546002400278B488079012805D1CB
:104FE0008948808841F66311884208D186488079D3
:104FF000F0B98548808841F66311884218D1082DA0
:1050000015D2DFE805F00406080A0C0E101206257A
:105010000DE007250BE0042509E0052507E0012543
:1050200005E0002503E0032501E0022500BF00BFE5
:10503000082D1CD2DFE805F00406090C0F12151824
:1050400000BF14E044F0800411E044F040040EE09E
:1050500044F0C0040BE044F0200408E044F0600495
:1050600005E044F0A00402E044F0E00400BF00BF0B
:1050700036276548808845F21051884200D13F02AA
:105080006148808849F2413188420BD05E4880886F
:1050900047F28971884205D05B48808847F2967153
:1050A000884201D144F008042146384600F0B2FAA3
:1050B0005548808841F6631188421DD004F02000D5
:1050C00068B15148008850494988884214DA4E48EE
:1050D000068840884C490880084646800CE04A48CB
:1050E000008849494988884206DD47480688408843
:1050F00045490880084646804348808845F210515B
:10510000884252D14049488900F06EFA002000F0F0
:105110005FFA3D494989491C88B200F065FA0020D0
:1051200000F056FA38494989891C88B200F05CFAC7
:1051300035490988491EC1F30F2000F049FA324968
:105140004989C91C88B200F04FFA2F490978491ED5
:10515000C8B200F03DFA2C49888900F045FA0020D9
:1051600000F036FA28498989491C88B200F03CFAD7
:10517000002000F02DFA24498989891C88B200F0AA
:1051800033FA21494988491EC1F30F2000F020FA63
:105190001D498989C91C88B200F026FA1A49897804
:1051A000491EC8B200F014FA2DE01749488900F0F2
:1051B0001BFA002000F00CFA002000F009FA124956
:1051C0000988491EC1F30F2000F002FA0E49097840
:1051D000491EC8B200F0FCF90B49888900F004FAB6
:1051E000002000F0F5F9002000F0F2F906494988A6
:1051F000491EC1F30F2000F0EBF903498978491EDD
:10520000C8B200F0E5F9F0BD8001002010B50246FB
:105210000C464548808841F66311884247D1424890
:105220008079A8B940480088401E801A82B23E4961
:10523000488900F0D9F9002000F0CAF9002000F0F8
:10524000C7F9101200F0C4F9D0B200F0C1F916E0AD
:105250003549488900F0C8F9101200F0B9F9D0B208
:1052600000F0B6F930490988491EC1F30F2000F05B
:10527000AFF92D490978491EC8B200F0A9F92A49A9
:10528000888900F0B1F9201200F0A2F9E0B200F034
:105290009FF925494988491EC1F30F2000F098F96C
:1052A00021498978491EC8B200F092F93AE01E48B7
:1052B000808845F21051884220D11B49488900F06E
:1052C00093F9101200F084F917494989491C88B2F2
:1052D00000F08AF9D0B200F07BF91349888900F018
:1052E00083F9201200F074F90F498989491C88B2AA
:1052F00000F07AF9E0B200F06BF913E00A4948894E
:1053000000F072F9101200F063F9D0B200F060F909
:105310000549888900F068F9201200F059F9E0B2D7
:1053200000F056F910BD0000800100202DE9FC4F6F
:1053300080460E4615461C46B3460020019000905C
:105340002046E31704EB5373DB1021464FEAE47C5D
:1053500004EB5C7C4FEAEC0CA4EBCC0CBCF1000F32
:1053600002D04FF0010C01E04FF0000C63442246E4
:1053700004EBD27C4FEA6C0C03FB0CF3DBB2019321
:10538000A5F12000C5B20C2C06D0102C0BD0182C87
:105390000ED0202C18D112E005EB45002D4901EB71
:1053A0008000009012E02C4800EB051000900DE00A
:1053B00005EBC500294901EB8000009006E0284874
:1053C00000EB8510009001E0BDE8FC8F00BF0027D6
:1053D0003AE0009810F807904FF0000A2EE009F02C
:1053E000800028B1314640460C9AFCF7B1FE07E038
:1053F0000B9828B91B48314602684046FCF7A8FEC6
:105400004FEA49604FEA1069701C86B2164840881E
:10541000B04200DCD8E7A6EB0B00A0420AD15E4602
:1054200008F101001FFA80F80F480088404500DCB1
:10543000CAE706E00AF1010000F0FF0ABAF1080F1E
:10544000CDDB00BF781CC7B201988742C1DB00BF2B
:10545000BAE70000E25C00085661000846670008F1
:10546000A274000820000020800100202DE9FF4FD9
:1054700083B0074691461E46DDE9105A002002908F
:1054800000243AE0301B401EC1B20A20FFF788FD1D
:10549000B9FBF0F00A21B0FBF1F201FB120802980F
:1054A000B8B9701EA04214DDB8F1000F0FD1002072
:1054B000AB4605EBDB71491001FB0471CDE9000A35
:1054C00088B22B4620220499FFF730FF13E0012019
:1054D00002900020AB4605EBDB71491001FB047123
:1054E000CDE9000A88B208F13001CAB22B4604990E
:1054F000FFF71CFF00BF601CC4B2B442C2DB07B0A0
:10550000BDE8F08F2DE9FC4F04460D4690469946C4
:10551000DDE90C7A0B9E04F0FF0B08EB04001FFA88
:1055200080F809EB05001FFA80F917E0444502DB1B
:105530005C46A81985B24D4500DB15E00020CDE999
:10554000000A3A78334629462046FFF7EFFE3046F8
:1055500006EBD07104EB61018CB27F1C38787E2899
:1055600002DC38782028E1DA00BFBDE8FC8F0000BB
:1055700070B52DED048B0446BE2000F035F80520F3
:1055800000F026F8204600F089FA41EC190B9FED57
:105590000E0B53EC102B00F095FA41EC180B00F0B9
:1055A00039FA85B2284600F013F8012000F010F80F
:1055B000FF2000F00DF8002000F00AF8002000F0B5
:1055C00007F8BDEC048B70BD6666666666660440CF
:1055D00001B5BDF800000090BDF800000149088049
:1055E00008BD00008000006C01B5BDF8000000900F
:1055F000BDF800000149088008BD00007E00006C75
:10560000024800890249088070470000800100209C
:105610007E00006C034A10804FF0D842A2F8801040
:10562000704700007E00006C00B587B000BF00BF6F
:10563000002001902048006840F020001E490860CA
:105640000846006800F02000019000BF00BF00BFC6
:1056500000BF00BF002001900846006840F0200015
:1056600008600846006800F02000019000BF00BFFD
:1056700000BF48150290012003900490022005907D
:1056800002A90E48FBF7A4F84FF48060029002A92B
:105690000A48FBF79DF800BF012251020748FBF7BB
:1056A000ABF900BF00BF012291020448FBF7A4F947
:1056B00000BF07B000BD00003038024000140240B7
:1056C0000EB50025FBF7B6F90723022208214FF497
:1056D000A87000F0E5F8A820FCF7EAFA4FF4E130F2
:1056E00000F04CF9FFF7A0FFFFF7C0F94FF4784046
:1056F00056A110221346CDE900210290C822322182
:105700001E20FFF7FFFE4FF4784052A110221346EF
:10571000CDE900210290C82246211E20FFF7F2FEAB
:105720004FF478404FA110221346CDE9002102909A
:10573000C8225A211E20FFF7E5FE1BE04FF47840F7
:105740004CA110221346CDE900210290C8226E21FF
:105750001E20FFF7D7FEC820FCF7B0FA4FF6FF7007
:105760009223EF226E2100901E20FFF755F9C820EA
:10577000FCF7A4FAFCF74CFB0028DFD14FF478408B
:1057800040A110221346CDE900210290C8226E21CB
:105790001E20FFF7B7FE1F203DA110221346CDE9C2
:1057A00000210290C82282211E20FFF7ABFE4CE0B0
:1057B0000A2095FBF0F100FB1150B8BBFCF7D8FABA
:1057C0000446002C0CDA1F20002110232D22CDE9E5
:1057D000001082214620FFF7A9FD604204B209E0D3
:1057E0001F20002110232022CDE900108221462015
:1057F000FFF79CFD0A2094FBF0F61F2010210223E6
:105800003246CDE9001082214E20FFF72FFE0A20FC
:1058100094FBF0F100FB11461F20102101233246BA
:10582000CDE9001082216620FFF720FE0A20FCF758
:1058300045FA681CC5B2142D07D1002500BF4FF4EE
:1058400000711648FBF7CEF800BFB1E753544D3353
:105850003200000044533138423230205445535412
:105860000000000041544F4D40414C49454E5445C5
:105870004B00000044533138423230204572726F81
:105880007200000044533138423230204F4B000048
:1058900054656D703A2020202E20430000140240F1
:1058A0002DE9F04192B080460C4615461E46002771
:1058B000302106A8FAF7C6FD142101A8FAF7C2FDA7
:1058C00000BF002000902A48006840F0805028491E
:1058D00008600846006800F08050009000BF00BFDC
:1058E00000BF002000902348006840F48040214918
:1058F00008600846006800F48040009000BF00BFC8
:10590000012006900004079002200C9041050D91A3
:10591000CDF83C800E941095119606A8FBF76CFA12
:1059200007461FB1012012B0BDE8F0810F200190A1
:1059300002200290002003904FF4A05004904FF4F6
:1059400080500590052101A8FBF716F907460FB115
:105950000120E8E7FBF756F841F20101884205D142
:105960000548006840F48070034908600020DAE7C9
:105970004038024000700040003C024010B5044630
:1059800009480A4908600846446000218160C160F6
:10599000016181610C214161FBF73EFE0122044956
:1059A0000248FBF7D9FE10BD00100140EC000020BA
:1059B0000E0000204FEA41034FEA5353A3F58063E2
:1059C000D3F11E03C8BFD3F1210C0CDD4FF0004210
:1059D00042EAC12242EA505232FA03FC8CEAE17CEC
:1059E000ACEBE1707047102BC4BF0020704703F58B
:1059F000787CBCF1FF3F04D06FF0004282EA2100C6
:105A0000704770B500F008F9499224800020704773
:105A1000F2E700004FEA1153A3F58063D3F11E03B0
:105A2000A8BFD3F1200C08DB4FF0004242EAC122AC
:105A300052EA505232FA03F0704709420BD4102B4D
:105A4000C4BF0020704703F5787CBCF1FF3F05D050
:105A50004FF0FF3070474FF00000704770B500F016
:105A6000DBF800BF4992248000207047F0E710F077
:105A7000004248BF4042B0FA80F310FA03F10AD066
:105A8000C3F11D0303F580634FEA415002EB03525B
:105A900002EBD12170474FF000007047B0FA80F35D
:105AA00010FA03F10AD0C3F11D0303F580634FEA36
:105AB00041504FEA035202EBD12170474FF00000F2
:105AC00070470000DFF848C170B51CEA111E1EBF08
:105AD0001CEA13159EEA0C0F95EA0C0F00F06F807C
