:020000040800F2
:1000000020B1012089020008431C00083B1C0008A5
:100010003F1C0008FD0800088D21000800000000BA
:10002000000000000000000000000000471C000865
:100030000109000800000000451C0008491C0008D8
:10004000AD020008AD020008AD020008AD020008D4
:10005000AD020008AD020008AD020008AD020008C4
:10006000AD020008AD020008AD020008AD020008B4
:10007000AD020008AD020008AD020008AD020008A4
:10008000AD020008AD020008AD020008AD02000894
:10009000AD020008AD020008AD020008AD02000884
:1000A000AD020008AD020008AD020008AD02000874
:1000B000AD020008AD020008651C0008AD02000892
:1000C000AD020008AD020008AD020008AD02000854
:1000D000AD0200087D210008AD020008AD02000855
:1000E000AD020008AD020008AD020008AD02000834
:1000F000AD020008AD020008AD020008AD02000824
:10010000AD020008AD020008AD020008AD02000813
:10011000AD020008AD020008AD020008AD02000803
:10012000AD020008AD020008AD020008AD020008F3
:10013000AD020008AD020008AD020008AD020008E3
:10014000AD020008AD020008AD020008AD020008D3
:10015000AD020008AD020008AD020008AD020008C3
:10016000AD020008AD020008AD020008AD020008B3
:10017000AD020008AD020008AD020008000000005A
:10018000AD020008AD02000800F002F800F06DF8C2
:100190000AA090E8000C82448344AAF10107DA45E2
:1001A00001D100F062F8AFF2090EBAE80F0013F0C7
:1001B000010F18BFFB1A43F001031847ECA600001B
:1001C0000CA700000A444FF0000C10F8013B13F09C
:1001D000070408BF10F8014B1D1108BF10F8015BA0
:1001E000641E05D010F8016B641E01F8016BF9D193
:1001F00013F0080F1EBF10F8014BAD1C0C1B09D1EA
:100200006D1E58BF01F801CBFAD505E014F8016B5B
:1002100001F8016B6D1EF9D59142D6D370470000ED
:100220000023002400250026103A28BF78C1FBD8FF
:10023000520728BF30C148BF0B607047642900F0E7
:100240003181752900F02E81782900F067816329BA
:1002500000F0FF82732900F00483002070471FB56F
:1002600007F08AFA1FBD10B510BD00F015FB11464E
:10027000FFF7F5FF05F004FC00F033FB03B4FFF7D4
:10028000F2FF03BC01F0A7FF0C48016841F47001C4
:1002900001600B4880470B480047FEE7FEE7FEE79A
:1002A000FEE7FEE7FEE7FEE7FEE7FEE7FEE700000B
:1002B00005480649044A064B7047000088ED00E0F7
:1002C000511C00088901000820AD012020B1012047
:1002D00020AD0120704753EA020C00F069802DE93F
:1002E000F04B4FF00006002B1FBFB3FA83F503FA63
:1002F00005F424FA05F65E4012BF1643B2FA82F501
:1003000002FA05F4C5F120051EBF22FA05FC44EAF5
:100310000C04203556EA044C4FEA144418BF641C00
:100320004FF000084FF00009904271EB030C39D3F5
:10033000002919BFB1FA81F701FA07F6B0FA80F780
:1003400000FA07F6C7F120071EBF20FA07FC46EAAD
:100350000C062037B6FBF4FCA7EB0507103F07F0AF
:100360001F0BCBF120060CFA0BFB2CFA06F644BF50
:10037000B3460026202FA4BF5E464FF0000B5BEA79
:10038000060C08BF4FF0010B19EB0B09ABFB027C0D
:1003900048EB0608C01B06FB02CC0BFB03CC71EB41
:1003A0000C01C1E70B46024641464846BDE8F08BCA
:1003B00013B54FF000004FF00001AFF30080BDE82F
:1003C0001C4070470FB4044910B503AA029800F00E
:1003D0004DFA10BC5DF814FB140000200FB41CB5DE
:1003E000074B06AA7B4469460090059800F00FFA77
:1003F0000020694600F01EFA1CBC5DF814FB0000EA
:100400004D04000070B5044685690068C10601D539
:10041000302600E02026C00707D070BDD4E90121B6
:1004200030469047206A401C20626D1EF6D570BD94
:1004300070B5044685690078C00707D170BDD4E95E
:10044000012120209047206A401C20626D1EF6D5B5
:1004500070BD70B50C460546012A05D02878800687
:1004600000D5EA69002302E0012305E05B1C93420A
:1004700002D2E05C0028F9D1A869E618C01AA86188
:10048000286A184428622846FFF7BCFF04E0D5E933
:10049000012114F8010B9047B442F8D32846FFF726
:1004A000C7FF70BD2DE9F04106460024106875298C
:1004B000314616A510D0AFF30080002802DA404282
:1004C00013A507E031688A0701D512A502E04907A4
:1004D00004D511A5012401E0AFF3008000210A2218
:1004E00006F1240709E0B0FBF2FCB0FBF2F302FBDB
:1004F0001C00303078541846491C0028F3D123469C
:100500002A463046BDE8F04100F023B90000000063
:100510002D0000002B0000002000000070B50446F4
:100520000D4621461068AFF300802188090502D5E9
:100530000F4A7A4402E00E4A7A440E32002104F156
:10054000240305E000F00F060009965D5E54491C87
:100550000028F7D120780023000704D5702D02D0A1
:1005600009B1022311322046BDE8704000F0F1B815
:100570000AA200002DE9F05F894604464FF0000A08
:10058000DFF874B1FB44C0F820A02046E16888473A
:10059000002874D0252806D0D4E901219047206A8C
:1005A000401C2062F1E700265F462046E16888474C
:1005B0002028054607DB312D05D2781910F8200CCC
:1005C00008B10643F1E7B00701D526F00406C4F8E8
:1005D0001CA00027C4F818A02A2D09D0284601F035
:1005E000F3FD38B304EB8708303DC8F8185019E024
:1005F00059F8041B204604EB87029161E1688847A3
:10060000012F054618D1E069002820DA26F02006DF
:100610001DE0D8F8180000EB800005EB40003038F2
:10062000C8F818002046E1688847054601F0CCFD6F
:100630000028EED1012F0AD02E2D08D12046E168E6
:1006400088477F1C0546022F46F02006C4DBA069C0
:10065000002803DA404246F00106A061F00701D00D
:1006600026F010066C2D0BD0682D09D04C2D39D0FA
:100670006A2D35D0742D35D07A2D33D016E038E080
:10068000E1682F4620468847B842054609D16C2FBD
:1006900026D04FF48060E16806432046884705462F
:1006A00004E06C2F1AD04FF4807006430DB3A5F10F
:1006B0004100192802D8203546F400664A462946EA
:1006C000204626604E46FFF7B9FD80B101280BD0C9
:1006D000F61D26F0070000F1080956E74020E4E780
:1006E0008020D8E70020D6E706F104094DE7284628
:1006F00052E7206ABDE8F09FE0A100004FF0000241
:1007000000B5134694469646203922BFA0E80C5007
:10071000A0E80C50B1F12001BFF4F7AF090728BFE2
:10072000A0E80C5048BF0CC05DF804EB890028BF5E
:1007300040F8042B08BF704748BF20F8022B11F087
:10074000804F18BF00F8012B704770477047704703
:1007500070472DE9F0470D4699469246044600F150
:1007600024080168880604D5E06921F010012160A1
:1007700000E00120A84201DD471B00E00027A1693D
:100780007A1902EB0900081AA0612078C00602D489
:100790002046FFF737FE002608E0D4E901211AF8C9
:1007A00006009047206A401C761C20624E45F4DB10
:1007B0002078C0060AD52046FFF724FE06E0D4E9DB
:1007C000012130209047206A401C2062381EA7F18A
:1007D0000107F4DC07E0D4E9012118F8050090478F
:1007E000206A401C2062281EA5F10105F3DC20468A
:1007F000FFF71EFE2078000602D50220BDE8F08734
:100800000120FBE701694A1C02610878704700B5C6
:100810008FB0CDE901310021059105497944CDE939
:10082000031011466846FFF7A5FE0FB000BD00009B
:10083000E5FFFFFF0A6802F8010B0A60704710B578
:10084000436913B1AFF3008001E0FFF702FE01201E
:1008500010BD127800F124010A7000224A700122B2
:10086000EDE711684FF0FF32E9E70000074B70B584
:100870000D467B44FFF7CBFF0446284600F008F8FE
:1008800010B14FF0FF3070BD204670BDCF19000091
:10089000007B00F080007047754600F02BF8AE46F4
:1008A00005006946534620F00700854618B020B57C
:1008B000FFF7FEFCBDE820404FF000064FF00007B8
:1008C0004FF000084FF0000B21F00701AC46ACE8F8
:1008D000C009ACE8C009ACE8C009ACE8C0098D4665
:1008E000704710B50446AFF300802046BDE81040C5
:1008F000FFF7C4BC00487047C0AC012000BFFEE752
:100900007047000070B504461D460023B5F5804FC2
:1009100013D154F822300C480340D1E9000640EAD4
:1009200006108E6840EA06208E8940EA06408E69ED
:100930003043034344F8223003E06FF0704044F842
:100940002200002070BD00000000F0CF10B503466B
:100950000022086853F8202012480240D1E901041F
:100960002043CC6820430C6920434C6920438C69A8
:100970002043CC6920430C6A20434C6A20438C6A94
:100980002043CC6A2043CC6B20430C6B20430243B2
:100990008868082801D142F04002086843F8202006
:1009A000002010BD8000F0FF30B503460024501C2D
:1009B00053F8204004F04044D1E9000540EA051016
:1009C0008D6840EA05208D8940EA0545088A401E69
:1009D00045EA0055087D801E45EA00608D69284380
:1009E0000443501C43F82040002030BD70B504463D
:1009F000A56D00F085F9064694F83500022808D068
:100A00008020606500BF002084F8340000BF012012
:100A100070BD2068006820F016002168086020681A
:100A2000406920F0800021684861206C08B9A06C02
:100A300028B12068006820F008002168086020685C
:100A4000006820F00100216808600FE000F058F90C
:100A5000801B05280AD92020606500BF002084F88B
:100A6000340000BF032084F83500D1E72068006817
:100A700000F001000028E9D194F85C103F20884084
:100A8000A86000BF002084F8340000BF012084F873
:100A900035000020BCE7014691F83500022803D05C
:100AA0008020486501207047052081F835000868DE
:100AB000006820F001000A6810600020F3E70000E1
:100AC000F8B502460B460025002400200021DEE098
:100AD000012606FA01F51E6806EA0504AC4275D146
:100AE0001E7906F00306012E04D01E7906F00306D7
:100AF000022E13D190684F000326BE40B0434F0032
:100B0000DE68BE4030439060506801268E40B0439E
:100B10001E79C6F300168E40304350601E7906F0F1
:100B20000306032E09D0D0684F000326BE40B04311
:100B30004F009E68BE403043D0601E7906F0030629
:100B4000022E13D1CF0802F1200656F827004E07D7
:100B5000F70E0F26BE40B0434F07FF0E1E69BE4082
:100B60003043CF0802F1200646F8270010684F00F6
:100B70000326BE40B0431E7906F003064F00BE4078
:100B8000304310605E6806F08056B6F1805F7DD11C
:100B900000BF00260096404E366846F480463E4F21
:100BA0003E603E46366806F48046009600BF00BFB1
:100BB0003A4E8F0856F827008E07370F0F26BE4093
:100BC000B043374EB24202D1002624E05EE0354EFB
:100BD000B24201D101261EE0334EB24201D10226BB
:100BE00019E0324EB24201D1032614E0304EB24237
:100BF00001D104260FE02F4EB24201D105260AE0B2
:100C00002D4EB24201D1062605E02C4EB24201D152
:100C1000072600E008268F073F0FBE4030431F4ED7
:100C20008F0846F82700264E3068A0435E6806F419
:100C30008036B6F5803F00D12043214E3060361D0E
:100C40003068A0435E6806F40036B6F5003F00D178
:100C500020431B4E361D3060361D3068A0435E6851
:100C600006F48016B6F5801F00D12043144E0836D6
:100C70003060361D3068A0435E6806F40016B6F595
:100C8000001F00D120430E4E0C363060491C102945
:100C9000FFF41EAFF8BD00004438024008380140A0
:100CA000000002400004024000080240000C024024
:100CB000001002400014024000180240001C0240D4
:100CC000003C0140024613690B400BB1012000E0DB
:100CD0000020704710B5426921EA020302EA0104CC
:100CE00043EA0443836110BD0AB1816101E00B0452
:100CF0008361704701480068000C7047002004E0E1
:100D000001480068704700001C000020034800688C
:100D10000349097808440149086070471C00002015
:100D20002400002010B50A48006840F4007008490B
:100D300008600846006840F480600860052000F004
:100D40007FF80F2000F006F800F02AF8002010BD10
:100D5000003C024070B504460E4800784FF47A71AA
:100D6000B1FBF0F00C490968B1FBF0F5284600F042
:100D700087FC08B1012070BD102C07D2002221464B
:100D8000501E00F01EF80548046001E00120F2E763
:100D90000020F0E7240000200C00002020000020AC
:100DA000704701460846002809DB00F01F030122B6
:100DB0009A4043099B0003F1E023C3F8002100BFE0
:100DC00070472DE9F05F80460D461646002701F07A
:100DD000DFF9074639462A46334601F00700C0F1DD
:100DE000070ABAF1040F02D94FF0040A01E0C0F17A
:100DF000070AD14600F1040ABAF1070F02D24FF0F8
:100E0000000A01E0A0F1030AD4464FF0010A0AFAF1
:100E100009FAAAF1010A0AEA020A0AFA0CFA4FF0E0
:100E2000010B0BFA0CFBABF1010B0BEA030B4AEACB
:100E30000B042146404601F0B3F9BDE8F09F0000E5
:100E400000BF00F00702064B19684FF6FF03194078
:100E5000044B0B4343EA0221014B196000BF70476A
:100E60000CED00E00000FA0570B504460D460CB923
:100E7000012070BD5848006800F00700A84209D260
:100E800055490D700846006800F00700A84201D0DF
:100E90000120EEE7207800F0020002281DD1207822
:100EA00000F00400042805D14C48006840F4E050EC
:100EB0004A490860207800F00800082805D1474812
:100EC000006840F46040454908604448006820F0EC
:100ED000F000A168084341490860207800F0010053
:100EE000A8B36068012807D13C4808380068C0F3FF
:100EF0004040B8B90120BCE76068022802D06068B1
:100F0000032807D1354808380068C0F3406048B965
:100F10000120AEE7314808380068C0F3400008B946
:100F20000120A6E72D48006820F00300616808430F
:100F30002A490860FFF7E4FE064609E0FFF7E0FEF5
:100F4000801B41F28831884202D9032091E707E0F3
:100F50002248006800F00C006168B0EB810FEDD111
:100F60001D48006800F00700A84209D91A490D7011
:100F70000846006800F00700A84201D0012078E789
:100F8000207800F00400042807D11448006820F4F9
:100F9000E050E168084311490860207800F008003B
:100FA000082808D10D48006820F46040216940EA13
:100FB000C1000A49086000F03FF808490968C1F318
:100FC0000311074A515CC84006490860064800689A
:100FD000FFF7C0FE00204CE7003C0240083802400A
:100FE000827700080C0000202000002001480068E3
:100FF000704700000C00002000B5FFF7F7FF044920
:101000000968C1F38221034A515CC84000BD000059
:10101000083802409277000800B5FFF7E7FF04495F
:101020000968C1F34231034A515CC84000BD000069
:1010300008380240927700082DE9F0470024002587
:101040000026A1462548006800F00C0020B10428C5
:1010500005D008283AD105E0DFF8849039E0DFF8C0
:10106000849036E01D48001F006800F03F041B48D4
:10107000001F006800F4800078B11A481749091F62
:101080000968C1F38811A0FB0170014622460023C4
:101090003846FFF720F905460EE011480F49091FB1
:1010A0000968C1F38811A0FB0170014622460023A4
:1010B0003846FFF710F905460848001F0068C0F3DE
:1010C0000140401C4600B5FBF6F902E0DFF8109045
:1010D00000BF00BF4846BDE8F08700000838024066
:1010E0000024F40000127A00F8B504460CB901207F
:1010F000F8BD207800F00100002874D0F94800689D
:1011000000F00C0004280DD0F648006800F00C0038
:10111000082813D1F348001F006800F48000B0F5E0
:10112000800F0BD1EF4808380068C0F3404000281A
:1011300059D06068002856D10120D9E700BF606807
:10114000B0F5803F08D1E7480838006840F48030A7
:10115000E449083908601EE06068B0F5A02F0DD1A1
:10116000E0480838006840F48020DE49083908600B
:101170000846006840F4803008600CE0D948083820
:10118000006820F48030D7490839086008460068B4
:1011900020F48020086000BF606890B1FFF7B0FDC8
:1011A000054606E0FFF7ACFD401B642801D903208B
:1011B0009EE7CC4808380068C0F340400028F1D0D2
:1011C00011E0FFF79DFD054606E0FFF799FD401B86
:1011D000642801D903208BE7C24808380068C0F3AF
:1011E00040400028F1D1207800F0020002285FD1B1
:1011F000BC48006800F00C0058B1BA48006800F024
:101200000C0008281CD1B748001F006800F48000BB
:10121000B0B9B44808380068C0F3400020B1E068B5
:10122000012801D0012063E7AE480838006820F0AB
:10123000F800216940EAC100AA490839086037E08E
:10124000E06800B30120A8490860FFF759FD054692
:1012500006E0FFF755FD401B022801D9032047E7B0
:10126000A04808380068C0F340000028F1D09D482D
:101270000838006820F0F800216940EAC100994967
:101280000839086014E0002097490860FFF738FD2E
:10129000054606E0FFF734FD401B022801D9032074
:1012A00026E7904808380068C0F340000028F1D1D4
:1012B000207800F0080008282CD16069A8B101202E
:1012C0008A490860FFF71CFD054606E0FFF718FD98
:1012D000401B022801D903200AE782486C300068CD
:1012E000C0F340000028F1D014E000207F490860DE
:1012F000FFF706FD054606E0FFF702FD401B02284A
:1013000001D90320F4E677486C300068C0F3400050
:101310000028F1D1207800F00400042870D10027C3
:1013200070483830006800F0805090B900BF00204D
:1013300000906C483830006840F08050694938317E
:1013400008600846006800F08050009000BF00BFB1
:1013500001276748006800F48070B0B964480068ED
:1013600040F4807062490860FFF7CAFC054606E059
:10137000FFF7C6FC401B022801D90320B8E65C48F1
:10138000006800F480700028F2D000BFA068012837
:1013900008D154486830006840F001005149683174
:1013A00008601DE0A06805280DD14E48683000682F
:1013B00040F004004B49683108600846006840F07E
:1013C000010008600CE047486830006820F0010028
:1013D0004449683108600846006820F0040008604D
:1013E00000BFA068A8B1FFF78BFC054609E0FFF736
:1013F00087FC401B41F28831884202D9032077E6FE
:1014000026E0384868300068C0F340000028EED07D
:1014100013E0FFF775FC054608E0FFF771FC401B81
:1014200041F28831884201D9032061E62D486830B5
:101430000068C0F340000028EFD1012F07D12948F0
:101440003830006820F0805026493831086000BFED
:10145000A069002845D02348006800F00C00082847
:101460005DD0A069022845D100201F490866FFF71A
:1014700047FC054606E0FFF743FC401B022801D964
:10148000032035E6174808380068C0F3406000289C
:10149000F1D1D4E907010843616A40EA81110122D0
:1014A000A06AC2EB500041EA00412C20005D41EAF5
:1014B00000600C49091F086001200B490866FFF70E
:1014C0001FFC054606E0FFF71BFC401B022801D964
:1014D00003200DE6034808380068C0F34060002888
:1014E000F1D049E00838024000004742800E4742F0
:1014F00000700040002021490866FFF701FC054606
:1015000006E0FFF7FDFB401B022801D90320EFE5B1
:101510001B480068C0F340600028F2D12CE0A069AD
:10152000012800D1E4E51648001D0668A0690128DD
:1015300020D006F48001E06981421BD106F03F0112
:10154000206A814216D147F6C0703040616AB0EB24
:10155000811F0FD106F440310122A06AC2EB500076
:10156000B1EB004F06D106F070612C20005DB1EBAD
:10157000006F01D00120BBE50020B9E50000474223
:101580000038024070B504460E4615460CB90120DD
:1015900070BD94F8490028B9002084F8480020461E
:1015A00000F01CF804F108012068FFF7CFF931467C
:1015B000A2682068FFF7F8F92946236BD4E90102F5
:1015C000FFF7A0F9A168206850F8210040F0010061
:1015D000A268216841F822000020D9E710B586B042
:1015E000044600BF002000902248006840F001003F
:1015F000204908600846006800F00100009000BF24
:1016000000BF00BF002000901A480838006840F072
:1016100008001849083908600846006800F008000A
:10162000009000BF00BF00BF002000900846006887
:1016300040F0100008600846006800F010000090BC
:1016400000BF00BF4CF20370019002200290012005
:101650000390022004900C20059001A90648FFF792
:101660002FFA4FF68070019001A90448FFF728FA7D
:1016700006B010BD38380240000C02400010024095
:1016800070B504462546681EB0F1807F01D3012065
:101690000FE0681E4FF0E02148610F214FF0FF304E
:1016A00000F07EFD00204FF0E021886107200861F6
:1016B000002070BD10B504460CB9012010BD94F88F
:1016C0003D0028B9002084F83C00204600F025F8B1
:1016D000022084F83D00211D206800F0E5FA012079
:1016E00084F8460000BF84F83E0001213F200155E8
:1016F000402001554120015500BF00BF012084F862
:10170000420043200155442001554520015500BFAA
:10171000012084F83D000020D0E77047014691F891
:101720003D00012801D001207047022081F83D00D2
:101730000868C06840F001000B68D8601A4B086860
:1017400098421BD00868B0F1804F17D0174B08683B
:10175000984213D0164B086898420FD0154B086872
:1017600098420BD0144B0868984207D0134B086876
:10177000984203D0124B086898420CD108688068E0
:1017800000F00702062A0CD00868006840F001004B
:101790000B68186005E00868006840F001000B68FD
:1017A00018600020C0E70000000001400004004075
:1017B00000080040000C00400004014000400140CF
:1017C00000180040704770472DE9F84F0446206824
:1017D00005682068C668206847694FF00009CA4656
:1017E00005F00F09B9F1000F0AD105F0200038B15A
:1017F00006F0200020B1204600F0F7FABDE8F88F8F
:10180000B9F1000F72D007F0010018B906F490701A
:1018100000286BD005F0010030B106F4807018B1DB
:10182000206C40F00100206405F0040030B107F0A6
:10183000010018B1206C40F00200206405F00200A5
:1018400030B107F0010018B1206C40F004002064B2
:1018500005F0080048B106F0200010B907F00100BB
:1018600018B1206C40F008002064206C70B305F0C3
:10187000200028B106F0200010B1204600F0B5FA93
:1018800020684069C0F3801A206C00F0080010B98D
:10189000BAF1000F23D0204600F07CFA206840699E
:1018A00000F04000402816D12068406920F0400038
:1018B00021684861A06B50B15648A16B0865A06BC8
:1018C000FFF7E9F810B1A06B016D88470CE02046E6
:1018D000FFF779FF08E02046FFF775FF04E0204698
:1018E000FFF771FF0020206488E7FFE7206B0128E5
:1018F00079D105F01000002875D006F010000028FE
:1019000071D000BF0020009020680068009020681F
:101910004068009000BF00BF2068406900F04000B0
:10192000402839D1A06B006840681FFA80F8B8F1F0
:10193000000F30D0A08D40452DDDA4F82E80A06B87
:10194000C069B0F5807F1FD02068C06820F4807027
:101950002168C8602068406920F001002168486162
:101960002068406920F0400021684861202084F808
:101970003E00002020632068C06820F0100021682D
:10198000C860A06BFFF732F8A08DE28D801A81B29B
:101990002046FFF717FF31E7A08DE18D401A1FFAAF
:1019A00080F8E08DE8B1B8F1000F1AD02068C06867
:1019B00020F490702168C8602068406920F0010020
:1019C00021684861202084F83E00002020632068C0
:1019D000C06820F010002168C86041462046FFF72B
:1019E000F1FE0BE7FFE705F0800030B106F0800064
:1019F00018B1204600F091FB00E705F0400030B13F
:101A000006F0400018B1204600F0DFF9F6E600BF0E
:101A1000F4E60000811D000810B504460CB9012051
:101A200010BDA06900B100E000BF94F83D0028B9E6
:101A3000002084F83C00204600F028F8242084F898
:101A40003D002068C06820F400502168C86020462E
:101A500000F02AFA2068006920F4904021680861AB
:101A60002068406920F02A00216848612068C06829
:101A700040F400502168C86000202064202084F8D1
:101A80003D0084F83E000020CAE7000010B586B093
:101A900004462E492068884255D100BF00BF00206F
:101AA00000902B48006840F0100029490860084663
:101AB000006800F01000009000BF00BF00BF00BF32
:101AC00000BF0020009022481438006840F0010058
:101AD0001F49143908600846006800F001000090B2
:101AE00000BF00BF00BF00BF00BF0020009008463D
:101AF000006840F0010008600846006800F001003E
:101B0000009000BF00BF00BF481501900220029066
:101B100001200390022004900720059001A90D48A0
:101B2000FEF7CEFF4FF4806001900720059001A9D9
:101B30000848FEF7C5FF2520FFF733F903221146B9
:101B40002520FFF73EF906B010BD0000001001404F
:101B5000443802400000024070B504460D46164667
:101B600094F83E00202816D105B10EB9012070BDB1
:101B700000BF94F83C00012801D10220F7E70120C2
:101B800084F83C0000BF00202063324629462046EE
:101B900000F0A0FAEBE70220E9E7000010B50446E8
:101BA0002049206888423BD11F48008800F400404B
:101BB00088BB1D48008800F4804070B11B48007845
:101BC0000A2803D000201849088024E0164800881D
:101BD00040F40040144908801DE0144800780D28A6
:101BE00006D11148008840F480400F49088012E077
:101BF0000E4800780C490988C1F30D010C4A505475
:101C000009480088401C0849088008460088C72801
:101C100001DD00200880012204490648FFF79CFFEF
:101C200010BD000000100140180000201A00002024
:101C30009801002060020020704700BFFEE700BF4F
:101C4000FEE770477047704710B5FFF75FF810BDAB
:101C50000348006840F470000149086070470000C4
:101C600088ED00E010B50E480068C06800F0010083
:101C700078B10C4908698047002009490968486221
:101C800000BF642006490968C86264210448C16035
:101C900000BF6FF0010002490968086110BD000033
:101CA000540300208000002010B50268294B9842A0
:101CB0000ED0B0F1804F0BD0274B984208D0274B65
:101CC000984205D0264B984202D0264B984203D129
:101CD00022F070024B681A431E4B984220D0B0F19C
:101CE000804F1DD01C4B98421AD01C4B984217D0E5
:101CF0001B4B984214D01B4B984211D01A4B984260
:101D00000ED01A4B98420BD0194B984208D0194B61
:101D1000984205D0184B984202D0184B984203D1F4
:101D200022F44072CB681A4322F080034C6943EAE4
:101D3000040202608B68C3620B688362054B9842A1
:101D400002D0084B984201D10B6903630123436120
:101D500010BD0000000001400004004000080040E9
:101D6000000C0040000401400040014000440140DC
:101D70000048014000180040001C004000200040C6
:101D800070B50546AC6B0020E085E0842046FFF787
:101D90001AFD70BD0168C96821F490710268D160B4
:101DA0000168496921F0010102685161016B012953
:101DB00005D10168C96821F010010268D1602021B5
:101DC00080F83E1000210163704710B5044620687A
:101DD000C06820F040002168C860202084F83D00E1
:101DE0002046FFF729FF002010BD70B5044694F887
:101DF0003E00222856D1A068B0F5805F0CD1206942
:101E000050B90025A66A20684068C0F308003080F9
:101E1000A06A801CA06215E0A56A0026A068B0F543
:101E2000805F03D0A06828B9206918B9206840688D
:101E3000287004E02068406800F07F002870A06AE5
:101E4000401CA062E08D401E80B2E08540BB20684F
:101E5000C06820F020002168C8602068C06820F4B5
:101E600080702168C8602068406920F00100216806
:101E70004861202084F83E00206B01280AD12068A8
:101E8000C06820F010002168C860A18D2046FFF7CF
:101E900099FC02E02046FFF781FE0020206370BD20
:101EA0000020FCE70220FAE72DE9F84F04462068FD
:101EB000006920F44050E168084321680861216905
:101EC000A068084361690843E169084300902068FD
:101ED000C06849F20C618843009908432168C860D2
:101EE0002068406920F44070A16908432168486176
:101EF00076492068884203D075492068884203D11A
:101F0000FFF78AF8814602E0FFF776F88146E0693C
:101F1000B0F5004F6CD102206168A0FB0150034670
:101F20001920A9FB007001462A463846FEF7D3F96E
:101F30006421B0FBF1F04FEA001A02206168A0FBB7
:101F400001510B461920A9FB00712A463846FEF7BD
:101F5000C2F9834602206168A0FB015003461920A4
:101F6000A9FB00712A463846FEF7B5F96421B0FB9B
:101F7000F1F000EBC00101EB0010ABEB800032216F
:101F800001EBC0006421B0FBF1F000F0F8000AEBB7
:101F9000400A02206168A0FB015003461920A9FBFA
:101FA000007001462A463846FEF795F9834602201E
:101FB0006168A0FB015003461920A9FB00712A4665
:101FC0003846FEF788F96421B0FBF1F000EBC00160
:101FD00001EB0010ABEB8000322101EBC00064216B
:101FE000B0FBF1F000F007005044216888606AE01F
:101FF00004206168A0FB015003461920A9FB007072
:1020000001462A463846FEF766F982460420616892
:10201000A0FB015003461920A9FB007001462A4687
:102020003846FEF758F96421B0FBF1F000EBC0012F
:1020300001EB0010AAEB8000322101EB00106421BB
:10204000B0FBF1F000F0F00A04206168A0FB017021
:1020500003461920A9FB00513A462846FEF73BF9F2
:102060006421B0FBF1F00AEB001A04206168A0FBC8
:1020700001510B461920A9FB00712A463846FEF78C
:102080002AF9834604206168A0FB01500346192009
:10209000A9FB007001462A463846FEF71CF9642168
:1020A000B0FBF1F000EBC00101EB0010ABEB8000E6
:1020B000322101EB00106421B0FBF1F000F00F00C1
:1020C000504421688860BDE8F88F0000001001408E
:1020D0000014014010B5034699629A85DA85002004
:1020E0001864222083F83E0000BF002083F83C00E3
:1020F00000BF1868C06840F480701C68E060186811
:10210000406940F001001C6860611868C06840F0D8
:1021100020001C68E060002010BD014691F83D00E1
:10212000212828D18868B0F5805F0BD1086948B9AB
:102130000A6A1088C0F308000B685860086A801C9F
:10214000086205E00B6A581C086218780B68586032
:10215000C88C401E80B2C88458B90868C06820F096
:1021600080000B68D8600868C06840F040000B68C9
:10217000D860002070470220FCE7000010B502483C
:10218000FFF722FB10BD00006002002000BFFEE749
:1021900002480068C0F30220704700000CED00E028
:1021A00010B5002804DB0A07130E054A135406E095
:1021B0000A07140E034A00F00F031B1FD45410BD6E
:1021C00000E400E018ED00E030380A2801D20120D8
:1021D00070470020704700BF704700000149086049
:1021E000704700001000002010B504464FF47A71CB
:1021F00004FB01F000F002F810BD000070B50346CA
:1022000000224FF0E02675690D4E366803FB06F498
:102210004FF0E026B16910E04FF0E026B069884247
:102220000BD0884202D20E1A324402E02E1A0E441B
:1022300032440146A24200D300E0EDE700BF70BD8A
:102240001000002000BF054A126802F04002002A78
:10225000F9D0C2B2014B5A60704700000010014033
:1022600000B587B000BF00BF00200190384800686B
:1022700040F01000364908600846006800F0100081
:10228000019000BF00BF00BF00BF00BF0020019051
:102290000846006840F0100008600846006800F03A
:1022A0001000019000BF00BF00BF00BF00BF0020B2
:1022B00001900846006840F0100008600846006879
:1022C00000F01000019000BF00BF00BF00BF00BFC2
:1022D000002001900846006840F0010008600846B0
:1022E000006800F00100019000BF00BF00BF102097
:1022F000029000200390012004900220059002A982
:102300001448FEF7DDFB0820029000200390012016
:1023100004900220059002A90E48FEF7D1FB04208C
:10232000029000200390012004900220059002A951
:102330000848FEF7C5FB0120029000200390022010
:102340000490059002A90448FEF7BAFB07B000BD4F
:1023500030380240001002400000024070B50446D0
:10236000002514B101202B4908702A480078002864
:1023700034D010212848FEF7A5FC78B10821264862
:10238000FEF7A0FC50B104212348FEF79BFC28B1C6
:1023900001212248FEF796FC01281FD10A20FFF7F1
:1023A00023FF00201B49087010211B48FEF78AFC00
:1023B00000B9012508211848FEF784FC00B9022560
:1023C00004211548FEF77EFC00B9032501211348BE
:1023D000FEF778FC01281BD1042519E010210E48D6
:1023E000FEF770FC012813D108210B48FEF76AFCA8
:1023F00001280DD104210848FEF764FC012807D10B
:1024000001210648FEF75EFC10B901200149087061
:10241000284670BD3000002000100240000002403D
:1024200070B50446002609480588408845430021C8
:10243000084603F017F903F0C3FA00BF02E00448AE
:102440000480761CAE42FAD370BD0000F402002076
:102450008000006C10B5044658488471002C58D197
:10246000F020564908804FF4A070488008468088C4
:1024700045F21051884210D14FF430504F49088135
:102480004FF4285048814FF42C5088814FF4F0705D
:1024900008804FF4487048801AE04848808841F628
:1024A000631188420DD12C20444908812B2048819A
:1024B0002A2088814FF4F07008804FF448704880DB
:1024C00006E02C203D4908812A2048812B20888164
:1024D0003A48808845F21031884205D037488088D4
:1024E00047F29671884206D14FF4A07033490880B4
:1024F0004FF4F07048803148808849F606018842E0
:1025000058D14FF4F0702D4908804FF4487048803E
:1025100050E04FF4A07029490880F0204880084618
:10252000808845F21051884210D14FF43050234931
:1025300008814FF4285048814FF42C5088814FF483
:10254000487008804FF4F070488020E01B48808875
:1025500041F66311884205D01848808849F6060183
:1025600088420DD12C20154908812A2048812B2032
:1025700088814FF4487008804FF4F070488006E07E
:102580002C200E4908812A2048812B2088810B4865
:10259000808845F21031884205D00848808847F28B
:1025A0009671884206D14FF4F070044908804FF4C8
:1025B000A0704880002002F037FF10BDF402002018
:1025C00070B505460E4614463146284603F04AF8D3
:1025D00003F0F6F901490C8070BD00008000006C2A
:1025E00010B5CF2003F0E0F9002003F0D1F9C120AD
:1025F00003F0CEF9302003F0CBF9ED2003F0D4F94D
:10260000642003F0C5F9032003F0C2F9122003F09F
:10261000BFF9812003F0BCF9E82003F0C5F985205B
:1026200003F0B6F9102003F0B3F97A2003F0B0F903
:10263000CB2003F0B9F9392003F0AAF92C2003F0DC
:10264000A7F9002003F0A4F9342003F0A1F9022037
:1026500003F09EF9F72003F0A7F9202003F098F982
:10266000EA2003F0A1F9002003F092F9002003F022
:102670008FF9C02003F098F91B2003F089F9C120DD
:1026800003F092F9012003F083F9C52003F08CF9DF
:10269000302003F07DF9302003F07AF9C72003F0F1
:1026A00083F9B72003F074F9362003F07DF9482050
:1026B00003F06EF93A2003F077F9552003F068F93A
:1026C000B12003F071F9002003F062F91A2003F041
:1026D0005FF9B62003F068F90A2003F059F9A22047
:1026E00003F056F9F22003F05FF9002003F050F9EF
:1026F000262003F059F9012003F04AF9E02003F005
:1027000053F90F2003F044F92A2003F041F928205F
:1027100003F03EF9082003F03BF90E2003F038F9EE
:10272000082003F035F9542003F032F9A92003F012
:102730002FF9432003F02CF90A2003F029F90F2088
:1027400003F026F9002003F023F9002003F020F91C
:10275000002003F01DF9002003F01AF9E12003F036
:1027600023F9002003F014F9152003F011F91720C4
:1027700003F00EF9072003F00BF9112003F008F91C
:10278000062003F005F92B2003F002F9562003F090
:10279000FFF83C2003F0FCF8052003F0F9F81020C6
:1027A00003F0F6F80F2003F0F3F83F2003F0F0F801
:1027B0003F2003F0EDF80F2003F0EAF82B2003F0A0
:1027C000F3F8002003F0E4F8002003F0E1F8012022
:1027D00003F0DEF83F2003F0DBF82A2003F0E4F8F2
:1027E000002003F0D5F8002003F0D2F8002003F019
:1027F000CFF8EF2003F0CCF8112003F0D5F87820C3
:10280000FFF7F2FC292003F0CFF810BD10B5FF2030
:1028100003F0CAF8FF2003F0BBF8982003F0B8F8E3
:10282000062003F0B5F8BC2003F0BEF8012003F049
:10283000AFF80F2003F0ACF8612003F0A9F8FF20F7
:1028400003F0A6F8012003F0A3F8012003F0A0F89C
:102850000B2003F09DF8102003F09AF8372003F0C6
:1028600097F8632003F094F8FF2003F091F8FF201D
:1028700003F08EF8012003F08BF8012003F088F8B4
:10288000002003F085F8002003F082F8FF2003F019
:102890007FF8522003F07CF8012003F079F8002043
:1028A00003F076F8402003F073F8BD2003F07CF8C5
:1028B000012003F06DF8232003F06AF8452003F0AF
:1028C00067F8672003F064F8012003F061F8232023
:1028D00003F05EF8452003F05BF8672003F058F83A
:1028E000BE2003F061F8002003F052F8012003F04D
:1028F0004FF8AB2003F04CF8602003F049F8222099
:1029000003F046F8222003F043F8222003F040F8B9
:10291000222003F03DF8222003F03AF8C72003F00C
:1029200043F8362003F034F8ED2003F03DF87F2023
:1029300003F02EF80F2003F02BF8C02003F034F83A
:102940000F2003F025F80B2003F022F80A2003F0F3
:102950001FF8FC2003F028F8082003F019F8DF2006
:1029600003F022F8002003F013F8002003F010F821
:10297000002003F00DF8002003F00AF8002003F017
:1029800007F8202003F004F8F32003F00DF874207A
:1029900002F0FEFFB42003F007F8002002F0F8FF79
:1029A000002002F0F5FF002002F0F2FFF72002F015
:1029B000FBFF822002F0ECFFB12002F0F5FF0020C7
:1029C00002F0E6FF132002F0E3FF132002F0E0FF25
:1029D000F22002F0E9FF802002F0DAFF042002F08A
:1029E000D7FF402002F0D4FF282002F0D1FFC12001
:1029F00002F0DAFF172002F0CBFF882002F0C8FFB8
:102A0000882002F0C5FF202002F0C2FFE02002F083
:102A1000CBFF002002F0BCFF0A2002F0B9FF122019
:102A200002F0B6FF102002F0B3FF0E2002F0B0FF5C
:102A3000202002F0ADFFCC2002F0AAFF072002F018
:102A4000A7FF062002F0A4FF0B2002F0A1FF0E203A
:102A500002F09EFF0F2002F09BFF0D2002F098FF76
:102A6000152002F095FF102002F092FF002002F0E6
:102A70008FFFE12002F098FF002002F089FF0B2079
:102A800002F086FF132002F083FF0D2002F080FF8A
:102A90000E2002F07DFF1B2002F07AFF712002F071
:102AA00077FF062002F074FF062002F071FF0A2073
:102AB00002F06EFF0F2002F06BFF0E2002F068FFA5
:102AC0000F2002F065FF152002F062FF0C2002F0DB
:102AD0005FFF002002F05CFF2A2002F065FF00206B
:102AE00002F056FF002002F053FF012002F050FFD9
:102AF000DF2002F04DFF2B2002F056FF002002F0F5
:102B000047FF002002F044FF032002F041FF1F2096
:102B100002F03EFF3A2002F047FF552002F038FF56
:102B2000362002F041FF002002F032FF112002F0B7
:102B30003BFF7820FFF758FB292002F035FF1420D7
:102B4000FFF752FB2C2002F02FFF10BD10B5ED2037
:102B500002F02AFF012002F01BFFFE2002F018FF06
:102B6000EE2002F021FFDE2002F012FF212002F011
:102B70000FFFF12002F018FF012002F009FFDF2013
:102B800002F012FF102002F003FFC42002F00CFF3D
:102B90008F2002F0FDFEC62002F006FF002002F0AA
:102BA000F7FEE22002F0F4FEE22002F0F1FEE22065
:102BB00002F0EEFEBF2002F0F7FEAA2002F0E8FECF
:102BC000B02002F0F1FE0D2002F0E2FE002002F043
:102BD000DFFE0D2002F0DCFE002002F0D9FE112005
:102BE00002F0D6FE002002F0D3FE192002F0D0FE43
:102BF000002002F0CDFE212002F0CAFE002002F0EB
:102C0000C7FE2D2002F0C4FE002002F0C1FE3D20D0
:102C100002F0BEFE002002F0BBFE5D2002F0B8FE16
:102C2000002002F0B5FE5D2002F0B2FE002002F0AE
:102C3000AFFEB12002F0B8FE802002F0A9FE002015
:102C400002F0A6FE8B2002F0A3FE002002F0A0FE00
:102C5000962002F09DFE002002F09AFEB22002F0C3
:102C6000A3FE002002F094FE002002F091FE02205C
:102C700002F08EFE002002F08BFE032002F088FEA0
:102C8000002002F085FEB32002F08EFE002002F04C
:102C90007FFE002002F07CFE002002F079FE002082
:102CA00002F076FE002002F073FE002002F070FEBB
:102CB000002002F06DFE002002F06AFE002002F00B
:102CC00067FE002002F064FE002002F061FE00209A
:102CD00002F05EFE002002F05BFE002002F058FED3
:102CE000002002F055FE002002F052FE002002F00B
:102CF0004FFE002002F04CFE002002F049FE0020B2
:102D000002F046FE002002F043FE002002F040FEEA
:102D1000002002F03DFE002002F03AFEB42002F056
:102D200043FE8B2002F034FE002002F031FE96209C
:102D300002F02EFE002002F02BFEA12002F028FE61
:102D4000002002F025FEB52002F02EFE022002F047
:102D50001FFE002002F01CFE032002F019FE0020DE
:102D600002F016FE042002F013FE002002F010FE16
:102D7000B62002F019FE002002F00AFE002002F048
:102D800007FEB72002F010FE002002F001FE002036
:102D900002F0FEFD3F2002F0FBFD002002F0F8FDF6
:102DA0005E2002F0F5FD002002F0F2FD642002F04A
:102DB000EFFD002002F0ECFD8C2002F0E9FD002088
:102DC00002F0E6FDAC2002F0E3FD002002F0E0FDA1
:102DD000DC2002F0DDFD002002F0DAFD702002F0C0
:102DE000D7FD002002F0D4FD902002F0D1FD00209C
:102DF00002F0CEFDEB2002F0CBFD002002F0C8FD7A
:102E0000DC2002F0C5FD002002F0C2FDB82002F077
:102E1000CBFD002002F0BCFD002002F0B9FD002037
:102E200002F0B6FD002002F0B3FD002002F0B0FD7C
:102E3000002002F0ADFD002002F0AAFD002002F00B
:102E4000A7FDBA2002F0B0FD242002F0A1FD002071
:102E500002F09EFD002002F09BFD002002F098FD94
:102E6000C12002F0A1FD202002F092FD002002F01E
:102E70008FFD542002F08CFD002002F089FDFF2020
:102E800002F086FD002002F083FDC22002F08CFDDE
:102E90000A2002F07DFD002002F07AFD042002F0FD
:102EA00077FD002002F074FDC32002F07DFD3C2080
:102EB00002F06EFD002002F06BFD3A2002F068FD8A
:102EC000002002F065FD392002F062FD002002F0D2
:102ED0005FFD372002F05CFD002002F059FD3C2030
:102EE00002F056FD002002F053FD362002F050FDA6
:102EF000002002F04DFD322002F04AFD002002F0D9
:102F000047FD2F2002F044FD002002F041FD2C205F
:102F100002F03EFD002002F03BFD292002F038FDCA
:102F2000002002F035FD262002F032FD002002F0E4
:102F30002FFD242002F02CFD002002F029FD24208A
:102F400002F026FD002002F023FD232002F020FDE8
:102F5000002002F01DFD3C2002F01AFD002002F0CE
:102F600017FD362002F014FD002002F011FD322082
:102F700002F00EFD002002F00BFD2F2002F008FDF4
:102F8000002002F005FD2C2002F002FD002002F0DE
:102F9000FFFC292002F0FCFC002002F0F9FC2620B6
:102FA00002F0F6FC002002F0F3FC242002F0F0FC1A
:102FB000002002F0EDFC242002F0EAFC002002F0E8
:102FC000E7FC232002F0E4FC002002F0E1FCC42036
:102FD00002F0EAFC622002F0DBFC002002F0D8FCE8
:102FE000052002F0D5FC002002F0D2FC842002F083
:102FF000CFFC002002F0CCFCF02002F0C9FC002045
:1030000002F0C6FC182002F0C3FC002002F0C0FC55
:10301000A42002F0BDFC002002F0BAFC182002F04F
:10302000B7FC002002F0B4FC502002F0B1FC0020FC
:1030300002F0AEFC0C2002F0ABFC002002F0A8FC79
:10304000172002F0A5FC002002F0A2FC952002F05F
:103050009FFC002002F09CFCF32002F099FC002071
:1030600002F096FCE62002F093FC002002F090FCB7
:10307000C52002F099FC322002F08AFC002002F008
:1030800087FC442002F084FC002002F081FC6520D3
:1030900002F07EFC002002F07BFC762002F078FC3F
:1030A000002002F075FC882002F072FC002002F083
:1030B0006FFCC62002F078FC202002F069FC0020A2
:1030C00002F066FC172002F063FC002002F060FCB6
:1030D000012002F05DFC002002F05AFCC72002F043
:1030E00063FC002002F054FC002002F051FC0020A0
:1030F00002F04EFC002002F04BFCC82002F054FC11
:10310000002002F045FC002002F042FC002002F00A
:103110003FFC002002F03CFCC92002F045FC0020EE
:1031200002F036FC002002F033FC002002F030FCFC
:10313000002002F02DFC002002F02AFC002002F00A
:1031400027FC002002F024FC002002F021FC0020DB
:1031500002F01EFC002002F01BFC002002F018FC14
:10316000002002F015FC002002F012FC002002F00A
:103170000FFC002002F00CFC002002F009FCE02013
:1031800002F012FC162002F003FC002002F000FC0A
:103190001C2002F0FDFB002002F0FAFB212002F0CF
:1031A000F7FB002002F0F4FB362002F0F1FB0020D8
:1031B00002F0EEFB462002F0EBFB002002F0E8FB01
:1031C000522002F0E5FB002002F0E2FB642002F056
:1031D000DFFB002002F0DCFB7A2002F0D9FB0020AC
:1031E00002F0D6FB8B2002F0D3FB002002F0D0FBD4
:1031F000992002F0CDFB002002F0CAFBA82002F0CB
:10320000C7FB002002F0C4FBB92002F0C1FB002084
:1032100002F0BEFBC42002F0BBFB002002F0B8FBB2
:10322000CA2002F0B5FB002002F0B2FBD22002F06F
:10323000AFFB002002F0ACFBD92002F0A9FB00207C
:1032400002F0A6FBE02002F0A3FB002002F0A0FBAE
:10325000F32002F09DFB002002F09AFBE12002F037
:10326000A3FB162002F094FB002002F091FB1C202F
:1032700002F08EFB002002F08BFB222002F088FB84
:10328000002002F085FB362002F082FB002002F0D5
:103290007FFB452002F07CFB002002F079FB5220EE
:1032A00002F076FB002002F073FB642002F070FB5A
:1032B000002002F06DFB7A2002F06AFB002002F091
:1032C00067FB8B2002F064FB002002F061FB992079
:1032D00002F05EFB002002F05BFBA82002F058FB2E
:1032E000002002F055FBB92002F052FB002002F052
:1032F0004FFBC42002F04CFB002002F049FBCA2027
:1033000002F046FB002002F043FBD22002F040FB1B
:10331000002002F03DFBD82002F03AFB002002F032
:1033200037FBE02002F034FB002002F031FBF320F9
:1033300002F02EFB002002F02BFBE22002F034FB17
:10334000052002F025FB002002F022FB0B2002F0FA
:103350001FFB002002F01CFB1B2002F019FB0020C9
:1033600002F016FB342002F013FB002002F010FBE9
:10337000442002F00DFB002002F00AFB4F2002F077
:1033800007FB002002F004FB612002F001FB00209B
:1033900002F0FEFA792002F0FBFA002002F0F8FABF
:1033A000882002F0F5FA002002F0F2FA972002F0ED
:1033B000EFFA002002F0ECFAA62002F0E9FA002071
:1033C00002F0E6FAB72002F0E3FA002002F0E0FA99
:1033D000C22002F0DDFA002002F0DAFAC72002F083
:1033E000D7FA002002F0D4FAD12002F0D1FA00205E
:1033F00002F0CEFAD62002F0CBFA002002F0C8FA92
:10340000DD2002F0C5FA002002F0C2FAF32002F03B
:10341000BFFA002002F0BCFAE32002F0C5FA052052
:1034200002F0B6FA002002F0B3FA0A2002F0B0FA75
:10343000002002F0ADFA1C2002F0AAFA002002F0EF
:10344000A7FA332002F0A4FA002002F0A1FA4420E7
:1034500002F09EFA002002F09BFA502002F098FA47
:10346000002002F095FA622002F092FA002002F0A9
:103470008FFA782002F08CFA002002F089FA882076
:1034800002F086FA002002F083FA972002F080FA18
:10349000002002F07DFAA62002F07AFA002002F065
:1034A00077FAB72002F074FA002002F071FAC22015
:1034B00002F06EFA002002F06BFAC72002F068FA00
:1034C000002002F065FAD12002F062FA002002F03A
:1034D0005FFAD52002F05CFA002002F059FADD20F4
:1034E00002F056FA002002F053FAF32002F050FAEC
:1034F000002002F04DFAE42002F056FA012002F01A
:1035000047FA002002F044FA012002F041FA0020BC
:1035100002F03EFA022002F03BFA002002F038FAF4
:103520002A2002F035FA002002F032FA3C2002F0A4
:103530002FFA002002F02CFA4B2002F029FA00208A
:1035400002F026FA5D2002F023FA002002F020FAB1
:10355000742002F01DFA002002F01AFA842002F012
:1035600017FA002002F014FA932002F011FA00205A
:1035700002F00EFAA22002F00BFA002002F008FA84
:10358000B32002F005FA002002F002FABE2002F099
:10359000FFF9002002F0FCF9C42002F0F9F9002044
:1035A00002F0F6F9CD2002F0F3F9002002F0F0F974
:1035B000D32002F0EDF9002002F0EAF9DD2002F05C
:1035C000E7F9002002F0E4F9F32002F0E1F900202D
:1035D00002F0DEF9E52002F0E7F9002002F0D8F968
:1035E000002002F0D5F9002002F0D2F9002002F00C
:1035F000CFF9022002F0CCF9002002F0C9F929200D
:1036000002F0C6F9002002F0C3F93C2002F0C0F934
:10361000002002F0BDF94B2002F0BAF9002002F0C0
:10362000B7F95D2002F0B4F9002002F0B1F974207E
:1036300002F0AEF9002002F0ABF9842002F0A8F904
:10364000002002F0A5F9932002F0A2F9002002F078
:103650009FF9A22002F09CF9002002F099F9B32012
:1036600002F096F9002002F093F9BE2002F090F9E2
:10367000002002F08DF9C42002F08AF9002002F047
:1036800087F9CD2002F084F9002002F081F9D320DF
:1036900002F07EF9002002F07BF9DC2002F078F9DC
:1036A000002002F075F9F32002F072F9002002F018
:1036B0006FF9E62002F078F9112002F069F9002094
:1036C00002F066F9342002F063F9002002F060F99C
:1036D000562002F05DF9002002F05AF9762002F03F
:1036E00057F9002002F054F9772002F051F9002038
:1036F00002F04EF9662002F04BF9002002F048F982
:10370000882002F045F9002002F042F9992002F0E9
:103710003FF9002002F03CF9BB2002F039F900200B
:1037200002F036F9992002F033F9002002F030F966
:10373000662002F02DF9002002F02AF9552002F04F
:1037400027F9002002F024F9552002F021F9002089
:1037500002F01EF9452002F01BF9002002F018F9D2
:10376000432002F015F9002002F012F9442002F083
:103770000FF9002002F00CF9E72002F015F93220D1
:1037800002F006F9002002F003F9552002F000F9DA
:10379000002002F0FDF8762002F0FAF8002002F096
:1037A000F7F8662002F0F4F8002002F0F1F8672044
:1037B00002F0EEF8002002F0EBF8672002F0E8F8E3
:1037C000002002F0E5F8872002F0E2F8002002F085
:1037D000DFF8992002F0DCF8002002F0D9F8BB20D5
:1037E00002F0D6F8002002F0D3F8992002F0D0F8C9
:1037F000002002F0CDF8772002F0CAF8002002F095
:10380000C7F8442002F0C4F8002002F0C1F85620A6
:1038100002F0BEF8002002F0BBF8232002F0B8F856
:10382000002002F0B5F8332002F0B2F8002002F0D8
:10383000AFF8452002F0ACF8002002F0A9F8E8202B
:1038400002F0B2F8002002F0A3F8002002F0A0F885
:10385000992002F09DF8002002F09AF8872002F0EB
:1038600097F8002002F094F8882002F091F80020E8
:1038700002F08EF8772002F08BF8002002F088F832
:10388000662002F085F8002002F082F8882002F01D
:103890007FF8002002F07CF8AA2002F079F80020DE
:1038A00002F076F8BB2002F073F8002002F070F806
:1038B000992002F06DF8002002F06AF8662002F00C
:1038C00067F8002002F064F8552002F061F800204B
:1038D00002F05EF8552002F05BF8002002F058F884
:1038E000442002F055F8002002F052F8442002F083
:1038F0004FF8002002F04CF8552002F049F8002063
:1039000002F046F8E92002F04FF8AA2002F040F851
:10391000002002F03DF8002002F03AF8002002F00A
:1039200037F8002002F040F8AA2002F031F8CF204A
:1039300002F03AF8002002F02BF8002002F028F8FC
:10394000002002F025F8002002F022F8002002F00A
:103950001FF8002002F01CF8002002F019F80020E7
:1039600002F016F8002002F013F8002002F010F820
:10397000002002F00DF8002002F00AF8002002F00A
:1039800007F8002002F004F8002002F001F80020FF
:1039900001F0FEFF002001F0FBFFF02002F004F830
:1039A000002001F0F5FF502001F0F2FF002001F0AF
:1039B000EFFF002001F0ECFF002001F0E9FFF32011
:1039C00001F0F2FF002001F0E3FFF92001F0ECFF2D
:1039D000062001F0DDFF102001F0DAFF292001F0C0
:1039E000D7FF002001F0D4FF3A2001F0DDFF552081
:1039F00001F0CEFF112001F0D7FF6420FEF7F4FBA9
:103A0000292001F0D1FF352001F0CEFF002001F088
:103A1000BFFF512001F0C8FFFF2001F0B9FF532084
:103A200001F0C2FF2C2001F0B3FF552001F0BCFFD4
:103A3000822001F0ADFF2C2001F0B6FF10BD10B5C3
:103A400055214FF4704001F0C5FFAA214FF201004B
:103A500001F0C0FF52214FF2020001F0BBFF08212C
:103A60004FF2030001F0B6FF01214FF2040001F014
:103A7000B1FF34214FF4364001F0ACFF34214BF25A
:103A8000016001F0A7FF34214BF2026001F0A2FFB8
:103A90000D214FF4304001F09DFF0D214BF201004C
:103AA00001F098FF0D214BF2020001F093FF242159
:103AB0004FF4374001F08EFF24214BF2017001F0EA
:103AC00089FF24214BF2027001F084FF0D214FF495
:103AD000314001F07FFF0D214BF2011001F07AFF20
:103AE0000D214BF2021001F075FF24214FF43840F4
:103AF00001F070FF24214BF6010001F06BFF24213F
:103B00004BF6020001F066FF00214FF4324001F055
:103B100061FF24214FF4394001F05CFF24214BF672
:103B2000011001F057FF24214BF6021001F052FF63
:103B300005214FF4334001F04DFF05214BF20130D8
:103B400001F048FF05214BF2023001F043FF342120
:103B50004FF43A4001F03EFF34214BF6012001F0D2
:103B600039FF34214BF6022001F034FF0B214FF4D2
:103B7000354001F02FFF0B214BF2015001F02AFFDD
:103B80000B214BF2025001F025FF00214FF43C4085
:103B900001F020FFA3214BF6014001F01BFF0021A3
:103BA0004BF6024001F016FF00214FF43D4001F0BA
:103BB00011FFA3214BF6015001F00CFF00214BF641
:103BC000025001F007FF00214FF43E4001F002FFD8
:103BD00037214BF6016001F0FDFE00214FF451400A
:103BE00001F0F8FE37214DF2011001F0F3FE002143
:103BF0004DF2021001F0EEFE53214DF2031001F0E0
:103C0000E9FE00214DF2041001F0E4FE79214DF2AD
:103C1000051001F0DFFE00214DF2061001F0DAFE82
:103C200097214DF2071001F0D5FE00214DF208104A
:103C300001F0D0FEB1214DF2091001F0CBFE0021C0
:103C40004DF20A1001F0C6FED5214DF20B1001F025
:103C5000C1FE00214DF20C1001F0BCFEF4214DF22A
:103C60000D1001F0B7FE01214DF20E1001F0B2FE71
:103C700023214DF20F1001F0ADFE01214DF2101085
:103C800001F0A8FE49214DF2111001F0A3FE01211F
:103C90004DF2121001F09EFE87214DF2131001F03B
:103CA00099FE01214DF2141001F094FEB6214DF25F
:103CB000151001F08FFE02214DF2161001F08AFE60
:103CC00000214DF2171001F085FE02214DF218106F
:103CD00001F080FE3B214DF2191001F07BFE022124
:103CE0004DF21A1001F076FE3D214DF21B1001F04D
:103CF00071FE02214DF21C1001F06CFE75214DF297
:103D00001D1001F067FE02214DF21E1001F062FE4F
:103D1000B1214DF21F1001F05DFE02214DF2201085
:103D200001F058FED5214DF2211001F053FE032180
:103D30004DF2221001F04EFE09214DF2231001F048
:103D400049FE03214DF2241001F044FE28214DF2DA
:103D5000251001F03FFE03214DF2261001F03AFE3E
:103D600052214DF2271001F035FE03214DF22810AB
:103D700001F030FE6B214DF2291001F02BFE0321E2
:103D80004DF22A1001F026FE8D214DF22B1001F08C
:103D900021FE03214DF22C1001F01CFEA2214DF258
:103DA0002D1001F017FE03214DF22E1001F012FE2E
:103DB000BB214DF22F1001F00DFE03214DF230100A
:103DC00001F008FEC1214DF2311001F003FE032184
:103DD0004DF2321001F0FEFDC1214DF2331001F021
:103DE000F9FD00214FF4524001F0F4FD37214DF26E
:103DF000012001F0EFFD00214DF2022001F0EAFD6B
:103E000053214DF2032001F0E5FD00214DF2042085
:103E100001F0E0FD79214DF2052001F0DBFD0021EC
:103E20004DF2062001F0D6FD97214DF2072001F05A
:103E3000D1FD00214DF2082001F0CCFDB1214DF261
:103E4000092001F0C7FD00214DF20A2001F0C2FD5A
:103E5000D5214DF20B2001F0BDFD00214DF20C20CB
:103E600001F0B8FDF4214DF20D2001F0B3FD012168
:103E70004DF20E2001F0AEFD23214DF20F2001F096
:103E8000A9FD01214DF2102001F0A4FD49214DF2C0
:103E9000112001F09FFD01214DF2122001F09AFD49
:103EA00087214DF2132001F095FD01214DF21420E0
:103EB00001F090FDB6214DF2152001F08BFD02219D
:103EC0004DF2162001F086FD00214DF2172001F081
:103ED00081FD02214DF2182001F07CFD3B214DF2C5
:103EE000192001F077FD02214DF21A2001F072FD38
:103EF0003D214DF21B2001F06DFD02214DF21C20F1
:103F000001F068FD75214DF21D2001F063FD0221D5
:103F10004DF21E2001F05EFDB1214DF21F2001F097
:103F200059FD02214DF2202001F054FDD5214DF222
:103F3000212001F04FFD03214DF2222001F04AFD26
:103F400009214DF2232001F045FD03214DF22420EB
:103F500001F040FD28214DF2252001F03BFD032119
:103F60004DF2262001F036FD52214DF2272001F0BE
:103F700031FD03214DF2282001F02CFD6B214DF283
:103F8000292001F027FD03214DF22A2001F022FD16
:103F90008D214DF22B2001F01DFD03214DF22C202F
:103FA00001F018FDA2214DF22D2001F013FD032197
:103FB0004DF22E2001F00EFDBB214DF22F2001F01D
:103FC00009FD03214DF2302001F004FDC1214DF225
:103FD000312001F0FFFC03214DF2322001F0FAFC08
:103FE000C1214DF2332001F0F5FC00214FF4534084
:103FF00001F0F0FC37214DF2013001F0EBFC002123
:104000004DF2023001F0E6FC53214DF2033001F095
:10401000E1FC00214DF2043001F0DCFC79214DF28D
:10402000053001F0D7FC00214DF2063001F0D2FC42
:1040300097214DF2073001F0CDFC00214DF2083000
:1040400001F0C8FCB1214DF2093001F0C3FC0021A0
:104050004DF20A3001F0BEFCD5214DF20B3001F0DB
:10406000B9FC00214DF20C3001F0B4FCF4214DF20A
:104070000D3001F0AFFC01214DF20E3001F0AAFC31
:1040800023214DF20F3001F0A5FC01214DF210303B
:1040900001F0A0FC49214DF2113001F09BFC0121FF
:1040A0004DF2123001F096FC87214DF2133001F0F1
:1040B00091FC01214DF2143001F08CFCB6214DF23F
:1040C000153001F087FC02214DF2163001F082FC20
:1040D00000214DF2173001F07DFC02214DF2183025
:1040E00001F078FC3B214DF2193001F073FC022104
:1040F0004DF21A3001F06EFC3D214DF21B3001F003
:1041000069FC02214DF21C3001F064FC75214DF276
:104110001D3001F05FFC02214DF21E3001F05AFC0F
:10412000B1214DF21F3001F055FC02214DF220303B
:1041300001F050FCD5214DF2213001F04BFC032160
:104140004DF2223001F046FC09214DF2233001F0FE
:1041500041FC03214DF2243001F03CFC28214DF2BA
:10416000253001F037FC03214DF2263001F032FCFE
:1041700052214DF2273001F02DFC03214DF2283061
:1041800001F028FC6B214DF2293001F023FC0321C2
:104190004DF22A3001F01EFC8D214DF22B3001F042
:1041A00019FC03214DF22C3001F014FCA2214DF238
:1041B0002D3001F00FFC03214DF22E3001F00AFCEE
:1041C000BB214DF22F3001F005FC03214DF23030C0
:1041D00001F000FCC1214DF2313001F0FBFB032165
:1041E0004DF2323001F0F6FBC1214DF2333001F0D7
:1041F000F1FB00214FF4544001F0ECFB37214DF26C
:10420000014001F0E7FB00214DF2024001F0E2FB2A
:1042100053214DF2034001F0DDFB00214DF204403B
:1042200001F0D8FB79214DF2054001F0D3FB0021CC
:104230004DF2064001F0CEFB97214DF2074001F010
:10424000C9FB00214DF2084001F0C4FBB1214DF241
:10425000094001F0BFFB00214DF20A4001F0BAFB1A
:10426000D5214DF20B4001F0B5FB00214DF20C4081
:1042700001F0B0FBF4214DF20D4001F0ABFB012148
:104280004DF20E4001F0A6FB23214DF20F4001F04C
:10429000A1FB01214DF2104001F09CFB49214DF2A0
:1042A000114001F097FB01214DF2124001F092FB09
:1042B00087214DF2134001F08DFB01214DF2144096
:1042C00001F088FBB6214DF2154001F083FB02217D
:1042D0004DF2164001F07EFB00214DF2174001F037
:1042E00079FB02214DF2184001F074FB3B214DF2A5
:1042F000194001F06FFB02214DF21A4001F06AFBF8
:104300003D214DF21B4001F065FB02214DF21C40A6
:1043100001F060FB75214DF21D4001F05BFB0221B5
:104320004DF21E4001F056FBB1214DF21F4001F04D
:1043300051FB02214DF2204001F04CFBD5214DF202
:10434000214001F047FB03214DF2224001F042FBE6
:1043500009214DF2234001F03DFB03214DF22440A1
:1043600001F038FB28214DF2254001F033FB0321F9
:104370004DF2264001F02EFB52214DF2274001F074
:1043800029FB03214DF2284001F024FB6B214DF263
:10439000294001F01FFB03214DF22A4001F01AFBD6
:1043A0008D214DF22B4001F015FB03214DF22C40E5
:1043B00001F010FBA2214DF22D4001F00BFB032177
:1043C0004DF22E4001F006FBBB214DF22F4001F0D3
:1043D00001FB03214DF2304001F0FCFAC1214DF206
:1043E000314001F0F7FA03214DF2324001F0F2FAC8
:1043F000C1214DF2334001F0EDFA00214FF4554058
:1044000001F0E8FA37214DF2015001F0E3FA002102
:104410004DF2025001F0DEFA53214DF2035001F04B
:10442000D9FA00214DF2045001F0D4FA79214DF26D
:10443000055001F0CFFA00214DF2065001F0CAFA02
:1044400097214DF2075001F0C5FA00214DF20850B6
:1044500001F0C0FAB1214DF2095001F0BBFA002180
:104460004DF20A5001F0B6FAD5214DF20B5001F091
:10447000B1FA00214DF20C5001F0ACFAF4214DF2EA
:104480000D5001F0A7FA01214DF20E5001F0A2FAF1
:1044900023214DF20F5001F09DFA01214DF21050F1
:1044A00001F098FA49214DF2115001F093FA0121DF
:1044B0004DF2125001F08EFA87214DF2135001F0A7
:1044C00089FA01214DF2145001F084FAB6214DF21F
:1044D000155001F07FFA02214DF2165001F07AFAE0
:1044E00000214DF2175001F075FA02214DF21850DB
:1044F00001F070FA3B214DF2195001F06BFA0221E4
:104500004DF21A5001F066FA3D214DF21B5001F0B8
:1045100061FA02214DF21C5001F05CFA75214DF256
:104520001D5001F057FA02214DF21E5001F052FACF
:10453000B1214DF21F5001F04DFA02214DF22050F1
:1045400001F048FAD5214DF2215001F043FA032140
:104550004DF2225001F03EFA09214DF2235001F0B4
:1045600039FA03214DF2245001F034FA28214DF29A
:10457000255001F02FFA03214DF2265001F02AFABE
:1045800052214DF2275001F025FA03214DF2285017
:1045900001F020FA6B214DF2295001F01BFA0321A2
:1045A0004DF22A5001F016FA8D214DF22B5001F0F8
:1045B00011FA03214DF22C5001F00CFAA2214DF218
:1045C0002D5001F007FA03214DF22E5001F002FAAE
:1045D000BB214DF22F5001F0FDF903214DF2305077
:1045E00001F0F8F9C1214DF2315001F0F3F9032146
:1045F0004DF2325001F0EEF9C1214DF2335001F08D
:10460000E9F900214FF4564001F0E4F937214DF269
:10461000016001F0DFF900214DF2026001F0DAF9EA
:1046200053214DF2036001F0D5F900214DF20460F1
:1046300001F0D0F979214DF2056001F0CBF90021AC
:104640004DF2066001F0C6F997214DF2076001F0C6
:10465000C1F900214DF2086001F0BCF9B1214DF221
:10466000096001F0B7F900214DF20A6001F0B2F9DA
:10467000D5214DF20B6001F0ADF900214DF20C6037
:1046800001F0A8F9F4214DF20D6001F0A3F9012128
:104690004DF20E6001F09EF923214DF20F6001F002
:1046A00099F901214DF2106001F094F949214DF280
:1046B000116001F08FF901214DF2126001F08AF9C9
:1046C00087214DF2136001F085F901214DF214604C
:1046D00001F080F9B6214DF2156001F07BF902215D
:1046E0004DF2166001F076F900214DF2176001F0ED
:1046F00071F902214DF2186001F06CF93B214DF285
:10470000196001F067F902214DF21A6001F062F9B7
:104710003D214DF21B6001F05DF902214DF21C605C
:1047200001F058F975214DF21D6001F053F9022195
:104730004DF21E6001F04EF9B1214DF21F6001F003
:1047400049F902214DF2206001F044F9D5214DF2E2
:10475000216001F03FF903214DF2226001F03AF9A6
:1047600009214DF2236001F035F903214DF2246057
:1047700001F030F928214DF2256001F02BF90321D9
:104780004DF2266001F026F952214DF2276001F02A
:1047900021F903214DF2286001F01CF96B214DF243
:1047A000296001F017F903214DF22A6001F012F996
:1047B0008D214DF22B6001F00DF903214DF22C609B
:1047C00001F008F9A2214DF22D6001F003F9032157
:1047D0004DF22E6001F0FEF8BB214DF22F6001F08A
:1047E000F9F803214DF2306001F0F4F8C1214DF2E7
:1047F000316001F0EFF803214DF2326001F0EAF888
:10480000C1214DF2336001F0E5F855214FF47040BD
:1048100001F0E0F8AA214FF2010001F0DBF852218B
:104820004FF2020001F0D6F808214FF2030001F028
:10483000D1F800214FF2040001F0CCF800214FF430
:10484000304001F0C7F805214BF2010001F0C2F839
:1048500002214BF2020001F0BDF805214BF20300EA
:1048600001F0B8F802214BF2040001F0B3F808217E
:104870004FF4364001F0AEF850214FF4354001F0CE
:10488000A9F805214FF4364001F0A4F800214FF4B7
:10489000374001F09FF800214BF2017001F09AF8C7
:1048A00001214FF4384001F095F805214BF6010045
:1048B00001F090F805214BF6020001F08BF805217C
:1048C0004BF6030001F086F802214FF43C4001F062
:1048D00081F800214BF6014001F07CF800214BF6F5
:1048E000024001F077F803214FF44C4001F072F8D8
:1048F00000214CF6014001F06DF800214CF6024019
:1049000001F068F801214FF43D4001F063F8842183
:104910004BF6015001F05EF807214BF6025001F012
:1049200059F831214BF6035001F054F800214BF6B1
:10493000045001F04FF801214FF43A4001F04AF8D9
:10494000AA214FF47F4001F045F855214FF6017040
:1049500001F040F825214FF6027001F03BF80121EB
:104960004FF6037001F036F840214FF4585001F033
:1049700031F800214FF4545001F02CF805214FF488
:10498000685001F027F84FF4885001F00DF87820B6
:10499000FDF72AFC4FF4245001F006F80A20FDF739
:1049A00023FC4FF4305000F0FFFF10BD10B5E220A3
:1049B00000F0FAFF1D2000F0EBFF022000F0E8FFFE
:1049C000042000F0E5FF6420FDF718FCE02000F073
:1049D000EBFF012000F0DCFF0A20FDF705FCE020E2
:1049E00000F0E2FF032000F0D3FF0C20FDF7FCFBFA
:1049F000012000F0D9FF0A20FDF7F6FBE62000F0C9
:104A0000D3FF2F2000F0C4FFFF2000F0C1FFFF20E4
:104A100000F0BEFFB02000F0C7FF202000F0B8FF7C
:104A2000002000F0B5FF032000F0B2FF40F21F307D
:104A300000F0AEFF012000F0ABFF40F2DF1000F00D
:104A4000A7FF002000F0A4FFB42000F0ADFF042079
:104A500000F09EFF40F21F4000F09AFF002000F09F
:104A600097FF2E2000F094FF002000F091FF00201F
:104A700000F08EFF002000F08BFF002000F088FF88
:104A8000B62000F091FF022000F082FF4FF4037087
:104A900000F07EFF002000F07BFF172000F078FF81
:104AA000152000F075FF002000F072FF002000F0DC
:104AB0006FFFF02000F078FF032000F069FF29204D
:104AC00000F072FFD02000F06FFF002000F060FFC8
:104AD000BE2000F069FF052000F05AFFFE2000F024
:104AE00057FF012000F054FF002000F051FF00208C
:104AF00000F04EFF002000F04BFFB82000F054FF04
:104B0000032000F045FF012000F042FFBA2000F032
:104B10004BFF012000F03CFF10BD10B5112000F04C
:104B200043FF7820FDF760FB362000F03DFF0020BA
:104B300000F02EFF3A2000F037FF052000F028FF9C
:104B4000B22000F031FF0C2000F022FF0C2000F01A
:104B50001FFF002000F01CFF332000F019FF33205E
:104B600000F016FFB72000F01FFF352000F010FF07
:104B7000BB2000F019FF322000F00AFFC02000F037
:104B800013FF0C2000F004FFC22000F00DFF0120F5
:104B900000F0FEFEC32000F007FF102000F0F8FE3A
:104BA000C42000F001FF202000F0F2FEC62000F03B
:104BB000FBFE0F2000F0ECFED02000F0F5FEA4205C
:104BC00000F0E6FEA12000F0E3FEE02000F0ECFEA5
:104BD000D02000F0DDFE002000F0DAFE022000F020
:104BE000D7FE072000F0D4FE0A2000F0D1FE2820D6
:104BF00000F0CEFE322000F0CBFE442000F0C8FED4
:104C0000422000F0C5FE062000F0C2FE0E2000F09B
:104C1000BFFE122000F0BCFE142000F0B9FE1720E9
:104C200000F0B6FEE12000F0BFFED02000F0B0FEA4
:104C3000002000F0ADFE022000F0AAFE072000F0E8
:104C4000A7FE0A2000F0A4FE282000F0A1FE3120DB
:104C500000F09EFE542000F09BFE472000F098FEDE
:104C60000E2000F095FE1C2000F092FE172000F0B0
:104C70008FFE1B2000F08CFE1E2000F089FE2A20F3
:104C800000F092FE002000F083FE002000F080FE85
:104C9000002000F07DFEEF2000F07AFE2B2000F0D7
:104CA00083FE002000F074FE002000F071FE012061
:104CB00000F06EFE3F2000F06BFE292000F074FE35
:104CC00010BD10B5112000F06FFE7820FDF78CFAB2
:104CD000362000F069FE482000F05AFE3A2000F02D
:104CE00063FE552000F054FEF02000F05DFEC3206E
:104CF00000F04EFEF02000F057FE962000F048FE37
:104D0000B42000F051FE012000F042FEB62000F079
:104D10004BFE0A2000F03CFEA22000F039FEB72036
:104D200000F042FEC62000F033FEB92000F03CFE49
:104D3000022000F02DFEE02000F02AFEC02000F04E
:104D400033FE802000F024FE162000F021FEC1205A
:104D500000F02AFE192000F01BFEC22000F024FE05
:104D6000A72000F015FEC52000F01EFE162000F062
:104D70000FFEE82000F018FE402000F009FE8A2017
:104D800000F006FE002000F003FE002000F000FE10
:104D9000292000F0FDFD192000F0FAFDA52000F00B
:104DA000F7FD332000F0F4FDE02000F0FDFDF020E1
:104DB00000F0EEFD072000F0EBFD0D2000F0E8FD17
:104DC000042000F0E5FD052000F0E2FD142000F0D5
:104DD000DFFD362000F0DCFD542000F0D9FD4C2032
:104DE00000F0D6FD382000F0D3FD132000F0D0FDF8
:104DF000142000F0CDFD2E2000F0CAFD342000F07C
:104E0000C7FDE12000F0D0FDF02000F0C1FD102032
:104E100000F0BEFD142000F0BBFD0E2000F0B8FD38
:104E20000C2000F0B5FD082000F0B2FD352000F0A8
:104E3000AFFD442000F0ACFD4C2000F0A9FD262081
:104E400000F0A6FD102000F0A3FD122000F0A0FD50
:104E50002C2000F09DFD322000F09AFDF02000F0A3
:104E6000A3FD3C2000F094FDF02000F09DFD6920A2
:104E700000F08EFD7820FDF7B7F9212000F094FDB9
:104E8000292000F091FD10BD2DE9F04F05460E469A
:104E900017469846DDF824A04FF0000B781B401C05
:104EA0001FFA80FB344613E02146284600F0DAFB67
:104EB00000F086FD4FF0000906E00749A1F800A0C8
:104EC00009F101001FFA80F9D945F6DB601C84B2B4
:104ED0004445E9DDBDE8F08F8000006C00B595B079
:104EE00000BF00BF00200190F848006840F040007B
:104EF000F64908600846006800F04000019000BFD5
:104F000000BF00BF00BF00BF00200190084600683E
:104F100040F0080008600846006800F008000190B2
:104F200000BF00BF00BF00BF00BF002001900846C7
:104F3000006840F0080008600846006800F00800BB
:104F4000019000BF00BF00BF00BF00BF0020019064
:104F50000846006840F0200008600846006800F03D
:104F60002000019000BF00BF00BF00BF00BF0020B5
:104F700001900846006840F002000860084600689A
:104F800000F00200019000BF00BF00BF8814109025
:104F90000220119001201290022013900C201490F6
:104FA00010A9CB48FBF78CFD2020109010A9C94810
:104FB000FBF786FD1020109010A9C648FBF780FD76
:104FC0004FF48050109010A9C348FBF779FD4FF4BF
:104FD000004010900120119010A9C048FBF770FD0F
:104FE0004FF02040BE490860BE48486006208860F7
:104FF0000021BB48C1601021416100218161C16174
:1050000041624FF4805181620021C1624FF48041BE
:1050100001630021416381630F20099000200A9001
:105020003C200B9000200F9009200290002003905C
:10503000092004900020089002AA09A9A848FCF7BA
:10504000A1FA3220FDF7D0F8D32000F0ADFC00F03B
:10505000DFF9A549888000F0DBF9A349888000F0DA
:10506000D7F9A1498880084680884FF6FF7101EA88
:1050700000209D49888000F0CBF99B49898808432E
:10508000994988800846808849F2413188427CD01D
:10509000042000F089FC00F0BBF99349888000F0FF
:1050A000B7F99149888000F0B3F98F4988800846A4
:1050B00080884FF6FF7101EA00208B49888000F05C
:1050C000A7F98949898808438749888008468088E4
:1050D00048F25251884203D147F289708249888050
:1050E0008148808847F289718842D0D0D42000F06E
:1050F0005BFC00F08DF97C49888000F089F97A49E1
:10510000888000F085F978498880084680884FF6C5
:10511000FF7101EA00207449888000F079F9724932
:1051200089880843704988800846808845F2103194
:105130008842ACD0D32000F037FC00F069F96A490E
:10514000888000F065F96849888000F061F9664957
:105150008880084680884FF6FF7101EA0020624986
:10516000888000F055F96049898808435E49888045
:105170000846808847F29671884288D055214FF4BE
:10518000704000F027FCAA2100E07EE04FF2010011
:1051900000F020FC52214FF2020000F01BFC08211D
:1051A0004FF2030000F016FC01214FF2040000F062
:1051B00011FC4FF4454000F0F7FB00F029F94A4993
:1051C0008880084680884FF6FF7101EA0020464932
:1051D00088804CF2015000F0E7FB00F019F94249D9
:1051E00089880843404988800520FCF7FDFF3E4838
:1051F000808845F21051884247D0D32000F0D4FB7C
:1052000000F006F93849888000F002F936498880B4
:1052100000F0FEF834498880084680884FF6FF7118
:1052200001EA00203049888000F0F2F82E49898890
:1052300008432D4988800846808849F6060188423F
:1052400023D0A12000F0B0FB00F0E2F826498880CE
:1052500000F0DEF824498880084680884FF6FF7108
:1052600001EA00202049888000F0D2F81E49898890
:1052700008431D4988800846808845F2617188424C
:1052800003D141F66310184988801748818817A018
:10529000FBF798F81448808847F28971884202D158
:1052A000FFF73BFC4EE01048808849F241318842CC
:1052B00002D1FDF795F945E00B48808845F21031A1
:1052C000884219D1FDF742FC3CE000003038024032
:1052D00000180240000C024000140240000402408A
:1052E000A4020020040100A0F40200204C4344204A
:1052F00049443A25780D0A003F48808847F2967164
:10530000884202D1FFF7DDFC1CE03B48808845F273
:105310001051884202D1FEF792FB13E03648808894
:1053200049F60601884202D1FDF770FA0AE03248D8
:10533000808841F66311884204D1FFF737FB64206F
:1053400000F0F6FA2C48808847F2897188420AD129
:1053500003200290049029490B6B8A68486802A9CF
:10536000FBF7D0FA38E02448808849F606018842E5
:105370000BD02148808849F24131884205D01E482F
:10538000808845F2105188420AD102200290049090
:105390001A490B6B8A68486802A9FBF7B3FA1BE04D
:1053A0001548808845F2103188420BD01248808819
:1053B00047F29671884205D00F48808841F6631104
:1053C000884209D10120029004900C490B6B8A6835
:1053D000486802A9FBF796FA0020FDF73BF800BFEA
:1053E0000122D1030648FBF77FFC00BF4FF6FF7098
:1053F000FDF716F815B000BDF4020020A40200204D
:105400000004024000BF011EA0F10100FBD1704763
:1054100008B50220FFF7F6FF024800880090BDF8AB
:10542000000008BD8000006CF0B505460024002790
:105430008B488079012805D18948808841F663111D
:10544000884208D186488079F0B98548808841F63D
:105450006311884218D1082D15D2DFE805F0040643
:10546000080A0C0E101206250DE007250BE0042596
:1054700009E0052507E0012505E0002503E00325F7
:1054800001E0022500BF00BF082D1CD2DFE805F0B7
:105490000406090C0F12151800BF14E044F0800434
:1054A00011E044F040040EE044F0C0040BE044F08E
:1054B000200408E044F0600405E044F0A00402E0A9
:1054C00044F0E00400BF00BF36276548808845F2FD
:1054D0001051884200D13F026148808849F2413131
:1054E00088420BD05E48808847F28971884205D097
:1054F0005B48808847F29671884201D144F00804E5
:105500002146384600F066FA5548808841F6631116
:1055100088421DD004F0200068B1514800885049ED
:105520004988884214DA4E48068840884C490880E9
:10553000084646800CE04A48008849494988884224
:1055400006DD474806884088454908800846468069
:105550004348808845F21051884252D140494889D9
:1055600000F022FA002000F013FA3D494989491C55
:1055700088B200F019FA002000F00AFA3849498987
:10558000891C88B200F010FA35490988491EC1F318
:105590000F2000F0FDF932494989C91C88B200F09A
:1055A00003FA2F490978491EC8B200F0F1F92C49D5
:1055B000888900F0F9F9002000F0EAF92849898982
:1055C000491C88B200F0F0F9002000F0E1F924490C
:1055D0008989891C88B200F0E7F921494988491E68
:1055E000C1F30F2000F0D4F91D498989C91C88B284
:1055F00000F0DAF91A498978491EC8B200F0C8F9F2
:105600002DE01749488900F0CFF9002000F0C0F9DB
:10561000002000F0BDF912490988491EC1F30F208E
:1056200000F0B6F90E490978491EC8B200F0B0F989
:105630000B49888900F0B8F9002000F0A9F9002092
:1056400000F0A6F906494988491EC1F30F2000F071
:105650009FF903498978491EC8B200F099F9F0BD55
:10566000F402002010B502460C464548808841F6F9
:105670006311884247D142488079A8B940480088E0
:10568000401E801A82B23E49488900F08DF9002000
:1056900000F07EF9002000F07BF9101200F078F99C
:1056A000D0B200F075F916E03549488900F07CF970
:1056B000101200F06DF9D0B200F06AF93049098893
:1056C000491EC1F30F2000F063F92D490978491EE6
:1056D000C8B200F05DF92A49888900F065F9201206
:1056E00000F056F9E0B200F053F925494988491E07
:1056F000C1F30F2000F04CF921498978491EC8B246
:1057000000F046F93AE01E48808845F21051884280
:1057100020D11B49488900F047F9101200F038F9F0
:1057200017494989491C88B200F03EF9D0B200F00F
:105730002FF91349888900F037F9201200F028F971
:105740000F498989491C88B200F02EF9E0B200F0B7
:105750001FF913E00A49488900F026F9101200F0F9
:1057600017F9D0B200F014F90549888900F01CF946
:10577000201200F00DF9E0B200F00AF910BD0000AF
:10578000F40200202DE9FC4F80460E4615461C46CB
:10579000B3460020019000902046E31704EB5373BA
:1057A000DB1021464FEAE47C04EB5C7C4FEAEC0C16
:1057B000A4EBCC0CBCF1000F02D04FF0010C01E0C7
:1057C0004FF0000C6344224604EBD27C4FEA6C0C91
:1057D00003FB0CF3DBB20193A5F12000C5B20C2C46
:1057E00006D0102C0BD0182C0ED0202C18D112E083
:1057F00005EB45002D4901EB8000009012E02C489C
:1058000000EB051000900DE005EBC500294901EB08
:105810008000009006E0284800EB8510009001E031
:10582000BDE8FC8F00BF00273AE0009810F8079011
:105830004FF0000A2EE009F0800028B131464046C2
:105840000C9AFCF7BDFE07E00B9828B91B483146BF
:1058500002684046FCF7B4FE4FEA49604FEA10691F
:10586000701C86B216484088B04200DCD8E7A6EB30
:105870000B00A0420AD15E4608F101001FFA80F831
:105880000F480088404500DCCAE706E00AF1010045
:1058900000F0FF0ABAF1080FCDDB00BF781CC7B2D9
:1058A00001988742C1DB00BFBAE700009A77000881
:1058B0000E7C0008FE8100085A8F00082C00002092
:1058C000F40200202DE9FC4F04460D46904699460F
:1058D000DDE90C7A0B9E04F0FF0B08EB04001FFAC5
:1058E00080F809EB05001FFA80F917E0444502DB58
:1058F0005C46A81985B24D4500DB15E00020CDE9D6
:10590000000A3A78334629462046FFF73BFF3046E7
:1059100006EBD07104EB61018CB27F1C38787E28D5
:1059200002DC38782028E1DA00BFBDE8FC8F0000F7
:1059300070B52DED048B0446BE2000F035F805202F
:1059400000F026F8204601F006FE41EC190B9FED11
:105950000E0B53EC102B01F011FE41EC180B01F073
:10596000CDFD85B2284600F013F8012000F010F8B4
:10597000FF2000F00DF8002000F00AF8002000F0F1
:1059800007F8BDEC048B70BD66666666666604400B
:1059900001B5BDF800000090BDF800000149088085
:1059A00008BD00008000006C01B5BDF8000000904B
:1059B000BDF800000149088008BD00007E00006CB1
:1059C000024800890249088070470000F402002064
:1059D0007E00006C034A10804FF0D842A2F880107D
:1059E000704700007E00006C00B587B000BF00BFAC
:1059F000002001902048006840F020001E49086007
:105A00000846006800F02000019000BF00BF00BF02
:105A100000BF00BF002001900846006840F0200051
:105A200008600846006800F02000019000BF00BF39
:105A300000BF4815029001200390049002200590B9
:105A400002A90E48FBF73CF84FF48060029002A9CF
:105A50000A48FBF735F800BF012251020748FBF75F
:105A600043F900BF00BF012291020448FBF73CF953
:105A700000BF07B000BD00003038024000140240F3
:105A800088B00025A8460024A1460026FBF74AF965
:105A90000723022208214FF4A87000F0BFFBA820C2
:105AA000FCF79CFB4FF4E13000F026FCB048416865
:105AB00054208847FFF798FFFFF710FAFCF7D0FB58
:105AC00000F0B4FA002000F0F1F9022000F0EEF945
:105AD000012000F0EBF94FF47840A6A11022134604
