:020000040800F2
:100000004006002049020008D72B0008CF2B00082B
:10001000D32B000895160008ED3000080000000002
:10002000000000000000000000000000DB2B0008C2
:100030009916000800000000D92B0008DD2B0008ED
:100040006D0200086D0200086D0200086D020008D4
:100050006D0200086D0200086D0200086D020008C4
:100060006D0200086D0200086D0200086D020008B4
:100070006D0200086D0200086D0200086D020008A4
:100080006D0200086D0200086D0200086D02000894
:100090006D0200086D0200086D0200086D02000884
:1000A0006D0200086D0200086D0200086D02000874
:1000B0006D0200086D0200086D0200086D02000864
:1000C0006D0200086D0200086D0200086D02000854
:1000D0006D020008DD3000086D0200086D020008A6
:1000E0006D0200086D0200086D0200086D02000834
:1000F0006D0200086D0200086D0200086D02000824
:100100006D0200086D0200086D0200086D02000813
:100110006D0200086D020008F92B00086D0200084E
:100120006D0200086D0200086D0200086D020008F3
:100130006D0200086D0200086D0200086D020008E3
:100140006D0200086D0200086D0200086D020008D3
:100150006D0200086D0200086D0200086D020008C3
:100160006D0200086D0200086D0200086D020008B3
:100170006D0200086D0200086D020008000000001A
:100180006D0200086D02000800F002F800F04CF863
:100190000AA090E8000C82448344AAF10107DA45E2
:1001A00001D100F041F8AFF2090EBAE80F0013F0E8
:1001B000010F18BFFB1A43F00103184764AB00009E
:1001C00084AB0000103A24BF78C878C1FAD852072F
:1001D00024BF30C830C144BF04680C6070470000C1
:1001E0000023002400250026103A28BF78C1FBD840
:1001F000520728BF30C148BF0B607047662907F01F
:100200004781782900F0DE80002070471FB507F095
:100210003AF900F06DFC04000020002106F06EFFAA
:10022000E0601FBD10B510BD00F06AFD1146FFF77C
:10023000EDFF06F03BFD00F088FD03B4FFF7F2FF91
:1002400003BC03F0D2F900000C48016841F47001CE
:1002500001600B4880470B480047FEE7FEE7FEE7DA
:10026000FEE7FEE7FEE7FEE7FEE7FEE7FEE700004B
:1002700005480649044A064B7047000088ED00E037
:10028000E52B0008890100084002002040060020FC
:1002900040020020704753EA020C00F069802DE90B
:1002A000F04B4FF00006002B1FBFB3FA83F503FAA3
:1002B00005F424FA05F65E4012BF1643B2FA82F541
:1002C00002FA05F4C5F120051EBF22FA05FC44EA36
:1002D0000C04203556EA044C4FEA144418BF641C41
:1002E0004FF000084FF00009904271EB030C39D336
:1002F000002919BFB1FA81F701FA07F6B0FA80F7C1
:1003000000FA07F6C7F120071EBF20FA07FC46EAED
:100310000C062037B6FBF4FCA7EB0507103F07F0EF
:100320001F0BCBF120060CFA0BFB2CFA06F644BF90
:10033000B3460026202FA4BF5E464FF0000B5BEAB9
:10034000060C08BF4FF0010B19EB0B09ABFB027C4D
:1003500048EB0608C01B06FB02CC0BFB03CC71EB81
:100360000C01C1E70B46024641464846BDE8F08B0A
:1003700013B54FF000004FF00001AFF30080BDE86F
:100380001C4070470FB4044910B503AA029800F04E
:100390009DFB10BC5DF814FB0C0000200FB41CB5D5
:1003A000074B06AA7B4469460090059800F075FB50
:1003B0000020694600F084FB1CBC5DF814FB0000C3
:1003C0001907000070B504460D4621461068AFF3CA
:1003D00000802188090502D50F4A7A4402E00E4ABE
:1003E0007A440E32002104F1240305E000F00F06E8
:1003F0000009965D5E54491C0028F7D1207800233F
:10040000000704D5702D02D009B102231132204615
:10041000BDE8704000F0D4B84EA000002DE9F05FB8
:10042000894604464FF0000ADFF824B1FB44C0F8C7
:1004300020A02046E168884700287DD0252806D0E6
:10044000D4E901219047206A401C2062F1E7002591
:100450005F462046E16888472028064607DB312EA4
:1004600005D2B81910F8200C08B10543F1E7A80728
:1004700001D525F00405C4F81CA00027C4F818A075
:100480002A2E09D0304603F0A9F838B304EB8708C8
:10049000303EC8F8186019E059F8041B204604EBF8
:1004A00087029161E1688847012F064618D1E0690B
:1004B000002820DA25F020051DE0D8F8180000EB10
:1004C000800006EB40003038C8F818002046E1688C
:1004D0008847064603F082F80028EED1012F0AD0A3
:1004E0002E2E08D12046E16888477F1C0646022F41
:1004F00045F02005C4DBA069002803DA404245F03E
:100500000105A061E80701D025F01005A6B1A6F10C
:100510004100192802D8203645F400654A46314684
:10052000204625604D46FFF769FE60B1012807D0DF
:10053000ED1D25F0070000E007E000F1080978E76D
:1005400005F1040975E730467AE7206ABDE8F09FB7
:1005500024A000004FF0000200B5134694469646D2
:10056000203922BFA0E80C50A0E80C50B1F12001C6
:10057000BFF4F7AF090728BFA0E80C5048BF0CC074
:100580005DF804EB890028BF40F8042B08BF7047D2
:1005900048BF20F8022B11F0804F18BF00F8012B44
:1005A0007047704770477047704710B500F0A4FA65
:1005B000006810BD10B5044600F09EFA046010BD3E
:1005C0002DE9F0470D4699469246044600F124086D
:1005D0000168880604D5E06921F01001216000E07F
:1005E0000120A84201DD471B00E00027A1697A191C
:1005F00002EB0900081AA0612078C00602D4204648
:10060000AFF30080002608E0D4E901211AF80600C3
:100610009047206A401C761C20624E45F4DB20780F
:10062000C0060AD52046AFF3008006E0D4E90121D8
:1006300030209047206A401C2062381EA7F1010735
:10064000F4DC07E0D4E9012118F805009047206A9E
:10065000401C2062281EA5F10105F3DC2046AFF303
:1006600000802078000602D50220BDE8F087012036
:10067000FBE770472DE9FF4F0C461E464FF0FF3752
:100680008BB0D2E90001DDF860800A908A46C1F3A0
:100690000A5505B93D46002108464FF00000BAF161
:1006A000000F00F4400005DA00EB80004FF4400139
:1006B00001EA50004FEA9059B9F1010F00DDB94647
:1006C0000A9850EA4A000ED044F61050A5F2FF35C1
:1006D00045432F14B8F1000F1ED07542291E1EDDB0
:1006E000C9F100021CE0B8F1010F4FF0000001D089
:1006F000302103E0F24305E02154401CB042FBDB13
:1007000030460022002121540B99C1F80880C1E92C
:1007100000200FB0BDE8F08FBD1B6D1CDEE74A4620
:1007200000DA694206A800F071FA06AB93E8070008
:1007300003AB83E8070050460A9900F0E3FB8DE81D
:100740000700A0F500501F3800900398002D0ADD27
:1007500042F21F014A460844002303A90390684659
:1007600000F04CFE09E0A0F500504A461F38002377
:1007700003A90390684600F056FE8DE807000004C8
:10078000000C03D04FF0FF30410800E01046B8F1F4
:10079000000F03D00022009215461EE0751E05D4FE
:1007A00000F0AEF9303262556D1EF9D5B346012224
:1007B000084302D000227F1C04E02078302801D1B9
:1007C00000227F1E002A099784D01DE0112D07DA30
:1007D00000F096F9303262556D1C50EA0102F5D1F5
:1007E000084302D00098C8B10EE00021681E05E061
:1007F000235C625C63542254401E491C8142F7DB37
:10080000AB46A81B401E0990002004F80B000B9873
:10081000099AC0F80880C0E9002B7AE711264FF04A
:10082000000857E72DE9F04F88460446D21D22F014
:10083000070191B0D1E90001CDE90A0102F058FCAD
:1008400002460B98C00F01D02D2007E020688107D9
:1008500001D52B2002E0202101EAC000032A0990E3
:1008600001D0072A05DB03464146204600F08EF9F9
:100870000BE12078800601D5E06900E00620B8F1A0
:10088000650F814606D0B8F1660F18D0B8F1670F32
:1008900070D131E00020B9F1110F009001DB11237C
:1008A00001E009F101030AAA01A90CA8FFF7E2FE81
:1008B000DDE90C70002609F10105834647E00120BF
:1008C0004B4600904FF000470AAA01A90CA8FFF779
:1008D000D1FEDDE90DB00C995D46002610B909F195
:1008E00001000D18B9EB050003D4C0F1FF3609F182
:1008F0000105A5EB09002BE0B9F1010F01DA4FF07A
:1009000001090020B9F1110F0090484601DD1123C3
:1009100000E003460AAA01A90CA8FFF7ABFEDDE937
:100920000C704D4600268346207800070AD4AB455C
:1009300000DA5D4601A8012D04DD411911F8011C02
:10094000302907D04F4502DA17F1040F04DA0120ED
:1009500082460FE06D1EEEE7002F02DCED1B3E44E9
:1009600003E0781CA84200DD7D1CB81B00F1010AE1
:100970004FF000472078000703D4AA4501DB4FF071
:10098000FF3A0021B7F1004F0DF143088DF84310F5
:1009900024D002202B23002F01DA7F422D230A21AD
:1009A000021EA0F1010000DC5FB197FBF1FC97FB98
:1009B000F1F201FB1C7C17460CF1300C08F801CD5C
:1009C000EEE7A8F1010003702188090501D5452152
:1009D00000E06521A0F1010800F8011C09980FA9A9
:1009E000A1EB0807FF1D00B10120411901EBEA70DE
:1009F000A1693844081A401EA0612078C00602D4BC
:100A00002046AFF30080099828B1D4E9012190472E
:100A1000206A401C20622078C00622D52046AFF311
:100A200000801EE0002E04DBB34502DD01A8805DDE
:100A300000E03020D4E901219047206A401C206268
:100A4000761CAAF101005FEA000A0AD100F050F812
:100A5000C0680168405CD4E901219047206A401CCD
:100A60002062281EA5F10105DCDC07E0D4E90121A4
:100A700018F8010B9047206A401C2062381EA7F12D
:100A80000107F3DC2046AFF30080032011B041E6FC
:100A900001694A1C02610878704700B58FB0CDE942
:100AA00001310021059105497944CDE90310114632
:100AB0006846FFF7B3FC0FB000BD0000E5FFFFFF85
:100AC0000A6802F8010B0A6070470000074B70B516
:100AD0000D467B44FFF7E1FF0446284600F008F985
:100AE00010B14FF0FF3070BD204670BDAF2B00003D
:100AF00000487047FC01002000487047DC010020DE
:100B000030B5B0F10A024FEA900E71F100034EEADF
:100B1000817EB0EB0E0061EB91014FEA101E4EEAB0
:100B2000017E10EB0E0041EB11114FEA102E4EEA40
:100B3000016E10EB0E0041EB11214FEA104E4EEA10
:100B4000014E10EB0E0041EB1141401841F1000144
:100B50004FEAD00040EA41704FEAD10110EB800526
:100B60004FEA810444EA907444EB01046D1944EBAC
:100B70000404521BA3414FF0000348BF0A3200D5C2
:100B800030BD401C41F1000130BD00002DE9F041B5
:100B90001F46044603260168072A01F4006004DBAF
:100BA00008B116A505E016A503E008B115A500E0FB
:100BB00015A521F010002060A069C01EA0610FB132
:100BC000401EA0612046AFF300804FB1D4E901215F
:100BD00038469047206A401C2062C01C206206E014
:100BE000206AFAE7D4E9012115F8010B9047761E37
:100BF000F8D22046AFF30080BDE8F0814E414E00B0
:100C00006E616E00494E4600696E66002DE9F04740
:100C1000814616468AB0354878440DC88DE80D00E7
:100C200032487844801C03AC0DC884E80D0041F6BE
:100C30009B300844372190FBF1F290FBF1F5A5F1D0
:100C4000800501FB12041B3C02D56442012000E038
:100C50000020DFF898A080460027FA44AAF1BE0AD7
:100C60000EE0E0070AD03246684607EB4701012351
:100C70000AEB810100F0D7FB8DE8070064107F1CB0
:100C8000002CEED1194F7F44AE3F19E0E80715D094
:100C900007EB04100DF1180A90E80E008AE80E0028
:100CA000C068F04201D1981908903246012306A984
:100CB00003A800F0B8FB03AB83E807006D10641CC9
:100CC000002DE3D14FF0010332466946B8F1000F21
:100CD00003A802D000F092FB01E000F0A4FBC9E9F8
:100CE0000001C9F808200AB0BDE8F087E8980000C4
:100CF000007B00F08000704700487047DC01002056
:100D00007546FFF7F9FFAE4605006946534620F0E9
:100D10000700854618B020B5FFF7AAFABDE82040C5
:100D20004FF000064FF000074FF000084FF0000BA7
:100D300021F00701AC46ACE8C009ACE8C009ACE85A
:100D4000C009ACE8C0098D46704710B50446AFF342
:100D500000802046BDE81040FFF76FBA4FF0013C1D
:100D600050F8042B51F8043B9A4221D1A2EB0C031A
:100D7000934313EACC1317D150F8042B51F8043BDA
:100D80009A4215D1A2EB0C03934313EACC130BD177
:100D900050F8042B51F8043B9A4209D1A2EB0C0302
:100DA000934313EACC13DBD04FF00000704700BF31
:100DB000D01A01BAB1FA81F101F0180122FA01F05A
:100DC000CB40C1F12001DBB2C0B2C01A2CFA01F352
:100DD000D11A914311EAC311E6D170479FED221A4F
:100DE0009FED222A20EE010AB5EE001A30EE010A2C
:100DF000BDEEC01A11EE100AB5EE400AF1EE10FA7F
:100E0000B8BF013801EE100AB8EEC11A30EE410A3F
:100E100020EE020ABDEEC01A9FED152A11EE100A4F
:100E2000002130EE021AB1EB502F4AF21C511CBFC8
:100E30000020B0EE410AC0F6000101EE100A01EBFD
:100E40008001B8EE411A30EE410A91ED001A91EDA1
:100E5000012AB7EE003A33EE403A23EE011A20EEB3
:100E6000020A31EE000A704783F9223E0000004476
:100E7000000000C49FED201A9FED202A20EE010AF9
:100E8000BDEEC01A11EE100AB5EE400AF1EE10FAEE
:100E9000B8BF013801EE100AB8EEC11A30EE410AAF
:100EA00020EE020ABDEEC01A9FED152A11EE100ABF
:100EB000002130EE021AB1EB502F4AF21C511CBF38
:100EC0000020B0EE410AC0F6000101EE100A01EB6D
:100ED0008001B8EE411A30EE410A91ED001A91ED11
:100EE000012AB7EE003A33EE403A23EE011A20EE23
:100EF000020A31EE000A704783F9223E00000044E6
:100F0000000000C45FEA400C08BF91F0000F4FEAF8
:100F10008C234FEAC12243EA51514FEA1C5018BFBB
:100F200000F5F0404FEA300018BF41F000415FEAA1
:100F30006C5C00F02980BCF1FF3F08BF40F08040AE
:100F40007047130C06BF12044FF0100C4FF0000C4A
:100F5000130E04BF12020CF1080C130F04BF120190
:100F60000CF1040C930F04BF92000CF1020CD30F90
:100F700004BF52000CF1010C11464FF00002A0F129
:100F80001F00A0EB0C00704711F0004F08BF704726
:100F900031F000413FF4D5AF0B0C06BF09044FF010
:100FA000100C4FF0000C0B0E04BF09020CF1080CE2
:100FB0000B0F04BF09010CF1040C8B0F04BF890057
:100FC0000CF1020CCB0F04BF49000CF1010CCCF169
:100FD0002003A0EB0C0022FA03F302FA0CF241EA20
:100FE000030100F10100704720F07F4C80EA03000C
:100FF00023F07F47ACEB070303F57C5300F0004080
:1010000003F1FF032DE980494FEA154B09B44FEA7C
:10101000144325EA0B4E24EA03480FF2042606EB9C
:10102000132749083E785FEA320203FB0667C7F5DB
:10103000000707FB06F64FEA54374FEAD64606F19B
:10104000020607FB066CCCF1005C4FEA1C472CEA59
:10105000074C07FB06F40CFB06F504EB15464FEABC
:10106000961634BF00204FF000404FEAD13706FB00
:1010700007FC4FEA1C4C0CFB0BF7D21B03FB0CF7D5
:1010800061EB07010CFB0EF7B0EB074072EB174268
:101090000CFB08F734BFA2EB0742B2EB074261EB4F
:1010A00017414FEA0C444FEA910706FB07FC4FEA51
:1010B0001C4C0CFB0BF7B0EBC74072EB573203FB39
:1010C0000CF734BFA2EBC742B2EBC74261EB57311A
:1010D0000CFB0EF7B0EBC70072EB57720CFB08F776
:1010E00034BFA2EBC702B2EBC70261EB5771039F9B
:1010F0004FEA816141EA921104EBCC044FEAD13707
:101100004FEA826206FB07FC42EA90124FEA8060D7
:101110004FEA1C4C0CFB0BF7D21B03FB0CF761EBEB
:1011200007010CFB0EF7B0EB074072EB17420CFB0C
:1011300008F734BFA2EB0742B2EB074261EB17415D
:101140004FEA8C554FEA910704EB9C2406FB07FC01
:101150004FEA1C4C0CFB0BF7B0EBC74072EB57325D
:1011600003FB0CF734BFA2EBC742B2EBC74261EB03
:1011700057310CFB0EF7B0EBC70072EB57720CFB4C
:1011800008F734BFA2EBC702B2EBC70261EB57719D
:1011900015EB4C254FEA816141EA92114FEA8262D8
:1011A0004FEAD13742EA901206FB07FC44F10004F3
:1011B0004FEA80604FEA1C4C0CFB0BF7D21B03FB81
:1011C0000CF761EB07010CFB0EF7B0EB074072EB7D
:1011D00017420CFB08F734BFA2EB0742B2EB074201
:1011E00061EB174115EB1C154FEA813141EA924141
:1011F0004FEA823242EA90424FEA80304FEA0C7660
:1012000044F1000448EA03434EEA0B484FF0000E55
:10121000B2EB080C71EB030724BF624639464EEB74
:101220000E0E4FF0000B0018524149414BEB0B0BD7
:10123000B2EB080C71EB03077BF1000B24BF624695
:1012400039464EEB0E0E4FF0000B0018524149414B
:101250004BEB0B0BB2EB080C71EB03077BF1000BB4
:1012600024BF624639464EEB0E0E51EA020718BF04
:1012700046F0010616EB0E7655F1000254F100011E
:1012800003D5BDE88901BDE80088BDE88901BDE856
:101290000048B619524141EB0101A3F10103704727
:1012A00080807F7E7D7C7B7A7978777676757473A3
:1012B000727171706F6E6E6D6C6C6B6A6A69686862
:1012C000676666656464636362616160605F5F5EF8
:1012D0005E5D5D5C5C5B5B5A5A595958585757566E
:1012E00056555555545453535252525151505050D3
:1012F0004F4F4F4E4E4D4D4D4C4C4C4B4B4B4A4A25
:101300004A49494948484847474747464646454568
:1013100045444444444343434342424242414141A1
:10132000002B9C4630D477002BD01CB54FEA3707F2
:1013300003B44FF010004FF01001BAF1000F06D0C7
:10134000BCF1000FDCBF40F0080040F008014FF096
:1013500000000FBCBDE810400BF1010BBBF1010F09
:1013600008BF5FEA170722BF12F1010211F1010164
:101370004FF0004143F1000300F0004043EA000059
:101380007047F9D35708D0E746EA064613F1400FF5
:101390004FEA16461FDD13F1200FDFBF16430A4642
:1013A000002120335B42BED0C3F1200746EA064647
:1013B00002FA07F74FEA164646EA0706C3F1200786
:1013C00022FA03F201FA07F721FA03F14FF00003C2
:1013D00042EA0702A7E746EA020646EA06464FEA5D
:1013E000164646EA0106BCBF46EA0646360C4FF0F2
:1013F00000034FF000024FF0000194E72DE9804C0C
:101400009A46934670B491E8380007C831EA400C18
:1014100048BF34EA430C03D5FFF7E6FDFFF780FF32
:10142000F0BCBDE8008C2DE9804C9A46934670B420
:1014300091E8380007C810F0804F08BF13F0804FC4
:1014400003D100F005F8FFF76BFFF0BCBDE8008C9E
:1014500020F07F4780EA030023F07F4C07EB0C036A
:10146000A3F57C5300F00040A3F1FE0392F0000FBF
:1014700000F0B38095F0000F00F077802DE901496E
:101480004FEA11404FEA144621EA004800FB06FCEF
:1014900024EA064708FB06F607FB08F800FB07F7F7
:1014A00018EB06484CEB164C4FEA124B18EB07486A
:1014B0004FEA15464CEB174022EA0B4E0BFB06FC9D
:1014C00025EA06470EFB06F607FB0EFE0BFB07F7A9
:1014D0001EEB064E4CEB164C4FF000061EEB074E73
:1014E0004CEB174B18EB0B0840F1000018EB0E0B00
:1014F00058EB000840F100008F1A4FF000013CBF8C
:10150000C943661B14BFB5EB040C00213CBFC943A3
:10151000F61B4FEA17444EEA8E0E27EA04454FEABF
:101520001C4704FB07622CEA074C05FB07F70CFB82
:1015300005F604FB0CFC16EB074642EB174216EBD4
:101540000C4642EB1C421BEB060658EB02024141E3
:1015500046EA9E0601D5BDE80189B619524141EB24
:101560000101A3F10103BDE801894FEA14454FEAE7
:10157000114724EA054621EA074C05FB07F406FB60
:1015800007F70CFB06F105FB0CFC11EB074144EBE4
:1015900017444FEA124711EB0C4144EB1C4422EA7A
:1015A000074C05FB07F206FB07F70CFB06F605FBED
:1015B0000CFC16EB074642EB174216EB0C4642EBCF
:1015C0001C456A1854F1000148BF7047B6195241D2
:1015D00041EB0101A3F10103704795F0000F37D0F3
:1015E0004FEA11424FEA144721EA024624EA074C27
:1015F00002FB07F106FB07F70CFB06F402FB0CFCF1
:1016000014EB074441EB17414FEA154714EB0C4428
:1016100041EB1C4125EA074C02FB07F506FB07F7E7
:101620000CFB06F602FB0CFC16EB074645EB1745D8
:1016300016EB0C4645EB1C42121951F1000148BF54
:101640007047B619524141EB0101A3F10103704704
:101650004FEA14454FEA114724EA054621EA074CB0
:1016600005FB07F106FB07F70CFB06F24FF000063F
:1016700005FB0CFC12EB074241EB174112EB0C424D
:1016800051EB1C4148BF7047921841EB0101A3F197
:101690000103704700BFFEE77047000070B50446C5
:1016A0001D460023B5F5804F13D154F822300C4865
:1016B0000340D1E9000640EA06108E6840EA0620A1
:1016C0008E8940EA06408E693043034344F8223055
:1016D00003E06FF0704044F82200002070BD00006D
:1016E0000000F0CF10B503460022086853F8202010
:1016F00012480240D1E901042043CC6820430C6920
:1017000020434C6920438C692043CC6920430C6AF8
:1017100020434C6A20438C6A2043CC6A2043CC6B24
:1017200020430C6B204302438868082801D142F013
:101730004002086843F82020002010BD8000F0FF20
:1017400030B503460024501C53F8204004F04044B8
:10175000D1E9000540EA05108D6840EA05208D8931
:1017600040EA0545088A401E45EA0055087D801E6E
:1017700045EA00608D6928430443501C43F820402B
:10178000002030BD70B50446A56D00F07DF9064619
:1017900094F83500022808D08020606500BF002042
:1017A00084F8340000BF012070BD2068006820F07C
:1017B0001600216808602068406920F080002168D8
:1017C0004861206C08B9A06C28B12068006820F03E
:1017D0000800216808602068006820F00100216886
:1017E00008600FE000F050F9801B05280AD920207E
:1017F000606500BF002084F8340000BF032084F837
:101800003500D1E72068006800F001000028E9D128
:1018100094F85C103F208840A86000BF002084F846
:10182000340000BF012084F835000020BCE70146E9
:1018300091F83500022803D08020486501207047C8
:10184000052081F835000868006820F001000A686A
:1018500010600020F3E70000F8B502460B460025B3
:10186000002400200021DEE0012606FA01F51E68B2
:1018700006EA0504AC4275D11E7906F00306012E76
:1018800004D01E7906F00306022E13D190684F0093
:101890000326BE40B0434F00DE68BE403043906038
:1018A000506801268E40B0431E79C6F300168E4064
:1018B000304350601E7906F00306032E09D0D0682D
:1018C0004F000326BE40B0434F009E68BE403043E9
:1018D000D0601E7906F00306022E13D1CF0802F164
:1018E000200656F827004E07F70E0F26BE40B043DD
:1018F0004F07FF0E1E69BE403043CF0802F120069D
:1019000046F8270010684F000326BE40B0431E79FA
:1019100006F003064F00BE40304310605E6806F0DC
:101920008056B6F1805F7DD100BF00260096404E04
:10193000366846F480463E4F3E603E46366806F4C2
:101940008046009600BF00BF3A4E8F0856F8270029
:101950008E07370F0F26BE40B043374EB24202D13A
:10196000002624E05EE0354EB24201D101261EE0A1
:10197000334EB24201D1022619E0324EB24201D1B9
:10198000032614E0304EB24201D104260FE02F4E60
:10199000B24201D105260AE02D4EB24201D10626FF
:1019A00005E02C4EB24201D1072600E008268F0741
:1019B0003F0FBE4030431F4E8F0846F82700264E8B
:1019C0003068A0435E6806F48036B6F5803F00D1EB
:1019D0002043214E3060361D3068A0435E6806F417
:1019E0000036B6F5003F00D120431B4E361D306057
:1019F000361D3068A0435E6806F48016B6F5801F79
:101A000000D12043144E08363060361D3068A043A4
:101A10005E6806F40016B6F5001F00D120430E4E96
:101A20000C363060491C1029FFF41EAFF8BD0000D1
:101A300044380240083801400000024000040240DF
:101A400000080240000C0240001002400014024056
:101A500000180240001C0240003C014010B54269E1
:101A600021EA020302EA010443EA0443836110BD50
:101A70000AB1816101E00B0483617047014800688D
:101A8000000C7047002004E0014800687047000027
:101A900014000020034800680349097808440149FC
:101AA00008607047140000201C00002010B50A4890
:101AB000006840F40070084908600846006840F477
:101AC00080600860052000F07FF80F2000F006F825
:101AD00000F02AF8002010BD003C024070B504461A
:101AE0000E4800784FF47A71B1FBF0F00C490968A8
:101AF000B1FBF0F5284600F087FC08B1012070BD6D
:101B0000102C07D200222146501E00F01EF8054876
:101B1000046001E00120F2E70020F0E71C00002053
:101B200004000020180000207047014608460028E5
:101B300009DB00F01F0301229A4043099B0003F1D7
:101B4000E023C3F8002100BF70472DE9F05F804615
:101B50000D461646002701F0F7FA074639462A4691
:101B6000334601F00700C0F1070ABAF1040F02D9A9
:101B70004FF0040A01E0C0F1070AD14600F1040A5F
:101B8000BAF1070F02D24FF0000A01E0A0F1030AF8
:101B9000D4464FF0010A0AFA09FAAAF1010A0AEA40
:101BA000020A0AFA0CFA4FF0010B0BFA0CFBABF12C
:101BB000010B0BEA030B4AEA0B042146404601F0F5
:101BC000CBFABDE8F09F000000BF00F00702064B13
:101BD00019684FF6FF031940044B0B4343EA0221F7
:101BE000014B196000BF70470CED00E00000FA05E2
:101BF00070B504460D460CB9012070BD5848006808
:101C000000F00700A84209D255490D700846006847
:101C100000F00700A84201D00120EEE7207800F094
:101C2000020002281DD1207800F00400042805D10C
:101C30004C48006840F4E0504A490860207800F0C1
:101C40000800082805D14748006840F4604045492D
:101C500008604448006820F0F000A168084341494A
:101C60000860207800F00100A8B36068012807D15F
:101C70003C4808380068C0F34040B8B90120BCE7D0
:101C80006068022802D06068032807D13548083808
:101C90000068C0F3406048B90120AEE73148083819
:101CA0000068C0F3400008B90120A6E72D4800688D
:101CB00020F00300616808432A490860FFF7E4FE4A
:101CC000064609E0FFF7E0FE801B41F288318842BA
:101CD00002D9032091E707E02248006800F00C00D9
:101CE0006168B0EB810FEDD11D48006800F007007E
:101CF000A84209D91A490D700846006800F007008B
:101D0000A84201D0012078E7207800F004000428E0
:101D100007D11448006820F4E050E16808431149F5
:101D20000860207800F00800082808D10D480068F5
:101D300020F46040216940EAC1000A49086000F0CF
:101D40003FF808490968C1F30311074A515CC840CC
:101D50000649086006480068FFF7C0FE00204CE70F
:101D6000003C02400838024094740008040000203F
:101D7000180000200148006870470000040000209F
:101D800000B5FFF7F7FF04490968C1F38221034A50
:101D9000515CC84000BD000008380240A47400082F
:101DA00000B5FFF7E7FF04490968C1F34231034A70
:101DB000515CC84000BD000008380240A47400080F
:101DC0002DE9F047002400250026A146254800689B
:101DD00000F00C0020B1042805D008283AD105E015
:101DE000DFF8849039E0DFF8849036E01D48001F6A
:101DF000006800F03F041B48001F006800F48000EA
:101E000078B11A481749091F0968C1F38811A0FB66
:101E100001700146224600233846FEF73CFA05468B
:101E20000EE011480F49091F0968C1F38811A0FB92
:101E300001700146224600233846FEF72CFA05467B
:101E40000848001F0068C0F30140401C4600B5FB75
:101E5000F6F902E0DFF8109000BF00BF4846BDE889
:101E6000F0870000083802400024F40000127A00D5
:101E7000F8B504460CB90120F8BD207800F0010047
:101E8000002874D0F948006800F00C0004280DD038
:101E9000F648006800F00C00082813D1F348001F32
:101EA000006800F48000B0F5800F0BD1EF480838CF
:101EB0000068C0F34040002859D06068002856D11F
:101EC0000120D9E700BF6068B0F5803F08D1E7483E
:101ED0000838006840F48030E449083908601EE0A2
:101EE0006068B0F5A02F0DD1E0480838006840F4D4
:101EF0008020DE49083908600846006840F48030D8
:101F000008600CE0D9480838006820F48030D749D0
:101F1000083908600846006820F48020086000BF87
:101F2000606890B1FFF7B0FD054606E0FFF7ACFD35
:101F3000401B642801D903209EE7CC48083800687C
:101F4000C0F340400028F1D011E0FFF79DFD0546A9
:101F500006E0FFF799FD401B642801D903208BE7B9
:101F6000C24808380068C0F340400028F1D120780A
:101F700000F0020002285FD1BC48006800F00C00AD
:101F800058B1BA48006800F00C0008281CD1B748C6
:101F9000001F006800F48000B0B9B4480838006839
:101FA000C0F3400020B1E068012801D0012063E7C0
:101FB000AE480838006820F0F800216940EAC10006
:101FC000AA490839086037E0E06800B30120A84951
:101FD0000860FFF759FD054606E0FFF755FD401B79
:101FE000022801D9032047E7A04808380068C0F359
:101FF00040000028F1D09D480838006820F0F80023
:10200000216940EAC10099490839086014E00020BC
:1020100097490860FFF738FD054606E0FFF734FDF5
:10202000401B022801D9032026E7904808380068A1
:10203000C0F340000028F1D1207800F00800082803
:102040002CD16069A8B101208A490860FFF71CFD06
:10205000054606E0FFF718FD401B022801D90320C2
:102060000AE782486C300068C0F340000028F1D0D5
:1020700014E000207F490860FFF706FD054606E0F2
:10208000FFF702FD401B022801D90320F4E6774840
:102090006C300068C0F340000028F1D1207800F0D7
:1020A0000400042870D1002770483830006800F020
:1020B000805090B900BF002000906C483830006814
:1020C00040F080506949383108600846006800F0E7
:1020D0008050009000BF00BF01276748006800F4EF
:1020E0008070B0B96448006840F48070624908604C
:1020F000FFF7CAFC054606E0FFF7C6FC401B0228B6
:1021000001D90320B8E65C48006800F4807000281C
:10211000F2D000BFA068012808D154486830006898
:1021200040F001005149683108601DE0A0680528B1
:102130000DD14E486830006840F004004B496831CA
:1021400008600846006840F0010008600CE047485D
:102150006830006820F00100444968310860084692
:10216000006820F00400086000BFA068A8B1FFF775
:102170008BFC054609E0FFF787FC401B41F28831E4
:10218000884202D9032077E626E0384868300068A4
:10219000C0F340000028EED013E0FFF775FC0546C1
:1021A00008E0FFF771FC401B41F28831884201D9F9
:1021B000032061E62D4868300068C0F34000002825
:1021C000EFD1012F07D129483830006820F0805026
:1021D00026493831086000BFA069002845D023484F
:1021E000006800F00C0008285DD0A069022845D1E5
:1021F00000201F490866FFF747FC054606E0FFF789
:1022000043FC401B022801D9032035E61748083853
:102210000068C0F340600028F1D1D4E90701084309
:10222000616A40EA81110122A06AC2EB500041EAD2
:1022300000412C20005D41EA00600C49091F086044
:1022400001200B490866FFF71FFC054606E0FFF773
:102250001BFC401B022801D903200DE60348083867
:102260000068C0F340600028F1D049E0083802401F
:1022700000004742800E4742007000400020214984
:102280000866FFF701FC054606E0FFF7FDFB401B73
:10229000022801D90320EFE51B480068C0F3406025
:1022A0000028F2D12CE0A069012800D1E4E516480D
:1022B000001D0668A069012820D006F48001E069AD
:1022C00081421BD106F03F01206A814216D147F6B8
:1022D000C0703040616AB0EB811F0FD106F440310D
:1022E0000122A06AC2EB5000B1EB004F06D106F00C
:1022F00070612C20005DB1EB006F01D00120BBE5C7
:102300000020B9E5000047420038024070B504469D
:102310000E4615460CB9012070BD94F8490028B945
:10232000002084F84800204600F01CF804F1080161
:102330002068FFF7D7F93146A2682068FFF700FA56
:102340002946236BD4E90102FFF7A8F9A1682068A8
:1023500050F8210040F00100A268216841F82200F5
:102360000020D9E710B586B0044600BF00200090D9
:102370002248006840F001002049086008460068D3
:1023800000F00100009000BF00BF00BF00200090DF
:102390001A480838006840F00800184908390860F1
:1023A0000846006800F00800009000BF00BF00BFB2
:1023B000002000900846006840F0100008600846C1
:1023C000006800F01000009000BF00BF4CF20370E6
:1023D00001900220029001200390022004900C2022
:1023E000059001A90648FFF737FA4FF68070019073
:1023F00001A90448FFF730FA06B010BD3838024092
:10240000000C02400010024070B504462546681ECC
:10241000B0F1807F01D301200FE0681E4FF0E02172
:1024200048610F214FF0FF3000F096FE00204FF082
:10243000E021886107200861002070BD7047704767
:1024400010B504460CB9012010BD94F83D0028B920
:10245000002084F83C00204600F026F8022084F892
:102460003D00211D206800F0CFFB012084F84600CC
:1024700000BF84F83E0001213F2001554020015556
:102480004120015500BF00BF012084F842004320D5
:102490000155442001554520015500BF012084F815
:1024A0003D000020D0E7000038B504460F49206801
:1024B000884219D100BF00BF002000900C4800687E
:1024C00040F010000A4908600846006800F010005B
:1024D000009000BF00BF00BF032201213620FFF79C
:1024E00034FB3620FFF721FB38BD00000010004010
:1024F00040380240014691F83D00012801D00120FA
:102500007047022081F83D000868C06840F0010073
:102510000B68D8601A4B086898421BD00868B0F165
:10252000804F17D0174B0868984213D0164B086895
:1025300098420FD0154B086898420BD0144B08688E
:10254000984207D0134B0868984203D0124B086892
:1025500098420CD10868806800F00702062A0CD067
:102560000868006840F001000B68186005E0086822
:10257000006840F001000B6818600020C0E7000010
:10258000000001400004004000080040000C004032
:10259000000401400040014000180040704710B5A1
:1025A000044620680069C0F34000D8B12068C068C4
:1025B000C0F34000B0B16FF0020021680861012053
:1025C00020772068806900F0030018B12046FFF7EB
:1025D000E5FF05E0204600F0ADF8204600F0ABF83E
:1025E0000020207720680069C0F38000D8B12068FF
:1025F000C068C0F38000B0B16FF0040021680861CA
:10260000022020772068806900F4407018B12046CD
:10261000FFF7C4FF05E0204600F08CF8204600F0EC
:102620008AF80020207720680069C0F3C000D8B184
:102630002068C068C0F3C000B0B16FF00800216826
:102640000861042020772068C06900F0030018B1F9
:102650002046FFF7A3FF05E0204600F06BF8204678
:1026600000F069F80020207720680069C0F30010AE
:10267000D8B12068C068C0F30010B0B16FF010008E
:1026800021680861082020772068C06900F4407044
:1026900018B12046FFF782FF05E0204600F04AF817
:1026A000204600F048F8002020772068006900F0FC
:1026B000010058B12068C06800F0010030B16FF02F
:1026C000010021680861204600F036F820680069A2
:1026D000C0F3C01058B12068C068C0F3C01030B15A
:1026E0006FF08000216808612046FFF7A7FE206890
:1026F0000069C0F3801058B12068C068C0F3801032
:1027000030B16FF0400021680861204600F022F8E7
:1027100020680069C0F3401058B12068C068C0F359
:10272000401030B16FF02000216808612046FFF7AB
:1027300086FE10BD704770470449884204D10449A1
:102740000978491C024A117070470000940100206A
:102750000000002070477047704700002DE9F84FD7
:102760000446206805682068C668206847694FF0FD
:102770000009CA4605F00F09B9F1000F0AD105F0AA
:10278000200038B106F0200020B1204600F0DDFA2C
:10279000BDE8F88FB9F1000F72D007F0010018B949
:1027A00006F4907000286BD005F0010030B106F4FB
:1027B000807018B1206C40F00100206405F0040026
:1027C00030B107F0010018B1206C40F00200206425
:1027D00005F0020030B107F0010018B1206C40F0A4
:1027E0000400206405F0080048B106F0200010B98C
:1027F00007F0010018B1206C40F008002064206C44
:1028000070B305F0200028B106F0200010B120467A
:1028100000F09BFA20684069C0F3801A206C00F039
:10282000080010B9BAF1000F23D0204600F062FA78
:102830002068406900F04000402816D120684069B7
:1028400020F0400021684861A06B50B15648A16B50
:102850000865A06BFEF7EBFF10B1A06B016D884718
:102860000CE02046FFF778FF08E02046FFF774FFF2
:1028700004E02046FFF770FF0020206488E7FFE7B0
:10288000206B012879D105F01000002875D006F0E2
:102890001000002871D000BF002000902068006860
:1028A000009020684068009000BF00BF2068406929
:1028B00000F04000402839D1A06B006840681FFA42
:1028C00080F8B8F1000F30D0A08D40452DDDA4F880
:1028D0002E80A06BC069B0F5807F1FD02068C068D3
:1028E00020F480702168C8602068406920F00100F1
:1028F000216848612068406920F0400021684861F3
:10290000202084F83E00002020632068C06820F06A
:1029100010002168C860A06BFEF734FFA08DE28D27
:10292000801A81B22046FFF716FF31E7A08DE18DB6
:10293000401A1FFA80F8E08DE8B1B8F1000F1AD004
:102940002068C06820F490702168C86020684069E1
:1029500020F0010021684861202084F83E0000201A
:1029600020632068C06820F010002168C8604146DC
:102970002046FFF7F0FE0BE7FFE705F0800030B1DF
:1029800006F0800018B1204600F077FB00E705F064
:10299000400030B106F0400018B1204600F0C5F903
:1029A000F6E600BFF4E60000E12C000810B504468E
:1029B0000CB9012010BDA06900B100E000BF94F87F
:1029C0003D0028B9002084F83C00204600F028F89B
:1029D000242084F83D002068C06820F4005021685D
:1029E000C860204600F010FA2068006920F490408A
:1029F000216808612068406920F02A002168486148
:102A00002068C06840F400502168C860002020643D
:102A1000202084F83D0084F83E000020CAE7000032
:102A200010B586B004462E492068884255D100BFB3
:102A300000BF002000902B48006840F0100029499A
:102A400008600846006800F01000009000BF00BF5A
:102A500000BF00BF00BF002000902248143800686B
:102A600040F001001F49143908600846006800F072
:102A70000100009000BF00BF00BF00BF00BF0020EA
:102A800000900846006840F00100086008460068B1
:102A900000F00100009000BF00BF00BF481501908A
:102AA000022002900120039002200490072005904C
:102AB00001A90D48FEF7D0FE4FF480600190072079
:102AC000059001A90848FEF7C7FE2520FFF72DF85D
:102AD000032211462520FFF738F806B010BD00008C
:102AE00000100140443802400000024070B5044626
:102AF0000D46164694F83E00202816D105B10EB9B1
:102B0000012070BD00BF94F83C00012801D10220D3
:102B1000F7E7012084F83C0000BF00202063324624
:102B20002946204600F086FAEBE70220E9E700009C
:102B300010B504462049206888423BD11F480088D0
:102B400000F4004088BB1D48008800F4804070B14C
:102B50001B4800780A2803D000201849088024E088
:102B60001648008840F40040144908801DE01448CD
:102B700000780D2806D11148008840F480400F49A4
:102B8000088012E00E4800780C490988C1F30D0155
:102B90000C4A505409480088401C084908800846DF
:102BA0000088C72801DD002008800122044906486A
:102BB000FFF79CFF10BD0000001001401000002036
:102BC0001200002028000020F0000020704700BF05
:102BD000FEE700BFFEE770477047704710B5FEF78D
:102BE00059FF10BD0348006840F4700001490860B7
:102BF0007047000088ED00E010B50248FFF7CFFCF9
:102C000010BD00009401002010B50268294B9842C5
:102C10000ED0B0F1804F0BD0274B984208D0274BF5
:102C2000984205D0264B984202D0264B984203D1B9
:102C300022F070024B681A431E4B984220D0B0F12C
:102C4000804F1DD01C4B98421AD01C4B984217D075
:102C50001B4B984214D01B4B984211D01A4B9842F0
:102C60000ED01A4B98420BD0194B984208D0194BF2
:102C7000984205D0184B984202D0184B984203D185
:102C800022F44072CB681A4322F080034C6943EA75
:102C9000040202608B68C3620B688362054B984232
:102CA00002D0084B984201D10B69036301234361B1
:102CB00010BD00000000014000040040000800407A
:102CC000000C00400004014000400140004401406D
:102CD0000048014000180040001C00400020004057
:102CE00070B50546AC6B0020E085E0842046FFF718
:102CF00033FD70BD0168C96821F490710268D1602C
:102D00000168496921F0010102685161016B0129E3
:102D100005D10168C96821F010010268D160202145
:102D200080F83E1000210163704710B5044620680A
:102D3000C06820F040002168C860202084F83D0071
:102D40002046FFF743FF002010BD70B5044694F8FD
:102D50003E00222856D1A068B0F5805F0CD12069D2
:102D600050B90025A66A20684068C0F3080030808A
:102D7000A06A801CA06215E0A56A0026A068B0F5D4
:102D8000805F03D0A06828B9206918B9206840681E
:102D9000287004E02068406800F07F002870A06A76
:102DA000401CA062E08D401E80B2E08540BB2068E0
:102DB000C06820F020002168C8602068C06820F446
:102DC00080702168C8602068406920F00100216897
:102DD0004861202084F83E00206B01280AD1206839
:102DE000C06820F010002168C860A18D2046FFF760
:102DF000B2FC02E02046FFF79BFE0020206370BD7E
:102E00000020FCE70220FAE72DE9F84F044620688D
:102E1000006920F44050E168084321680861216995
:102E2000A068084361690843E1690843009020688D
:102E3000C06849F20C618843009908432168C86062
:102E40002068406920F44070A16908432168486106
:102E500076492068884203D075492068884203D1AA
:102E6000FEF79EFF814602E0FEF78AFF8146E06999
:102E7000B0F5004F6CD102206168A0FB0150034601
:102E80001920A9FB007001462A463846FDF703FACF
:102E90006421B0FBF1F04FEA001A02206168A0FB48
:102EA00001510B461920A9FB00712A463846FDF74F
:102EB000F2F9834602206168A0FB01500346192005
:102EC000A9FB00712A463846FDF7E5F96421B0FBFD
:102ED000F1F000EBC00101EB0010ABEB8000322100
:102EE00001EBC0006421B0FBF1F000F0F8000AEB48
:102EF000400A02206168A0FB015003461920A9FB8B
:102F0000007001462A463846FDF7C5F9834602207F
:102F10006168A0FB015003461920A9FB00712A46F5
:102F20003846FDF7B8F96421B0FBF1F000EBC001C1
:102F300001EB0010ABEB8000322101EBC0006421FB
:102F4000B0FBF1F000F007005044216888606AE0AF
:102F500004206168A0FB015003461920A9FB007002
:102F600001462A463846FDF796F9824604206168F4
:102F7000A0FB015003461920A9FB007001462A4618
:102F80003846FDF788F96421B0FBF1F000EBC00191
:102F900001EB0010AAEB8000322101EB001064214C
:102FA000B0FBF1F000F0F00A04206168A0FB0170B2
:102FB00003461920A9FB00513A462846FDF76BF954
:102FC0006421B0FBF1F00AEB001A04206168A0FB59
:102FD00001510B461920A9FB00712A463846FDF71E
:102FE0005AF9834604206168A0FB0150034619206A
:102FF000A9FB007001462A463846FDF74CF96421CA
:10300000B0FBF1F000EBC00101EB0010ABEB800076
:10301000322101EB00106421B0FBF1F000F00F0051
:10302000504421688860BDE8F88F0000001001401E
:103030000014014010B5034699629A85DA85002094
:103040001864222083F83E0000BF002083F83C0073
:1030500000BF1868C06840F480701C68E0601868A1
:10306000406940F001001C6860611868C06840F069
:1030700020001C68E060002010BD014691F83D0072
:10308000212828D18868B0F5805F0BD1086948B93C
:103090000A6A1088C0F308000B685860086A801C30
:1030A000086205E00B6A581C086218780B685860C3
:1030B000C88C401E80B2C88458B90868C06820F027
:1030C00080000B68D8600868C06840F040000B685A
:1030D000D860002070470220FCE7000010B50248CD
:1030E000FFF73CFB10BD0000F000002000BFFEE732
:1030F00003B401984100009850EAC12018BF042091
:103100004A0D18BF40F0010040F2FF72B2EB515F70
:1031100008BF40F00200012808BF052002B0704738
:103120004100080218BF04200A0E18BF40F0010039
:103130004FF07F4232EA010108BF40F0020001284F
:1031400008BF05207047000002480068C0F3022055
:10315000704700000CED00E010B5002804DB0A0702
:10316000130E054A135406E00A07140E034A00F032
:103170000F031B1FD45410BD00E400E018ED00E065
:1031800010EE101A08B5444A6846B2EB410F28D930
:103190004FF0E640B0EB410F94BF00204FF0FF30FE
:1031A00000900098002861DB60EE000A10F0010F2B
:1031B00045D010F0020FDFED391A9FED391A00EEFD
:1031C000E11ADFED381A40EE811A21EEA01AF0EE76
:1031D000400A40EE010A08BFF1EE600AB0EE600A54
:1031E00008BD314B21F0004293423CD911F0004F11
:1031F000DFED2E0A20EE201ADFED2D0A19BF31EE89
:10320000601A71EE200A31EE201A71EE600ABDEEEE
:10321000E01A11EE100A9FED271A00F0030000EEED
:10322000C10A9FED251A009000EEC10A9FED231AF6
:1032300000EEC10A9FED221A00EEC10AB1E79FED30
:10324000211A9FED210A10F0020F00EE810A9FED76
:103250001F1A00EE801AB7EE000A00EE810A18BFAE
:10326000B1EE400A08BD00F00FF99AE710EE100A1F
:103270004000B0F17F4F3CBFB7EE000A08BD07D158
:103280004FF00100FDF796F9BDE8084000F0ECB8FA
:10329000BDE8084000F0E4B8B61F927E336D4C39AB
:1032A000DA82083CA0AA2ABE490E494683F9223F89
:1032B0000000004B0000C93F00A0FD390020A233F0
:1032C0001A61342CB93AB2BACA9F2A3DDDFFFFBE5B
:1032D00000B510EE101A2DED028B81B0524A6846EF
:1032E000B2EB410F2ED94FF0E640B0EB410F94BF47
:1032F00000204FF0FF3000900098B0EE408A002888
:103300006ADB10F0010F4BD068EE080A9FED471AF8
:103310009FED470A00EE810A9FED461A10F0020F5A
:1033200000EE801AB7EE000A00EE810A02BF01B07B
:10333000BDEC028B00BD00BF01B0B1EE400ABDEC98
:10334000028B00BD3C4B21F00042934241D911F069
:10335000004FDFED3A0A20EE201ADFED390A19BFDF
:1033600031EE601A71EE200A31EE201A71EE600A19
:10337000BDEEE01A11EE100A9FED321A00F00300C4
:1033800000EEC10A9FED301A009000EEC10A9FEDD9
:103390002F1A00EEC10A9FED2E1A00EEC10AABE70C
:1033A00028EE080A9FED2B1ADFED2B0A10F0020F12
:1033B00040EE410A9FED291A00EE201A61EE000A44
:1033C000B0EE480A08EE200AB6D101B0BDEC028B7F
:1033D00000BD00F059F88FE718EE100A4000B0F178
:1033E0007F4F0DD218EE100AFFF79AFE042808BF8F
:1033F00000F042F8B0EE480A01B0BDEC028B00BD0F
:1034000009D10120FDF7D6F801B0BDEC028B5DF8C3
:1034100004EB00F029B801B0B0EE480ABDEC028B15
:103420005DF804EB00F01CB8B61F927EB93AB2BA50
:10343000CA9F2A3DDDFFFFBE490E494683F9223F60
:103440000000004B0000C93F00A0FD390020A2335E
:103450001A61342C336D4C39DA82083CA0AA2ABE9A
:1034600030EE000A70470000DFED020A80EEA00A8D
:1034700070470000000000009FED020A20EE000AE5
:1034800070470000000000102DE9F0014FF07F426E
:10349000B2EB410F9FBF4FF0FF310160BDE8F0017B
:1034A00070474FF0004242EA0123C1F3C752783A15
:1034B000551112F01F0C434CCCF120067C44C1F393
:1034C000C752A2F178024FEA621204EB820254F86A
:1034D000254008BFD2E9015612D0556804FA0CF411
:1034E00025FA06F73C43976805FA0CF527FA06F823
:1034F000D26807FA0CFCF24045EA08054CEA0206DD
:10350000A4FB034CA5FB0352A6FB03631D449D4291
:1035100034BF012600261319334416B1934202D951
:1035200003E0934201D2012200E00022624402F152
:10353000200C9206DC0C42EA443200EE102A5B03B7
:10354000DFED210AF8EEC01A00EE103A4FEA9C1C9B
:1035500011F0004FB8EE400AC0F800C020EE201A6B
:1035600000EE105ADFED190AB8EE400A20EE200AEC
:1035700071EE810A70EE800A10EE902A02F5006268
:103580006FF30B0200EE902A70EEE11A31EEC11AD1
:10359000DFED101A30EE411A9FED0D0A20EE800A81
:1035A00001EE210A9FED0C1A00EE810A04BFBDE86E
:1035B000F0017047CCF180510160BDE8F001B1EE3F
:1035C000400A7047A86F0000000000360000802C01
:1035D00022AAFD29DB0FC92F0000C92F30380A2885
:1035E00001D2012070470020704700BF70470000E3
:1035F00070B505460C460748074908600846446010
:1036000000218160C560FEF71BFF0348FEF772FFD3
:1036100070BD0000001000409401002001490860C6
:10362000704700000800002010B504464FF47A717E
:1036300004FB01F000F002F810BD000070B5034675
:1036400000224FF0E02675690D4E366803FB06F444
:103650004FF0E026B16910E04FF0E026B0698842F3
:103660000BD0884202D20E1A324402E02E1A0E44C7
:1036700032440146A24200D300E0EDE700BF70BD36
:103680000800002000BF054A126802F04002002A2C
:10369000F9D0C2B2014B5A607047000000100140DF
:1036A00070B5044600260948058840884543002136
:1036B000084603F0EDF803F099FA00BF02E0044871
:1036C0000480761CAE42FAD370BD00008401002055
:1036D0008000006C10B5044658488471002C58D105
:1036E000F020564908804FF4A07048800846808832
:1036F00045F21051884210D14FF430504F490881A3
:103700004FF4285048814FF42C5088814FF4F070CA
:1037100008804FF4487048801AE04848808841F695
:10372000631188420DD12C20444908812B20488107
:103730002A2088814FF4F07008804FF44870488048
:1037400006E02C203D4908812A2048812B208881D1
:103750003A48808845F21031884205D03748808841
:1037600047F29671884206D14FF4A0703349088021
:103770004FF4F07048803148808849F6060188424D
:1037800058D14FF4F0702D4908804FF448704880AC
:1037900050E04FF4A07029490880F0204880084686
:1037A000808845F21051884210D14FF4305023499F
:1037B00008814FF4285048814FF42C5088814FF4F1
:1037C000487008804FF4F070488020E01B488088E3
:1037D00041F66311884205D01848808849F60601F1
:1037E00088420DD12C20154908812A2048812B20A0
:1037F00088814FF4487008804FF4F070488006E0EC
:103800002C200E4908812A2048812B2088810B48D2
:10381000808845F21031884205D00848808847F2F8
:103820009671884206D14FF4F070044908804FF435
:10383000A0704880002002F00DFF10BD8401002020
:1038400070B505460E4614463146284603F020F86A
:1038500003F0CCF901490C8070BD00008000006CC1
:1038600010B5CF2003F0B6F9002003F0A7F9C1206E
:1038700003F0A4F9302003F0A1F9ED2003F0AAF938
:10388000642003F09BF9032003F098F9122003F061
:1038900095F9812003F092F9E82003F09BF9852047
:1038A00003F08CF9102003F089F97A2003F086F9EF
:1038B000CB2003F08FF9392003F080F92C2003F09E
:1038C0007DF9002003F07AF9342003F077F9022023
:1038D00003F074F9F72003F07DF9202003F06EF96E
:1038E000EA2003F077F9002003F068F9002003F0E4
:1038F00065F9C02003F06EF91B2003F05FF9C120C9
:1039000003F068F9012003F059F9C52003F062F9CA
:10391000302003F053F9302003F050F9C72003F0B2
:1039200059F9B72003F04AF9362003F053F948203B
:1039300003F044F93A2003F04DF9552003F03EF925
:10394000B12003F047F9002003F038F91A2003F002
:1039500035F9B62003F03EF90A2003F02FF9A22032
:1039600003F02CF9F22003F035F9002003F026F9DA
:10397000262003F02FF9012003F020F9E02003F0C6
:1039800029F90F2003F01AF92A2003F017F928204B
:1039900003F014F9082003F011F90E2003F00EF9DA
:1039A000082003F00BF9542003F008F9A92003F0D4
:1039B00005F9432003F002F90A2003F0FFF80F2075
:1039C00003F0FCF8002003F0F9F8002003F0F6F80B
:1039D000002003F0F3F8002003F0F0F8E12003F0FA
:1039E000F9F8002003F0EAF8152003F0E7F81720B3
:1039F00003F0E4F8072003F0E1F8112003F0DEF80B
:103A0000062003F0DBF82B2003F0D8F8562003F053
:103A1000D5F83C2003F0D2F8052003F0CFF81020B1
:103A200003F0CCF80F2003F0C9F83F2003F0C6F8EC
:103A30003F2003F0C3F80F2003F0C0F82B2003F061
:103A4000C9F8002003F0BAF8002003F0B7F801200D
:103A500003F0B4F83F2003F0B1F82A2003F0BAF8DD
:103A6000002003F0ABF8002003F0A8F8002003F0DA
:103A7000A5F8EF2003F0A2F8112003F0ABF87820AE
:103A8000FFF7D2FD292003F0A5F810BD10B5FF20E7
:103A900003F0A0F8FF2003F091F8982003F08EF8CF
:103AA000062003F08BF8BC2003F094F8012003F00B
:103AB00085F80F2003F082F8612003F07FF8FF20E3
:103AC00003F07CF8012003F079F8012003F076F888
:103AD0000B2003F073F8102003F070F8372003F088
:103AE0006DF8632003F06AF8FF2003F067F8FF2009
:103AF00003F064F8012003F061F8012003F05EF8A0
:103B0000002003F05BF8002003F058F8FF2003F0DA
:103B100055F8522003F052F8012003F04FF800202E
:103B200003F04CF8402003F049F8BD2003F052F8B0
:103B3000012003F043F8232003F040F8452003F070
:103B40003DF8672003F03AF8012003F037F823200E
:103B500003F034F8452003F031F8672003F02EF825
:103B6000BE2003F037F8002003F028F8012003F00E
:103B700025F8AB2003F022F8602003F01FF8222084
:103B800003F01CF8222003F019F8222003F016F8A5
:103B9000222003F013F8222003F010F8C72003F0CE
:103BA00019F8362003F00AF8ED2003F013F87F200F
:103BB00003F004F80F2003F001F8C02003F00AF826
:103BC0000F2002F0FBFF0B2002F0F8FF0A2002F0AA
:103BD000F5FFFC2002F0FEFF082002F0EFFFDF20DF
:103BE00002F0F8FF002002F0E9FF002002F0E6FFFB
:103BF000002002F0E3FF002002F0E0FF002002F0CE
:103C0000DDFF202002F0DAFFF32002F0E3FF742052
:103C100002F0D4FFB42002F0DDFF002002F0CEFF5E
:103C2000002002F0CBFF002002F0C8FFF72002F0D6
:103C3000D1FF822002F0C2FFB12002F0CBFF0020B2
:103C400002F0BCFF132002F0B9FF132002F0B6FF10
:103C5000F22002F0BFFF802002F0B0FF042002F04B
:103C6000ADFF402002F0AAFF282002F0A7FFC120EC
:103C700002F0B0FF172002F0A1FF882002F09EFFA3
:103C8000882002F09BFF202002F098FFE02002F045
:103C9000A1FF002002F092FF0A2002F08FFF122005
:103CA00002F08CFF102002F089FF0E2002F086FF48
:103CB000202002F083FFCC2002F080FF072002F0DA
:103CC0007DFF062002F07AFF0B2002F077FF0E2026
:103CD00002F074FF0F2002F071FF0D2002F06EFF62
:103CE000152002F06BFF102002F068FF002002F0A8
:103CF00065FFE12002F06EFF002002F05FFF0B2065
:103D000002F05CFF132002F059FF0D2002F056FF75
:103D10000E2002F053FF1B2002F050FF712002F032
:103D20004DFF062002F04AFF062002F047FF0A205E
:103D300002F044FF0F2002F041FF0E2002F03EFF90
:103D40000F2002F03BFF152002F038FF0C2002F09C
:103D500035FF002002F032FF2A2002F03BFF002056
:103D600002F02CFF002002F029FF012002F026FFC4
:103D7000DF2002F023FF2B2002F02CFF002002F0B6
:103D80001DFF002002F01AFF032002F017FF1F2082
:103D900002F014FF3A2002F01DFF552002F00EFF42
:103DA000362002F017FF002002F008FF112002F079
:103DB00011FF7820FFF738FC292002F00BFF1420B8
:103DC000FFF732FC2C2002F005FF10BD10B5ED20EE
:103DD00002F000FF012002F0F1FEFE2002F0EEFEF4
:103DE000EE2002F0F7FEDE2002F0E8FE212002F0D5
:103DF000E5FEF12002F0EEFE012002F0DFFEDF2002
:103E000002F0E8FE102002F0D9FEC42002F0E2FE2B
:103E10008F2002F0D3FEC62002F0DCFE002002F06C
:103E2000CDFEE22002F0CAFEE22002F0C7FEE22050
:103E300002F0C4FEBF2002F0CDFEAA2002F0BEFEBA
:103E4000B02002F0C7FE0D2002F0B8FE002002F004
:103E5000B5FE0D2002F0B2FE002002F0AFFE1120F0
:103E600002F0ACFE002002F0A9FE192002F0A6FE2E
:103E7000002002F0A3FE212002F0A0FE002002F0AC
:103E80009DFE2D2002F09AFE002002F097FE3D20BC
:103E900002F094FE002002F091FE5D2002F08EFE02
:103EA000002002F08BFE5D2002F088FE002002F070
:103EB00085FEB12002F08EFE802002F07FFE002001
:103EC00002F07CFE8B2002F079FE002002F076FEEC
:103ED000962002F073FE002002F070FEB22002F085
:103EE00079FE002002F06AFE002002F067FE022048
:103EF00002F064FE002002F061FE032002F05EFE8C
:103F0000002002F05BFEB32002F064FE002002F00D
:103F100055FE002002F052FE002002F04FFE00206D
:103F200002F04CFE002002F049FE002002F046FEA6
:103F3000002002F043FE002002F040FE002002F0CC
:103F40003DFE002002F03AFE002002F037FE002085
:103F500002F034FE002002F031FE002002F02EFEBE
:103F6000002002F02BFE002002F028FE002002F0CC
:103F700025FE002002F022FE002002F01FFE00209D
:103F800002F01CFE002002F019FE002002F016FED6
:103F9000002002F013FE002002F010FEB42002F018
:103FA00019FE8B2002F00AFE002002F007FE962088
:103FB00002F004FE002002F001FEA12002F0FEFD4E
:103FC000002002F0FBFDB52002F004FE022002F00A
:103FD000F5FD002002F0F2FD032002F0EFFD0020CD
:103FE00002F0ECFD042002F0E9FD002002F0E6FD05
:103FF000B62002F0EFFD002002F0E0FD002002F00C
:10400000DDFDB72002F0E6FD002002F0D7FD002024
:1040100002F0D4FD3F2002F0D1FD002002F0CEFDE1
:104020005E2002F0CBFD002002F0C8FD642002F00B
:10403000C5FD002002F0C2FD8C2002F0BFFD002073
:1040400002F0BCFDAC2002F0B9FD002002F0B6FD8C
:10405000DC2002F0B3FD002002F0B0FD702002F081
:10406000ADFD002002F0AAFD902002F0A7FD002087
:1040700002F0A4FDEB2002F0A1FD002002F09EFD65
:10408000DC2002F09BFD002002F098FDB82002F039
:10409000A1FD002002F092FD002002F08FFD002023
:1040A00002F08CFD002002F089FD002002F086FD68
:1040B000002002F083FD002002F080FD002002F0CD
:1040C0007DFDBA2002F086FD242002F077FD00205D
:1040D00002F074FD002002F071FD002002F06EFD80
:1040E000C12002F077FD202002F068FD002002F0E0
:1040F00065FD542002F062FD002002F05FFDFF200C
:1041000002F05CFD002002F059FDC22002F062FDC9
:104110000A2002F053FD002002F050FD042002F0BE
:104120004DFD002002F04AFDC32002F053FD3C206B
:1041300002F044FD002002F041FD3A2002F03EFD75
:10414000002002F03BFD392002F038FD002002F093
:1041500035FD372002F032FD002002F02FFD3C201B
:1041600002F02CFD002002F029FD362002F026FD91
:10417000002002F023FD322002F020FD002002F09A
:104180001DFD2F2002F01AFD002002F017FD2C204B
:1041900002F014FD002002F011FD292002F00EFDB6
:1041A000002002F00BFD262002F008FD002002F0A6
:1041B00005FD242002F002FD002002F0FFFC242077
:1041C00002F0FCFC002002F0F9FC232002F0F6FCD7
:1041D000002002F0F3FC3C2002F0F0FC002002F092
:1041E000EDFC362002F0EAFC002002F0E7FC322071
:1041F00002F0E4FC002002F0E1FC2F2002F0DEFCE3
:10420000002002F0DBFC2C2002F0D8FC002002F0A1
:10421000D5FC292002F0D2FC002002F0CFFC2620A1
:1042200002F0CCFC002002F0C9FC242002F0C6FC05
:10423000002002F0C3FC242002F0C0FC002002F0A9
:10424000BDFC232002F0BAFC002002F0B7FCC42021
:1042500002F0C0FC622002F0B1FC002002F0AEFCD3
:10426000052002F0ABFC002002F0A8FC842002F044
:10427000A5FC002002F0A2FCF02002F09FFC002030
:1042800002F09CFC182002F099FC002002F096FC41
:10429000A42002F093FC002002F090FC182002F011
:1042A0008DFC002002F08AFC502002F087FC0020E8
:1042B00002F084FC0C2002F081FC002002F07EFC65
:1042C000172002F07BFC002002F078FC952002F021
:1042D00075FC002002F072FCF32002F06FFC00205D
:1042E00002F06CFCE62002F069FC002002F066FCA3
:1042F000C52002F06FFC322002F060FC002002F0CA
:104300005DFC442002F05AFC002002F057FC6520BE
:1043100002F054FC002002F051FC762002F04EFC2A
:10432000002002F04BFC882002F048FC002002F044
:1043300045FCC62002F04EFC202002F03FFC00208D
:1043400002F03CFC172002F039FC002002F036FCA1
:10435000012002F033FC002002F030FCC72002F004
:1043600039FC002002F02AFC002002F027FC00208B
:1043700002F024FC002002F021FCC82002F02AFCFC
:10438000002002F01BFC002002F018FC002002F0CC
:1043900015FC002002F012FCC92002F01BFC0020DA
:1043A00002F00CFC002002F009FC002002F006FCE8
:1043B000002002F003FC002002F000FC002002F0CC
:1043C000FDFB002002F0FAFB002002F0F7FB0020CA
:1043D00002F0F4FB002002F0F1FB002002F0EEFB03
:1043E000002002F0EBFB002002F0E8FB002002F0CE
:1043F000E5FB002002F0E2FB002002F0DFFBE02002
:1044000002F0E8FB162002F0D9FB002002F0D6FBF8
:104410001C2002F0D3FB002002F0D0FB212002F090
:10442000CDFB002002F0CAFB362002F0C7FB0020C3
:1044300002F0C4FB462002F0C1FB002002F0BEFBEC
:10444000522002F0BBFB002002F0B8FB642002F017
:10445000B5FB002002F0B2FB7A2002F0AFFB002097
:1044600002F0ACFB8B2002F0A9FB002002F0A6FBBF
:10447000992002F0A3FB002002F0A0FBA82002F08C
:104480009DFB002002F09AFBB92002F097FB002070
:1044900002F094FBC42002F091FB002002F08EFB9E
:1044A000CA2002F08BFB002002F088FBD22002F031
:1044B00085FB002002F082FBD92002F07FFB002068
:1044C00002F07CFBE02002F079FB002002F076FB9A
:1044D000F32002F073FB002002F070FBE12002F0F9
:1044E00079FB162002F06AFB002002F067FB1C201B
:1044F00002F064FB002002F061FB222002F05EFB70
:10450000002002F05BFB362002F058FB002002F096
:1045100055FB452002F052FB002002F04FFB5220D9
:1045200002F04CFB002002F049FB642002F046FB45
:10453000002002F043FB7A2002F040FB002002F052
:104540003DFB8B2002F03AFB002002F037FB992064
:1045500002F034FB002002F031FBA82002F02EFB19
:10456000002002F02BFBB92002F028FB002002F013
:1045700025FBC42002F022FB002002F01FFBCA2012
:1045800002F01CFB002002F019FBD22002F016FB07
:10459000002002F013FBD82002F010FB002002F0F4
:1045A0000DFBE02002F00AFB002002F007FBF320E5
:1045B00002F004FB002002F001FBE22002F00AFB03
:1045C000052002F0FBFA002002F0F8FA0B2002F0BE
:1045D000F5FA002002F0F2FA1B2002F0EFFA0020B8
:1045E00002F0ECFA342002F0E9FA002002F0E6FAD8
:1045F000442002F0E3FA002002F0E0FA4F2002F03B
:10460000DDFA002002F0DAFA612002F0D7FA002089
:1046100002F0D4FA792002F0D1FA002002F0CEFAAA
:10462000882002F0CBFA002002F0C8FA972002F0AE
:10463000C5FA002002F0C2FAA62002F0BFFA00205C
:1046400002F0BCFAB72002F0B9FA002002F0B6FA84
:10465000C22002F0B3FA002002F0B0FAC72002F044
:10466000ADFA002002F0AAFAD12002F0A7FA002049
:1046700002F0A4FAD62002F0A1FA002002F09EFA7D
:10468000DD2002F09BFA002002F098FAF32002F0FD
:1046900095FA002002F092FAE32002F09BFA05203E
:1046A00002F08CFA002002F089FA0A2002F086FA61
:1046B000002002F083FA1C2002F080FA002002F0B1
:1046C0007DFA332002F07AFA002002F077FA4420D3
:1046D00002F074FA002002F071FA502002F06EFA33
:1046E000002002F06BFA622002F068FA002002F06B
:1046F00065FA782002F062FA002002F05FFA882062
:1047000002F05CFA002002F059FA972002F056FA03
:10471000002002F053FAA62002F050FA002002F026
:104720004DFAB72002F04AFA002002F047FAC22000
:1047300002F044FA002002F041FAC72002F03EFAEB
:10474000002002F03BFAD12002F038FA002002F0FB
:1047500035FAD52002F032FA002002F02FFADD20DF
:1047600002F02CFA002002F029FAF32002F026FAD7
:10477000002002F023FAE42002F02CFA012002F0DB
:104780001DFA002002F01AFA012002F017FA0020A8
:1047900002F014FA022002F011FA002002F00EFAE0
:1047A0002A2002F00BFA002002F008FA3C2002F066
:1047B00005FA002002F002FA4B2002F0FFF9002077
:1047C00002F0FCF95D2002F0F9F9002002F0F6F9A0
:1047D000742002F0F3F9002002F0F0F9842002F0D6
:1047E000EDF9002002F0EAF9932002F0E7F9002049
:1047F00002F0E4F9A22002F0E1F9002002F0DEF973
:10480000B32002F0DBF9002002F0D8F9BE2002F05C
:10481000D5F9002002F0D2F9C42002F0CFF900202F
:1048200002F0CCF9CD2002F0C9F9002002F0C6F95F
:10483000D32002F0C3F9002002F0C0F9DD2002F01D
:10484000BDF9002002F0BAF9F32002F0B7F9002018
:1048500002F0B4F9E52002F0BDF9002002F0AEF953
:10486000002002F0ABF9002002F0A8F9002002F0CD
:10487000A5F9022002F0A2F9002002F09FF92920F8
:1048800002F09CF9002002F099F93C2002F096F920
:10489000002002F093F94B2002F090F9002002F082
:1048A0008DF95D2002F08AF9002002F087F974206A
:1048B00002F084F9002002F081F9842002F07EF9F0
:1048C000002002F07BF9932002F078F9002002F03A
:1048D00075F9A22002F072F9002002F06FF9B320FE
:1048E00002F06CF9002002F069F9BE2002F066F9CE
:1048F000002002F063F9C42002F060F9002002F009
:104900005DF9CD2002F05AF9002002F057F9D320CA
:1049100002F054F9002002F051F9DC2002F04EF9C7
:10492000002002F04BF9F32002F048F9002002F0D9
:1049300045F9E62002F04EF9112002F03FF900207F
:1049400002F03CF9342002F039F9002002F036F987
:10495000562002F033F9002002F030F9762002F000
:104960002DF9002002F02AF9772002F027F9002023
:1049700002F024F9662002F021F9002002F01EF96D
:10498000882002F01BF9002002F018F9992002F0AB
:1049900015F9002002F012F9BB2002F00FF90020F7
:1049A00002F00CF9992002F009F9002002F006F952
:1049B000662002F003F9002002F000F9552002F011
:1049C000FDF8002002F0FAF8552002F0F7F8002078
:1049D00002F0F4F8452002F0F1F8002002F0EEF8C1
:1049E000432002F0EBF8002002F0E8F8442002F047
:1049F000E5F8002002F0E2F8E72002F0EBF83220C0
:104A000002F0DCF8002002F0D9F8552002F0D6F8C8
:104A1000002002F0D3F8762002F0D0F8002002F057
:104A2000CDF8662002F0CAF8002002F0C7F867202F
:104A300002F0C4F8002002F0C1F8672002F0BEF8CE
:104A4000002002F0BBF8872002F0B8F8002002F046
:104A5000B5F8992002F0B2F8002002F0AFF8BB20C0
:104A600002F0ACF8002002F0A9F8992002F0A6F8B4
:104A7000002002F0A3F8772002F0A0F8002002F056
:104A80009DF8442002F09AF8002002F097F8562092
:104A900002F094F8002002F091F8232002F08EF842
:104AA000002002F08BF8332002F088F8002002F09A
:104AB00085F8452002F082F8002002F07FF8E82017
:104AC00002F088F8002002F079F8002002F076F871
:104AD000992002F073F8002002F070F8872002F0AD
:104AE0006DF8002002F06AF8882002F067F80020D4
:104AF00002F064F8772002F061F8002002F05EF81E
:104B0000662002F05BF8002002F058F8882002F0DE
:104B100055F8002002F052F8AA2002F04FF80020C9
:104B200002F04CF8BB2002F049F8002002F046F8F1
:104B3000992002F043F8002002F040F8662002F0CD
:104B40003DF8002002F03AF8552002F037F8002036
:104B500002F034F8552002F031F8002002F02EF86F
:104B6000442002F02BF8002002F028F8442002F044
:104B700025F8002002F022F8552002F01FF800204E
:104B800002F01CF8E92002F025F8AA2002F016F83D
:104B9000002002F013F8002002F010F8002002F0CC
:104BA0000DF8002002F016F8AA2002F007F8CF2036
:104BB00002F010F8002002F001F8002001F0FEFFE2
:104BC000002001F0FBFF002001F0F8FF002001F0C1
:104BD000F5FF002001F0F2FF002001F0EFFF0020C0
:104BE00001F0ECFF002001F0E9FF002001F0E6FFFA
:104BF000002001F0E3FF002001F0E0FF002001F0C1
:104C0000DDFF002001F0DAFF002001F0D7FF0020D7
:104C100001F0D4FF002001F0D1FFF02001F0DAFF15
:104C2000002001F0CBFF502001F0C8FF002001F070
:104C3000C5FF002001F0C2FF002001F0BFFFF320FC
:104C400001F0C8FF002001F0B9FFF92001F0C2FF18
:104C5000062001F0B3FF102001F0B0FF292001F081
:104C6000ADFF002001F0AAFF3A2001F0B3FF55206C
:104C700001F0A4FF112001F0ADFF6420FEF7D4FC89
:104C8000292001F0A7FF352001F0A4FF002001F04A
:104C900095FF512001F09EFFFF2001F08FFF532070
:104CA00001F098FF2C2001F089FF552001F092FFC0
:104CB000822001F083FF2C2001F08CFF10BD10B585
:104CC00055214FF4704001F09BFFAA214FF20100E3
:104CD00001F096FF52214FF2020001F091FF0821EE
:104CE0004FF2030001F08CFF01214FF2040001F0AC
:104CF00087FF34214FF4364001F082FF34214BF21C
:104D0000016001F07DFF34214BF2026001F078FF79
:104D10000D214FF4304001F073FF0D214BF20100E3
:104D200001F06EFF0D214BF2020001F069FF24211A
:104D30004FF4374001F064FF24214BF2017001F081
:104D40005FFF24214BF2027001F05AFF0D214FF456
:104D5000314001F055FF0D214BF2011001F050FFE1
:104D60000D214BF2021001F04BFF24214FF438408B
:104D700001F046FF24214BF6010001F041FF242100
:104D80004BF6020001F03CFF00214FF4324001F0ED
:104D900037FF24214FF4394001F032FF24214BF634
:104DA000011001F02DFF24214BF6021001F028FF25
:104DB00005214FF4334001F023FF05214BF2013070
:104DC00001F01EFF05214BF2023001F019FF3421E2
:104DD0004FF43A4001F014FF34214BF6012001F06A
:104DE0000FFF34214BF6022001F00AFF0B214FF494
:104DF000354001F005FF0B214BF2015001F000FF9F
:104E00000B214BF2025001F0FBFE00214FF43C401D
:104E100001F0F6FEA3214BF6014001F0F1FE002166
:104E20004BF6024001F0ECFE00214FF43D4001F052
:104E3000E7FEA3214BF6015001F0E2FE00214BF604
:104E4000025001F0DDFE00214FF43E4001F0D8FE9B
:104E500037214BF6016001F0D3FE00214FF45140A1
:104E600001F0CEFE37214DF2011001F0C9FE002104
:104E70004DF2021001F0C4FE53214DF2031001F077
:104E8000BFFE00214DF2041001F0BAFE79214DF26F
:104E9000051001F0B5FE00214DF2061001F0B0FE44
:104EA00097214DF2071001F0ABFE00214DF20810E2
:104EB00001F0A6FEB1214DF2091001F0A1FE002182
:104EC0004DF20A1001F09CFED5214DF20B1001F0BD
:104ED00097FE00214DF20C1001F092FEF4214DF2EC
:104EE0000D1001F08DFE01214DF20E1001F088FE33
:104EF00023214DF20F1001F083FE01214DF210101D
:104F000001F07EFE49214DF2111001F079FE0121E0
:104F10004DF2121001F074FE87214DF2131001F0D2
:104F20006FFE01214DF2141001F06AFEB6214DF220
:104F3000151001F065FE02214DF2161001F060FE21
:104F400000214DF2171001F05BFE02214DF2181006
:104F500001F056FE3B214DF2191001F051FE0221E5
:104F60004DF21A1001F04CFE3D214DF21B1001F0E4
:104F700047FE02214DF21C1001F042FE75214DF258
:104F80001D1001F03DFE02214DF21E1001F038FE11
:104F9000B1214DF21F1001F033FE02214DF220101D
:104FA00001F02EFED5214DF2211001F029FE032142
:104FB0004DF2221001F024FE09214DF2231001F0E0
:104FC0001FFE03214DF2241001F01AFE28214DF29C
:104FD000251001F015FE03214DF2261001F010FE00
:104FE00052214DF2271001F00BFE03214DF2281043
:104FF00001F006FE6B214DF2291001F001FE0321A4
:105000004DF22A1001F0FCFD8D214DF22B1001F024
:10501000F7FD03214DF22C1001F0F2FDA2214DF21B
:105020002D1001F0EDFD03214DF22E1001F0E8FDF1
:10503000BB214DF22F1001F0E3FD03214DF23010A2
:1050400001F0DEFDC1214DF2311001F0D9FD032147
:105050004DF2321001F0D4FDC1214DF2331001F0B8
:10506000CFFD00214FF4524001F0CAFD37214DF22F
:10507000012001F0C5FD00214DF2022001F0C0FD2C
:1050800053214DF2032001F0BBFD00214DF204201D
:1050900001F0B6FD79214DF2052001F0B1FD0021AE
:1050A0004DF2062001F0ACFD97214DF2072001F0F2
:1050B000A7FD00214DF2082001F0A2FDB1214DF223
:1050C000092001F09DFD00214DF20A2001F098FD1C
:1050D000D5214DF20B2001F093FD00214DF20C2063
:1050E00001F08EFDF4214DF20D2001F089FD01212A
:1050F0004DF20E2001F084FD23214DF20F2001F02E
:105100007FFD01214DF2102001F07AFD49214DF281
:10511000112001F075FD01214DF2122001F070FD0A
:1051200087214DF2132001F06BFD01214DF2142077
:1051300001F066FDB6214DF2152001F061FD02215E
:105140004DF2162001F05CFD00214DF2172001F018
:1051500057FD02214DF2182001F052FD3B214DF286
:10516000192001F04DFD02214DF21A2001F048FDF9
:105170003D214DF21B2001F043FD02214DF21C2088
:1051800001F03EFD75214DF21D2001F039FD022197
:105190004DF21E2001F034FDB1214DF21F2001F02F
:1051A0002FFD02214DF2202001F02AFDD5214DF2E4
:1051B000212001F025FD03214DF2222001F020FDE8
:1051C00009214DF2232001F01BFD03214DF2242083
:1051D00001F016FD28214DF2252001F011FD0321DB
:1051E0004DF2262001F00CFD52214DF2272001F056
:1051F00007FD03214DF2282001F002FD6B214DF245
:10520000292001F0FDFC03214DF22A2001F0F8FCD9
:105210008D214DF22B2001F0F3FC03214DF22C20C7
:1052200001F0EEFCA2214DF22D2001F0E9FC03215A
:105230004DF22E2001F0E4FCBB214DF22F2001F0B5
:10524000DFFC03214DF2302001F0DAFCC1214DF2E8
:10525000312001F0D5FC03214DF2322001F0D0FCC9
:10526000C1214DF2332001F0CBFC00214FF453401B
:1052700001F0C6FC37214DF2013001F0C1FC0021E4
:105280004DF2023001F0BCFC53214DF2033001F02D
:10529000B7FC00214DF2043001F0B2FC79214DF24F
:1052A000053001F0ADFC00214DF2063001F0A8FC04
:1052B00097214DF2073001F0A3FC00214DF2083098
:1052C00001F09EFCB1214DF2093001F099FC002162
:1052D0004DF20A3001F094FCD5214DF20B3001F073
:1052E0008FFC00214DF20C3001F08AFCF4214DF2CC
:1052F0000D3001F085FC01214DF20E3001F080FCF3
:1053000023214DF20F3001F07BFC01214DF21030D2
:1053100001F076FC49214DF2113001F071FC0121C0
:105320004DF2123001F06CFC87214DF2133001F088
:1053300067FC01214DF2143001F062FCB6214DF200
:10534000153001F05DFC02214DF2163001F058FCE1
:1053500000214DF2173001F053FC02214DF21830BC
:1053600001F04EFC3B214DF2193001F049FC0221C5
:105370004DF21A3001F044FC3D214DF21B3001F09A
:105380003FFC02214DF21C3001F03AFC75214DF238
:105390001D3001F035FC02214DF21E3001F030FCD1
:1053A000B1214DF21F3001F02BFC02214DF22030D3
:1053B00001F026FCD5214DF2213001F021FC032122
:1053C0004DF2223001F01CFC09214DF2233001F096
:1053D00017FC03214DF2243001F012FC28214DF27C
:1053E000253001F00DFC03214DF2263001F008FCC0
:1053F00052214DF2273001F003FC03214DF22830F9
:1054000001F0FEFB6B214DF2293001F0F9FB032185
:105410004DF22A3001F0F4FB8D214DF22B3001F0DA
:10542000EFFB03214DF22C3001F0EAFBA2214DF2FB
:105430002D3001F0E5FB03214DF22E3001F0E0FBB1
:10544000BB214DF22F3001F0DBFB03214DF2303058
:1054500001F0D6FBC1214DF2313001F0D1FB032127
:105460004DF2323001F0CCFBC1214DF2333001F06E
:10547000C7FB00214FF4544001F0C2FB37214DF22D
:10548000014001F0BDFB00214DF2024001F0B8FBEC
:1054900053214DF2034001F0B3FB00214DF20440D3
:1054A00001F0AEFB79214DF2054001F0A9FB00218E
:1054B0004DF2064001F0A4FB97214DF2074001F0A8
:1054C0009FFB00214DF2084001F09AFBB1214DF203
:1054D000094001F095FB00214DF20A4001F090FBDC
:1054E000D5214DF20B4001F08BFB00214DF20C4019
:1054F00001F086FBF4214DF20D4001F081FB01210A
:105500004DF20E4001F07CFB23214DF20F4001F0E3
:1055100077FB01214DF2104001F072FB49214DF261
:10552000114001F06DFB01214DF2124001F068FBCA
:1055300087214DF2134001F063FB01214DF214402D
:1055400001F05EFBB6214DF2154001F059FB02213E
:105550004DF2164001F054FB00214DF2174001F0CE
:105560004FFB02214DF2184001F04AFB3B214DF266
:10557000194001F045FB02214DF21A4001F040FBB9
:105580003D214DF21B4001F03BFB02214DF21C403E
:1055900001F036FB75214DF21D4001F031FB022177
:1055A0004DF21E4001F02CFBB1214DF21F4001F0E5
:1055B00027FB02214DF2204001F022FBD5214DF2C4
:1055C000214001F01DFB03214DF2224001F018FBA8
:1055D00009214DF2234001F013FB03214DF2244039
:1055E00001F00EFB28214DF2254001F009FB0321BB
:1055F0004DF2264001F004FB52214DF2274001F00C
:10560000FFFA03214DF2284001F0FAFA6B214DF226
:10561000294001F0F5FA03214DF22A4001F0F0FA99
:105620008D214DF22B4001F0EBFA03214DF22C407D
:1056300001F0E6FAA2214DF22D4001F0E1FA03213A
:105640004DF22E4001F0DCFABB214DF22F4001F06B
:10565000D7FA03214DF2304001F0D2FAC1214DF2C8
:10566000314001F0CDFA03214DF2324001F0C8FA89
:10567000C1214DF2334001F0C3FA00214FF45540EF
:1056800001F0BEFA37214DF2015001F0B9FA0021C4
:105690004DF2025001F0B4FA53214DF2035001F0E3
:1056A000AFFA00214DF2045001F0AAFA79214DF22F
:1056B000055001F0A5FA00214DF2065001F0A0FAC4
:1056C00097214DF2075001F09BFA00214DF208504E
:1056D00001F096FAB1214DF2095001F091FA002142
:1056E0004DF20A5001F08CFAD5214DF20B5001F029
:1056F00087FA00214DF20C5001F082FAF4214DF2AC
:105700000D5001F07DFA01214DF20E5001F078FAB2
:1057100023214DF20F5001F073FA01214DF2105088
:1057200001F06EFA49214DF2115001F069FA0121A0
:105730004DF2125001F064FA87214DF2135001F03E
:105740005FFA01214DF2145001F05AFAB6214DF2E0
:10575000155001F055FA02214DF2165001F050FAA1
:1057600000214DF2175001F04BFA02214DF2185072
:1057700001F046FA3B214DF2195001F041FA0221A5
:105780004DF21A5001F03CFA3D214DF21B5001F050
:1057900037FA02214DF21C5001F032FA75214DF218
:1057A0001D5001F02DFA02214DF21E5001F028FA91
:1057B000B1214DF21F5001F023FA02214DF2205089
:1057C00001F01EFAD5214DF2215001F019FA032102
:1057D0004DF2225001F014FA09214DF2235001F04C
:1057E0000FFA03214DF2245001F00AFA28214DF25C
:1057F000255001F005FA03214DF2265001F000FA80
:1058000052214DF2275001F0FBF903214DF22850AF
:1058100001F0F6F96B214DF2295001F0F1F9032165
:105820004DF22A5001F0ECF98D214DF22B5001F090
:10583000E7F903214DF22C5001F0E2F9A2214DF2DB
:105840002D5001F0DDF903214DF22E5001F0D8F971
:10585000BB214DF22F5001F0D3F903214DF230500E
:1058600001F0CEF9C1214DF2315001F0C9F9032107
:105870004DF2325001F0C4F9C1214DF2335001F024
:10588000BFF900214FF4564001F0BAF937214DF22B
:10589000016001F0B5F900214DF2026001F0B0F9AC
:1058A00053214DF2036001F0ABF900214DF2046089
:1058B00001F0A6F979214DF2056001F0A1F900216E
:1058C0004DF2066001F09CF997214DF2076001F05E
:1058D00097F900214DF2086001F092F9B1214DF2E3
:1058E000096001F08DF900214DF20A6001F088F99C
:1058F000D5214DF20B6001F083F900214DF20C60CF
:1059000001F07EF9F4214DF20D6001F079F90121E9
:105910004DF20E6001F074F923214DF20F6001F099
:105920006FF901214DF2106001F06AF949214DF241
:10593000116001F065F901214DF2126001F060F98A
:1059400087214DF2136001F05BF901214DF21460E3
:1059500001F056F9B6214DF2156001F051F902211E
:105960004DF2166001F04CF900214DF2176001F084
:1059700047F902214DF2186001F042F93B214DF246
:10598000196001F03DF902214DF21A6001F038F979
:105990003D214DF21B6001F033F902214DF21C60F4
:1059A00001F02EF975214DF21D6001F029F9022157
:1059B0004DF21E6001F024F9B1214DF21F6001F09B
:1059C0001FF902214DF2206001F01AF9D5214DF2A4
:1059D000216001F015F903214DF2226001F010F968
:1059E00009214DF2236001F00BF903214DF22460EF
:1059F00001F006F928214DF2256001F001F903219B
:105A00004DF2266001F0FCF852214DF2276001F0C2
:105A1000F7F803214DF2286001F0F2F86B214DF206
:105A2000296001F0EDF803214DF22A6001F0E8F859
:105A30008D214DF22B6001F0E3F803214DF22C6033
:105A400001F0DEF8A2214DF22D6001F0D9F803211A
:105A50004DF22E6001F0D4F8BB214DF22F6001F021
:105A6000CFF803214DF2306001F0CAF8C1214DF2A8
:105A7000316001F0C5F803214DF2326001F0C0F849
:105A8000C1214DF2336001F0BBF855214FF4704055
:105A900001F0B6F8AA214FF2010001F0B1F852214D
:105AA0004FF2020001F0ACF808214FF2030001F0C0
:105AB000A7F800214FF2040001F0A2F800214FF4F2
:105AC000304001F09DF805214BF2010001F098F8FB
:105AD00002214BF2020001F093F805214BF2030082
